{
  "contractName": "AddGameInfo",
  "abi": [
    {
      "inputs": [],
      "stateMutability": "nonpayable",
      "type": "constructor"
    },
    {
      "anonymous": false,
      "inputs": [
        {
          "indexed": true,
          "internalType": "bytes32",
          "name": "id",
          "type": "bytes32"
        }
      ],
      "name": "ChainlinkCancelled",
      "type": "event"
    },
    {
      "anonymous": false,
      "inputs": [
        {
          "indexed": true,
          "internalType": "bytes32",
          "name": "id",
          "type": "bytes32"
        }
      ],
      "name": "ChainlinkFulfilled",
      "type": "event"
    },
    {
      "anonymous": false,
      "inputs": [
        {
          "indexed": true,
          "internalType": "bytes32",
          "name": "id",
          "type": "bytes32"
        }
      ],
      "name": "ChainlinkRequested",
      "type": "event"
    },
    {
      "inputs": [
        {
          "internalType": "int256",
          "name": "",
          "type": "int256"
        }
      ],
      "name": "currencyList",
      "outputs": [
        {
          "internalType": "bytes32",
          "name": "name",
          "type": "bytes32"
        },
        {
          "internalType": "bytes32",
          "name": "fullName",
          "type": "bytes32"
        },
        {
          "internalType": "bytes32",
          "name": "overviewUrl",
          "type": "bytes32"
        },
        {
          "internalType": "bytes32",
          "name": "assetLaunchDate",
          "type": "bytes32"
        },
        {
          "internalType": "bytes32",
          "name": "logoUrl",
          "type": "bytes32"
        },
        {
          "internalType": "bytes",
          "name": "currencyIntro",
          "type": "bytes"
        }
      ],
      "stateMutability": "view",
      "type": "function"
    },
    {
      "inputs": [],
      "name": "currencyQuantity",
      "outputs": [
        {
          "internalType": "int256",
          "name": "",
          "type": "int256"
        }
      ],
      "stateMutability": "view",
      "type": "function"
    },
    {
      "inputs": [],
      "name": "dailyGameQuantity",
      "outputs": [
        {
          "internalType": "int256",
          "name": "",
          "type": "int256"
        }
      ],
      "stateMutability": "view",
      "type": "function"
    },
    {
      "inputs": [
        {
          "internalType": "int256",
          "name": "",
          "type": "int256"
        }
      ],
      "name": "gameList",
      "outputs": [
        {
          "internalType": "int256",
          "name": "questionId",
          "type": "int256"
        },
        {
          "internalType": "int256",
          "name": "currencyId",
          "type": "int256"
        },
        {
          "internalType": "uint256",
          "name": "revealTime",
          "type": "uint256"
        },
        {
          "internalType": "int256",
          "name": "lifeLengthId",
          "type": "int256"
        },
        {
          "internalType": "string",
          "name": "property",
          "type": "string"
        },
        {
          "internalType": "bool",
          "name": "isActivity",
          "type": "bool"
        },
        {
          "internalType": "bool",
          "name": "isClose",
          "type": "bool"
        }
      ],
      "stateMutability": "view",
      "type": "function"
    },
    {
      "inputs": [
        {
          "internalType": "int256",
          "name": "",
          "type": "int256"
        }
      ],
      "name": "lifeLengthList",
      "outputs": [
        {
          "internalType": "int256",
          "name": "lifeLength",
          "type": "int256"
        },
        {
          "internalType": "int256",
          "name": "gameQuantity",
          "type": "int256"
        },
        {
          "internalType": "string",
          "name": "title",
          "type": "string"
        }
      ],
      "stateMutability": "view",
      "type": "function"
    },
    {
      "inputs": [],
      "name": "monthlyGameQuantity",
      "outputs": [
        {
          "internalType": "int256",
          "name": "",
          "type": "int256"
        }
      ],
      "stateMutability": "view",
      "type": "function"
    },
    {
      "inputs": [
        {
          "internalType": "int256",
          "name": "",
          "type": "int256"
        },
        {
          "internalType": "int256",
          "name": "",
          "type": "int256"
        }
      ],
      "name": "optionsList",
      "outputs": [
        {
          "internalType": "int256",
          "name": "optionsContet",
          "type": "int256"
        },
        {
          "internalType": "int256",
          "name": "userQuantity",
          "type": "int256"
        }
      ],
      "stateMutability": "view",
      "type": "function"
    },
    {
      "inputs": [
        {
          "internalType": "int256",
          "name": "",
          "type": "int256"
        }
      ],
      "name": "propertyList",
      "outputs": [
        {
          "internalType": "string",
          "name": "",
          "type": "string"
        }
      ],
      "stateMutability": "view",
      "type": "function"
    },
    {
      "inputs": [
        {
          "internalType": "int256",
          "name": "",
          "type": "int256"
        }
      ],
      "name": "questionList",
      "outputs": [
        {
          "internalType": "string",
          "name": "questionName",
          "type": "string"
        },
        {
          "internalType": "string",
          "name": "questionDescription",
          "type": "string"
        }
      ],
      "stateMutability": "view",
      "type": "function"
    },
    {
      "inputs": [],
      "name": "rand_b",
      "outputs": [
        {
          "internalType": "int256",
          "name": "",
          "type": "int256"
        }
      ],
      "stateMutability": "view",
      "type": "function"
    },
    {
      "inputs": [],
      "name": "randomNum",
      "outputs": [
        {
          "internalType": "uint256",
          "name": "",
          "type": "uint256"
        }
      ],
      "stateMutability": "view",
      "type": "function"
    },
    {
      "inputs": [],
      "name": "reqID_VRF",
      "outputs": [
        {
          "internalType": "bytes32",
          "name": "",
          "type": "bytes32"
        }
      ],
      "stateMutability": "view",
      "type": "function"
    },
    {
      "inputs": [],
      "name": "weeklyGameQuantity",
      "outputs": [
        {
          "internalType": "int256",
          "name": "",
          "type": "int256"
        }
      ],
      "stateMutability": "view",
      "type": "function"
    },
    {
      "inputs": [],
      "name": "makeCurrencyList",
      "outputs": [],
      "stateMutability": "nonpayable",
      "type": "function"
    },
    {
      "inputs": [],
      "name": "getCurrencyList",
      "outputs": [],
      "stateMutability": "nonpayable",
      "type": "function"
    },
    {
      "inputs": [],
      "name": "getRandom",
      "outputs": [
        {
          "internalType": "uint256",
          "name": "",
          "type": "uint256"
        }
      ],
      "stateMutability": "nonpayable",
      "type": "function"
    },
    {
      "inputs": [
        {
          "internalType": "int256",
          "name": "_questionId",
          "type": "int256"
        },
        {
          "internalType": "int256",
          "name": "_gameId",
          "type": "int256"
        }
      ],
      "name": "makeOptions",
      "outputs": [],
      "stateMutability": "nonpayable",
      "type": "function"
    },
    {
      "inputs": [],
      "name": "makeDailyGame",
      "outputs": [],
      "stateMutability": "nonpayable",
      "type": "function"
    },
    {
      "inputs": [
        {
          "internalType": "bytes32",
          "name": "_bytes32",
          "type": "bytes32"
        }
      ],
      "name": "bytes32ToString",
      "outputs": [
        {
          "internalType": "string",
          "name": "",
          "type": "string"
        }
      ],
      "stateMutability": "nonpayable",
      "type": "function"
    },
    {
      "inputs": [
        {
          "internalType": "int256",
          "name": "_gameId",
          "type": "int256"
        }
      ],
      "name": "getAnswer",
      "outputs": [],
      "stateMutability": "nonpayable",
      "type": "function"
    },
    {
      "inputs": [],
      "name": "returnAnswer",
      "outputs": [
        {
          "internalType": "uint256",
          "name": "",
          "type": "uint256"
        }
      ],
      "stateMutability": "view",
      "type": "function"
    },
    {
      "inputs": [
        {
          "internalType": "int256",
          "name": "_gameId",
          "type": "int256"
        },
        {
          "internalType": "address",
          "name": "_userAddress",
          "type": "address"
        },
        {
          "internalType": "int256",
          "name": "_optionId",
          "type": "int256"
        }
      ],
      "name": "addParticipant",
      "outputs": [],
      "stateMutability": "nonpayable",
      "type": "function"
    }
  ],
  "bytecode": "0x6080604052600160045573a580d0ef1d8bdefdcd06059f3b81d305778ab617601360006101000a81548173ffffffffffffffffffffffffffffffffffffffff021916908373ffffffffffffffffffffffffffffffffffffffff160217905550601360009054906101000a900473ffffffffffffffffffffffffffffffffffffffff16601460006101000a81548173ffffffffffffffffffffffffffffffffffffffff021916908373ffffffffffffffffffffffffffffffffffffffff160217905550736f33ed84c014f72d23240b9ed589959a8c226c76601560006101000a81548173ffffffffffffffffffffffffffffffffffffffff021916908373ffffffffffffffffffffffffffffffffffffffff160217905550601360009054906101000a900473ffffffffffffffffffffffffffffffffffffffff16601660006101000a81548173ffffffffffffffffffffffffffffffffffffffff021916908373ffffffffffffffffffffffffffffffffffffffff1602179055507340c7b80e812a3683d651db8b38278a256f51362d601760006101000a81548173ffffffffffffffffffffffffffffffffffffffff021916908373ffffffffffffffffffffffffffffffffffffffff160217905550601760009054906101000a900473ffffffffffffffffffffffffffffffffffffffff16601860006101000a81548173ffffffffffffffffffffffffffffffffffffffff021916908373ffffffffffffffffffffffffffffffffffffffff1602179055503480156200023e57600080fd5b506200024f620005e860201b60201c565b6040518060400160405280600581526020017f505249434500000000000000000000000000000000000000000000000000000081525060126000600181526020019081526020016000206000019080519060200190620002b1929190620006d6565b506040518060600160405280602e815260200162002ff1602e913960126000600181526020019081526020016000206001019080519060200190620002f8929190620006d6565b506040518060400160405280600681526020017f564f4c554d450000000000000000000000000000000000000000000000000000815250601260006002815260200190815260200160002060000190805190602001906200035b929190620006d6565b506040518060600160405280602681526020016200301f6026913960126000600281526020019081526020016000206001019080519060200190620003a2929190620006d6565b506040518060400160405280600f81526020017f43727970746f2043757272656e637900000000000000000000000000000000008152506010600060018152602001908152602001600020908051906020019062000402929190620006d6565b506001601160006001815260200190815260200160002060000181905550601e6011600060018152602001908152602001600020600101819055506040518060400160405280600581526020017f4461696c79000000000000000000000000000000000000000000000000000000815250601160006001815260200190815260200160002060020190805190602001906200049f929190620006d6565b50600760116000600281526020019081526020016000206000018190555060046011600060028152602001908152602001600020600101819055506040518060400160405280600681526020017f5765656b6c790000000000000000000000000000000000000000000000000000815250601160006002815260200190815260200160002060020190805190602001906200053c929190620006d6565b50601e60116000600381526020019081526020016000206000018190555060016011600060038152602001908152602001600020600101819055506040518060400160405280600781526020017f4d6f6e74686c790000000000000000000000000000000000000000000000000081525060116000600381526020019081526020016000206002019080519060200190620005d9929190620006d6565b50600a60068190555062000785565b6200069073c89bd4e1632d3a43cb03aaad5262cbe4038bc57173ffffffffffffffffffffffffffffffffffffffff166338cc48316040518163ffffffff1660e01b815260040160206040518083038186803b1580156200064757600080fd5b505afa1580156200065c573d6000803e3d6000fd5b505050506040513d60208110156200067357600080fd5b81019080805190602001909291905050506200069260201b60201c565b565b80600260006101000a81548173ffffffffffffffffffffffffffffffffffffffff021916908373ffffffffffffffffffffffffffffffffffffffff16021790555050565b828054600181600116156101000203166002900490600052602060002090601f016020900481019282601f106200071957805160ff19168380011785556200074a565b828001600101855582156200074a579182015b82811115620007495782518255916020019190600101906200072c565b5b5090506200075991906200075d565b5090565b6200078291905b808211156200077e57600081600090555060010162000764565b5090565b90565b61285c80620007956000396000f3fe608060405234801561001057600080fd5b50600436106101425760003560e01c80637ce6a0fb116100b8578063d17f7b0d1161007c578063d17f7b0d1461064a578063dc7c155f14610654578063e50f4c0b14610672578063f1feff341461074b578063f2ce4dc014610815578063f630aa651461081f57610142565b80637ce6a0fb1461053f5780639201de551461055d578063aacc5a1714610604578063c3f449c914610622578063c67a3d931461062c57610142565b80633f5693b21161010a5780633f5693b2146103ca57806349400fba146103e8578063494ca322146104065780636a2224671461043e5780636c1c38ae1461046c5780637421a2061461048a57610142565b8063071c54431461014757806322c0391f1461019a57806332d4e5ec146101f25780633c8130e3146102995780633cb10333146103ac575b600080fd5b61017d6004803603604081101561015d57600080fd5b81019080803590602001909291908035906020019092919050505061083d565b604051808381526020018281526020019250505060405180910390f35b6101f0600480360360608110156101b057600080fd5b8101908080359060200190929190803573ffffffffffffffffffffffffffffffffffffffff1690602001909291908035906020019092919050505061086e565b005b61021e6004803603602081101561020857600080fd5b81019080803590602001909291905050506108fb565b6040518080602001828103825283818151815260200191508051906020019080838360005b8381101561025e578082015181840152602081019050610243565b50505050905090810190601f16801561028b5780820380516001836020036101000a031916815260200191505b509250505060405180910390f35b6102c5600480360360208110156102af57600080fd5b81019080803590602001909291905050506109ab565b604051808060200180602001838103835285818151815260200191508051906020019080838360005b838110156103095780820151818401526020810190506102ee565b50505050905090810190601f1680156103365780820380516001836020036101000a031916815260200191505b50838103825284818151815260200191508051906020019080838360005b8381101561036f578082015181840152602081019050610354565b50505050905090810190601f16801561039c5780820380516001836020036101000a031916815260200191505b5094505050505060405180910390f35b6103b4610aff565b6040518082815260200191505060405180910390f35b6103d2610b05565b6040518082815260200191505060405180910390f35b6103f0610b0b565b6040518082815260200191505060405180910390f35b61043c6004803603604081101561041c57600080fd5b810190808035906020019092919080359060200190929190505050610b11565b005b61046a6004803603602081101561045457600080fd5b8101908080359060200190929190505050610d84565b005b61047461151b565b6040518082815260200191505060405180910390f35b6104b6600480360360208110156104a057600080fd5b8101908080359060200190929190505050611521565b6040518084815260200183815260200180602001828103825283818151815260200191508051906020019080838360005b838110156105025780820151818401526020810190506104e7565b50505050905090810190601f16801561052f5780820380516001836020036101000a031916815260200191505b5094505050505060405180910390f35b6105476115e3565b6040518082815260200191505060405180910390f35b6105896004803603602081101561057357600080fd5b81019080803590602001909291905050506115e9565b6040518080602001828103825283818151815260200191508051906020019080838360005b838110156105c95780820151818401526020810190506105ae565b50505050905090810190601f1680156105f65780820380516001836020036101000a031916815260200191505b509250505060405180910390f35b61060c61175d565b6040518082815260200191505060405180910390f35b61062a611ad4565b005b610634611c72565b6040518082815260200191505060405180910390f35b610652611c77565b005b61065c611f22565b6040518082815260200191505060405180910390f35b61069e6004803603602081101561068857600080fd5b8101908080359060200190929190505050611f28565b60405180888152602001878152602001868152602001858152602001806020018415151515815260200183151515158152602001828103825285818151815260200191508051906020019080838360005b8381101561070a5780820151818401526020810190506106ef565b50505050905090810190601f1680156107375780820380516001836020036101000a031916815260200191505b509850505050505050505060405180910390f35b6107776004803603602081101561076157600080fd5b810190808035906020019092919050505061201c565b6040518087815260200186815260200185815260200184815260200183815260200180602001828103825283818151815260200191508051906020019080838360005b838110156107d55780820151818401526020810190506107ba565b50505050905090810190601f1680156108025780820380516001836020036101000a031916815260200191505b5097505050505050505060405180910390f35b61081d6120f0565b005b61082761268e565b6040518082815260200191505060405180910390f35b600f602052816000526040600020602052806000526040600020600091509150508060000154908060010154905082565b600f60008481526020019081526020016000206000828152602001908152602001600020600201829080600181540180825580915050600190039060005260206000200160009091909190916101000a81548173ffffffffffffffffffffffffffffffffffffffff021916908373ffffffffffffffffffffffffffffffffffffffff160217905550505050565b60106020528060005260406000206000915090508054600181600116156101000203166002900480601f0160208091040260200160405190810160405280929190818152602001828054600181600116156101000203166002900480156109a35780601f10610978576101008083540402835291602001916109a3565b820191906000526020600020905b81548152906001019060200180831161098657829003601f168201915b505050505081565b6012602052806000526040600020600091509050806000018054600181600116156101000203166002900480601f016020809104026020016040519081016040528092919081815260200182805460018160011615610100020316600290048015610a575780601f10610a2c57610100808354040283529160200191610a57565b820191906000526020600020905b815481529060010190602001808311610a3a57829003601f168201915b505050505090806001018054600181600116156101000203166002900480601f016020809104026020016040519081016040528092919081815260200182805460018160011615610100020316600290048015610af55780601f10610aca57610100808354040283529160200191610af5565b820191906000526020600020905b815481529060010190602001808311610ad857829003601f168201915b5050505050905082565b60085481565b60095481565b60075481565b6001821415610ceb576001600f6000838152602001908152602001600020600060018152602001908152602001600020600001819055506002600f6000838152602001908152602001600020600060028152602001908152602001600020600001819055506003600f6000838152602001908152602001600020600060038152602001908152602001600020600001819055506004600f6000838152602001908152602001600020600060048152602001908152602001600020600001819055506005600f6000838152602001908152602001600020600060058152602001908152602001600020600001819055506006600f6000838152602001908152602001600020600060068152602001908152602001600020600001819055506007600f6000838152602001908152602001600020600060078152602001908152602001600020600001819055506008600f6000838152602001908152602001600020600060088152602001908152602001600020600001819055506009600f6000838152602001908152602001600020600060098152602001908152602001600020600001819055506000600f60008381526020019081526020016000206000600a815260200190815260200160002060000181905550610d80565b6002821415610d7f576000600f6000838152602001908152602001600020600060018152602001908152602001600020600001819055506001600f6000838152602001908152602001600020600060028152602001908152602001600020600001819055506002600f6000838152602001908152602001600020600060038152602001908152602001600020600001819055505b5b5050565b60608060006060610dc0600d6000600e6000898152602001908152602001600020600101548152602001908152602001600020600001546115e9565b90506040518060600160405280603c81526020016127eb603c913993506040518060400160405280600a81526020017f267473796d733d5553440000000000000000000000000000000000000000000081525092506000610e1f612694565b90508073ffffffffffffffffffffffffffffffffffffffff1663a9059cbb601560009054906101000a900473ffffffffffffffffffffffffffffffffffffffff168373ffffffffffffffffffffffffffffffffffffffff166370a08231306040518263ffffffff1660e01b8152600401808273ffffffffffffffffffffffffffffffffffffffff1673ffffffffffffffffffffffffffffffffffffffff16815260200191505060206040518083038186803b158015610edd57600080fd5b505afa158015610ef1573d6000803e3d6000fd5b505050506040513d6020811015610f0757600080fd5b81019080805190602001909291905050506040518363ffffffff1660e01b8152600401808373ffffffffffffffffffffffffffffffffffffffff1673ffffffffffffffffffffffffffffffffffffffff16815260200182815260200192505050602060405180830381600087803b158015610f8157600080fd5b505af1158015610f95573d6000803e3d6000fd5b505050506040513d6020811015610fab57600080fd5b810190808051906020019092919050505061102e576040517f08c379a00000000000000000000000000000000000000000000000000000000081526004018080602001828103825260128152602001807f556e61626c6520746f207472616e73666572000000000000000000000000000081525060200191505060405180910390fd5b601660009054906101000a900473ffffffffffffffffffffffffffffffffffffffff1673ffffffffffffffffffffffffffffffffffffffff1663a8f2c5258360126000600e60008c8152602001908152602001600020600001548152602001908152602001600020600001601660009054906101000a900473ffffffffffffffffffffffffffffffffffffffff1673ffffffffffffffffffffffffffffffffffffffff16636b190f708a888b6040518463ffffffff1660e01b815260040180806020018060200180602001848103845287818151815260200191508051906020019080838360005b83811015611131578082015181840152602081019050611116565b50505050905090810190601f16801561115e5780820380516001836020036101000a031916815260200191505b50848103835286818151815260200191508051906020019080838360005b8381101561119757808201518184015260208101905061117c565b50505050905090810190601f1680156111c45780820380516001836020036101000a031916815260200191505b50848103825285818151815260200191508051906020019080838360005b838110156111fd5780820151818401526020810190506111e2565b50505050905090810190601f16801561122a5780820380516001836020036101000a031916815260200191505b509650505050505050600060405180830381600087803b15801561124d57600080fd5b505af1158015611261573d6000803e3d6000fd5b505050506040513d6000823e3d601f19601f82011682018060405250602081101561128b57600080fd5b81019080805160405193929190846401000000008211156112ab57600080fd5b838201915060208201858111156112c157600080fd5b82518660018202830111640100000000821117156112de57600080fd5b8083526020830192505050908051906020019080838360005b838110156113125780820151818401526020810190506112f7565b50505050905090810190601f16801561133f5780820380516001836020036101000a031916815260200191505b506040525050506040518463ffffffff1660e01b815260040180806020018060200180602001848103845287818151815260200191508051906020019080838360005b8381101561139d578082015181840152602081019050611382565b50505050905090810190601f1680156113ca5780820380516001836020036101000a031916815260200191505b5084810383528681815460018160011615610100020316600290048152602001915080546001816001161561010002031660029004801561144c5780601f106114215761010080835404028352916020019161144c565b820191906000526020600020905b81548152906001019060200180831161142f57829003601f168201915b5050848103825285818151815260200191508051906020019080838360005b8381101561148657808201518184015260208101905061146b565b50505050905090810190601f1680156114b35780820380516001836020036101000a031916815260200191505b509650505050505050602060405180830381600087803b1580156114d657600080fd5b505af11580156114ea573d6000803e3d6000fd5b505050506040513d602081101561150057600080fd5b81019080805190602001909291905050509250505050505050565b60065481565b6011602052806000526040600020600091509050806000015490806001015490806002018054600181600116156101000203166002900480601f0160208091040260200160405190810160405280929190818152602001828054600181600116156101000203166002900480156115d95780601f106115ae576101008083540402835291602001916115d9565b820191906000526020600020905b8154815290600101906020018083116115bc57829003601f168201915b5050505050905083565b600b5481565b606060008090505b60208160ff1610801561163c5750600060f81b838260ff166020811061161357fe5b1a60f81b7effffffffffffffffffffffffffffffffffffffffffffffffffffffffffffff191614155b1561164e5780806001019150506115f1565b60608160ff1667ffffffffffffffff8111801561166a57600080fd5b506040519080825280601f01601f19166020018201604052801561169d5781602001600182028036833780820191505090505b509050600091505b60208260ff161080156116f05750600060f81b848360ff16602081106116c757fe5b1a60f81b7effffffffffffffffffffffffffffffffffffffffffffffffffffffffffffff191614155b1561175357838260ff166020811061170457fe5b1a60f81b818360ff168151811061171757fe5b60200101907effffffffffffffffffffffffffffffffffffffffffffffffffffffffffffff1916908160001a90535081806001019250506116a5565b8092505050919050565b600080611768612694565b90508073ffffffffffffffffffffffffffffffffffffffff1663a9059cbb601760009054906101000a900473ffffffffffffffffffffffffffffffffffffffff168373ffffffffffffffffffffffffffffffffffffffff166370a08231306040518263ffffffff1660e01b8152600401808273ffffffffffffffffffffffffffffffffffffffff1673ffffffffffffffffffffffffffffffffffffffff16815260200191505060206040518083038186803b15801561182657600080fd5b505afa15801561183a573d6000803e3d6000fd5b505050506040513d602081101561185057600080fd5b81019080805190602001909291905050506040518363ffffffff1660e01b8152600401808373ffffffffffffffffffffffffffffffffffffffff1673ffffffffffffffffffffffffffffffffffffffff16815260200182815260200192505050602060405180830381600087803b1580156118ca57600080fd5b505af11580156118de573d6000803e3d6000fd5b505050506040513d60208110156118f457600080fd5b8101908080519060200190929190505050611977576040517f08c379a00000000000000000000000000000000000000000000000000000000081526004018080602001828103825260128152602001807f556e61626c6520746f207472616e73666572000000000000000000000000000081525060200191505060405180910390fd5b601860009054906101000a900473ffffffffffffffffffffffffffffffffffffffff1673ffffffffffffffffffffffffffffffffffffffff1663dbdff2c16040518163ffffffff1660e01b8152600401602060405180830381600087803b1580156119e157600080fd5b505af11580156119f5573d6000803e3d6000fd5b505050506040513d6020811015611a0b57600080fd5b8101908080519060200190929190505050600a81905550601860009054906101000a900473ffffffffffffffffffffffffffffffffffffffff1673ffffffffffffffffffffffffffffffffffffffff1663edd3159d6040518163ffffffff1660e01b815260040160206040518083038186803b158015611a8a57600080fd5b505afa158015611a9e573d6000803e3d6000fd5b505050506040513d6020811015611ab457600080fd5b8101908080519060200190929190505050600c81905550600c5491505090565b6000600190505b60038113611c6f576000600190505b60116000838152602001908152602001600020600101548113611c615760016002600c5481611b1557fe5b0701600e600083815260200190815260200160002060000181905550611b4a60016002600c5481611b4257fe5b070182610b11565b6001600654600c5481611b5957fe5b0701600e6000838152602001908152602001600020600101819055506000600e60008381526020019081526020016000206002018190555081600e6000838152602001908152602001600020600301819055506010600060018152602001908152602001600020600e60008381526020019081526020016000206004019080546001816001161561010002031660029004611bf59291906126be565b506000600e600083815260200190815260200160002060050160006101000a81548160ff0219169083151502179055506000600e600083815260200190815260200160002060050160016101000a81548160ff0219169083151502179055508080600101915050611aea565b508080600101915050611adb565b50565b600090565b6000611c81612694565b90508073ffffffffffffffffffffffffffffffffffffffff1663a9059cbb601360009054906101000a900473ffffffffffffffffffffffffffffffffffffffff168373ffffffffffffffffffffffffffffffffffffffff166370a08231306040518263ffffffff1660e01b8152600401808273ffffffffffffffffffffffffffffffffffffffff1673ffffffffffffffffffffffffffffffffffffffff16815260200191505060206040518083038186803b158015611d3f57600080fd5b505afa158015611d53573d6000803e3d6000fd5b505050506040513d6020811015611d6957600080fd5b81019080805190602001909291905050506040518363ffffffff1660e01b8152600401808373ffffffffffffffffffffffffffffffffffffffff1673ffffffffffffffffffffffffffffffffffffffff16815260200182815260200192505050602060405180830381600087803b158015611de357600080fd5b505af1158015611df7573d6000803e3d6000fd5b505050506040513d6020811015611e0d57600080fd5b8101908080519060200190929190505050611e90576040517f08c379a00000000000000000000000000000000000000000000000000000000081526004018080602001828103825260128152602001807f556e61626c6520746f207472616e73666572000000000000000000000000000081525060200191505060405180910390fd5b601460009054906101000a900473ffffffffffffffffffffffffffffffffffffffff1673ffffffffffffffffffffffffffffffffffffffff16632b8dc6ff6006546040518263ffffffff1660e01b815260040180828152602001915050600060405180830381600087803b158015611f0757600080fd5b505af1158015611f1b573d6000803e3d6000fd5b5050505050565b600a5481565b600e602052806000526040600020600091509050806000015490806001015490806002015490806003015490806004018054600181600116156101000203166002900480601f016020809104026020016040519081016040528092919081815260200182805460018160011615610100020316600290048015611fec5780601f10611fc157610100808354040283529160200191611fec565b820191906000526020600020905b815481529060010190602001808311611fcf57829003601f168201915b5050505050908060050160009054906101000a900460ff16908060050160019054906101000a900460ff16905087565b600d602052806000526040600020600091509050806000015490806001015490806002015490806003015490806004015490806005018054600181600116156101000203166002900480601f0160208091040260200160405190810160405280929190818152602001828054600181600116156101000203166002900480156120e65780601f106120bb576101008083540402835291602001916120e6565b820191906000526020600020905b8154815290600101906020018083116120c957829003601f168201915b5050505050905086565b6000600190505b600654811361268b57601460009054906101000a900473ffffffffffffffffffffffffffffffffffffffff1673ffffffffffffffffffffffffffffffffffffffff166303b60331826040518263ffffffff1660e01b81526004018082815260200191505060206040518083038186803b15801561217357600080fd5b505afa158015612187573d6000803e3d6000fd5b505050506040513d602081101561219d57600080fd5b8101908080519060200190929190505050600d600083815260200190815260200160002060000181905550601460009054906101000a900473ffffffffffffffffffffffffffffffffffffffff1673ffffffffffffffffffffffffffffffffffffffff1663f771044a826040518263ffffffff1660e01b81526004018082815260200191505060206040518083038186803b15801561223b57600080fd5b505afa15801561224f573d6000803e3d6000fd5b505050506040513d602081101561226557600080fd5b8101908080519060200190929190505050600d600083815260200190815260200160002060010181905550601460009054906101000a900473ffffffffffffffffffffffffffffffffffffffff1673ffffffffffffffffffffffffffffffffffffffff166319eb4d4d826040518263ffffffff1660e01b81526004018082815260200191505060206040518083038186803b15801561230357600080fd5b505afa158015612317573d6000803e3d6000fd5b505050506040513d602081101561232d57600080fd5b8101908080519060200190929190505050600d600083815260200190815260200160002060020181905550601460009054906101000a900473ffffffffffffffffffffffffffffffffffffffff1673ffffffffffffffffffffffffffffffffffffffff1663ebab4ffe826040518263ffffffff1660e01b81526004018082815260200191505060206040518083038186803b1580156123cb57600080fd5b505afa1580156123df573d6000803e3d6000fd5b505050506040513d60208110156123f557600080fd5b8101908080519060200190929190505050600d600083815260200190815260200160002060030181905550601460009054906101000a900473ffffffffffffffffffffffffffffffffffffffff1673ffffffffffffffffffffffffffffffffffffffff1663f4f20d7a826040518263ffffffff1660e01b81526004018082815260200191505060206040518083038186803b15801561249357600080fd5b505afa1580156124a7573d6000803e3d6000fd5b505050506040513d60208110156124bd57600080fd5b8101908080519060200190929190505050600d600083815260200190815260200160002060040181905550601460009054906101000a900473ffffffffffffffffffffffffffffffffffffffff1673ffffffffffffffffffffffffffffffffffffffff16631fd038b5826040518263ffffffff1660e01b81526004018082815260200191505060006040518083038186803b15801561255b57600080fd5b505afa15801561256f573d6000803e3d6000fd5b505050506040513d6000823e3d601f19601f82011682018060405250602081101561259957600080fd5b81019080805160405193929190846401000000008211156125b957600080fd5b838201915060208201858111156125cf57600080fd5b82518660018202830111640100000000821117156125ec57600080fd5b8083526020830192505050908051906020019080838360005b83811015612620578082015181840152602081019050612605565b50505050905090810190601f16801561264d5780820380516001836020036101000a031916815260200191505b50604052505050600d6000838152602001908152602001600020600501908051906020019061267d929190612745565b5080806001019150506120f7565b50565b600c5481565b6000600260009054906101000a900473ffffffffffffffffffffffffffffffffffffffff16905090565b828054600181600116156101000203166002900490600052602060002090601f016020900481019282601f106126f75780548555612734565b8280016001018555821561273457600052602060002091601f016020900482015b82811115612733578254825591600101919060010190612718565b5b50905061274191906127c5565b5090565b828054600181600116156101000203166002900490600052602060002090601f016020900481019282601f1061278657805160ff19168380011785556127b4565b828001600101855582156127b4579182015b828111156127b3578251825591602001919060010190612798565b5b5090506127c191906127c5565b5090565b6127e791905b808211156127e35760008160009055506001016127cb565b5090565b9056fe68747470733a2f2f6d696e2d6170692e63727970746f636f6d706172652e636f6d2f646174612f70726963656d756c746966756c6c3f6673796d733da26469706673582212202c834004987c7e9a59925bae324f6294ff884135e22f05285da3f59f5ea2eaa164736f6c63430006060033477565737320746865207365636f6e642064696769742061667465722074686520646563696d616c20706f696e7447756573732072656d61696e646572206f6620766f6c756d6520646976696465642062792033",
  "immutableReferences": {},
  "source": "// SPDX-License-Identifier: GPL-3.0\n\npragma solidity >=0.6.0 <0.9.0;\n\nimport \"@chainlink/contracts/src/v0.6/ChainlinkClient.sol\";\n\ninterface GetCurrencyInfoInterface {\n    function addCurrency(int256 _currencyQuantity) external;\n\n    function getCurrencyName(int256 _id) external view returns (bytes32);\n\n    function getCurrencyFullName(int256 _id) external view returns (bytes32);\n\n    function getCurrencyOverviewUrl(int256 _id) external view returns (bytes32);\n\n    function getCurrencyAssetLaunchDate(int256 _id)\n        external\n        view\n        returns (bytes32);\n\n    function getCurrencyLogoUrl(int256 _id) external view returns (bytes32);\n\n    function getCurrencyIntro(int256 _id) external view returns (bytes memory);\n}\n\ninterface GetAnswerInterface {\n    function strAdd(\n        string calldata _a,\n        string calldata _b,\n        string calldata _c\n    ) external returns (string memory);\n\n    function getVolume() external view returns (uint256);\n\n    function requestVolumeData(\n        string calldata _currenyName,\n        string calldata _questionName,\n        string calldata _apiUrl\n    ) external returns (bytes32 requestId);\n}\n\ninterface GetVRFInterface {\n    function getVRF() external view returns (uint256);\n\n    function getRandomNumber() external returns (bytes32 requestId);\n}\n\ncontract AddGameInfo is ChainlinkClient {\n    int256 public currencyQuantity;\n    int256 public dailyGameQuantity;\n    int256 public weeklyGameQuantity;\n    int256 public monthlyGameQuantity;\n    bytes32 public reqID_VRF;\n    int256 public rand_b;\n    uint256 public randomNum;\n\n    // Key: gameListId\n    struct GameList {\n        int256 questionId; // 2 items\n        int256 currencyId; // which currency  // currencyQuantity items\n        uint256 revealTime; // gameParticipateStartTime\n        int256 lifeLengthId; // 3 items\n        string property; // 1 items\n        bool isActivity; //\n        bool isClose; //\n    }\n\n    struct CurrencyList {\n        bytes32 name;\n        bytes32 fullName;\n        bytes32 overviewUrl;\n        bytes32 assetLaunchDate;\n        bytes32 logoUrl;\n        bytes currencyIntro;\n    }\n\n    struct QuestionList {\n        string questionName; //path\n        string questionDescription; //question text\n    }\n\n    struct OptionsList {\n        int256 optionsContet;\n        int256 userQuantity;\n        address[] userAddress;\n    }\n\n    struct LifeLengthList {\n        int256 lifeLength; // daily=1,weekly=7,monthly=30\n        int256 gameQuantity; // daily=30,weekly=4,monthly=1\n        string title;\n    }\n\n    struct GameInfo {\n        int256 gameId;\n        bytes32 gameTitle;\n        string gameQuestion;\n        bytes gameDescription;\n        uint256 gameParticipateStartTime;\n        string gameWindow; // Daily, Weekly, Monthly, Lifetime\n        string gameProperty;\n        bytes32 gameLogoLink;\n        int256 numOfParticipants;\n    }\n\n    mapping(int256 => CurrencyList) public currencyList;\n    mapping(int256 => GameList) public gameList;\n    mapping(int256 => mapping(int256 => OptionsList)) public optionsList; // key: gamiListId\n    mapping(int256 => string) public propertyList;\n    mapping(int256 => LifeLengthList) public lifeLengthList;\n    mapping(int256 => QuestionList) public questionList;\n\n    address GetCurrencyInfoInterfaceAddress =\n        0xa580D0eF1d8bDefdcD06059f3B81D305778ab617;\n    GetCurrencyInfoInterface getCurrencyInfoContract =\n        GetCurrencyInfoInterface(GetCurrencyInfoInterfaceAddress);\n\n    address GetAnswerInterfaceAddress =\n        0x6f33ed84c014F72D23240b9Ed589959a8c226C76;\n    GetAnswerInterface getAnswerContract =\n        GetAnswerInterface(GetCurrencyInfoInterfaceAddress);\n\n    address GetVRFInterfaceAddress = 0x40C7b80E812a3683d651DB8b38278A256f51362D;\n    GetVRFInterface getVRFContract = GetVRFInterface(GetVRFInterfaceAddress);\n\n    constructor() public {\n        setPublicChainlinkToken();\n\n        questionList[1].questionName = \"PRICE\";\n        questionList[1]\n            .questionDescription = \"Guess the second digit after the decimal point\";\n\n        questionList[2].questionName = \"VOLUME\";\n        questionList[2]\n            .questionDescription = \"Guess remainder of volume divided by 3\";\n\n        propertyList[1] = \"Crypto Currency\";\n\n        lifeLengthList[1].lifeLength = 1;\n        lifeLengthList[1].gameQuantity = 30;\n        lifeLengthList[1].title = \"Daily\";\n\n        lifeLengthList[2].lifeLength = 7;\n        lifeLengthList[2].gameQuantity = 4;\n        lifeLengthList[2].title = \"Weekly\";\n\n        lifeLengthList[3].lifeLength = 30;\n        lifeLengthList[3].gameQuantity = 1;\n        lifeLengthList[3].title = \"Monthly\";\n\n        currencyQuantity = 10;\n    }\n\n    // (SKIP)  1\n    function makeCurrencyList() public {\n        LinkTokenInterface linkToken =\n            LinkTokenInterface(chainlinkTokenAddress());\n        require(\n            linkToken.transfer(\n                GetCurrencyInfoInterfaceAddress,\n                linkToken.balanceOf(address(this))\n            ),\n            \"Unable to transfer\"\n        );\n        getCurrencyInfoContract.addCurrency(currencyQuantity);\n    }\n\n    // 2\n    function getCurrencyList() public {\n        for (int256 i = 1; i <= currencyQuantity; i++) {\n            currencyList[i].name = getCurrencyInfoContract.getCurrencyName(i);\n            currencyList[i].fullName = getCurrencyInfoContract\n                .getCurrencyFullName(i);\n            currencyList[i].overviewUrl = getCurrencyInfoContract\n                .getCurrencyOverviewUrl(i);\n            currencyList[i].assetLaunchDate = getCurrencyInfoContract\n                .getCurrencyAssetLaunchDate(i);\n            currencyList[i].logoUrl = getCurrencyInfoContract\n                .getCurrencyLogoUrl(i);\n            currencyList[i].currencyIntro = getCurrencyInfoContract\n                .getCurrencyIntro(i);\n        }\n    }\n\n    function getRandom() public returns (uint256) {\n        LinkTokenInterface linkToken =\n            LinkTokenInterface(chainlinkTokenAddress());\n        require(\n            linkToken.transfer(\n                GetVRFInterfaceAddress,\n                linkToken.balanceOf(address(this))\n            ),\n            \"Unable to transfer\"\n        );\n        reqID_VRF = getVRFContract.getRandomNumber();\n        randomNum = getVRFContract.getVRF();\n        return randomNum;\n    }\n\n    // 3.5\n    function makeOptions(int256 _questionId, int256 _gameId) public {\n        if (_questionId == 1) {\n            optionsList[_gameId][1].optionsContet = 1;\n            optionsList[_gameId][2].optionsContet = 2;\n            optionsList[_gameId][3].optionsContet = 3;\n            optionsList[_gameId][4].optionsContet = 4;\n            optionsList[_gameId][5].optionsContet = 5;\n            optionsList[_gameId][6].optionsContet = 6;\n            optionsList[_gameId][7].optionsContet = 7;\n            optionsList[_gameId][8].optionsContet = 8;\n            optionsList[_gameId][9].optionsContet = 9;\n            optionsList[_gameId][10].optionsContet = 0;\n        } else if (_questionId == 2) {\n            optionsList[_gameId][1].optionsContet = 0;\n            optionsList[_gameId][2].optionsContet = 1;\n            optionsList[_gameId][3].optionsContet = 2;\n        }\n    }\n\n    // 3\n    function makeDailyGame() public {\n        for (int256 i = 1; i <= 3; i++) {\n            // i=1 daily,i=2 weekly,i=3 monthly\n            for (\n                int256 gameId = 1;\n                gameId <= lifeLengthList[i].gameQuantity;\n                gameId++\n            ) {\n                gameList[gameId].questionId = (int256(randomNum) % 2) + 1;\n                makeOptions((int256(randomNum) % 2) + 1, gameId);\n                gameList[gameId].currencyId =\n                    (int256(randomNum) % currencyQuantity) +\n                    1;\n                gameList[gameId].revealTime = 0;\n                gameList[gameId].lifeLengthId = i;\n                gameList[gameId].property = propertyList[1];\n                gameList[gameId].isActivity = false;\n                gameList[gameId].isClose = false;\n            }\n        }\n    }\n\n    // int256[] availableGameIds;\n\n    // function returnAvailableGameIdsString() public returns (int256[] memory) {\n    //     int256 totalGameQty =\n    //         lifeLengthList[1].gameQuantity +\n    //             lifeLengthList[2].gameQuantity +\n    //             lifeLengthList[3].gameQuantity;\n    //     for (int256 gameId = totalGameQty; gameId > 0; gameId--) {\n    //         if (gameList[gameId].isActivity || gameList[gameId].isClose) {\n    //             // availableGameIds.push(gameId);\n    //         }\n    //     }\n    //     return availableGameIds;\n    // }\n\n    function bytes32ToString(bytes32 _bytes32) public returns (string memory) {\n        uint8 i = 0;\n        while (i < 32 && _bytes32[i] != 0) {\n            i++;\n        }\n        bytes memory bytesArray = new bytes(i);\n        for (i = 0; i < 32 && _bytes32[i] != 0; i++) {\n            bytesArray[i] = _bytes32[i];\n        }\n        return string(bytesArray);\n    }\n\n    function getAnswer(int256 _gameId) public {\n        string memory url_main;\n        string memory url_sub;\n        bytes32 reqID;\n        string memory currencyName =\n            bytes32ToString(currencyList[gameList[_gameId].currencyId].name);\n\n        url_main = \"https://min-api.cryptocompare.com/data/pricemultifull?fsyms=\";\n        url_sub = \"&tsyms=USD\";\n\n        LinkTokenInterface linkToken =\n            LinkTokenInterface(chainlinkTokenAddress());\n        require(\n            linkToken.transfer(\n                GetAnswerInterfaceAddress,\n                linkToken.balanceOf(address(this))\n            ),\n            \"Unable to transfer\"\n        );\n\n        reqID = getAnswerContract.requestVolumeData(\n            currencyName,\n            questionList[gameList[_gameId].questionId].questionName,\n            getAnswerContract.strAdd(url_main, currencyName, url_sub)\n        );\n    }\n\n    function returnAnswer() public view returns (uint256) {\n        //return getAnswerContract.getVolume();\n    }\n\n    //\n    function addParticipant(\n        int256 _gameId,\n        address _userAddress,\n        int256 _optionId\n    ) public {\n        optionsList[_gameId][_optionId].userAddress.push(_userAddress);\n    }\n}\n",
  "sourcePath": "/Users/derekchou/Desktop/crypto/guess_get_gas/contracts/AddGameInfo.sol",
  "compiler": {
    "name": "solc",
    "version": "0.6.6+commit.6c089d02.Emscripten.clang"
  },
  "schemaVersion": "3.3.4",
  "updatedAt": "2021-04-10T15:40:10.230Z",
  "devdoc": {
    "methods": {}
  },
  "userdoc": {
    "methods": {}
  }
}