{
  "contractName": "AddGameInfo",
  "abi": [
    {
      "inputs": [],
      "stateMutability": "nonpayable",
      "type": "constructor"
    },
    {
      "anonymous": false,
      "inputs": [
        {
          "indexed": true,
          "internalType": "bytes32",
          "name": "id",
          "type": "bytes32"
        }
      ],
      "name": "ChainlinkCancelled",
      "type": "event"
    },
    {
      "anonymous": false,
      "inputs": [
        {
          "indexed": true,
          "internalType": "bytes32",
          "name": "id",
          "type": "bytes32"
        }
      ],
      "name": "ChainlinkFulfilled",
      "type": "event"
    },
    {
      "anonymous": false,
      "inputs": [
        {
          "indexed": true,
          "internalType": "bytes32",
          "name": "id",
          "type": "bytes32"
        }
      ],
      "name": "ChainlinkRequested",
      "type": "event"
    },
    {
      "inputs": [
        {
          "internalType": "int256",
          "name": "",
          "type": "int256"
        }
      ],
      "name": "currencyList",
      "outputs": [
        {
          "internalType": "bytes32",
          "name": "name",
          "type": "bytes32"
        },
        {
          "internalType": "bytes32",
          "name": "fullName",
          "type": "bytes32"
        },
        {
          "internalType": "bytes32",
          "name": "overviewUrl",
          "type": "bytes32"
        },
        {
          "internalType": "bytes32",
          "name": "assetLaunchDate",
          "type": "bytes32"
        },
        {
          "internalType": "bytes32",
          "name": "logoUrl",
          "type": "bytes32"
        },
        {
          "internalType": "bytes",
          "name": "currencyIntro",
          "type": "bytes"
        }
      ],
      "stateMutability": "view",
      "type": "function"
    },
    {
      "inputs": [],
      "name": "currencyQuantity",
      "outputs": [
        {
          "internalType": "int256",
          "name": "",
          "type": "int256"
        }
      ],
      "stateMutability": "view",
      "type": "function"
    },
    {
      "inputs": [],
      "name": "dailyGameQuantity",
      "outputs": [
        {
          "internalType": "int256",
          "name": "",
          "type": "int256"
        }
      ],
      "stateMutability": "view",
      "type": "function"
    },
    {
      "inputs": [
        {
          "internalType": "int256",
          "name": "",
          "type": "int256"
        }
      ],
      "name": "gameInfoList",
      "outputs": [
        {
          "internalType": "int256",
          "name": "gameId",
          "type": "int256"
        },
        {
          "internalType": "string",
          "name": "gameTitle",
          "type": "string"
        },
        {
          "internalType": "string",
          "name": "gameQuestion",
          "type": "string"
        },
        {
          "internalType": "string",
          "name": "gameDescription",
          "type": "string"
        },
        {
          "internalType": "uint256",
          "name": "gameParticipateStartTime",
          "type": "uint256"
        },
        {
          "internalType": "string",
          "name": "gameWindow",
          "type": "string"
        },
        {
          "internalType": "string",
          "name": "gameProperty",
          "type": "string"
        },
        {
          "internalType": "string",
          "name": "gameLogoLink",
          "type": "string"
        },
        {
          "internalType": "int256",
          "name": "numOfParticipants",
          "type": "int256"
        }
      ],
      "stateMutability": "view",
      "type": "function"
    },
    {
      "inputs": [
        {
          "internalType": "int256",
          "name": "",
          "type": "int256"
        }
      ],
      "name": "gameList",
      "outputs": [
        {
          "internalType": "int256",
          "name": "questionId",
          "type": "int256"
        },
        {
          "internalType": "int256",
          "name": "currencyId",
          "type": "int256"
        },
        {
          "internalType": "uint256",
          "name": "revealTime",
          "type": "uint256"
        },
        {
          "internalType": "int256",
          "name": "lifeLengthId",
          "type": "int256"
        },
        {
          "internalType": "string",
          "name": "property",
          "type": "string"
        },
        {
          "internalType": "bool",
          "name": "isActivity",
          "type": "bool"
        },
        {
          "internalType": "bool",
          "name": "isClose",
          "type": "bool"
        }
      ],
      "stateMutability": "view",
      "type": "function"
    },
    {
      "inputs": [
        {
          "internalType": "int256",
          "name": "",
          "type": "int256"
        }
      ],
      "name": "lifeLengthList",
      "outputs": [
        {
          "internalType": "int256",
          "name": "lifeLength",
          "type": "int256"
        },
        {
          "internalType": "int256",
          "name": "gameQuantity",
          "type": "int256"
        },
        {
          "internalType": "string",
          "name": "title",
          "type": "string"
        }
      ],
      "stateMutability": "view",
      "type": "function"
    },
    {
      "inputs": [],
      "name": "monthlyGameQuantity",
      "outputs": [
        {
          "internalType": "int256",
          "name": "",
          "type": "int256"
        }
      ],
      "stateMutability": "view",
      "type": "function"
    },
    {
      "inputs": [
        {
          "internalType": "int256",
          "name": "",
          "type": "int256"
        },
        {
          "internalType": "int256",
          "name": "",
          "type": "int256"
        }
      ],
      "name": "optionsList",
      "outputs": [
        {
          "internalType": "int256",
          "name": "optionsContet",
          "type": "int256"
        },
        {
          "internalType": "int256",
          "name": "userQuantity",
          "type": "int256"
        }
      ],
      "stateMutability": "view",
      "type": "function"
    },
    {
      "inputs": [
        {
          "internalType": "int256",
          "name": "",
          "type": "int256"
        }
      ],
      "name": "propertyList",
      "outputs": [
        {
          "internalType": "string",
          "name": "",
          "type": "string"
        }
      ],
      "stateMutability": "view",
      "type": "function"
    },
    {
      "inputs": [
        {
          "internalType": "int256",
          "name": "",
          "type": "int256"
        }
      ],
      "name": "questionList",
      "outputs": [
        {
          "internalType": "string",
          "name": "questionName",
          "type": "string"
        },
        {
          "internalType": "string",
          "name": "questionDescription",
          "type": "string"
        }
      ],
      "stateMutability": "view",
      "type": "function"
    },
    {
      "inputs": [],
      "name": "rand_b",
      "outputs": [
        {
          "internalType": "int256",
          "name": "",
          "type": "int256"
        }
      ],
      "stateMutability": "view",
      "type": "function"
    },
    {
      "inputs": [],
      "name": "randomNum",
      "outputs": [
        {
          "internalType": "uint256",
          "name": "",
          "type": "uint256"
        }
      ],
      "stateMutability": "view",
      "type": "function"
    },
    {
      "inputs": [],
      "name": "reqID_VRF",
      "outputs": [
        {
          "internalType": "bytes32",
          "name": "",
          "type": "bytes32"
        }
      ],
      "stateMutability": "view",
      "type": "function"
    },
    {
      "inputs": [],
      "name": "weeklyGameQuantity",
      "outputs": [
        {
          "internalType": "int256",
          "name": "",
          "type": "int256"
        }
      ],
      "stateMutability": "view",
      "type": "function"
    },
    {
      "inputs": [],
      "name": "makeCurrencyList",
      "outputs": [],
      "stateMutability": "nonpayable",
      "type": "function"
    },
    {
      "inputs": [],
      "name": "getCurrencyList",
      "outputs": [],
      "stateMutability": "nonpayable",
      "type": "function"
    },
    {
      "inputs": [],
      "name": "getRandom",
      "outputs": [
        {
          "internalType": "int256",
          "name": "",
          "type": "int256"
        }
      ],
      "stateMutability": "nonpayable",
      "type": "function"
    },
    {
      "inputs": [
        {
          "internalType": "int256",
          "name": "_questionId",
          "type": "int256"
        },
        {
          "internalType": "int256",
          "name": "_gameId",
          "type": "int256"
        }
      ],
      "name": "makeOptions",
      "outputs": [],
      "stateMutability": "nonpayable",
      "type": "function"
    },
    {
      "inputs": [],
      "name": "makeDailyGame",
      "outputs": [],
      "stateMutability": "nonpayable",
      "type": "function"
    },
    {
      "inputs": [],
      "name": "activeGameStatus",
      "outputs": [],
      "stateMutability": "nonpayable",
      "type": "function"
    },
    {
      "inputs": [],
      "name": "storeAvailableGameIds",
      "outputs": [],
      "stateMutability": "nonpayable",
      "type": "function"
    },
    {
      "inputs": [],
      "name": "getAvailableGameIds",
      "outputs": [
        {
          "internalType": "int256[]",
          "name": "",
          "type": "int256[]"
        }
      ],
      "stateMutability": "view",
      "type": "function"
    },
    {
      "inputs": [
        {
          "internalType": "bytes32",
          "name": "_bytes32",
          "type": "bytes32"
        }
      ],
      "name": "bytes32ToString",
      "outputs": [
        {
          "internalType": "string",
          "name": "",
          "type": "string"
        }
      ],
      "stateMutability": "nonpayable",
      "type": "function"
    },
    {
      "inputs": [
        {
          "internalType": "int256",
          "name": "_gameId",
          "type": "int256"
        }
      ],
      "name": "getAnswer",
      "outputs": [],
      "stateMutability": "nonpayable",
      "type": "function"
    },
    {
      "inputs": [],
      "name": "returnAnswer",
      "outputs": [
        {
          "internalType": "uint256",
          "name": "",
          "type": "uint256"
        }
      ],
      "stateMutability": "view",
      "type": "function"
    },
    {
      "inputs": [
        {
          "internalType": "int256",
          "name": "_gameId",
          "type": "int256"
        },
        {
          "internalType": "address",
          "name": "_userAddress",
          "type": "address"
        },
        {
          "internalType": "int256",
          "name": "_optionId",
          "type": "int256"
        }
      ],
      "name": "addParticipant",
      "outputs": [],
      "stateMutability": "nonpayable",
      "type": "function"
    }
  ],
  "bytecode": "0x6080604052600160045573a580d0ef1d8bdefdcd06059f3b81d305778ab617601460006101000a81548173ffffffffffffffffffffffffffffffffffffffff021916908373ffffffffffffffffffffffffffffffffffffffff160217905550601460009054906101000a900473ffffffffffffffffffffffffffffffffffffffff16601560006101000a81548173ffffffffffffffffffffffffffffffffffffffff021916908373ffffffffffffffffffffffffffffffffffffffff160217905550736f33ed84c014f72d23240b9ed589959a8c226c76601660006101000a81548173ffffffffffffffffffffffffffffffffffffffff021916908373ffffffffffffffffffffffffffffffffffffffff160217905550601460009054906101000a900473ffffffffffffffffffffffffffffffffffffffff16601760006101000a81548173ffffffffffffffffffffffffffffffffffffffff021916908373ffffffffffffffffffffffffffffffffffffffff1602179055507340c7b80e812a3683d651db8b38278a256f51362d601860006101000a81548173ffffffffffffffffffffffffffffffffffffffff021916908373ffffffffffffffffffffffffffffffffffffffff160217905550601860009054906101000a900473ffffffffffffffffffffffffffffffffffffffff16601960006101000a81548173ffffffffffffffffffffffffffffffffffffffff021916908373ffffffffffffffffffffffffffffffffffffffff1602179055503480156200023e57600080fd5b506200024f620008e460201b60201c565b6040518060400160405280600581526020017f505249434500000000000000000000000000000000000000000000000000000081525060136000600181526020019081526020016000206000019080519060200190620002b1929190620009d0565b506040518060600160405280602e815260200162003e41602e913960136000600181526020019081526020016000206001019080519060200190620002f8929190620009d0565b506040518060400160405280600581526020017f5052494345000000000000000000000000000000000000000000000000000000815250601360006002815260200190815260200160002060000190805190602001906200035b929190620009d0565b506040518060400160405280600f81526020017f47756573732074686520756e697473000000000000000000000000000000000081525060136000600281526020019081526020016000206001019080519060200190620003be929190620009d0565b506040518060400160405280600581526020017f50524943450000000000000000000000000000000000000000000000000000008152506013600060038152602001908152602001600020600001908051906020019062000421929190620009d0565b506040518060400160405280600e81526020017f4775657373207468652074656e730000000000000000000000000000000000008152506013600060038152602001908152602001600020600101908051906020019062000484929190620009d0565b506040518060400160405280600581526020017f505249434500000000000000000000000000000000000000000000000000000081525060136000600481526020019081526020016000206000019080519060200190620004e7929190620009d0565b506040518060400160405280601281526020017f4775657373207468652068756e64726564730000000000000000000000000000815250601360006004815260200190815260200160002060010190805190602001906200054a929190620009d0565b506040518060400160405280600581526020017f505249434500000000000000000000000000000000000000000000000000000081525060136000600581526020019081526020016000206000019080519060200190620005ad929190620009d0565b506040518060600160405280602d815260200162003e6f602d913960136000600581526020019081526020016000206001019080519060200190620005f4929190620009d0565b506040518060400160405280600681526020017f564f4c554d4500000000000000000000000000000000000000000000000000008152506013600060068152602001908152602001600020600001908051906020019062000657929190620009d0565b5060405180606001604052806026815260200162003e9c60269139601360006006815260200190815260200160002060010190805190602001906200069e929190620009d0565b506040518060400160405280600f81526020017f43727970746f2043757272656e6379000000000000000000000000000000000081525060116000600181526020019081526020016000209080519060200190620006fe929190620009d0565b506001601260006001815260200190815260200160002060000181905550600a6012600060018152602001908152602001600020600101819055506040518060400160405280600581526020017f4461696c79000000000000000000000000000000000000000000000000000000815250601260006001815260200190815260200160002060020190805190602001906200079b929190620009d0565b50600760126000600281526020019081526020016000206000018190555060046012600060028152602001908152602001600020600101819055506040518060400160405280600681526020017f5765656b6c7900000000000000000000000000000000000000000000000000008152506012600060028152602001908152602001600020600201908051906020019062000838929190620009d0565b50601e60126000600381526020019081526020016000206000018190555060016012600060038152602001908152602001600020600101819055506040518060400160405280600781526020017f4d6f6e74686c790000000000000000000000000000000000000000000000000081525060126000600381526020019081526020016000206002019080519060200190620008d5929190620009d0565b50600a60068190555062000b10565b6200098a73c89bd4e1632d3a43cb03aaad5262cbe4038bc57173ffffffffffffffffffffffffffffffffffffffff166338cc48316040518163ffffffff1660e01b815260040160206040518083038186803b1580156200094357600080fd5b505afa15801562000958573d6000803e3d6000fd5b505050506040513d601f19601f820116820180604052508101906200097e919062000a96565b6200098c60201b60201c565b565b80600260006101000a81548173ffffffffffffffffffffffffffffffffffffffff021916908373ffffffffffffffffffffffffffffffffffffffff16021790555050565b828054600181600116156101000203166002900490600052602060002090601f016020900481019282601f1062000a1357805160ff191683800117855562000a44565b8280016001018555821562000a44579182015b8281111562000a4357825182559160200191906001019062000a26565b5b50905062000a53919062000a57565b5090565b62000a7c91905b8082111562000a7857600081600090555060010162000a5e565b5090565b90565b60008151905062000a908162000af6565b92915050565b60006020828403121562000aa957600080fd5b600062000ab98482850162000a7f565b91505092915050565b600062000acf8262000ad6565b9050919050565b600073ffffffffffffffffffffffffffffffffffffffff82169050919050565b62000b018162000ac2565b811462000b0d57600080fd5b50565b6133218062000b206000396000f3fe608060405234801561001057600080fd5b506004361061018e5760003560e01c80637ce6a0fb116100de578063c6b7bd4c11610097578063e50f4c0b11610071578063e50f4c0b14610449578063f1feff341461047f578063f2ce4dc0146104b4578063f630aa65146104be5761018e565b8063c6b7bd4c14610417578063d17f7b0d14610421578063dc7c155f1461042b5761018e565b80637ce6a0fb146103795780639201de5514610397578063aacc5a17146103c7578063b8b5ecd1146103e5578063c3f449c9146103ef578063c67a3d93146103f95761018e565b80633cb103331161014b578063494ca32211610125578063494ca322146102f15780636a2224671461030d5780636c1c38ae146103295780637421a206146103475761018e565b80633cb10333146102975780633f5693b2146102b557806349400fba146102d35761018e565b8063063afb0414610193578063071c5443146101cb57806322c0391f146101fc57806331e1bf381461021857806332d4e5ec146102365780633c8130e314610266575b600080fd5b6101ad60048036038101906101a8919061299e565b6104dc565b6040516101c299989796959493929190612eae565b60405180910390f35b6101e560048036038101906101e09190612a16565b6108ba565b6040516101f3929190612dd1565b60405180910390f35b610216600480360381019061021191906129c7565b6108eb565b005b610220610978565b60405161022d9190612d11565b60405180910390f35b610250600480360381019061024b919061299e565b6109d5565b60405161025d9190612f65565b60405180910390f35b610280600480360381019061027b919061299e565b610a85565b60405161028e929190612f87565b60405180910390f35b61029f610bd9565b6040516102ac9190612db6565b60405180910390f35b6102bd610bdf565b6040516102ca9190612db6565b60405180910390f35b6102db610be5565b6040516102e89190612db6565b60405180910390f35b61030b60048036038101906103069190612a16565b610beb565b005b6103276004803603810190610322919061299e565b610e5e565b005b61033161120c565b60405161033e9190612db6565b60405180910390f35b610361600480360381019061035c919061299e565b611212565b60405161037093929190612dfa565b60405180910390f35b6103816112d4565b60405161038e9190612db6565b60405180910390f35b6103b160048036038101906103ac919061290b565b6112da565b6040516103be9190612f65565b60405180910390f35b6103cf61144e565b6040516103dc9190612db6565b60405180910390f35b6103ed611734565b005b6103f7611783565b005b610401611be5565b60405161040e9190613076565b60405180910390f35b61041f611bea565b005b610429611ce5565b005b610433611ef9565b6040516104409190612d33565b60405180910390f35b610463600480360381019061045e919061299e565b611eff565b6040516104769796959493929190612e38565b60405180910390f35b6104996004803603810190610494919061299e565b611ff3565b6040516104ab96959493929190612d4e565b60405180910390f35b6104bc6120c7565b005b6104c661259a565b6040516104d39190613076565b60405180910390f35b600f602052806000526040600020600091509050806000015490806001018054600181600116156101000203166002900480601f01602080910402602001604051908101604052809291908181526020018280546001816001161561010002031660029004801561058e5780601f106105635761010080835404028352916020019161058e565b820191906000526020600020905b81548152906001019060200180831161057157829003601f168201915b505050505090806002018054600181600116156101000203166002900480601f01602080910402602001604051908101604052809291908181526020018280546001816001161561010002031660029004801561062c5780601f106106015761010080835404028352916020019161062c565b820191906000526020600020905b81548152906001019060200180831161060f57829003601f168201915b505050505090806003018054600181600116156101000203166002900480601f0160208091040260200160405190810160405280929190818152602001828054600181600116156101000203166002900480156106ca5780601f1061069f576101008083540402835291602001916106ca565b820191906000526020600020905b8154815290600101906020018083116106ad57829003601f168201915b505050505090806004015490806005018054600181600116156101000203166002900480601f01602080910402602001604051908101604052809291908181526020018280546001816001161561010002031660029004801561076e5780601f106107435761010080835404028352916020019161076e565b820191906000526020600020905b81548152906001019060200180831161075157829003601f168201915b505050505090806006018054600181600116156101000203166002900480601f01602080910402602001604051908101604052809291908181526020018280546001816001161561010002031660029004801561080c5780601f106107e15761010080835404028352916020019161080c565b820191906000526020600020905b8154815290600101906020018083116107ef57829003601f168201915b505050505090806007018054600181600116156101000203166002900480601f0160208091040260200160405190810160405280929190818152602001828054600181600116156101000203166002900480156108aa5780601f1061087f576101008083540402835291602001916108aa565b820191906000526020600020905b81548152906001019060200180831161088d57829003601f168201915b5050505050908060080154905089565b6010602052816000526040600020602052806000526040600020600091509150508060000154908060010154905082565b601060008481526020019081526020016000206000828152602001908152602001600020600201829080600181540180825580915050600190039060005260206000200160009091909190916101000a81548173ffffffffffffffffffffffffffffffffffffffff021916908373ffffffffffffffffffffffffffffffffffffffff160217905550505050565b606080601b8054806020026020016040519081016040528092919081815260200182805480156109c757602002820191906000526020600020905b8154815260200190600101908083116109b3575b505050505090508091505090565b60116020528060005260406000206000915090508054600181600116156101000203166002900480601f016020809104026020016040519081016040528092919081815260200182805460018160011615610100020316600290048015610a7d5780601f10610a5257610100808354040283529160200191610a7d565b820191906000526020600020905b815481529060010190602001808311610a6057829003601f168201915b505050505081565b6013602052806000526040600020600091509050806000018054600181600116156101000203166002900480601f016020809104026020016040519081016040528092919081815260200182805460018160011615610100020316600290048015610b315780601f10610b0657610100808354040283529160200191610b31565b820191906000526020600020905b815481529060010190602001808311610b1457829003601f168201915b505050505090806001018054600181600116156101000203166002900480601f016020809104026020016040519081016040528092919081815260200182805460018160011615610100020316600290048015610bcf5780601f10610ba457610100808354040283529160200191610bcf565b820191906000526020600020905b815481529060010190602001808311610bb257829003601f168201915b5050505050905082565b60085481565b60095481565b60075481565b6001821415610dc5576001601060008381526020019081526020016000206000600181526020019081526020016000206000018190555060026010600083815260200190815260200160002060006002815260200190815260200160002060000181905550600360106000838152602001908152602001600020600060038152602001908152602001600020600001819055506004601060008381526020019081526020016000206000600481526020019081526020016000206000018190555060056010600083815260200190815260200160002060006005815260200190815260200160002060000181905550600660106000838152602001908152602001600020600060068152602001908152602001600020600001819055506007601060008381526020019081526020016000206000600781526020019081526020016000206000018190555060086010600083815260200190815260200160002060006008815260200190815260200160002060000181905550600960106000838152602001908152602001600020600060098152602001908152602001600020600001819055506000601060008381526020019081526020016000206000600a815260200190815260200160002060000181905550610e5a565b6002821415610e59576000601060008381526020019081526020016000206000600181526020019081526020016000206000018190555060016010600083815260200190815260200160002060006002815260200190815260200160002060000181905550600260106000838152602001908152602001600020600060038152602001908152602001600020600001819055505b5b5050565b60608060006060610e9a600d6000600e6000898152602001908152602001600020600101548152602001908152602001600020600001546112da565b90506040518060600160405280603c81526020016132b0603c913993506040518060400160405280600a81526020017f267473796d733d5553440000000000000000000000000000000000000000000081525092506000610ef96125a0565b90508073ffffffffffffffffffffffffffffffffffffffff1663a9059cbb601660009054906101000a900473ffffffffffffffffffffffffffffffffffffffff168373ffffffffffffffffffffffffffffffffffffffff166370a08231306040518263ffffffff1660e01b8152600401610f739190612ccd565b60206040518083038186803b158015610f8b57600080fd5b505afa158015610f9f573d6000803e3d6000fd5b505050506040513d601f19601f82011682018060405250810190610fc39190612a93565b6040518363ffffffff1660e01b8152600401610fe0929190612ce8565b602060405180830381600087803b158015610ffa57600080fd5b505af115801561100e573d6000803e3d6000fd5b505050506040513d601f19601f8201168201806040525081019061103291906128e2565b611071576040517f08c379a000000000000000000000000000000000000000000000000000000000815260040161106890613056565b60405180910390fd5b601760009054906101000a900473ffffffffffffffffffffffffffffffffffffffff1673ffffffffffffffffffffffffffffffffffffffff1663a8f2c5258360136000600e60008c8152602001908152602001600020600001548152602001908152602001600020600001601760009054906101000a900473ffffffffffffffffffffffffffffffffffffffff1673ffffffffffffffffffffffffffffffffffffffff16636b190f708a888b6040518463ffffffff1660e01b815260040161113b93929190612fbe565b600060405180830381600087803b15801561115557600080fd5b505af1158015611169573d6000803e3d6000fd5b505050506040513d6000823e3d601f19601f820116820180604052508101906111929190612a52565b6040518463ffffffff1660e01b81526004016111b09392919061300a565b602060405180830381600087803b1580156111ca57600080fd5b505af11580156111de573d6000803e3d6000fd5b505050506040513d601f19601f820116820180604052508101906112029190612934565b9250505050505050565b60065481565b6012602052806000526040600020600091509050806000015490806001015490806002018054600181600116156101000203166002900480601f0160208091040260200160405190810160405280929190818152602001828054600181600116156101000203166002900480156112ca5780601f1061129f576101008083540402835291602001916112ca565b820191906000526020600020905b8154815290600101906020018083116112ad57829003601f168201915b5050505050905083565b600b5481565b606060008090505b60208160ff1610801561132d5750600060f81b838260ff166020811061130457fe5b1a60f81b7effffffffffffffffffffffffffffffffffffffffffffffffffffffffffffff191614155b1561133f5780806001019150506112e2565b60608160ff1667ffffffffffffffff8111801561135b57600080fd5b506040519080825280601f01601f19166020018201604052801561138e5781602001600182028036833780820191505090505b509050600091505b60208260ff161080156113e15750600060f81b848360ff16602081106113b857fe5b1a60f81b7effffffffffffffffffffffffffffffffffffffffffffffffffffffffffffff191614155b1561144457838260ff16602081106113f557fe5b1a60f81b818360ff168151811061140857fe5b60200101907effffffffffffffffffffffffffffffffffffffffffffffffffffffffffffff1916908160001a9053508180600101925050611396565b8092505050919050565b6000806114596125a0565b90508073ffffffffffffffffffffffffffffffffffffffff1663a9059cbb601860009054906101000a900473ffffffffffffffffffffffffffffffffffffffff168373ffffffffffffffffffffffffffffffffffffffff166370a08231306040518263ffffffff1660e01b81526004016114d39190612ccd565b60206040518083038186803b1580156114eb57600080fd5b505afa1580156114ff573d6000803e3d6000fd5b505050506040513d601f19601f820116820180604052508101906115239190612a93565b6040518363ffffffff1660e01b8152600401611540929190612ce8565b602060405180830381600087803b15801561155a57600080fd5b505af115801561156e573d6000803e3d6000fd5b505050506040513d601f19601f8201168201806040525081019061159291906128e2565b6115d1576040517f08c379a00000000000000000000000000000000000000000000000000000000081526004016115c890613056565b60405180910390fd5b601960009054906101000a900473ffffffffffffffffffffffffffffffffffffffff1673ffffffffffffffffffffffffffffffffffffffff1663dbdff2c16040518163ffffffff1660e01b8152600401602060405180830381600087803b15801561163b57600080fd5b505af115801561164f573d6000803e3d6000fd5b505050506040513d601f19601f820116820180604052508101906116739190612934565b600a8190555062989680601960009054906101000a900473ffffffffffffffffffffffffffffffffffffffff1673ffffffffffffffffffffffffffffffffffffffff1663edd3159d6040518163ffffffff1660e01b815260040160206040518083038186803b1580156116e557600080fd5b505afa1580156116f9573d6000803e3d6000fd5b505050506040513d601f19601f8201168201806040525081019061171d9190612a93565b8161172457fe5b04600c81905550600c5491505090565b6000600190505b6006811215611780576001600e600083815260200190815260200160002060050160006101000a81548160ff021916908315150217905550808060010191505061173b565b50565b6001601a8190555060006006905062989680428161179d57fe5b04600c819055506000600190505b60038113611be1576000600190505b60126000838152602001908152602001600020600101548113611bd35760018360ff1682600c5402816117e957fe5b0701600e6000601a548152602001908152602001600020600001819055506118246001600283600c54028161181a57fe5b0701601a54610beb565b600160065482600c54028161183557fe5b0701600e6000601a548152602001908152602001600020600101819055506000600e6000601a5481526020019081526020016000206002018190555081600e6000601a548152602001908152602001600020600301819055506011600060018152602001908152602001600020600e6000601a54815260200190815260200160002060040190805460018160011615610100020316600290046118d99291906125ca565b506000600e6000601a54815260200190815260200160002060050160006101000a81548160ff0219169083151502179055506000600e6000601a54815260200190815260200160002060050160016101000a81548160ff021916908315150217905550601a54600f6000601a54815260200190815260200160002060000181905550611992600d6000600e6000601a548152602001908152602001600020600101548152602001908152602001600020600001546112da565b600f6000601a54815260200190815260200160002060010190805190602001906119bd929190612651565b5060136000600e6000601a548152602001908152602001600020600001548152602001908152602001600020600101600f6000601a5481526020019081526020016000206002019080546001816001161561010002031660029004611a239291906125ca565b5060405180602001604052806000815250600f6000601a5481526020019081526020016000206003019080519060200190611a5f929190612651565b5042600f6000601a5481526020019081526020016000206004018190555060126000600e6000601a548152602001908152602001600020600301548152602001908152602001600020600201600f6000601a5481526020019081526020016000206005019080546001816001161561010002031660029004611ae29291906125ca565b50600e6000601a548152602001908152602001600020600401600f6000601a5481526020019081526020016000206006019080546001816001161561010002031660029004611b329291906125ca565b50611b6a600d6000600e6000601a548152602001908152602001600020600101548152602001908152602001600020600401546112da565b600f6000601a5481526020019081526020016000206007019080519060200190611b95929190612651565b506000600f6000601a54815260200190815260200160002060080181905550601a6000815480929190600101919050555080806001019150506117ba565b5080806001019150506117ab565b5050565b600090565b601b6000611bf891906126d1565b60006012600060038152602001908152602001600020600101546012600060028152602001908152602001600020600101546012600060018152602001908152602001600020600101540101905060008190505b6000811315611ce157600e600082815260200190815260200160002060050160009054906101000a900460ff1680611ca45750600e600082815260200190815260200160002060050160019054906101000a900460ff165b15611cd357601b8190806001815401808255809150506001900390600052602060002001600090919091909150555b808060019003915050611c4c565b5050565b6000611cef6125a0565b90508073ffffffffffffffffffffffffffffffffffffffff1663a9059cbb601460009054906101000a900473ffffffffffffffffffffffffffffffffffffffff168373ffffffffffffffffffffffffffffffffffffffff166370a08231306040518263ffffffff1660e01b8152600401611d699190612ccd565b60206040518083038186803b158015611d8157600080fd5b505afa158015611d95573d6000803e3d6000fd5b505050506040513d601f19601f82011682018060405250810190611db99190612a93565b6040518363ffffffff1660e01b8152600401611dd6929190612ce8565b602060405180830381600087803b158015611df057600080fd5b505af1158015611e04573d6000803e3d6000fd5b505050506040513d601f19601f82011682018060405250810190611e2891906128e2565b611e67576040517f08c379a0000000000000000000000000000000000000000000000000000000008152600401611e5e90613056565b60405180910390fd5b601560009054906101000a900473ffffffffffffffffffffffffffffffffffffffff1673ffffffffffffffffffffffffffffffffffffffff16632b8dc6ff6006546040518263ffffffff1660e01b8152600401611ec49190612db6565b600060405180830381600087803b158015611ede57600080fd5b505af1158015611ef2573d6000803e3d6000fd5b5050505050565b600a5481565b600e602052806000526040600020600091509050806000015490806001015490806002015490806003015490806004018054600181600116156101000203166002900480601f016020809104026020016040519081016040528092919081815260200182805460018160011615610100020316600290048015611fc35780601f10611f9857610100808354040283529160200191611fc3565b820191906000526020600020905b815481529060010190602001808311611fa657829003601f168201915b5050505050908060050160009054906101000a900460ff16908060050160019054906101000a900460ff16905087565b600d602052806000526040600020600091509050806000015490806001015490806002015490806003015490806004015490806005018054600181600116156101000203166002900480601f0160208091040260200160405190810160405280929190818152602001828054600181600116156101000203166002900480156120bd5780601f10612092576101008083540402835291602001916120bd565b820191906000526020600020905b8154815290600101906020018083116120a057829003601f168201915b5050505050905086565b6000600190505b600654811361259757601560009054906101000a900473ffffffffffffffffffffffffffffffffffffffff1673ffffffffffffffffffffffffffffffffffffffff166303b60331826040518263ffffffff1660e01b81526004016121329190612db6565b60206040518083038186803b15801561214a57600080fd5b505afa15801561215e573d6000803e3d6000fd5b505050506040513d601f19601f820116820180604052508101906121829190612934565b600d600083815260200190815260200160002060000181905550601560009054906101000a900473ffffffffffffffffffffffffffffffffffffffff1673ffffffffffffffffffffffffffffffffffffffff1663f771044a826040518263ffffffff1660e01b81526004016121f79190612db6565b60206040518083038186803b15801561220f57600080fd5b505afa158015612223573d6000803e3d6000fd5b505050506040513d601f19601f820116820180604052508101906122479190612934565b600d600083815260200190815260200160002060010181905550601560009054906101000a900473ffffffffffffffffffffffffffffffffffffffff1673ffffffffffffffffffffffffffffffffffffffff166319eb4d4d826040518263ffffffff1660e01b81526004016122bc9190612db6565b60206040518083038186803b1580156122d457600080fd5b505afa1580156122e8573d6000803e3d6000fd5b505050506040513d601f19601f8201168201806040525081019061230c9190612934565b600d600083815260200190815260200160002060020181905550601560009054906101000a900473ffffffffffffffffffffffffffffffffffffffff1673ffffffffffffffffffffffffffffffffffffffff1663ebab4ffe826040518263ffffffff1660e01b81526004016123819190612db6565b60206040518083038186803b15801561239957600080fd5b505afa1580156123ad573d6000803e3d6000fd5b505050506040513d601f19601f820116820180604052508101906123d19190612934565b600d600083815260200190815260200160002060030181905550601560009054906101000a900473ffffffffffffffffffffffffffffffffffffffff1673ffffffffffffffffffffffffffffffffffffffff1663f4f20d7a826040518263ffffffff1660e01b81526004016124469190612db6565b60206040518083038186803b15801561245e57600080fd5b505afa158015612472573d6000803e3d6000fd5b505050506040513d601f19601f820116820180604052508101906124969190612934565b600d600083815260200190815260200160002060040181905550601560009054906101000a900473ffffffffffffffffffffffffffffffffffffffff1673ffffffffffffffffffffffffffffffffffffffff16631fd038b5826040518263ffffffff1660e01b815260040161250b9190612db6565b60006040518083038186803b15801561252357600080fd5b505afa158015612537573d6000803e3d6000fd5b505050506040513d6000823e3d601f19601f82011682018060405250810190612560919061295d565b600d600083815260200190815260200160002060050190805190602001906125899291906126f2565b5080806001019150506120ce565b50565b600c5481565b6000600260009054906101000a900473ffffffffffffffffffffffffffffffffffffffff16905090565b828054600181600116156101000203166002900490600052602060002090601f016020900481019282601f106126035780548555612640565b8280016001018555821561264057600052602060002091601f016020900482015b8281111561263f578254825591600101919060010190612624565b5b50905061264d9190612772565b5090565b828054600181600116156101000203166002900490600052602060002090601f016020900481019282601f1061269257805160ff19168380011785556126c0565b828001600101855582156126c0579182015b828111156126bf5782518255916020019190600101906126a4565b5b5090506126cd9190612772565b5090565b50805460008255906000526020600020908101906126ef9190612797565b50565b828054600181600116156101000203166002900490600052602060002090601f016020900481019282601f1061273357805160ff1916838001178555612761565b82800160010185558215612761579182015b82811115612760578251825591602001919060010190612745565b5b50905061276e9190612772565b5090565b61279491905b80821115612790576000816000905550600101612778565b5090565b90565b6127b991905b808211156127b557600081600090555060010161279d565b5090565b90565b6000813590506127cb8161323c565b92915050565b6000815190506127e081613253565b92915050565b6000813590506127f58161326a565b92915050565b60008151905061280a8161326a565b92915050565b600082601f83011261282157600080fd5b815161283461282f826130be565b613091565b9150808252602083016020830185838301111561285057600080fd5b61285b8382846131f8565b50505092915050565b60008135905061287381613281565b92915050565b600082601f83011261288a57600080fd5b815161289d612898826130ea565b613091565b915080825260208301602083018583830111156128b957600080fd5b6128c48382846131f8565b50505092915050565b6000815190506128dc81613298565b92915050565b6000602082840312156128f457600080fd5b6000612902848285016127d1565b91505092915050565b60006020828403121561291d57600080fd5b600061292b848285016127e6565b91505092915050565b60006020828403121561294657600080fd5b6000612954848285016127fb565b91505092915050565b60006020828403121561296f57600080fd5b600082015167ffffffffffffffff81111561298957600080fd5b61299584828501612810565b91505092915050565b6000602082840312156129b057600080fd5b60006129be84828501612864565b91505092915050565b6000806000606084860312156129dc57600080fd5b60006129ea86828701612864565b93505060206129fb868287016127bc565b9250506040612a0c86828701612864565b9150509250925092565b60008060408385031215612a2957600080fd5b6000612a3785828601612864565b9250506020612a4885828601612864565b9150509250929050565b600060208284031215612a6457600080fd5b600082015167ffffffffffffffff811115612a7e57600080fd5b612a8a84828501612879565b91505092915050565b600060208284031215612aa557600080fd5b6000612ab3848285016128cd565b91505092915050565b6000612ac88383612b98565b60208301905092915050565b612add8161319c565b82525050565b6000612aee8261313b565b612af88185613169565b9350612b0383613116565b8060005b83811015612b34578151612b1b8882612abc565b9750612b268361315c565b925050600181019050612b07565b5085935050505092915050565b612b4a816131ae565b82525050565b612b59816131ba565b82525050565b6000612b6a82613146565b612b74818561317a565b9350612b848185602086016131f8565b612b8d8161322b565b840191505092915050565b612ba1816131c4565b82525050565b612bb0816131c4565b82525050565b6000612bc182613151565b612bcb818561318b565b9350612bdb8185602086016131f8565b612be48161322b565b840191505092915050565b600081546001811660008114612c0c5760018114612c3257612c76565b607f6002830416612c1d818761318b565b955060ff198316865260208601935050612c76565b60028204612c40818761318b565b9550612c4b85613126565b60005b82811015612c6d57815481890152600182019150602081019050612c4e565b80880195505050505b505092915050565b6000612c8b60128361318b565b91507f556e61626c6520746f207472616e7366657200000000000000000000000000006000830152602082019050919050565b612cc7816131ee565b82525050565b6000602082019050612ce26000830184612ad4565b92915050565b6000604082019050612cfd6000830185612ad4565b612d0a6020830184612cbe565b9392505050565b60006020820190508181036000830152612d2b8184612ae3565b905092915050565b6000602082019050612d486000830184612b50565b92915050565b600060c082019050612d636000830189612b50565b612d706020830188612b50565b612d7d6040830187612b50565b612d8a6060830186612b50565b612d976080830185612b50565b81810360a0830152612da98184612b5f565b9050979650505050505050565b6000602082019050612dcb6000830184612ba7565b92915050565b6000604082019050612de66000830185612ba7565b612df36020830184612ba7565b9392505050565b6000606082019050612e0f6000830186612ba7565b612e1c6020830185612ba7565b8181036040830152612e2e8184612bb6565b9050949350505050565b600060e082019050612e4d600083018a612ba7565b612e5a6020830189612ba7565b612e676040830188612cbe565b612e746060830187612ba7565b8181036080830152612e868186612bb6565b9050612e9560a0830185612b41565b612ea260c0830184612b41565b98975050505050505050565b600061012082019050612ec4600083018c612ba7565b8181036020830152612ed6818b612bb6565b90508181036040830152612eea818a612bb6565b90508181036060830152612efe8189612bb6565b9050612f0d6080830188612cbe565b81810360a0830152612f1f8187612bb6565b905081810360c0830152612f338186612bb6565b905081810360e0830152612f478185612bb6565b9050612f57610100830184612ba7565b9a9950505050505050505050565b60006020820190508181036000830152612f7f8184612bb6565b905092915050565b60006040820190508181036000830152612fa18185612bb6565b90508181036020830152612fb58184612bb6565b90509392505050565b60006060820190508181036000830152612fd88186612bb6565b90508181036020830152612fec8185612bb6565b905081810360408301526130008184612bb6565b9050949350505050565b600060608201905081810360008301526130248186612bb6565b905081810360208301526130388185612bef565b9050818103604083015261304c8184612bb6565b9050949350505050565b6000602082019050818103600083015261306f81612c7e565b9050919050565b600060208201905061308b6000830184612cbe565b92915050565b6000604051905081810181811067ffffffffffffffff821117156130b457600080fd5b8060405250919050565b600067ffffffffffffffff8211156130d557600080fd5b601f19601f8301169050602081019050919050565b600067ffffffffffffffff82111561310157600080fd5b601f19601f8301169050602081019050919050565b6000819050602082019050919050565b60008190508160005260206000209050919050565b600081519050919050565b600081519050919050565b600081519050919050565b6000602082019050919050565b600082825260208201905092915050565b600082825260208201905092915050565b600082825260208201905092915050565b60006131a7826131ce565b9050919050565b60008115159050919050565b6000819050919050565b6000819050919050565b600073ffffffffffffffffffffffffffffffffffffffff82169050919050565b6000819050919050565b60005b838110156132165780820151818401526020810190506131fb565b83811115613225576000848401525b50505050565b6000601f19601f8301169050919050565b6132458161319c565b811461325057600080fd5b50565b61325c816131ae565b811461326757600080fd5b50565b613273816131ba565b811461327e57600080fd5b50565b61328a816131c4565b811461329557600080fd5b50565b6132a1816131ee565b81146132ac57600080fd5b5056fe68747470733a2f2f6d696e2d6170692e63727970746f636f6d706172652e636f6d2f646174612f70726963656d756c746966756c6c3f6673796d733da2646970667358221220d0f080ed0fd6b92a03b1b09c98a71c6f2ecd370df4ffe222e634fa644e4edc6364736f6c63430006060033477565737320746865207365636f6e642064696769742061667465722074686520646563696d616c20706f696e744775657373207468652066697273742064696769742061667465722074686520646563696d616c20706f696e7447756573732072656d61696e646572206f6620766f6c756d6520646976696465642062792033",
  "immutableReferences": {},
  "source": "// SPDX-License-Identifier: GPL-3.0\n\npragma solidity >=0.6.0 <0.9.0;\npragma experimental ABIEncoderV2;\n\nimport \"@chainlink/contracts/src/v0.6/ChainlinkClient.sol\";\n\ninterface GetCurrencyInfoInterface {\n    function addCurrency(int256 _currencyQuantity) external;\n\n    function getCurrencyName(int256 _id) external view returns (bytes32);\n\n    function getCurrencyFullName(int256 _id) external view returns (bytes32);\n\n    function getCurrencyOverviewUrl(int256 _id) external view returns (bytes32);\n\n    function getCurrencyAssetLaunchDate(int256 _id)\n        external\n        view\n        returns (bytes32);\n\n    function getCurrencyLogoUrl(int256 _id) external view returns (bytes32);\n\n    function getCurrencyIntro(int256 _id) external view returns (bytes memory);\n}\n\ninterface GetAnswerInterface {\n    function strAdd(\n        string calldata _a,\n        string calldata _b,\n        string calldata _c\n    ) external returns (string memory);\n\n    function getVolume() external view returns (uint256);\n\n    function requestVolumeData(\n        string calldata _currenyName,\n        string calldata _questionName,\n        string calldata _apiUrl\n    ) external returns (bytes32 requestId);\n}\n\ninterface GetVRFInterface {\n    function getVRF() external view returns (uint256);\n\n    function getRandomNumber() external returns (bytes32 requestId);\n}\n\ncontract AddGameInfo is ChainlinkClient {\n    int256 public currencyQuantity;\n    int256 public dailyGameQuantity;\n    int256 public weeklyGameQuantity;\n    int256 public monthlyGameQuantity;\n    bytes32 public reqID_VRF;\n    int256 public rand_b;\n    uint256 public randomNum;\n\n    // Key: gameListId\n    struct GameList {\n        int256 questionId; // 2 items\n        int256 currencyId; // which currency  // currencyQuantity items\n        uint256 revealTime; // gameParticipateStartTime\n        int256 lifeLengthId; // 3 items\n        string property; // 1 items\n        bool isActivity; //\n        bool isClose; //\n    }\n\n    struct CurrencyList {\n        bytes32 name;\n        bytes32 fullName;\n        bytes32 overviewUrl;\n        bytes32 assetLaunchDate;\n        bytes32 logoUrl;\n        bytes currencyIntro;\n    }\n\n    struct QuestionList {\n        string questionName; //path\n        string questionDescription; //question text\n    }\n\n    struct OptionsList {\n        int256 optionsContet;\n        int256 userQuantity;\n        address[] userAddress;\n    }\n\n    struct LifeLengthList {\n        int256 lifeLength; // daily=1,weekly=7,monthly=30\n        int256 gameQuantity; // daily=30,weekly=4,monthly=1\n        string title;\n    }\n\n    struct GameInfo {\n        int256 gameId;\n        string gameTitle;\n        string gameQuestion;\n        string gameDescription;\n        uint256 gameParticipateStartTime;\n        string gameWindow; // Daily, Weekly, Monthly, Lifetime\n        string gameProperty;\n        string gameLogoLink;\n        int256 numOfParticipants;\n    }\n\n    mapping(int256 => CurrencyList) public currencyList;\n    mapping(int256 => GameList) public gameList;\n    mapping(int256 => GameInfo) public gameInfoList;\n    mapping(int256 => mapping(int256 => OptionsList)) public optionsList; // key: gamiListId\n    mapping(int256 => string) public propertyList;\n    mapping(int256 => LifeLengthList) public lifeLengthList;\n    mapping(int256 => QuestionList) public questionList;\n\n    address GetCurrencyInfoInterfaceAddress =\n        0xa580D0eF1d8bDefdcD06059f3B81D305778ab617;\n    GetCurrencyInfoInterface getCurrencyInfoContract =\n        GetCurrencyInfoInterface(GetCurrencyInfoInterfaceAddress);\n\n    address GetAnswerInterfaceAddress =\n        0x6f33ed84c014F72D23240b9Ed589959a8c226C76;\n    GetAnswerInterface getAnswerContract =\n        GetAnswerInterface(GetCurrencyInfoInterfaceAddress);\n\n    address GetVRFInterfaceAddress = 0x40C7b80E812a3683d651DB8b38278A256f51362D;\n    GetVRFInterface getVRFContract = GetVRFInterface(GetVRFInterfaceAddress);\n\n    constructor() public {\n        setPublicChainlinkToken();\n\n        questionList[1].questionName = \"PRICE\";\n        questionList[1]\n            .questionDescription = \"Guess the second digit after the decimal point\";\n\n        questionList[2].questionName = \"PRICE\";\n        questionList[2].questionDescription = \"Guess the units\";\n\n        questionList[3].questionName = \"PRICE\";\n        questionList[3].questionDescription = \"Guess the tens\";\n\n        questionList[4].questionName = \"PRICE\";\n        questionList[4].questionDescription = \"Guess the hundreds\";\n\n        questionList[5].questionName = \"PRICE\";\n        questionList[5]\n            .questionDescription = \"Guess the first digit after the decimal point\";\n\n        questionList[6].questionName = \"VOLUME\";\n        questionList[6]\n            .questionDescription = \"Guess remainder of volume divided by 3\";\n\n        propertyList[1] = \"Crypto Currency\";\n\n        lifeLengthList[1].lifeLength = 1;\n        lifeLengthList[1].gameQuantity = 10;\n        lifeLengthList[1].title = \"Daily\";\n\n        lifeLengthList[2].lifeLength = 7;\n        lifeLengthList[2].gameQuantity = 4;\n        lifeLengthList[2].title = \"Weekly\";\n\n        lifeLengthList[3].lifeLength = 30;\n        lifeLengthList[3].gameQuantity = 1;\n        lifeLengthList[3].title = \"Monthly\";\n\n        currencyQuantity = 10;\n    }\n\n    // (SKIP)  1\n    function makeCurrencyList() public {\n        LinkTokenInterface linkToken =\n            LinkTokenInterface(chainlinkTokenAddress());\n        require(\n            linkToken.transfer(\n                GetCurrencyInfoInterfaceAddress,\n                linkToken.balanceOf(address(this))\n            ),\n            \"Unable to transfer\"\n        );\n        getCurrencyInfoContract.addCurrency(currencyQuantity);\n    }\n\n    // 2\n    function getCurrencyList() public {\n        for (int256 i = 1; i <= currencyQuantity; i++) {\n            currencyList[i].name = getCurrencyInfoContract.getCurrencyName(i);\n            currencyList[i].fullName = getCurrencyInfoContract\n                .getCurrencyFullName(i);\n            currencyList[i].overviewUrl = getCurrencyInfoContract\n                .getCurrencyOverviewUrl(i);\n            currencyList[i].assetLaunchDate = getCurrencyInfoContract\n                .getCurrencyAssetLaunchDate(i);\n            currencyList[i].logoUrl = getCurrencyInfoContract\n                .getCurrencyLogoUrl(i);\n            currencyList[i].currencyIntro = getCurrencyInfoContract\n                .getCurrencyIntro(i);\n        }\n    }\n\n    function getRandom() public returns (int256) {\n        LinkTokenInterface linkToken =\n            LinkTokenInterface(chainlinkTokenAddress());\n        require(\n            linkToken.transfer(\n                GetVRFInterfaceAddress,\n                linkToken.balanceOf(address(this))\n            ),\n            \"Unable to transfer\"\n        );\n        reqID_VRF = getVRFContract.getRandomNumber();\n        randomNum = getVRFContract.getVRF() / 10000000;\n        return int256(randomNum);\n    }\n\n    // 3.5\n    function makeOptions(int256 _questionId, int256 _gameId) public {\n        if (_questionId == 1) {\n            optionsList[_gameId][1].optionsContet = 1;\n            optionsList[_gameId][2].optionsContet = 2;\n            optionsList[_gameId][3].optionsContet = 3;\n            optionsList[_gameId][4].optionsContet = 4;\n            optionsList[_gameId][5].optionsContet = 5;\n            optionsList[_gameId][6].optionsContet = 6;\n            optionsList[_gameId][7].optionsContet = 7;\n            optionsList[_gameId][8].optionsContet = 8;\n            optionsList[_gameId][9].optionsContet = 9;\n            optionsList[_gameId][10].optionsContet = 0;\n        } else if (_questionId == 2) {\n            optionsList[_gameId][1].optionsContet = 0;\n            optionsList[_gameId][2].optionsContet = 1;\n            optionsList[_gameId][3].optionsContet = 2;\n        }\n    }\n\n    // 3\n    int256 currentTotalGameQty;\n\n    function makeDailyGame() public {\n        currentTotalGameQty = 1;\n        uint8 totalQuestion = 6;\n        randomNum = now / 10000000;\n        for (int256 i = 1; i <= 3; i++) {\n            // i=1 daily,i=2 weekly,i=3 monthly\n            for (\n                int256 gameId = 1;\n                gameId <= lifeLengthList[i].gameQuantity;\n                gameId++\n            ) {\n                // gameList for indexes\n                gameList[currentTotalGameQty].questionId = int256(\n                    ((int256(randomNum) * gameId) % totalQuestion) + 1\n                );\n                makeOptions(\n                    ((int256(randomNum) * gameId) % 2) + 1,\n                    currentTotalGameQty\n                );\n                gameList[currentTotalGameQty].currencyId =\n                    ((int256(randomNum) * gameId) % currencyQuantity) +\n                    1;\n                gameList[currentTotalGameQty].revealTime = 0;\n                gameList[currentTotalGameQty].lifeLengthId = i;\n                gameList[currentTotalGameQty].property = propertyList[1];\n                gameList[currentTotalGameQty].isActivity = false;\n                gameList[currentTotalGameQty].isClose = false;\n\n                // gameInfo for details\n                gameInfoList[currentTotalGameQty].gameId = currentTotalGameQty;\n                gameInfoList[currentTotalGameQty].gameTitle = bytes32ToString(\n                    currencyList[gameList[currentTotalGameQty].currencyId].name\n                );\n                gameInfoList[currentTotalGameQty].gameQuestion = questionList[\n                    gameList[currentTotalGameQty].questionId\n                ]\n                    .questionDescription;\n                // gameInfoList[currentTotalGameQty].gameDescription = currencyList[gameList[currentTotalGameQty].currencyId].currencyIntro;\n                gameInfoList[currentTotalGameQty].gameDescription = \"\";\n                gameInfoList[currentTotalGameQty]\n                    .gameParticipateStartTime = now;\n                gameInfoList[currentTotalGameQty].gameWindow = lifeLengthList[\n                    gameList[currentTotalGameQty].lifeLengthId\n                ]\n                    .title;\n                gameInfoList[currentTotalGameQty].gameProperty = gameList[\n                    currentTotalGameQty\n                ]\n                    .property;\n                gameInfoList[currentTotalGameQty]\n                    .gameLogoLink = bytes32ToString(\n                    currencyList[gameList[currentTotalGameQty].currencyId]\n                        .logoUrl\n                );\n                gameInfoList[currentTotalGameQty].numOfParticipants = 0;\n\n                currentTotalGameQty++;\n            }\n        }\n    }\n\n    // 4\n    function activeGameStatus() public {\n        for (int256 i = 1; i < 6; i++) {\n            gameList[i].isActivity = true;\n        }\n    }\n\n    int256[] availableGameIds;\n\n    function storeAvailableGameIds() public {\n        delete availableGameIds;\n        int256 totalGameQty =\n            lifeLengthList[1].gameQuantity +\n                lifeLengthList[2].gameQuantity +\n                lifeLengthList[3].gameQuantity;\n        for (int256 gameId = totalGameQty; gameId > 0; gameId--) {\n            if (gameList[gameId].isActivity || gameList[gameId].isClose) {\n                availableGameIds.push(gameId);\n            }\n        }\n    }\n\n    function getAvailableGameIds() public view returns (int256[] memory) {\n        int256[] memory list = availableGameIds;\n        return list;\n    }\n\n    function bytes32ToString(bytes32 _bytes32) public returns (string memory) {\n        uint8 i = 0;\n        while (i < 32 && _bytes32[i] != 0) {\n            i++;\n        }\n        bytes memory bytesArray = new bytes(i);\n        for (i = 0; i < 32 && _bytes32[i] != 0; i++) {\n            bytesArray[i] = _bytes32[i];\n        }\n        return string(bytesArray);\n    }\n\n    function getAnswer(int256 _gameId) public {\n        string memory url_main;\n        string memory url_sub;\n        bytes32 reqID;\n        string memory currencyName =\n            bytes32ToString(currencyList[gameList[_gameId].currencyId].name);\n\n        url_main = \"https://min-api.cryptocompare.com/data/pricemultifull?fsyms=\";\n        url_sub = \"&tsyms=USD\";\n\n        LinkTokenInterface linkToken =\n            LinkTokenInterface(chainlinkTokenAddress());\n        require(\n            linkToken.transfer(\n                GetAnswerInterfaceAddress,\n                linkToken.balanceOf(address(this))\n            ),\n            \"Unable to transfer\"\n        );\n\n        reqID = getAnswerContract.requestVolumeData(\n            currencyName,\n            questionList[gameList[_gameId].questionId].questionName,\n            getAnswerContract.strAdd(url_main, currencyName, url_sub)\n        );\n    }\n\n    function returnAnswer() public view returns (uint256) {\n        //return getAnswerContract.getVolume();\n    }\n\n    //\n    function addParticipant(\n        int256 _gameId,\n        address _userAddress,\n        int256 _optionId\n    ) public {\n        optionsList[_gameId][_optionId].userAddress.push(_userAddress);\n    }\n}\n",
  "sourcePath": "/Users/derekchou/Desktop/crypto/guess_get_gas/contracts/AddGameInfo.sol",
  "compiler": {
    "name": "solc",
    "version": "0.6.6+commit.6c089d02.Emscripten.clang"
  },
  "schemaVersion": "3.3.3",
  "updatedAt": "2021-04-11T01:17:46.840Z",
  "devdoc": {
    "methods": {}
  },
  "userdoc": {
    "methods": {}
  }
}