{
  "contractName": "AddGameInfo",
  "abi": [
    {
      "inputs": [],
      "stateMutability": "nonpayable",
      "type": "constructor"
    },
    {
      "anonymous": false,
      "inputs": [
        {
          "indexed": true,
          "internalType": "bytes32",
          "name": "id",
          "type": "bytes32"
        }
      ],
      "name": "ChainlinkCancelled",
      "type": "event"
    },
    {
      "anonymous": false,
      "inputs": [
        {
          "indexed": true,
          "internalType": "bytes32",
          "name": "id",
          "type": "bytes32"
        }
      ],
      "name": "ChainlinkFulfilled",
      "type": "event"
    },
    {
      "anonymous": false,
      "inputs": [
        {
          "indexed": true,
          "internalType": "bytes32",
          "name": "id",
          "type": "bytes32"
        }
      ],
      "name": "ChainlinkRequested",
      "type": "event"
    },
    {
      "inputs": [
        {
          "internalType": "int256",
          "name": "",
          "type": "int256"
        }
      ],
      "name": "currencyList",
      "outputs": [
        {
          "internalType": "bytes32",
          "name": "name",
          "type": "bytes32"
        },
        {
          "internalType": "bytes32",
          "name": "fullName",
          "type": "bytes32"
        },
        {
          "internalType": "bytes32",
          "name": "overviewUrl",
          "type": "bytes32"
        },
        {
          "internalType": "bytes32",
          "name": "assetLaunchDate",
          "type": "bytes32"
        },
        {
          "internalType": "bytes32",
          "name": "logoUrl",
          "type": "bytes32"
        },
        {
          "internalType": "string",
          "name": "currencyIntro",
          "type": "string"
        }
      ],
      "stateMutability": "view",
      "type": "function",
      "constant": true
    },
    {
      "inputs": [],
      "name": "currencyQuantity",
      "outputs": [
        {
          "internalType": "int256",
          "name": "",
          "type": "int256"
        }
      ],
      "stateMutability": "view",
      "type": "function",
      "constant": true
    },
    {
      "inputs": [],
      "name": "dailyGameQuantity",
      "outputs": [
        {
          "internalType": "int256",
          "name": "",
          "type": "int256"
        }
      ],
      "stateMutability": "view",
      "type": "function",
      "constant": true
    },
    {
      "inputs": [
        {
          "internalType": "int256",
          "name": "",
          "type": "int256"
        }
      ],
      "name": "gameInfoList",
      "outputs": [
        {
          "internalType": "int256",
          "name": "gameId",
          "type": "int256"
        },
        {
          "internalType": "string",
          "name": "gameTitle",
          "type": "string"
        },
        {
          "internalType": "string",
          "name": "gameQuestion",
          "type": "string"
        },
        {
          "internalType": "string",
          "name": "gameDescription",
          "type": "string"
        },
        {
          "internalType": "uint256",
          "name": "gameParticipateStartTime",
          "type": "uint256"
        },
        {
          "internalType": "string",
          "name": "gameWindow",
          "type": "string"
        },
        {
          "internalType": "string",
          "name": "gameProperty",
          "type": "string"
        },
        {
          "internalType": "string",
          "name": "gameLogoLink",
          "type": "string"
        },
        {
          "internalType": "int256",
          "name": "numOfParticipants",
          "type": "int256"
        }
      ],
      "stateMutability": "view",
      "type": "function",
      "constant": true
    },
    {
      "inputs": [
        {
          "internalType": "int256",
          "name": "",
          "type": "int256"
        }
      ],
      "name": "gameList",
      "outputs": [
        {
          "internalType": "int256",
          "name": "questionId",
          "type": "int256"
        },
        {
          "internalType": "int256",
          "name": "currencyId",
          "type": "int256"
        },
        {
          "internalType": "uint256",
          "name": "revealTime",
          "type": "uint256"
        },
        {
          "internalType": "int256",
          "name": "lifeLengthId",
          "type": "int256"
        },
        {
          "internalType": "string",
          "name": "property",
          "type": "string"
        },
        {
          "internalType": "bool",
          "name": "isActivity",
          "type": "bool"
        },
        {
          "internalType": "bool",
          "name": "isClose",
          "type": "bool"
        }
      ],
      "stateMutability": "view",
      "type": "function",
      "constant": true
    },
    {
      "inputs": [
        {
          "internalType": "int256",
          "name": "",
          "type": "int256"
        }
      ],
      "name": "lifeLengthList",
      "outputs": [
        {
          "internalType": "int256",
          "name": "lifeLength",
          "type": "int256"
        },
        {
          "internalType": "int256",
          "name": "gameQuantity",
          "type": "int256"
        },
        {
          "internalType": "string",
          "name": "title",
          "type": "string"
        }
      ],
      "stateMutability": "view",
      "type": "function",
      "constant": true
    },
    {
      "inputs": [],
      "name": "monthlyGameQuantity",
      "outputs": [
        {
          "internalType": "int256",
          "name": "",
          "type": "int256"
        }
      ],
      "stateMutability": "view",
      "type": "function",
      "constant": true
    },
    {
      "inputs": [
        {
          "internalType": "int256",
          "name": "",
          "type": "int256"
        },
        {
          "internalType": "int256",
          "name": "",
          "type": "int256"
        }
      ],
      "name": "optionsList",
      "outputs": [
        {
          "internalType": "int256",
          "name": "optionsContet",
          "type": "int256"
        },
        {
          "internalType": "int256",
          "name": "userQuantity",
          "type": "int256"
        }
      ],
      "stateMutability": "view",
      "type": "function",
      "constant": true
    },
    {
      "inputs": [
        {
          "internalType": "int256",
          "name": "",
          "type": "int256"
        }
      ],
      "name": "propertyList",
      "outputs": [
        {
          "internalType": "string",
          "name": "",
          "type": "string"
        }
      ],
      "stateMutability": "view",
      "type": "function",
      "constant": true
    },
    {
      "inputs": [
        {
          "internalType": "int256",
          "name": "",
          "type": "int256"
        }
      ],
      "name": "questionList",
      "outputs": [
        {
          "internalType": "string",
          "name": "questionName",
          "type": "string"
        },
        {
          "internalType": "string",
          "name": "questionDescription",
          "type": "string"
        }
      ],
      "stateMutability": "view",
      "type": "function",
      "constant": true
    },
    {
      "inputs": [],
      "name": "rand_b",
      "outputs": [
        {
          "internalType": "int256",
          "name": "",
          "type": "int256"
        }
      ],
      "stateMutability": "view",
      "type": "function",
      "constant": true
    },
    {
      "inputs": [],
      "name": "randomNum",
      "outputs": [
        {
          "internalType": "uint256",
          "name": "",
          "type": "uint256"
        }
      ],
      "stateMutability": "view",
      "type": "function",
      "constant": true
    },
    {
      "inputs": [],
      "name": "reqID_VRF",
      "outputs": [
        {
          "internalType": "bytes32",
          "name": "",
          "type": "bytes32"
        }
      ],
      "stateMutability": "view",
      "type": "function",
      "constant": true
    },
    {
      "inputs": [],
      "name": "totalGameQty",
      "outputs": [
        {
          "internalType": "int256",
          "name": "",
          "type": "int256"
        }
      ],
      "stateMutability": "view",
      "type": "function",
      "constant": true
    },
    {
      "inputs": [],
      "name": "weeklyGameQuantity",
      "outputs": [
        {
          "internalType": "int256",
          "name": "",
          "type": "int256"
        }
      ],
      "stateMutability": "view",
      "type": "function",
      "constant": true
    },
    {
      "inputs": [],
      "name": "makeCurrencyList",
      "outputs": [],
      "stateMutability": "nonpayable",
      "type": "function"
    },
    {
      "inputs": [],
      "name": "getCurrencyList",
      "outputs": [],
      "stateMutability": "nonpayable",
      "type": "function"
    },
    {
      "inputs": [],
      "name": "getRandom",
      "outputs": [
        {
          "internalType": "int256",
          "name": "",
          "type": "int256"
        }
      ],
      "stateMutability": "nonpayable",
      "type": "function"
    },
    {
      "inputs": [
        {
          "internalType": "int256",
          "name": "_questionId",
          "type": "int256"
        },
        {
          "internalType": "int256",
          "name": "_gameId",
          "type": "int256"
        }
      ],
      "name": "makeOptions",
      "outputs": [],
      "stateMutability": "nonpayable",
      "type": "function"
    },
    {
      "inputs": [],
      "name": "makeDailyGame",
      "outputs": [],
      "stateMutability": "nonpayable",
      "type": "function"
    },
    {
      "inputs": [],
      "name": "activeGameStatus",
      "outputs": [],
      "stateMutability": "nonpayable",
      "type": "function"
    },
    {
      "inputs": [],
      "name": "storeAvailableGameIds",
      "outputs": [],
      "stateMutability": "nonpayable",
      "type": "function"
    },
    {
      "inputs": [],
      "name": "getAvailableGameIds",
      "outputs": [
        {
          "internalType": "int256[]",
          "name": "",
          "type": "int256[]"
        }
      ],
      "stateMutability": "view",
      "type": "function",
      "constant": true
    },
    {
      "inputs": [
        {
          "internalType": "bytes32",
          "name": "_bytes32",
          "type": "bytes32"
        }
      ],
      "name": "bytes32ToString",
      "outputs": [
        {
          "internalType": "string",
          "name": "",
          "type": "string"
        }
      ],
      "stateMutability": "nonpayable",
      "type": "function"
    },
    {
      "inputs": [
        {
          "internalType": "int256",
          "name": "_gameId",
          "type": "int256"
        }
      ],
      "name": "getAnswer",
      "outputs": [],
      "stateMutability": "nonpayable",
      "type": "function"
    },
    {
      "inputs": [],
      "name": "returnAnswer",
      "outputs": [
        {
          "internalType": "uint256",
          "name": "",
          "type": "uint256"
        }
      ],
      "stateMutability": "view",
      "type": "function",
      "constant": true
    },
    {
      "inputs": [
        {
          "internalType": "int256",
          "name": "gameId",
          "type": "int256"
        }
      ],
      "name": "processGameResult",
      "outputs": [],
      "stateMutability": "nonpayable",
      "type": "function"
    },
    {
      "inputs": [
        {
          "internalType": "int256",
          "name": "gameId",
          "type": "int256"
        }
      ],
      "name": "getPreciseAnswer",
      "outputs": [
        {
          "internalType": "uint256",
          "name": "",
          "type": "uint256"
        }
      ],
      "stateMutability": "nonpayable",
      "type": "function"
    },
    {
      "inputs": [
        {
          "internalType": "int256",
          "name": "_gameId",
          "type": "int256"
        },
        {
          "internalType": "address",
          "name": "_userAddress",
          "type": "address"
        },
        {
          "internalType": "int256",
          "name": "_optionId",
          "type": "int256"
        }
      ],
      "name": "addParticipant",
      "outputs": [],
      "stateMutability": "nonpayable",
      "type": "function"
    },
    {
      "inputs": [],
      "name": "withdrawLink",
      "outputs": [],
      "stateMutability": "nonpayable",
      "type": "function"
    }
  ],
  "bytecode": "0x608060405260016004556298968042816200001657fe5b04600c557359f08372ab30e64f61af8594c1163379acad27c5601560006101000a81548173ffffffffffffffffffffffffffffffffffffffff021916908373ffffffffffffffffffffffffffffffffffffffff160217905550601560009054906101000a900473ffffffffffffffffffffffffffffffffffffffff16601660006101000a81548173ffffffffffffffffffffffffffffffffffffffff021916908373ffffffffffffffffffffffffffffffffffffffff16021790555073be56d8d1d1a529dd83f1188d3b0949a2828f45a5601760006101000a81548173ffffffffffffffffffffffffffffffffffffffff021916908373ffffffffffffffffffffffffffffffffffffffff160217905550601560009054906101000a900473ffffffffffffffffffffffffffffffffffffffff16601860006101000a81548173ffffffffffffffffffffffffffffffffffffffff021916908373ffffffffffffffffffffffffffffffffffffffff16021790555073a7986fb6438db392b60aaa6fba3b1b7c5514dd10601960006101000a81548173ffffffffffffffffffffffffffffffffffffffff021916908373ffffffffffffffffffffffffffffffffffffffff160217905550601960009054906101000a900473ffffffffffffffffffffffffffffffffffffffff16601a60006101000a81548173ffffffffffffffffffffffffffffffffffffffff021916908373ffffffffffffffffffffffffffffffffffffffff160217905550730404e505c13c659b444f3566777901c824c82566601b60006101000a81548173ffffffffffffffffffffffffffffffffffffffff021916908373ffffffffffffffffffffffffffffffffffffffff160217905550601b60009054906101000a900473ffffffffffffffffffffffffffffffffffffffff16601c60006101000a81548173ffffffffffffffffffffffffffffffffffffffff021916908373ffffffffffffffffffffffffffffffffffffffff1602179055503480156200030757600080fd5b506200032d73326c977e6efc84e512bb9c30f76e30c160ed06fb6200096e60201b60201c565b6040518060400160405280600681526020017f564f4c554d450000000000000000000000000000000000000000000000000000815250601460006001815260200190815260200160002060000190805190602001906200038f929190620009b2565b506040518060800160405280604f8152602001620044ab604f913960146000600181526020019081526020016000206001019080519060200190620003d6929190620009b2565b506040518060400160405280600681526020017f564f4c554d4500000000000000000000000000000000000000000000000000008152506014600060028152602001908152602001600020600001908051906020019062000439929190620009b2565b506040518060800160405280604b8152602001620044fa604b91396014600060028152602001908152602001600020600101908051906020019062000480929190620009b2565b506040518060400160405280600681526020017f564f4c554d45000000000000000000000000000000000000000000000000000081525060146000600381526020019081526020016000206000019080519060200190620004e3929190620009b2565b506040518060600160405280604081526020016200454560409139601460006003815260200190815260200160002060010190805190602001906200052a929190620009b2565b506040518060400160405280600581526020017f5052494345000000000000000000000000000000000000000000000000000000815250601460006004815260200190815260200160002060000190805190602001906200058d929190620009b2565b506040518060800160405280604a815260200162004585604a913960146000600481526020019081526020016000206001019080519060200190620005d4929190620009b2565b506040518060400160405280600581526020017f50524943450000000000000000000000000000000000000000000000000000008152506014600060058152602001908152602001600020600001908051906020019062000637929190620009b2565b506040518060800160405280604f8152602001620044ab604f9139601460006005815260200190815260200160002060010190805190602001906200067e929190620009b2565b506040518060400160405280600581526020017f505249434500000000000000000000000000000000000000000000000000000081525060146000600681526020019081526020016000206000019080519060200190620006e1929190620009b2565b5060405180606001604052806040815260200162004545604091396014600060068152602001908152602001600020600101908051906020019062000728929190620009b2565b506040518060400160405280600f81526020017f43727970746f2043757272656e637900000000000000000000000000000000008152506012600060018152602001908152602001600020908051906020019062000788929190620009b2565b506001601360006001815260200190815260200160002060000181905550600a6013600060018152602001908152602001600020600101819055506040518060400160405280600581526020017f4461696c790000000000000000000000000000000000000000000000000000008152506013600060018152602001908152602001600020600201908051906020019062000825929190620009b2565b50600760136000600281526020019081526020016000206000018190555060026013600060028152602001908152602001600020600101819055506040518060400160405280600681526020017f5765656b6c79000000000000000000000000000000000000000000000000000081525060136000600281526020019081526020016000206002019080519060200190620008c2929190620009b2565b50601e60136000600381526020019081526020016000206000018190555060016013600060038152602001908152602001600020600101819055506040518060400160405280600781526020017f4d6f6e74686c7900000000000000000000000000000000000000000000000000815250601360006003815260200190815260200160002060020190805190602001906200095f929190620009b2565b50600a60068190555062000a61565b80600260006101000a81548173ffffffffffffffffffffffffffffffffffffffff021916908373ffffffffffffffffffffffffffffffffffffffff16021790555050565b828054600181600116156101000203166002900490600052602060002090601f016020900481019282601f10620009f557805160ff191683800117855562000a26565b8280016001018555821562000a26579182015b8281111562000a2557825182559160200191906001019062000a08565b5b50905062000a35919062000a39565b5090565b62000a5e91905b8082111562000a5a57600081600090555060010162000a40565b5090565b90565b613a3a8062000a716000396000f3fe608060405234801561001057600080fd5b50600436106101da5760003560e01c80639201de5511610104578063c6b7bd4c116100a2578063e50f4c0b11610071578063e50f4c0b14610509578063f1feff341461053f578063f2ce4dc014610574578063f630aa651461057e576101da565b8063c6b7bd4c146104b9578063c96e6ec0146104c3578063d17f7b0d146104e1578063dc7c155f146104eb576101da565b8063be360d30116100de578063be360d3014610445578063c3f449c914610461578063c67a3d931461046b578063c696f06914610489576101da565b80639201de55146103ed578063aacc5a171461041d578063b8b5ecd11461043b576101da565b80633f5693b21161017c5780636c1c38ae1161014b5780636c1c38ae146103755780637421a206146103935780637ce6a0fb146103c55780638dc654a2146103e3576101da565b80633f5693b21461030157806349400fba1461031f578063494ca3221461033d5780636a22246714610359576101da565b806331e1bf38116101b857806331e1bf381461026457806332d4e5ec146102825780633c8130e3146102b25780633cb10333146102e3576101da565b8063063afb04146101df578063071c54431461021757806322c0391f14610248575b600080fd5b6101f960048036038101906101f49190612f95565b61059c565b60405161020e9998979695949392919061359e565b60405180910390f35b610231600480360381019061022c919061300d565b61097a565b60405161023f9291906134c1565b60405180910390f35b610262600480360381019061025d9190612fbe565b6109ab565b005b61026c610a6f565b6040516102799190613401565b60405180910390f35b61029c60048036038101906102979190612f95565b610acc565b6040516102a99190613655565b60405180910390f35b6102cc60048036038101906102c79190612f95565b610b7c565b6040516102da9291906136a7565b60405180910390f35b6102eb610cd0565b6040516102f891906134a6565b60405180910390f35b610309610cd6565b60405161031691906134a6565b60405180910390f35b610327610cdc565b60405161033491906134a6565b60405180910390f35b6103576004803603810190610352919061300d565b610ce2565b005b610373600480360381019061036e9190612f95565b610fe8565b005b61037d611396565b60405161038a91906134a6565b60405180910390f35b6103ad60048036038101906103a89190612f95565b61139c565b6040516103bc939291906134ea565b60405180910390f35b6103cd61145e565b6040516103da91906134a6565b60405180910390f35b6103eb611464565b005b61040760048036038101906104029190612f43565b6115c7565b6040516104149190613655565b60405180910390f35b61042561173b565b60405161043291906134a6565b60405180910390f35b610443611a21565b005b61045f600480360381019061045a9190612f95565b611bd9565b005b610469611e5b565b005b6104736122bd565b6040516104809190613796565b60405180910390f35b6104a3600480360381019061049e9190612f95565b6122c2565b6040516104b09190613796565b60405180910390f35b6104c1612378565b005b6104cb612473565b6040516104d891906134a6565b60405180910390f35b6104e9612479565b005b6104f361268d565b6040516105009190613423565b60405180910390f35b610523600480360381019061051e9190612f95565b612693565b6040516105369796959493929190613528565b60405180910390f35b61055960048036038101906105549190612f95565b612787565b60405161056b9695949392919061343e565b60405180910390f35b61057c61285b565b005b610586612c54565b6040516105939190613796565b60405180910390f35b6010602052806000526040600020600091509050806000015490806001018054600181600116156101000203166002900480601f01602080910402602001604051908101604052809291908181526020018280546001816001161561010002031660029004801561064e5780601f106106235761010080835404028352916020019161064e565b820191906000526020600020905b81548152906001019060200180831161063157829003601f168201915b505050505090806002018054600181600116156101000203166002900480601f0160208091040260200160405190810160405280929190818152602001828054600181600116156101000203166002900480156106ec5780601f106106c1576101008083540402835291602001916106ec565b820191906000526020600020905b8154815290600101906020018083116106cf57829003601f168201915b505050505090806003018054600181600116156101000203166002900480601f01602080910402602001604051908101604052809291908181526020018280546001816001161561010002031660029004801561078a5780601f1061075f5761010080835404028352916020019161078a565b820191906000526020600020905b81548152906001019060200180831161076d57829003601f168201915b505050505090806004015490806005018054600181600116156101000203166002900480601f01602080910402602001604051908101604052809291908181526020018280546001816001161561010002031660029004801561082e5780601f106108035761010080835404028352916020019161082e565b820191906000526020600020905b81548152906001019060200180831161081157829003601f168201915b505050505090806006018054600181600116156101000203166002900480601f0160208091040260200160405190810160405280929190818152602001828054600181600116156101000203166002900480156108cc5780601f106108a1576101008083540402835291602001916108cc565b820191906000526020600020905b8154815290600101906020018083116108af57829003601f168201915b505050505090806007018054600181600116156101000203166002900480601f01602080910402602001604051908101604052809291908181526020018280546001816001161561010002031660029004801561096a5780601f1061093f5761010080835404028352916020019161096a565b820191906000526020600020905b81548152906001019060200180831161094d57829003601f168201915b5050505050908060080154905089565b6011602052816000526040600020602052806000526040600020600091509150508060000154908060010154905082565b601160008481526020019081526020016000206000828152602001908152602001600020600201829080600181540180825580915050600190039060005260206000200160009091909190916101000a81548173ffffffffffffffffffffffffffffffffffffffff021916908373ffffffffffffffffffffffffffffffffffffffff16021790555060116000848152602001908152602001600020600082815260200190815260200160002060010160008154809291906001019190505550505050565b606080601e805480602002602001604051908101604052809291908181526020018280548015610abe57602002820191906000526020600020905b815481526020019060010190808311610aaa575b505050505090508091505090565b60126020528060005260406000206000915090508054600181600116156101000203166002900480601f016020809104026020016040519081016040528092919081815260200182805460018160011615610100020316600290048015610b745780601f10610b4957610100808354040283529160200191610b74565b820191906000526020600020905b815481529060010190602001808311610b5757829003601f168201915b505050505081565b6014602052806000526040600020600091509050806000018054600181600116156101000203166002900480601f016020809104026020016040519081016040528092919081815260200182805460018160011615610100020316600290048015610c285780601f10610bfd57610100808354040283529160200191610c28565b820191906000526020600020905b815481529060010190602001808311610c0b57829003601f168201915b505050505090806001018054600181600116156101000203166002900480601f016020809104026020016040519081016040528092919081815260200182805460018160011615610100020316600290048015610cc65780601f10610c9b57610100808354040283529160200191610cc6565b820191906000526020600020905b815481529060010190602001808311610ca957829003601f168201915b5050505050905082565b60085481565b60095481565b60075481565b6001821415610f4f57604051806101400160405280600160ff168152602001600260ff168152602001600360ff168152602001600460ff168152602001600560ff168152602001600660ff168152602001600760ff168152602001600860ff168152602001600960ff168152602001600060ff16815250600f600083815260200190815260200160002060060190600a610d7d929190612c84565b506001601160008381526020019081526020016000206000600181526020019081526020016000206000018190555060026011600083815260200190815260200160002060006002815260200190815260200160002060000181905550600360116000838152602001908152602001600020600060038152602001908152602001600020600001819055506004601160008381526020019081526020016000206000600481526020019081526020016000206000018190555060056011600083815260200190815260200160002060006005815260200190815260200160002060000181905550600660116000838152602001908152602001600020600060068152602001908152602001600020600001819055506007601160008381526020019081526020016000206000600781526020019081526020016000206000018190555060086011600083815260200190815260200160002060006008815260200190815260200160002060000181905550600960116000838152602001908152602001600020600060098152602001908152602001600020600001819055506000601160008381526020019081526020016000206000600a815260200190815260200160002060000181905550610fe4565b6002821415610fe3576000601160008381526020019081526020016000206000600181526020019081526020016000206000018190555060016011600083815260200190815260200160002060006002815260200190815260200160002060000181905550600260116000838152602001908152602001600020600060038152602001908152602001600020600001819055505b5b5050565b60608060006060611024600e6000600f6000898152602001908152602001600020600101548152602001908152602001600020600001546115c7565b90506040518060600160405280603c81526020016139c9603c913993506040518060400160405280600a81526020017f267473796d733d5553440000000000000000000000000000000000000000000081525092506000611083612c5a565b90508073ffffffffffffffffffffffffffffffffffffffff1663a9059cbb601760009054906101000a900473ffffffffffffffffffffffffffffffffffffffff168373ffffffffffffffffffffffffffffffffffffffff166370a08231306040518263ffffffff1660e01b81526004016110fd9190613394565b60206040518083038186803b15801561111557600080fd5b505afa158015611129573d6000803e3d6000fd5b505050506040513d601f19601f8201168201806040525081019061114d919061308a565b6040518363ffffffff1660e01b815260040161116a9291906133d8565b602060405180830381600087803b15801561118457600080fd5b505af1158015611198573d6000803e3d6000fd5b505050506040513d601f19601f820116820180604052508101906111bc9190612f1a565b6111fb576040517f08c379a00000000000000000000000000000000000000000000000000000000081526004016111f290613776565b60405180910390fd5b601860009054906101000a900473ffffffffffffffffffffffffffffffffffffffff1673ffffffffffffffffffffffffffffffffffffffff1663a8f2c5258360146000600f60008c8152602001908152602001600020600001548152602001908152602001600020600001601860009054906101000a900473ffffffffffffffffffffffffffffffffffffffff1673ffffffffffffffffffffffffffffffffffffffff16636b190f708a888b6040518463ffffffff1660e01b81526004016112c5939291906136de565b600060405180830381600087803b1580156112df57600080fd5b505af11580156112f3573d6000803e3d6000fd5b505050506040513d6000823e3d601f19601f8201168201806040525081019061131c9190613049565b6040518463ffffffff1660e01b815260040161133a9392919061372a565b602060405180830381600087803b15801561135457600080fd5b505af1158015611368573d6000803e3d6000fd5b505050506040513d601f19601f8201168201806040525081019061138c9190612f6c565b9250505050505050565b60065481565b6013602052806000526040600020600091509050806000015490806001015490806002018054600181600116156101000203166002900480601f0160208091040260200160405190810160405280929190818152602001828054600181600116156101000203166002900480156114545780601f1061142957610100808354040283529160200191611454565b820191906000526020600020905b81548152906001019060200180831161143757829003601f168201915b5050505050905083565b600b5481565b600061146e612c5a565b90508073ffffffffffffffffffffffffffffffffffffffff1663a9059cbb338373ffffffffffffffffffffffffffffffffffffffff166370a08231306040518263ffffffff1660e01b81526004016114c69190613394565b60206040518083038186803b1580156114de57600080fd5b505afa1580156114f2573d6000803e3d6000fd5b505050506040513d601f19601f82011682018060405250810190611516919061308a565b6040518363ffffffff1660e01b81526004016115339291906133af565b602060405180830381600087803b15801561154d57600080fd5b505af1158015611561573d6000803e3d6000fd5b505050506040513d601f19601f820116820180604052508101906115859190612f1a565b6115c4576040517f08c379a00000000000000000000000000000000000000000000000000000000081526004016115bb90613776565b60405180910390fd5b50565b606060008090505b60208160ff1610801561161a5750600060f81b838260ff16602081106115f157fe5b1a60f81b7effffffffffffffffffffffffffffffffffffffffffffffffffffffffffffff191614155b1561162c5780806001019150506115cf565b60608160ff1667ffffffffffffffff8111801561164857600080fd5b506040519080825280601f01601f19166020018201604052801561167b5781602001600182028036833780820191505090505b509050600091505b60208260ff161080156116ce5750600060f81b848360ff16602081106116a557fe5b1a60f81b7effffffffffffffffffffffffffffffffffffffffffffffffffffffffffffff191614155b1561173157838260ff16602081106116e257fe5b1a60f81b818360ff16815181106116f557fe5b60200101907effffffffffffffffffffffffffffffffffffffffffffffffffffffffffffff1916908160001a9053508180600101925050611683565b8092505050919050565b600080611746612c5a565b90508073ffffffffffffffffffffffffffffffffffffffff1663a9059cbb601960009054906101000a900473ffffffffffffffffffffffffffffffffffffffff168373ffffffffffffffffffffffffffffffffffffffff166370a08231306040518263ffffffff1660e01b81526004016117c09190613394565b60206040518083038186803b1580156117d857600080fd5b505afa1580156117ec573d6000803e3d6000fd5b505050506040513d601f19601f82011682018060405250810190611810919061308a565b6040518363ffffffff1660e01b815260040161182d9291906133d8565b602060405180830381600087803b15801561184757600080fd5b505af115801561185b573d6000803e3d6000fd5b505050506040513d601f19601f8201168201806040525081019061187f9190612f1a565b6118be576040517f08c379a00000000000000000000000000000000000000000000000000000000081526004016118b590613776565b60405180910390fd5b601a60009054906101000a900473ffffffffffffffffffffffffffffffffffffffff1673ffffffffffffffffffffffffffffffffffffffff1663dbdff2c16040518163ffffffff1660e01b8152600401602060405180830381600087803b15801561192857600080fd5b505af115801561193c573d6000803e3d6000fd5b505050506040513d601f19601f820116820180604052508101906119609190612f6c565b600a8190555062989680601a60009054906101000a900473ffffffffffffffffffffffffffffffffffffffff1673ffffffffffffffffffffffffffffffffffffffff1663edd3159d6040518163ffffffff1660e01b815260040160206040518083038186803b1580156119d257600080fd5b505afa1580156119e6573d6000803e3d6000fd5b505050506040513d601f19601f82011682018060405250810190611a0a919061308a565b81611a1157fe5b04600c81905550600c5491505090565b6001600f60006001815260200190815260200160002060050160006101000a81548160ff0219169083151502179055506001600f60006001815260200190815260200160002060050160016101000a81548160ff0219169083151502179055506001600f6000601360006001815260200190815260200160002060010154600101815260200190815260200160002060050160006101000a81548160ff0219169083151502179055506001600f6000601360006001815260200190815260200160002060010154600101815260200190815260200160002060050160016101000a81548160ff0219169083151502179055506001600f600060136000600281526020019081526020016000206001015460136000600181526020019081526020016000206001015460010101815260200190815260200160002060050160006101000a81548160ff0219169083151502179055506001600f600060136000600281526020019081526020016000206001015460136000600181526020019081526020016000206001015460010101815260200190815260200160002060050160016101000a81548160ff021916908315150217905550565b6000611be4826122c2565b90506000600190505b600f6000848152602001908152602001600020600601805490508111611e56576060601160008581526020019081526020016000206000838152602001908152602001600020600201805480602002602001604051908101604052809291908181526020018280548015611cb657602002820191906000526020600020905b8160009054906101000a900473ffffffffffffffffffffffffffffffffffffffff1673ffffffffffffffffffffffffffffffffffffffff1681526020019060010190808311611c6c575b5050505050905082600f60008681526020019081526020016000206006018381548110611cdf57fe5b90600052602060002001541415611e2a576001600f6000868152602001908152602001600020600301541415611e07576000600190505b81518111611e0157601c60009054906101000a900473ffffffffffffffffffffffffffffffffffffffff1673ffffffffffffffffffffffffffffffffffffffff1663b0eb5b63611d91600e6000600f60008b8152602001908152602001600020600101548152602001908152602001600020600001546115c7565b848681518110611d9d57fe5b60200260200101516040518363ffffffff1660e01b8152600401611dc2929190613677565b600060405180830381600087803b158015611ddc57600080fd5b505af1158015611df0573d6000803e3d6000fd5b505050508080600101915050611d16565b50611e25565b6000600190505b81518111611e23578080600101915050611e0e565b505b611e48565b6000600190505b81518111611e46578080600101915050611e31565b505b508080600101915050611bed565b505050565b6001601d81905550600060069050629896804281611e7557fe5b04600c819055506000600190505b600381136122b9576000600190505b601360008381526020019081526020016000206001015481136122ab5760018360ff1682600c540281611ec157fe5b0701600f6000601d54815260200190815260200160002060000181905550611efc6001600283600c540281611ef257fe5b0701601d54610ce2565b600160065482600c540281611f0d57fe5b0701600f6000601d548152602001908152602001600020600101819055506000600f6000601d5481526020019081526020016000206002018190555081600f6000601d548152602001908152602001600020600301819055506012600060018152602001908152602001600020600f6000601d5481526020019081526020016000206004019080546001816001161561010002031660029004611fb1929190612cd6565b506000600f6000601d54815260200190815260200160002060050160006101000a81548160ff0219169083151502179055506000600f6000601d54815260200190815260200160002060050160016101000a81548160ff021916908315150217905550601d5460106000601d5481526020019081526020016000206000018190555061206a600e6000600f6000601d548152602001908152602001600020600101548152602001908152602001600020600001546115c7565b60106000601d5481526020019081526020016000206001019080519060200190612095929190612d5d565b5060146000600f6000601d54815260200190815260200160002060000154815260200190815260200160002060010160106000601d54815260200190815260200160002060020190805460018160011615610100020316600290046120fb929190612cd6565b506040518060200160405280600081525060106000601d5481526020019081526020016000206003019080519060200190612137929190612d5d565b504260106000601d5481526020019081526020016000206004018190555060136000600f6000601d54815260200190815260200160002060030154815260200190815260200160002060020160106000601d54815260200190815260200160002060050190805460018160011615610100020316600290046121ba929190612cd6565b50600f6000601d54815260200190815260200160002060040160106000601d548152602001908152602001600020600601908054600181600116156101000203166002900461220a929190612cd6565b50612242600e6000600f6000601d548152602001908152602001600020600101548152602001908152602001600020600401546115c7565b60106000601d548152602001908152602001600020600701908051906020019061226d929190612d5d565b50600060106000601d54815260200190815260200160002060080181905550601d600081548092919060010191905055508080600101915050611e92565b508080600101915050611e83565b5050565b600090565b600080600f600084815260200190815260200160002060000154905060008061303690506040516020016122f59061337f565b60405160208183030381529060405280519060200120601460008581526020019081526020016000206000016040516020016123319190613368565b60405160208183030381529060405280519060200120141561235f57600a818161235757fe5b06915061236d565b6003818161236957fe5b0691505b819350505050919050565b601e60006123869190612ddd565b60006013600060038152602001908152602001600020600101546013600060028152602001908152602001600020600101546013600060018152602001908152602001600020600101540101905060008190505b600081131561246f57600f600082815260200190815260200160002060050160009054906101000a900460ff16806124325750600f600082815260200190815260200160002060050160019054906101000a900460ff165b1561246157601e8190806001815401808255809150506001900390600052602060002001600090919091909150555b8080600190039150506123da565b5050565b600d5481565b6000612483612c5a565b90508073ffffffffffffffffffffffffffffffffffffffff1663a9059cbb601560009054906101000a900473ffffffffffffffffffffffffffffffffffffffff168373ffffffffffffffffffffffffffffffffffffffff166370a08231306040518263ffffffff1660e01b81526004016124fd9190613394565b60206040518083038186803b15801561251557600080fd5b505afa158015612529573d6000803e3d6000fd5b505050506040513d601f19601f8201168201806040525081019061254d919061308a565b6040518363ffffffff1660e01b815260040161256a9291906133d8565b602060405180830381600087803b15801561258457600080fd5b505af1158015612598573d6000803e3d6000fd5b505050506040513d601f19601f820116820180604052508101906125bc9190612f1a565b6125fb576040517f08c379a00000000000000000000000000000000000000000000000000000000081526004016125f290613776565b60405180910390fd5b601660009054906101000a900473ffffffffffffffffffffffffffffffffffffffff1673ffffffffffffffffffffffffffffffffffffffff16632b8dc6ff6006546040518263ffffffff1660e01b815260040161265891906134a6565b600060405180830381600087803b15801561267257600080fd5b505af1158015612686573d6000803e3d6000fd5b5050505050565b600a5481565b600f602052806000526040600020600091509050806000015490806001015490806002015490806003015490806004018054600181600116156101000203166002900480601f0160208091040260200160405190810160405280929190818152602001828054600181600116156101000203166002900480156127575780601f1061272c57610100808354040283529160200191612757565b820191906000526020600020905b81548152906001019060200180831161273a57829003601f168201915b5050505050908060050160009054906101000a900460ff16908060050160019054906101000a900460ff16905087565b600e602052806000526040600020600091509050806000015490806001015490806002015490806003015490806004015490806005018054600181600116156101000203166002900480601f0160208091040260200160405190810160405280929190818152602001828054600181600116156101000203166002900480156128515780601f1061282657610100808354040283529160200191612851565b820191906000526020600020905b81548152906001019060200180831161283457829003601f168201915b5050505050905086565b6000600190505b6006548113612c5157601660009054906101000a900473ffffffffffffffffffffffffffffffffffffffff1673ffffffffffffffffffffffffffffffffffffffff166303b60331826040518263ffffffff1660e01b81526004016128c691906134a6565b60206040518083038186803b1580156128de57600080fd5b505afa1580156128f2573d6000803e3d6000fd5b505050506040513d601f19601f820116820180604052508101906129169190612f6c565b600e600083815260200190815260200160002060000181905550601660009054906101000a900473ffffffffffffffffffffffffffffffffffffffff1673ffffffffffffffffffffffffffffffffffffffff1663f771044a826040518263ffffffff1660e01b815260040161298b91906134a6565b60206040518083038186803b1580156129a357600080fd5b505afa1580156129b7573d6000803e3d6000fd5b505050506040513d601f19601f820116820180604052508101906129db9190612f6c565b600e600083815260200190815260200160002060010181905550601660009054906101000a900473ffffffffffffffffffffffffffffffffffffffff1673ffffffffffffffffffffffffffffffffffffffff166319eb4d4d826040518263ffffffff1660e01b8152600401612a5091906134a6565b60206040518083038186803b158015612a6857600080fd5b505afa158015612a7c573d6000803e3d6000fd5b505050506040513d601f19601f82011682018060405250810190612aa09190612f6c565b600e600083815260200190815260200160002060020181905550601660009054906101000a900473ffffffffffffffffffffffffffffffffffffffff1673ffffffffffffffffffffffffffffffffffffffff1663ebab4ffe826040518263ffffffff1660e01b8152600401612b1591906134a6565b60206040518083038186803b158015612b2d57600080fd5b505afa158015612b41573d6000803e3d6000fd5b505050506040513d601f19601f82011682018060405250810190612b659190612f6c565b600e600083815260200190815260200160002060030181905550601660009054906101000a900473ffffffffffffffffffffffffffffffffffffffff1673ffffffffffffffffffffffffffffffffffffffff1663f4f20d7a826040518263ffffffff1660e01b8152600401612bda91906134a6565b60206040518083038186803b158015612bf257600080fd5b505afa158015612c06573d6000803e3d6000fd5b505050506040513d601f19601f82011682018060405250810190612c2a9190612f6c565b600e6000838152602001908152602001600020600401819055508080600101915050612862565b50565b600c5481565b6000600260009054906101000a900473ffffffffffffffffffffffffffffffffffffffff16905090565b828054828255906000526020600020908101928215612cc5579160200282015b82811115612cc4578251829060ff16905591602001919060010190612ca4565b5b509050612cd29190612dfe565b5090565b828054600181600116156101000203166002900490600052602060002090601f016020900481019282601f10612d0f5780548555612d4c565b82800160010185558215612d4c57600052602060002091601f016020900482015b82811115612d4b578254825591600101919060010190612d30565b5b509050612d599190612e23565b5090565b828054600181600116156101000203166002900490600052602060002090601f016020900481019282601f10612d9e57805160ff1916838001178555612dcc565b82800160010185558215612dcc579182015b82811115612dcb578251825591602001919060010190612db0565b5b509050612dd99190612e23565b5090565b5080546000825590600052602060002090810190612dfb9190612dfe565b50565b612e2091905b80821115612e1c576000816000905550600101612e04565b5090565b90565b612e4591905b80821115612e41576000816000905550600101612e29565b5090565b90565b600081359050612e5781613955565b92915050565b600081519050612e6c8161396c565b92915050565b600081359050612e8181613983565b92915050565b600081519050612e9681613983565b92915050565b600081359050612eab8161399a565b92915050565b600082601f830112612ec257600080fd5b8151612ed5612ed0826137de565b6137b1565b91508082526020830160208301858383011115612ef157600080fd5b612efc838284613911565b50505092915050565b600081519050612f14816139b1565b92915050565b600060208284031215612f2c57600080fd5b6000612f3a84828501612e5d565b91505092915050565b600060208284031215612f5557600080fd5b6000612f6384828501612e72565b91505092915050565b600060208284031215612f7e57600080fd5b6000612f8c84828501612e87565b91505092915050565b600060208284031215612fa757600080fd5b6000612fb584828501612e9c565b91505092915050565b600080600060608486031215612fd357600080fd5b6000612fe186828701612e9c565b9350506020612ff286828701612e48565b925050604061300386828701612e9c565b9150509250925092565b6000806040838503121561302057600080fd5b600061302e85828601612e9c565b925050602061303f85828601612e9c565b9150509250929050565b60006020828403121561305b57600080fd5b600082015167ffffffffffffffff81111561307557600080fd5b61308184828501612eb1565b91505092915050565b60006020828403121561309c57600080fd5b60006130aa84828501612f05565b91505092915050565b60006130bf8383613165565b60208301905092915050565b6130d4816138db565b82525050565b6130e38161387f565b82525050565b60006130f48261382f565b6130fe8185613852565b93506131098361380a565b8060005b8381101561313a57815161312188826130b3565b975061312c83613845565b92505060018101905061310d565b5085935050505092915050565b61315081613891565b82525050565b61315f8161389d565b82525050565b61316e816138a7565b82525050565b61317d816138a7565b82525050565b600061318e8261383a565b6131988185613863565b93506131a8818560208601613911565b6131b181613944565b840191505092915050565b6000815460018116600081146131d957600181146131ff57613243565b607f60028304166131ea8187613863565b955060ff198316865260208601935050613243565b6002820461320d8187613863565b95506132188561381a565b60005b8281101561323a5781548189015260018201915060208101905061321b565b80880195505050505b505092915050565b600081546001811660008114613268576001811461328d576132d1565b607f60028304166132798187613874565b955060ff19831686528086019350506132d1565b6002820461329b8187613874565b95506132a68561381a565b60005b828110156132c8578154818901526001820191506020810190506132a9565b82880195505050505b505092915050565b60006132e6601283613863565b91507f556e61626c6520746f207472616e7366657200000000000000000000000000006000830152602082019050919050565b6000613326600583613874565b91507f50524943450000000000000000000000000000000000000000000000000000006000830152600582019050919050565b613362816138d1565b82525050565b6000613374828461324b565b915081905092915050565b600061338a82613319565b9150819050919050565b60006020820190506133a960008301846130da565b92915050565b60006040820190506133c460008301856130cb565b6133d16020830184613359565b9392505050565b60006040820190506133ed60008301856130da565b6133fa6020830184613359565b9392505050565b6000602082019050818103600083015261341b81846130e9565b905092915050565b60006020820190506134386000830184613156565b92915050565b600060c0820190506134536000830189613156565b6134606020830188613156565b61346d6040830187613156565b61347a6060830186613156565b6134876080830185613156565b81810360a08301526134998184613183565b9050979650505050505050565b60006020820190506134bb6000830184613174565b92915050565b60006040820190506134d66000830185613174565b6134e36020830184613174565b9392505050565b60006060820190506134ff6000830186613174565b61350c6020830185613174565b818103604083015261351e8184613183565b9050949350505050565b600060e08201905061353d600083018a613174565b61354a6020830189613174565b6135576040830188613359565b6135646060830187613174565b81810360808301526135768186613183565b905061358560a0830185613147565b61359260c0830184613147565b98975050505050505050565b6000610120820190506135b4600083018c613174565b81810360208301526135c6818b613183565b905081810360408301526135da818a613183565b905081810360608301526135ee8189613183565b90506135fd6080830188613359565b81810360a083015261360f8187613183565b905081810360c08301526136238186613183565b905081810360e08301526136378185613183565b9050613647610100830184613174565b9a9950505050505050505050565b6000602082019050818103600083015261366f8184613183565b905092915050565b600060408201905081810360008301526136918185613183565b90506136a060208301846130da565b9392505050565b600060408201905081810360008301526136c18185613183565b905081810360208301526136d58184613183565b90509392505050565b600060608201905081810360008301526136f88186613183565b9050818103602083015261370c8185613183565b905081810360408301526137208184613183565b9050949350505050565b600060608201905081810360008301526137448186613183565b9050818103602083015261375881856131bc565b9050818103604083015261376c8184613183565b9050949350505050565b6000602082019050818103600083015261378f816132d9565b9050919050565b60006020820190506137ab6000830184613359565b92915050565b6000604051905081810181811067ffffffffffffffff821117156137d457600080fd5b8060405250919050565b600067ffffffffffffffff8211156137f557600080fd5b601f19601f8301169050602081019050919050565b6000819050602082019050919050565b60008190508160005260206000209050919050565b600081519050919050565b600081519050919050565b6000602082019050919050565b600082825260208201905092915050565b600082825260208201905092915050565b600081905092915050565b600061388a826138b1565b9050919050565b60008115159050919050565b6000819050919050565b6000819050919050565b600073ffffffffffffffffffffffffffffffffffffffff82169050919050565b6000819050919050565b60006138e6826138ed565b9050919050565b60006138f8826138ff565b9050919050565b600061390a826138b1565b9050919050565b60005b8381101561392f578082015181840152602081019050613914565b8381111561393e576000848401525b50505050565b6000601f19601f8301169050919050565b61395e8161387f565b811461396957600080fd5b50565b61397581613891565b811461398057600080fd5b50565b61398c8161389d565b811461399757600080fd5b50565b6139a3816138a7565b81146139ae57600080fd5b50565b6139ba816138d1565b81146139c557600080fd5b5056fe68747470733a2f2f6d696e2d6170692e63727970746f636f6d706172652e636f6d2f646174612f70726963656d756c746966756c6c3f6673796d733da26469706673582212207a8bad054a5bc90bd4af9ed2b5eab002dff7f62572754147d1951f4cba3d357b64736f6c63430006060033477565737320746865206669727374206469676974206265666f72652074686520646563696d616c20706f696e742028756e697420646967697429666f7220746865206675747572652070726963654775657373207468652068756e647265647320646967697420286f722068756e647265647468732069662062656c6f77202431302920206f662074686520746f746f6c20766f6c756d6e654775657373207468652074656e7320646967697420286f722074656e7468732069662062656c6f7720243529206f6620746865206675747572652070726963654775657373207468652068756e647265647320646967697420286f722068756e647265647468732069662062656c6f77202431302920206f662074686520667574757265207072696365",
  "immutableReferences": {},
  "source": "// SPDX-License-Identifier: GPL-3.0\n\npragma solidity >=0.6.0 <0.9.0;\npragma experimental ABIEncoderV2;\n\nimport \"@chainlink/contracts/src/v0.6/ChainlinkClient.sol\";\n\ninterface GetCurrencyInfoInterface {\n    function addCurrency(int256 _currencyQuantity) external;\n\n    function getCurrencyName(int256 _id) external view returns (bytes32);\n\n    function getCurrencyFullName(int256 _id) external view returns (bytes32);\n\n    function getCurrencyOverviewUrl(int256 _id) external view returns (bytes32);\n\n    function getCurrencyAssetLaunchDate(int256 _id)\n        external\n        view\n        returns (bytes32);\n\n    function getCurrencyLogoUrl(int256 _id) external view returns (bytes32);\n\n    function getCurrencyIntro(int256 _id) external view returns (bytes memory);\n}\n\ninterface GetAnswerInterface {\n    function strAdd(\n        string calldata _a,\n        string calldata _b,\n        string calldata _c\n    ) external returns (string memory);\n\n    function getVolume() external view returns (uint256);\n\n    function requestVolumeData(\n        string calldata _currenyName,\n        string calldata _questionName,\n        string calldata _apiUrl\n    ) external returns (bytes32 requestId);\n}\n\ninterface GetVRFInterface {\n    function getVRF() external view returns (uint256);\n\n    function getRandomNumber() external returns (bytes32 requestId);\n}\n\ninterface GenerateBadgeInterface {\n    function issueNFT(string calldata name, address userAddress) external;\n}\n\ncontract AddGameInfo is ChainlinkClient {\n    int256 public currencyQuantity;\n    int256 public dailyGameQuantity;\n    int256 public weeklyGameQuantity;\n    int256 public monthlyGameQuantity;\n    bytes32 public reqID_VRF;\n    int256 public rand_b;\n    uint public randomNum=now/10000000;\n    int256 public totalGameQty;\n    \n    // Key: gameListId\n    struct GameList {\n        int256 questionId; // 2 items\n        int256 currencyId; // which currency  // currencyQuantity items\n        uint256 revealTime; // gameParticipateStartTime\n        int256 lifeLengthId; // 3 items\n        string property; // 1 items\n        bool isActivity; //\n        bool isClose; //\n        int256[] options;\n    }\n\n    struct CurrencyList {\n        bytes32 name;\n        bytes32 fullName;\n        bytes32 overviewUrl;\n        bytes32 assetLaunchDate;\n        bytes32 logoUrl;\n        string currencyIntro;\n    }\n\n    struct QuestionList{\n        string questionName;  //json path\n        string questionDescription;  //question text\n    }\n\n    struct OptionsList {\n        int256 optionsContet;\n        int256 userQuantity;\n        address[] userAddress;\n    }\n\n    struct LifeLengthList {\n        int256 lifeLength; // daily=1,weekly=7,monthly=30\n        int256 gameQuantity; // daily=30,weekly=4,monthly=1\n        string title;\n    }\n\n    struct GameInfo {\n        int256 gameId;\n        string gameTitle;\n        string gameQuestion;\n        string gameDescription;\n        uint256 gameParticipateStartTime;\n        string gameWindow; // Daily, Weekly, Monthly, Lifetime\n        string gameProperty;\n        string gameLogoLink;\n        int256 numOfParticipants;\n    }\n\n    mapping(int256 => CurrencyList) public currencyList; // key: currencyId\n    mapping(int256 => GameList) public gameList; // key: gameListId\n    mapping(int256 => GameInfo) public gameInfoList; // return to front-end\n    mapping(int256 => mapping(int256 => OptionsList)) public optionsList; // key1: gameListId, key2: optionsListId\n    mapping(int256 => string) public propertyList;\n    mapping(int256 => LifeLengthList) public lifeLengthList;\n    mapping(int256 => QuestionList) public questionList;\n\n    /*\n    * Network: Polygon\n    */\n    address GetCurrencyInfoInterfaceAddress = 0x59F08372ab30E64F61AF8594c1163379ACAD27C5;\n    GetCurrencyInfoInterface getCurrencyInfoContract = GetCurrencyInfoInterface(GetCurrencyInfoInterfaceAddress);\n\n    address GetAnswerInterfaceAddress = 0xbE56D8D1d1a529DD83F1188d3B0949A2828F45a5;\n    GetAnswerInterface getAnswerContract = GetAnswerInterface(GetCurrencyInfoInterfaceAddress);\n\n    address GetVRFInterfaceAddress = 0xa7986Fb6438db392b60aaA6Fba3b1B7c5514dD10;\n    GetVRFInterface getVRFContract = GetVRFInterface(GetVRFInterfaceAddress);\n\n    address GenerateBadgeInterfaceAddress = 0x0404E505c13C659b444F3566777901C824C82566;\n    GenerateBadgeInterface generateBadgeContract = GenerateBadgeInterface(GenerateBadgeInterfaceAddress);\n\n    constructor() public {\n        setChainlinkToken(0x326C977E6efc84E512bB9C30f76E30c160eD06FB);\n\n        questionList[1].questionName = \"VOLUME\";\n        questionList[1]\n            .questionDescription = \"Guess the first digit before the decimal point (unit digit)for the future price\";\n\n        questionList[2].questionName = \"VOLUME\";\n        questionList[2]\n            .questionDescription = \"Guess the hundreds digit (or hundredths if below $10)  of the totol volumne\";\n\n        questionList[3].questionName = \"VOLUME\";\n        questionList[3]\n            .questionDescription = \"Guess the tens digit (or tenths if below $5) of the future price\";\n\n        questionList[4].questionName = \"PRICE\";\n        questionList[4]\n            .questionDescription = \"Guess the hundreds digit (or hundredths if below $10)  of the future price\";\n\n        questionList[5].questionName = \"PRICE\";\n        questionList[5]\n            .questionDescription = \"Guess the first digit before the decimal point (unit digit)for the future price\";\n\n        questionList[6].questionName = \"PRICE\";\n        questionList[6]\n            .questionDescription = \"Guess the tens digit (or tenths if below $5) of the future price\";\n\n        propertyList[1] = \"Crypto Currency\";\n\n        lifeLengthList[1].lifeLength = 1;\n        lifeLengthList[1].gameQuantity = 10;\n        lifeLengthList[1].title = \"Daily\";\n\n        lifeLengthList[2].lifeLength = 7;\n        lifeLengthList[2].gameQuantity = 2;\n        lifeLengthList[2].title = \"Weekly\";\n\n        lifeLengthList[3].lifeLength = 30;\n        lifeLengthList[3].gameQuantity = 1;\n        lifeLengthList[3].title = \"Monthly\";\n\n        currencyQuantity = 10;\n\n\n    }\n\n\n\n// 1. Update currency list every monthly. currency list is volume of top 10.\n    function makeCurrencyList() public{\n        LinkTokenInterface linkToken = LinkTokenInterface(chainlinkTokenAddress());\n        require(linkToken.transfer(GetCurrencyInfoInterfaceAddress, linkToken.balanceOf(address(this))), \"Unable to transfer\");\n        getCurrencyInfoContract.addCurrency(currencyQuantity);\n    }\n\n// 2. Get currency information after execute the function of makeCurrencyList\n    function getCurrencyList() public{\n        for(int256 i=1;i<=currencyQuantity;i++){\n            currencyList[i].name = getCurrencyInfoContract.getCurrencyName(i);\n            currencyList[i].fullName = getCurrencyInfoContract.getCurrencyFullName(i);\n            currencyList[i].overviewUrl = getCurrencyInfoContract.getCurrencyOverviewUrl(i);\n            currencyList[i].assetLaunchDate = getCurrencyInfoContract.getCurrencyAssetLaunchDate(i);\n            currencyList[i].logoUrl = getCurrencyInfoContract.getCurrencyLogoUrl(i);\n        }\n    }\n\n\n    function getRandom() public returns (int256) {\n        LinkTokenInterface linkToken =\n            LinkTokenInterface(chainlinkTokenAddress());\n        require(\n            linkToken.transfer(\n                GetVRFInterfaceAddress,\n                linkToken.balanceOf(address(this))\n            ),\n            \"Unable to transfer\"\n        );\n        reqID_VRF = getVRFContract.getRandomNumber();\n        randomNum = getVRFContract.getVRF() / 10000000;\n        return int256(randomNum);\n    }\n\n// 3.5\n    function makeOptions(int256 _questionId, int256 _gameId) public{\n        if(_questionId == 1){\n            gameList[_gameId].options = [1,2,3,4,5,6,7,8,9,0];\n            optionsList[_gameId][1].optionsContet = 1;\n            optionsList[_gameId][2].optionsContet = 2;\n            optionsList[_gameId][3].optionsContet = 3;\n            optionsList[_gameId][4].optionsContet = 4;\n            optionsList[_gameId][5].optionsContet = 5;\n            optionsList[_gameId][6].optionsContet = 6;\n            optionsList[_gameId][7].optionsContet = 7;\n            optionsList[_gameId][8].optionsContet = 8;\n            optionsList[_gameId][9].optionsContet = 9;\n            optionsList[_gameId][10].optionsContet = 0;\n        } else if (_questionId == 2) {\n            optionsList[_gameId][1].optionsContet = 0;\n            optionsList[_gameId][2].optionsContet = 1;\n            optionsList[_gameId][3].optionsContet = 2;\n        }\n   }\n\n// 3. make Game information list\n    int256 currentTotalGameQty;\n\n    function makeDailyGame() public {\n        currentTotalGameQty = 1;\n        uint8 totalQuestion = 6;\n        randomNum = now / 10000000;\n        for (int256 i = 1; i <= 3; i++) {\n            // i=1 daily,i=2 weekly,i=3 monthly\n            for (\n                int256 gameId = 1;\n                gameId <= lifeLengthList[i].gameQuantity;\n                gameId++\n            ) {\n                // gameList for indexes\n                gameList[currentTotalGameQty].questionId = int256(\n                    ((int256(randomNum) * gameId) % totalQuestion) + 1\n                );\n                makeOptions(\n                    ((int256(randomNum) * gameId) % 2) + 1,\n                    currentTotalGameQty\n                );\n                gameList[currentTotalGameQty].currencyId =\n                    ((int256(randomNum) * gameId) % currencyQuantity) +\n                    1;\n                gameList[currentTotalGameQty].revealTime = 0;\n                gameList[currentTotalGameQty].lifeLengthId = i;\n                gameList[currentTotalGameQty].property = propertyList[1];\n                gameList[currentTotalGameQty].isActivity = false;\n                gameList[currentTotalGameQty].isClose = false;\n\n                // gameInfo for details\n                gameInfoList[currentTotalGameQty].gameId = currentTotalGameQty;\n                gameInfoList[currentTotalGameQty].gameTitle = bytes32ToString(\n                    currencyList[gameList[currentTotalGameQty].currencyId].name\n                );\n                gameInfoList[currentTotalGameQty].gameQuestion = questionList[\n                    gameList[currentTotalGameQty].questionId\n                ]\n                    .questionDescription;\n                // gameInfoList[currentTotalGameQty].gameDescription = currencyList[gameList[currentTotalGameQty].currencyId].currencyIntro;\n                gameInfoList[currentTotalGameQty].gameDescription = \"\";\n                gameInfoList[currentTotalGameQty]\n                    .gameParticipateStartTime = now;\n                gameInfoList[currentTotalGameQty].gameWindow = lifeLengthList[\n                    gameList[currentTotalGameQty].lifeLengthId\n                ]\n                    .title;\n                gameInfoList[currentTotalGameQty].gameProperty = gameList[\n                    currentTotalGameQty\n                ]\n                    .property;\n                gameInfoList[currentTotalGameQty]\n                    .gameLogoLink = bytes32ToString(\n                    currencyList[gameList[currentTotalGameQty].currencyId]\n                        .logoUrl\n                );\n                gameInfoList[currentTotalGameQty].numOfParticipants = 0;\n\n                currentTotalGameQty++;\n            }\n        }\n    }\n\n\n// 4.\n    function activeGameStatus() public{\n            gameList[1].isActivity = true;\n            gameList[1].isClose = true;\n\n            gameList[1+lifeLengthList[1].gameQuantity].isActivity = true;\n            gameList[1+lifeLengthList[1].gameQuantity].isClose = true;\n\n            gameList[1+lifeLengthList[1].gameQuantity+lifeLengthList[2].gameQuantity].isActivity = true;\n            gameList[1+lifeLengthList[1].gameQuantity+lifeLengthList[2].gameQuantity].isClose = true;\n\n    }\n\n    /*\n        struct GameInfo{\n            int256 gameId;\n            bytes32 gameTitle;\n            string gameQuestion;\n            bytes gameDescription;\n            //int256[][] gameAnsOptions;\n            //uint gameWindowEndTime;\n            uint gameParticipateStartTime;\n            //uint gameParticipateEndTime;\n            string gameWindow;\n            string gameProperty;\n            bytes32 gameLogoLink;\n            int256 numOfParticipants;\n        }\n    */\n    \n\n    int256[] availableGameIds;\n\n    function storeAvailableGameIds() public {\n        delete availableGameIds;\n        int256 totalGameQty =\n            lifeLengthList[1].gameQuantity +\n                lifeLengthList[2].gameQuantity +\n                lifeLengthList[3].gameQuantity;\n        for (int256 gameId = totalGameQty; gameId > 0; gameId--) {\n            if (gameList[gameId].isActivity || gameList[gameId].isClose) {\n                availableGameIds.push(gameId);\n            }\n        }\n    }\n\n    function getAvailableGameIds() public view returns (int256[] memory) {\n        int256[] memory list = availableGameIds;\n        return list;\n    }\n\n    function bytes32ToString(bytes32 _bytes32) public returns (string memory) {\n        uint8 i = 0;\n        while (i < 32 && _bytes32[i] != 0) {\n            i++;\n        }\n        bytes memory bytesArray = new bytes(i);\n        for (i = 0; i < 32 && _bytes32[i] != 0; i++) {\n            bytesArray[i] = _bytes32[i];\n        }\n        return string(bytesArray);\n    }\n\n    function getAnswer(int256 _gameId) public {\n        string memory url_main;\n        string memory url_sub;\n        bytes32 reqID;\n\n        string memory currencyName =\n            bytes32ToString(currencyList[gameList[_gameId].currencyId].name);\n\n        url_main = \"https://min-api.cryptocompare.com/data/pricemultifull?fsyms=\";\n        url_sub = \"&tsyms=USD\";\n\n        LinkTokenInterface linkToken =\n            LinkTokenInterface(chainlinkTokenAddress());\n        require(\n            linkToken.transfer(\n                GetAnswerInterfaceAddress,\n                linkToken.balanceOf(address(this))\n            ),\n            \"Unable to transfer\"\n        );\n\n        reqID = getAnswerContract.requestVolumeData(\n            currencyName,\n            questionList[gameList[_gameId].questionId].questionName,\n            getAnswerContract.strAdd(url_main, currencyName, url_sub)\n        );\n    }\n\n    function returnAnswer() public view returns (uint256) {\n        //return getAnswerContract.getVolume();\n    }\n\n    function processGameResult(int256 gameId) public {\n        int preciseAnswer = int(getPreciseAnswer(gameId));\n\n        for (uint k = 1; k <= gameList[gameId].options.length; k++) {\n            address[] memory users = optionsList[gameId][int(k)].userAddress;\n            if (gameList[gameId].options[uint(k)] == preciseAnswer) {\n                // daily games issue NFT as reward\n                if (gameList[gameId].lifeLengthId == 1) {\n                    for (uint i = 1; i <= users.length; i++) {\n                        generateBadgeContract.issueNFT(bytes32ToString(currencyList[gameList[gameId].currencyId].name), users[k]);\n                    }\n                } else {\n                    for (uint i = 1; i <= users.length; i++) {\n                        // issueCurrency(gameId, users[k], true, gameList[gameId].lifeLengthId);\n                    }\n                }\n            } else {\n                for (uint i = 1; i <= users.length; i++) {\n                    // issueCurrency(gameId, users[k], false, gameList[gameId].lifeLengthId);\n                }\n            }\n        }\n    }\n\n    function getPreciseAnswer(int256 gameId) public returns (uint) {\n        int256 _qid = gameList[gameId].questionId;\n        uint answer;\n        // uint volume = getAnswerContract.getVolume();\n        uint volume = 12342;\n\n        // PRICE uses decimal\n        \n        if (keccak256(abi.encodePacked(questionList[_qid].questionName)) == keccak256(abi.encodePacked(\"PRICE\"))) {\n            answer = volume % 10;\n        } else {\n            answer = volume % 3;\n        }\n\n        return answer;\n    }\n\n\n//\n    function addParticipant(int256 _gameId, address _userAddress, int256 _optionId) public{\n        optionsList[_gameId][_optionId].userAddress.push(_userAddress);\n        optionsList[_gameId][_optionId].userQuantity++;\n    }\n\n\n\n\n    /**\n     * Withdraw LINK from this contract\n     *\n     * DO NOT USE THIS IN PRODUCTION AS IT CAN BE CALLED BY ANY ADDRESS.\n     * THIS IS PURELY FOR EXAMPLE PURPOSES.\n     */\n    function withdrawLink() external {\n        LinkTokenInterface linkToken = LinkTokenInterface(chainlinkTokenAddress());\n        require(linkToken.transfer(msg.sender, linkToken.balanceOf(address(this))), \"Unable to transfer\");\n    }\n\n}\n",
  "sourcePath": "/Users/adeleyu/projects/guess_get_gas/contracts/AddGameInfo.sol",
  "compiler": {
    "name": "solc",
    "version": "0.6.6+commit.6c089d02.Emscripten.clang"
  },
  "schemaVersion": "3.3.3",
  "updatedAt": "2021-04-11T19:14:29.296Z",
  "networkType": "ethereum",
  "devdoc": {
    "methods": {}
  },
  "userdoc": {
    "methods": {
      "withdrawLink()": {
        "notice": "Withdraw LINK from this contract     * DO NOT USE THIS IN PRODUCTION AS IT CAN BE CALLED BY ANY ADDRESS. THIS IS PURELY FOR EXAMPLE PURPOSES."
      }
    }
  }
}