{
  "contractName": "AddGameInfo",
  "abi": [
    {
      "inputs": [],
      "stateMutability": "nonpayable",
      "type": "constructor"
    },
    {
      "anonymous": false,
      "inputs": [
        {
          "indexed": true,
          "internalType": "bytes32",
          "name": "id",
          "type": "bytes32"
        }
      ],
      "name": "ChainlinkCancelled",
      "type": "event"
    },
    {
      "anonymous": false,
      "inputs": [
        {
          "indexed": true,
          "internalType": "bytes32",
          "name": "id",
          "type": "bytes32"
        }
      ],
      "name": "ChainlinkFulfilled",
      "type": "event"
    },
    {
      "anonymous": false,
      "inputs": [
        {
          "indexed": true,
          "internalType": "bytes32",
          "name": "id",
          "type": "bytes32"
        }
      ],
      "name": "ChainlinkRequested",
      "type": "event"
    },
    {
      "inputs": [
        {
          "internalType": "int256",
          "name": "",
          "type": "int256"
        }
      ],
      "name": "currencyList",
      "outputs": [
        {
          "internalType": "bytes32",
          "name": "name",
          "type": "bytes32"
        },
        {
          "internalType": "bytes32",
          "name": "fullName",
          "type": "bytes32"
        },
        {
          "internalType": "bytes32",
          "name": "overviewUrl",
          "type": "bytes32"
        },
        {
          "internalType": "bytes32",
          "name": "assetLaunchDate",
          "type": "bytes32"
        },
        {
          "internalType": "bytes32",
          "name": "logoUrl",
          "type": "bytes32"
        },
        {
          "internalType": "bytes",
          "name": "currencyIntro",
          "type": "bytes"
        }
      ],
      "stateMutability": "view",
      "type": "function"
    },
    {
      "inputs": [],
      "name": "currencyQuantity",
      "outputs": [
        {
          "internalType": "int256",
          "name": "",
          "type": "int256"
        }
      ],
      "stateMutability": "view",
      "type": "function"
    },
    {
      "inputs": [],
      "name": "dailyGameQuantity",
      "outputs": [
        {
          "internalType": "int256",
          "name": "",
          "type": "int256"
        }
      ],
      "stateMutability": "view",
      "type": "function"
    },
    {
      "inputs": [
        {
          "internalType": "int256",
          "name": "",
          "type": "int256"
        }
      ],
      "name": "gameList",
      "outputs": [
        {
          "internalType": "int256",
          "name": "questionId",
          "type": "int256"
        },
        {
          "internalType": "int256",
          "name": "currencyId",
          "type": "int256"
        },
        {
          "internalType": "uint256",
          "name": "revealTime",
          "type": "uint256"
        },
        {
          "internalType": "int256",
          "name": "lifeLengthId",
          "type": "int256"
        },
        {
          "internalType": "string",
          "name": "property",
          "type": "string"
        },
        {
          "internalType": "bool",
          "name": "isActivity",
          "type": "bool"
        },
        {
          "internalType": "bool",
          "name": "isClose",
          "type": "bool"
        }
      ],
      "stateMutability": "view",
      "type": "function"
    },
    {
      "inputs": [
        {
          "internalType": "int256",
          "name": "",
          "type": "int256"
        }
      ],
      "name": "lifeLengthList",
      "outputs": [
        {
          "internalType": "int256",
          "name": "lifeLength",
          "type": "int256"
        },
        {
          "internalType": "int256",
          "name": "gameQuantity",
          "type": "int256"
        },
        {
          "internalType": "string",
          "name": "title",
          "type": "string"
        }
      ],
      "stateMutability": "view",
      "type": "function"
    },
    {
      "inputs": [],
      "name": "monthlyGameQuantity",
      "outputs": [
        {
          "internalType": "int256",
          "name": "",
          "type": "int256"
        }
      ],
      "stateMutability": "view",
      "type": "function"
    },
    {
      "inputs": [
        {
          "internalType": "int256",
          "name": "",
          "type": "int256"
        },
        {
          "internalType": "int256",
          "name": "",
          "type": "int256"
        }
      ],
      "name": "optionsList",
      "outputs": [
        {
          "internalType": "int256",
          "name": "optionsContet",
          "type": "int256"
        },
        {
          "internalType": "int256",
          "name": "userQuantity",
          "type": "int256"
        }
      ],
      "stateMutability": "view",
      "type": "function"
    },
    {
      "inputs": [
        {
          "internalType": "int256",
          "name": "",
          "type": "int256"
        }
      ],
      "name": "propertyList",
      "outputs": [
        {
          "internalType": "string",
          "name": "",
          "type": "string"
        }
      ],
      "stateMutability": "view",
      "type": "function"
    },
    {
      "inputs": [
        {
          "internalType": "int256",
          "name": "",
          "type": "int256"
        }
      ],
      "name": "questionList",
      "outputs": [
        {
          "internalType": "string",
          "name": "questionName",
          "type": "string"
        },
        {
          "internalType": "string",
          "name": "questionDescription",
          "type": "string"
        }
      ],
      "stateMutability": "view",
      "type": "function"
    },
    {
      "inputs": [],
      "name": "rand_b",
      "outputs": [
        {
          "internalType": "int256",
          "name": "",
          "type": "int256"
        }
      ],
      "stateMutability": "view",
      "type": "function"
    },
    {
      "inputs": [],
      "name": "reqID_VRF",
      "outputs": [
        {
          "internalType": "bytes32",
          "name": "",
          "type": "bytes32"
        }
      ],
      "stateMutability": "view",
      "type": "function"
    },
    {
      "inputs": [],
      "name": "weeklyGameQuantity",
      "outputs": [
        {
          "internalType": "int256",
          "name": "",
          "type": "int256"
        }
      ],
      "stateMutability": "view",
      "type": "function"
    },
    {
      "inputs": [],
      "name": "makeCurrencyList",
      "outputs": [],
      "stateMutability": "nonpayable",
      "type": "function"
    },
    {
      "inputs": [],
      "name": "getCurrencyList",
      "outputs": [],
      "stateMutability": "nonpayable",
      "type": "function"
    },
    {
      "inputs": [],
      "name": "getRandom",
      "outputs": [
        {
          "internalType": "uint256",
          "name": "",
          "type": "uint256"
        }
      ],
      "stateMutability": "nonpayable",
      "type": "function"
    },
    {
      "inputs": [
        {
          "internalType": "int256",
          "name": "_questionId",
          "type": "int256"
        },
        {
          "internalType": "int256",
          "name": "_gameId",
          "type": "int256"
        }
      ],
      "name": "makeOptions",
      "outputs": [],
      "stateMutability": "nonpayable",
      "type": "function"
    },
    {
      "inputs": [],
      "name": "makeDailyGame",
      "outputs": [],
      "stateMutability": "nonpayable",
      "type": "function"
    },
    {
      "inputs": [
        {
          "internalType": "int256",
          "name": "_gameId",
          "type": "int256"
        }
      ],
      "name": "getAnswer",
      "outputs": [],
      "stateMutability": "nonpayable",
      "type": "function"
    },
    {
      "inputs": [],
      "name": "returnAnswer",
      "outputs": [
        {
          "internalType": "uint256",
          "name": "",
          "type": "uint256"
        }
      ],
      "stateMutability": "view",
      "type": "function"
    },
    {
      "inputs": [
        {
          "internalType": "int256",
          "name": "_gameId",
          "type": "int256"
        },
        {
          "internalType": "address",
          "name": "_userAddress",
          "type": "address"
        },
        {
          "internalType": "int256",
          "name": "_optionId",
          "type": "int256"
        }
      ],
      "name": "addParticipant",
      "outputs": [],
      "stateMutability": "nonpayable",
      "type": "function"
    }
  ],
  "bytecode": "0x6080604052600160045573a580d0ef1d8bdefdcd06059f3b81d305778ab617601260006101000a81548173ffffffffffffffffffffffffffffffffffffffff021916908373ffffffffffffffffffffffffffffffffffffffff160217905550601260009054906101000a900473ffffffffffffffffffffffffffffffffffffffff16601360006101000a81548173ffffffffffffffffffffffffffffffffffffffff021916908373ffffffffffffffffffffffffffffffffffffffff160217905550736f33ed84c014f72d23240b9ed589959a8c226c76601460006101000a81548173ffffffffffffffffffffffffffffffffffffffff021916908373ffffffffffffffffffffffffffffffffffffffff160217905550601260009054906101000a900473ffffffffffffffffffffffffffffffffffffffff16601560006101000a81548173ffffffffffffffffffffffffffffffffffffffff021916908373ffffffffffffffffffffffffffffffffffffffff1602179055507340c7b80e812a3683d651db8b38278a256f51362d601660006101000a81548173ffffffffffffffffffffffffffffffffffffffff021916908373ffffffffffffffffffffffffffffffffffffffff160217905550601660009054906101000a900473ffffffffffffffffffffffffffffffffffffffff16601760006101000a81548173ffffffffffffffffffffffffffffffffffffffff021916908373ffffffffffffffffffffffffffffffffffffffff1602179055503480156200023e57600080fd5b506200024f620005e860201b60201c565b6040518060400160405280600581526020017f505249434500000000000000000000000000000000000000000000000000000081525060116000600181526020019081526020016000206000019080519060200190620002b1929190620006d6565b506040518060600160405280602e815260200162002f95602e913960116000600181526020019081526020016000206001019080519060200190620002f8929190620006d6565b506040518060400160405280600681526020017f564f4c554d450000000000000000000000000000000000000000000000000000815250601160006002815260200190815260200160002060000190805190602001906200035b929190620006d6565b5060405180606001604052806026815260200162002fc36026913960116000600281526020019081526020016000206001019080519060200190620003a2929190620006d6565b506040518060400160405280600f81526020017f43727970746f2043757272656e63790000000000000000000000000000000000815250600f600060018152602001908152602001600020908051906020019062000402929190620006d6565b506001601060006001815260200190815260200160002060000181905550601e6010600060018152602001908152602001600020600101819055506040518060400160405280600581526020017f4461696c79000000000000000000000000000000000000000000000000000000815250601060006001815260200190815260200160002060020190805190602001906200049f929190620006d6565b50600760106000600281526020019081526020016000206000018190555060046010600060028152602001908152602001600020600101819055506040518060400160405280600681526020017f5765656b6c790000000000000000000000000000000000000000000000000000815250601060006002815260200190815260200160002060020190805190602001906200053c929190620006d6565b50601e60106000600381526020019081526020016000206000018190555060016010600060038152602001908152602001600020600101819055506040518060400160405280600781526020017f4d6f6e74686c790000000000000000000000000000000000000000000000000081525060106000600381526020019081526020016000206002019080519060200190620005d9929190620006d6565b50600a60068190555062000785565b6200069073c89bd4e1632d3a43cb03aaad5262cbe4038bc57173ffffffffffffffffffffffffffffffffffffffff166338cc48316040518163ffffffff1660e01b815260040160206040518083038186803b1580156200064757600080fd5b505afa1580156200065c573d6000803e3d6000fd5b505050506040513d60208110156200067357600080fd5b81019080805190602001909291905050506200069260201b60201c565b565b80600260006101000a81548173ffffffffffffffffffffffffffffffffffffffff021916908373ffffffffffffffffffffffffffffffffffffffff16021790555050565b828054600181600116156101000203166002900490600052602060002090601f016020900481019282601f106200071957805160ff19168380011785556200074a565b828001600101855582156200074a579182015b82811115620007495782518255916020019190600101906200072c565b5b5090506200075991906200075d565b5090565b6200078291905b808211156200077e57600081600090555060010162000764565b5090565b90565b61280080620007956000396000f3fe608060405234801561001057600080fd5b506004361061012c5760003560e01c80637421a206116100ad578063d17f7b0d11610071578063d17f7b0d1461058d578063dc7c155f14610597578063e50f4c0b146105b5578063f1feff341461068e578063f2ce4dc0146107585761012c565b80637421a206146104745780637ce6a0fb14610529578063aacc5a1714610547578063c3f449c914610565578063c67a3d931461056f5761012c565b80633f5693b2116100f45780633f5693b2146103b457806349400fba146103d2578063494ca322146103f05780636a222467146104285780636c1c38ae146104565761012c565b8063071c54431461013157806322c0391f1461018457806332d4e5ec146101dc5780633c8130e3146102835780633cb1033314610396575b600080fd5b6101676004803603604081101561014757600080fd5b810190808035906020019092919080359060200190929190505050610762565b604051808381526020018281526020019250505060405180910390f35b6101da6004803603606081101561019a57600080fd5b8101908080359060200190929190803573ffffffffffffffffffffffffffffffffffffffff16906020019092919080359060200190929190505050610793565b005b610208600480360360208110156101f257600080fd5b8101908080359060200190929190505050610820565b6040518080602001828103825283818151815260200191508051906020019080838360005b8381101561024857808201518184015260208101905061022d565b50505050905090810190601f1680156102755780820380516001836020036101000a031916815260200191505b509250505060405180910390f35b6102af6004803603602081101561029957600080fd5b81019080803590602001909291905050506108d0565b604051808060200180602001838103835285818151815260200191508051906020019080838360005b838110156102f35780820151818401526020810190506102d8565b50505050905090810190601f1680156103205780820380516001836020036101000a031916815260200191505b50838103825284818151815260200191508051906020019080838360005b8381101561035957808201518184015260208101905061033e565b50505050905090810190601f1680156103865780820380516001836020036101000a031916815260200191505b5094505050505060405180910390f35b61039e610a24565b6040518082815260200191505060405180910390f35b6103bc610a2a565b6040518082815260200191505060405180910390f35b6103da610a30565b6040518082815260200191505060405180910390f35b6104266004803603604081101561040657600080fd5b810190808035906020019092919080359060200190929190505050610a36565b005b6104546004803603602081101561043e57600080fd5b8101908080359060200190929190505050610ca9565b005b61045e61158e565b6040518082815260200191505060405180910390f35b6104a06004803603602081101561048a57600080fd5b8101908080359060200190929190505050611594565b6040518084815260200183815260200180602001828103825283818151815260200191508051906020019080838360005b838110156104ec5780820151818401526020810190506104d1565b50505050905090810190601f1680156105195780820380516001836020036101000a031916815260200191505b5094505050505060405180910390f35b610531611656565b6040518082815260200191505060405180910390f35b61054f61165c565b6040518082815260200191505060405180910390f35b61056d6119ca565b005b610577611b77565b6040518082815260200191505060405180910390f35b610595611c21565b005b61059f611ecc565b6040518082815260200191505060405180910390f35b6105e1600480360360208110156105cb57600080fd5b8101908080359060200190929190505050611ed2565b60405180888152602001878152602001868152602001858152602001806020018415151515815260200183151515158152602001828103825285818151815260200191508051906020019080838360005b8381101561064d578082015181840152602081019050610632565b50505050905090810190601f16801561067a5780820380516001836020036101000a031916815260200191505b509850505050505050505060405180910390f35b6106ba600480360360208110156106a457600080fd5b8101908080359060200190929190505050611fc6565b6040518087815260200186815260200185815260200184815260200183815260200180602001828103825283818151815260200191508051906020019080838360005b838110156107185780820151818401526020810190506106fd565b50505050905090810190601f1680156107455780820380516001836020036101000a031916815260200191505b5097505050505050505060405180910390f35b61076061209a565b005b600e602052816000526040600020602052806000526040600020600091509150508060000154908060010154905082565b600e60008481526020019081526020016000206000828152602001908152602001600020600201829080600181540180825580915050600190039060005260206000200160009091909190916101000a81548173ffffffffffffffffffffffffffffffffffffffff021916908373ffffffffffffffffffffffffffffffffffffffff160217905550505050565b600f6020528060005260406000206000915090508054600181600116156101000203166002900480601f0160208091040260200160405190810160405280929190818152602001828054600181600116156101000203166002900480156108c85780601f1061089d576101008083540402835291602001916108c8565b820191906000526020600020905b8154815290600101906020018083116108ab57829003601f168201915b505050505081565b6011602052806000526040600020600091509050806000018054600181600116156101000203166002900480601f01602080910402602001604051908101604052809291908181526020018280546001816001161561010002031660029004801561097c5780601f106109515761010080835404028352916020019161097c565b820191906000526020600020905b81548152906001019060200180831161095f57829003601f168201915b505050505090806001018054600181600116156101000203166002900480601f016020809104026020016040519081016040528092919081815260200182805460018160011615610100020316600290048015610a1a5780601f106109ef57610100808354040283529160200191610a1a565b820191906000526020600020905b8154815290600101906020018083116109fd57829003601f168201915b5050505050905082565b60085481565b60095481565b60075481565b6001821415610c10576001600e6000838152602001908152602001600020600060018152602001908152602001600020600001819055506002600e6000838152602001908152602001600020600060028152602001908152602001600020600001819055506003600e6000838152602001908152602001600020600060038152602001908152602001600020600001819055506004600e6000838152602001908152602001600020600060048152602001908152602001600020600001819055506005600e6000838152602001908152602001600020600060058152602001908152602001600020600001819055506006600e6000838152602001908152602001600020600060068152602001908152602001600020600001819055506007600e6000838152602001908152602001600020600060078152602001908152602001600020600001819055506008600e6000838152602001908152602001600020600060088152602001908152602001600020600001819055506009600e6000838152602001908152602001600020600060098152602001908152602001600020600001819055506000600e60008381526020019081526020016000206000600a815260200190815260200160002060000181905550610ca5565b6002821415610ca4576000600e6000838152602001908152602001600020600060018152602001908152602001600020600001819055506001600e6000838152602001908152602001600020600060028152602001908152602001600020600001819055506002600e6000838152602001908152602001600020600060038152602001908152602001600020600001819055505b5b5050565b60608060006040518060600160405280603c815260200161278f603c913992506040518060400160405280600a81526020017f267473796d733d5553440000000000000000000000000000000000000000000081525091506000610d0b612638565b90508073ffffffffffffffffffffffffffffffffffffffff1663a9059cbb601460009054906101000a900473ffffffffffffffffffffffffffffffffffffffff168373ffffffffffffffffffffffffffffffffffffffff166370a08231306040518263ffffffff1660e01b8152600401808273ffffffffffffffffffffffffffffffffffffffff1673ffffffffffffffffffffffffffffffffffffffff16815260200191505060206040518083038186803b158015610dc957600080fd5b505afa158015610ddd573d6000803e3d6000fd5b505050506040513d6020811015610df357600080fd5b81019080805190602001909291905050506040518363ffffffff1660e01b8152600401808373ffffffffffffffffffffffffffffffffffffffff1673ffffffffffffffffffffffffffffffffffffffff16815260200182815260200192505050602060405180830381600087803b158015610e6d57600080fd5b505af1158015610e81573d6000803e3d6000fd5b505050506040513d6020811015610e9757600080fd5b8101908080519060200190929190505050610f1a576040517f08c379a00000000000000000000000000000000000000000000000000000000081526004018080602001828103825260128152602001807f556e61626c6520746f207472616e73666572000000000000000000000000000081525060200191505060405180910390fd5b601560009054906101000a900473ffffffffffffffffffffffffffffffffffffffff1673ffffffffffffffffffffffffffffffffffffffff1663a8f2c525601560009054906101000a900473ffffffffffffffffffffffffffffffffffffffff1673ffffffffffffffffffffffffffffffffffffffff16633b7a5d7e600c6000600d60008c8152602001908152602001600020600101548152602001908152602001600020600001546040518263ffffffff1660e01b81526004018080602001838152602001806020018381038352600081526020016020018381038252600081526020016020019350505050600060405180830381600087803b15801561102157600080fd5b505af1158015611035573d6000803e3d6000fd5b505050506040513d6000823e3d601f19601f82011682018060405250602081101561105f57600080fd5b810190808051604051939291908464010000000082111561107f57600080fd5b8382019150602082018581111561109557600080fd5b82518660018202830111640100000000821117156110b257600080fd5b8083526020830192505050908051906020019080838360005b838110156110e65780820151818401526020810190506110cb565b50505050905090810190601f1680156111135780820380516001836020036101000a031916815260200191505b5060405250505060116000600d60008b8152602001908152602001600020600001548152602001908152602001600020600001601560009054906101000a900473ffffffffffffffffffffffffffffffffffffffff1673ffffffffffffffffffffffffffffffffffffffff16633b7a5d7e89600c6000600d60008f8152602001908152602001600020600101548152602001908152602001600020600001548a6040518463ffffffff1660e01b8152600401808060200184815260200180602001838103835286818151815260200191508051906020019080838360005b8381101561120c5780820151818401526020810190506111f1565b50505050905090810190601f1680156112395780820380516001836020036101000a031916815260200191505b50838103825284818151815260200191508051906020019080838360005b83811015611272578082015181840152602081019050611257565b50505050905090810190601f16801561129f5780820380516001836020036101000a031916815260200191505b5095505050505050600060405180830381600087803b1580156112c157600080fd5b505af11580156112d5573d6000803e3d6000fd5b505050506040513d6000823e3d601f19601f8201168201806040525060208110156112ff57600080fd5b810190808051604051939291908464010000000082111561131f57600080fd5b8382019150602082018581111561133557600080fd5b825186600182028301116401000000008211171561135257600080fd5b8083526020830192505050908051906020019080838360005b8381101561138657808201518184015260208101905061136b565b50505050905090810190601f1680156113b35780820380516001836020036101000a031916815260200191505b506040525050506040518463ffffffff1660e01b815260040180806020018060200180602001848103845287818151815260200191508051906020019080838360005b838110156114115780820151818401526020810190506113f6565b50505050905090810190601f16801561143e5780820380516001836020036101000a031916815260200191505b508481038352868181546001816001161561010002031660029004815260200191508054600181600116156101000203166002900480156114c05780601f10611495576101008083540402835291602001916114c0565b820191906000526020600020905b8154815290600101906020018083116114a357829003601f168201915b5050848103825285818151815260200191508051906020019080838360005b838110156114fa5780820151818401526020810190506114df565b50505050905090810190601f1680156115275780820380516001836020036101000a031916815260200191505b509650505050505050602060405180830381600087803b15801561154a57600080fd5b505af115801561155e573d6000803e3d6000fd5b505050506040513d602081101561157457600080fd5b810190808051906020019092919050505091505050505050565b60065481565b6010602052806000526040600020600091509050806000015490806001015490806002018054600181600116156101000203166002900480601f01602080910402602001604051908101604052809291908181526020018280546001816001161561010002031660029004801561164c5780601f106116215761010080835404028352916020019161164c565b820191906000526020600020905b81548152906001019060200180831161162f57829003601f168201915b5050505050905083565b600b5481565b600080611667612638565b90508073ffffffffffffffffffffffffffffffffffffffff1663a9059cbb601660009054906101000a900473ffffffffffffffffffffffffffffffffffffffff168373ffffffffffffffffffffffffffffffffffffffff166370a08231306040518263ffffffff1660e01b8152600401808273ffffffffffffffffffffffffffffffffffffffff1673ffffffffffffffffffffffffffffffffffffffff16815260200191505060206040518083038186803b15801561172557600080fd5b505afa158015611739573d6000803e3d6000fd5b505050506040513d602081101561174f57600080fd5b81019080805190602001909291905050506040518363ffffffff1660e01b8152600401808373ffffffffffffffffffffffffffffffffffffffff1673ffffffffffffffffffffffffffffffffffffffff16815260200182815260200192505050602060405180830381600087803b1580156117c957600080fd5b505af11580156117dd573d6000803e3d6000fd5b505050506040513d60208110156117f357600080fd5b8101908080519060200190929190505050611876576040517f08c379a00000000000000000000000000000000000000000000000000000000081526004018080602001828103825260128152602001807f556e61626c6520746f207472616e73666572000000000000000000000000000081525060200191505060405180910390fd5b601760009054906101000a900473ffffffffffffffffffffffffffffffffffffffff1673ffffffffffffffffffffffffffffffffffffffff1663dbdff2c16040518163ffffffff1660e01b8152600401602060405180830381600087803b1580156118e057600080fd5b505af11580156118f4573d6000803e3d6000fd5b505050506040513d602081101561190a57600080fd5b8101908080519060200190929190505050600a81905550601760009054906101000a900473ffffffffffffffffffffffffffffffffffffffff1673ffffffffffffffffffffffffffffffffffffffff1663edd3159d6040518163ffffffff1660e01b815260040160206040518083038186803b15801561198957600080fd5b505afa15801561199d573d6000803e3d6000fd5b505050506040513d60208110156119b357600080fd5b810190808051906020019092919050505091505090565b6000600190505b60038113611b74576000600190505b60106000838152602001908152602001600020600101548113611b665760016002611a0961165c565b81611a1057fe5b0701600d600083815260200190815260200160002060000181905550611a4a60016002611a3b61165c565b81611a4257fe5b070182610a36565b6001600654611a5761165c565b81611a5e57fe5b0701600d6000838152602001908152602001600020600101819055506000600d60008381526020019081526020016000206002018190555081600d600083815260200190815260200160002060030181905550600f600060018152602001908152602001600020600d60008381526020019081526020016000206004019080546001816001161561010002031660029004611afa929190612662565b506000600d600083815260200190815260200160002060050160006101000a81548160ff0219169083151502179055506000600d600083815260200190815260200160002060050160016101000a81548160ff02191690831515021790555080806001019150506119e0565b5080806001019150506119d1565b50565b6000601560009054906101000a900473ffffffffffffffffffffffffffffffffffffffff1673ffffffffffffffffffffffffffffffffffffffff1663c67bbc246040518163ffffffff1660e01b815260040160206040518083038186803b158015611be157600080fd5b505afa158015611bf5573d6000803e3d6000fd5b505050506040513d6020811015611c0b57600080fd5b8101908080519060200190929190505050905090565b6000611c2b612638565b90508073ffffffffffffffffffffffffffffffffffffffff1663a9059cbb601260009054906101000a900473ffffffffffffffffffffffffffffffffffffffff168373ffffffffffffffffffffffffffffffffffffffff166370a08231306040518263ffffffff1660e01b8152600401808273ffffffffffffffffffffffffffffffffffffffff1673ffffffffffffffffffffffffffffffffffffffff16815260200191505060206040518083038186803b158015611ce957600080fd5b505afa158015611cfd573d6000803e3d6000fd5b505050506040513d6020811015611d1357600080fd5b81019080805190602001909291905050506040518363ffffffff1660e01b8152600401808373ffffffffffffffffffffffffffffffffffffffff1673ffffffffffffffffffffffffffffffffffffffff16815260200182815260200192505050602060405180830381600087803b158015611d8d57600080fd5b505af1158015611da1573d6000803e3d6000fd5b505050506040513d6020811015611db757600080fd5b8101908080519060200190929190505050611e3a576040517f08c379a00000000000000000000000000000000000000000000000000000000081526004018080602001828103825260128152602001807f556e61626c6520746f207472616e73666572000000000000000000000000000081525060200191505060405180910390fd5b601360009054906101000a900473ffffffffffffffffffffffffffffffffffffffff1673ffffffffffffffffffffffffffffffffffffffff16632b8dc6ff6006546040518263ffffffff1660e01b815260040180828152602001915050600060405180830381600087803b158015611eb157600080fd5b505af1158015611ec5573d6000803e3d6000fd5b5050505050565b600a5481565b600d602052806000526040600020600091509050806000015490806001015490806002015490806003015490806004018054600181600116156101000203166002900480601f016020809104026020016040519081016040528092919081815260200182805460018160011615610100020316600290048015611f965780601f10611f6b57610100808354040283529160200191611f96565b820191906000526020600020905b815481529060010190602001808311611f7957829003601f168201915b5050505050908060050160009054906101000a900460ff16908060050160019054906101000a900460ff16905087565b600c602052806000526040600020600091509050806000015490806001015490806002015490806003015490806004015490806005018054600181600116156101000203166002900480601f0160208091040260200160405190810160405280929190818152602001828054600181600116156101000203166002900480156120905780601f1061206557610100808354040283529160200191612090565b820191906000526020600020905b81548152906001019060200180831161207357829003601f168201915b5050505050905086565b6000600190505b600654811361263557601360009054906101000a900473ffffffffffffffffffffffffffffffffffffffff1673ffffffffffffffffffffffffffffffffffffffff166303b60331826040518263ffffffff1660e01b81526004018082815260200191505060206040518083038186803b15801561211d57600080fd5b505afa158015612131573d6000803e3d6000fd5b505050506040513d602081101561214757600080fd5b8101908080519060200190929190505050600c600083815260200190815260200160002060000181905550601360009054906101000a900473ffffffffffffffffffffffffffffffffffffffff1673ffffffffffffffffffffffffffffffffffffffff1663f771044a826040518263ffffffff1660e01b81526004018082815260200191505060206040518083038186803b1580156121e557600080fd5b505afa1580156121f9573d6000803e3d6000fd5b505050506040513d602081101561220f57600080fd5b8101908080519060200190929190505050600c600083815260200190815260200160002060010181905550601360009054906101000a900473ffffffffffffffffffffffffffffffffffffffff1673ffffffffffffffffffffffffffffffffffffffff166319eb4d4d826040518263ffffffff1660e01b81526004018082815260200191505060206040518083038186803b1580156122ad57600080fd5b505afa1580156122c1573d6000803e3d6000fd5b505050506040513d60208110156122d757600080fd5b8101908080519060200190929190505050600c600083815260200190815260200160002060020181905550601360009054906101000a900473ffffffffffffffffffffffffffffffffffffffff1673ffffffffffffffffffffffffffffffffffffffff1663ebab4ffe826040518263ffffffff1660e01b81526004018082815260200191505060206040518083038186803b15801561237557600080fd5b505afa158015612389573d6000803e3d6000fd5b505050506040513d602081101561239f57600080fd5b8101908080519060200190929190505050600c600083815260200190815260200160002060030181905550601360009054906101000a900473ffffffffffffffffffffffffffffffffffffffff1673ffffffffffffffffffffffffffffffffffffffff1663f4f20d7a826040518263ffffffff1660e01b81526004018082815260200191505060206040518083038186803b15801561243d57600080fd5b505afa158015612451573d6000803e3d6000fd5b505050506040513d602081101561246757600080fd5b8101908080519060200190929190505050600c600083815260200190815260200160002060040181905550601360009054906101000a900473ffffffffffffffffffffffffffffffffffffffff1673ffffffffffffffffffffffffffffffffffffffff16631fd038b5826040518263ffffffff1660e01b81526004018082815260200191505060006040518083038186803b15801561250557600080fd5b505afa158015612519573d6000803e3d6000fd5b505050506040513d6000823e3d601f19601f82011682018060405250602081101561254357600080fd5b810190808051604051939291908464010000000082111561256357600080fd5b8382019150602082018581111561257957600080fd5b825186600182028301116401000000008211171561259657600080fd5b8083526020830192505050908051906020019080838360005b838110156125ca5780820151818401526020810190506125af565b50505050905090810190601f1680156125f75780820380516001836020036101000a031916815260200191505b50604052505050600c600083815260200190815260200160002060050190805190602001906126279291906126e9565b5080806001019150506120a1565b50565b6000600260009054906101000a900473ffffffffffffffffffffffffffffffffffffffff16905090565b828054600181600116156101000203166002900490600052602060002090601f016020900481019282601f1061269b57805485556126d8565b828001600101855582156126d857600052602060002091601f016020900482015b828111156126d75782548255916001019190600101906126bc565b5b5090506126e59190612769565b5090565b828054600181600116156101000203166002900490600052602060002090601f016020900481019282601f1061272a57805160ff1916838001178555612758565b82800160010185558215612758579182015b8281111561275757825182559160200191906001019061273c565b5b5090506127659190612769565b5090565b61278b91905b8082111561278757600081600090555060010161276f565b5090565b9056fe68747470733a2f2f6d696e2d6170692e63727970746f636f6d706172652e636f6d2f646174612f70726963656d756c746966756c6c3f6673796d733da264697066735822122042511ac41ab1b992c3f7cd30e02e0d4ade7fac673f1f3d545f347159a5982e0864736f6c63430006060033477565737320746865207365636f6e642064696769742061667465722074686520646563696d616c20706f696e7447756573732072656d61696e646572206f6620766f6c756d6520646976696465642062792033",
  "immutableReferences": {},
  "source": "\n// SPDX-License-Identifier: GPL-3.0\n\npragma solidity >=0.6.0 <0.9.0;\n\nimport \"@chainlink/contracts/src/v0.6/VRFConsumerBase.sol\";\nimport \"@chainlink/contracts/src/v0.6/ChainlinkClient.sol\";\n\ninterface GetCurrencyInfoInterface {\n    function addCurrency(int256 _currencyQuantity) external;\n    function getCurrencyName(int256 _id) external view returns(bytes32);\n    function getCurrencyFullName(int256 _id) external view returns(bytes32);\n    function getCurrencyOverviewUrl(int256 _id) external view returns(bytes32);\n    function getCurrencyAssetLaunchDate(int256 _id) external view returns(bytes32);\n    function getCurrencyLogoUrl(int256 _id) external view returns(bytes32);\n    function getCurrencyIntro(int256 _id) external view returns(bytes memory);\n}\n\ninterface GetAnswerInterface {\n  function strAdd(string calldata _a, bytes32 _b, string calldata _c) external returns(string memory);\n  function getVolume() external view returns (uint256);\n  function requestVolumeData(string calldata _currenyName, string calldata _questionName, string calldata _apiUrl) external returns (bytes32 requestId);\n}\n\ninterface GetVRFInterface {\n    function getVRF() external view returns (uint256);\n    function getRandomNumber() external returns (bytes32 requestId);\n}\n\ncontract AddGameInfo is ChainlinkClient{\n    int256 public currencyQuantity;\n    int256 public dailyGameQuantity;\n    int256 public weeklyGameQuantity;\n    int256 public monthlyGameQuantity;\n    bytes32 public reqID_VRF;\n    int256 public rand_b;\n\n// Key: gameListId\n    struct GameList{\n        int256 questionId;  // 2 items\n        int256 currencyId;  // which currency  // currencyQuantity items\n        uint revealTime;   // gameParticipateStartTime\n        int256 lifeLengthId;  // 3 items\n        string property;  // 1 items\n        bool isActivity;  //\n        bool isClose;  //\n    }\n\n    struct CurrencyList{\n        bytes32 name;\n        bytes32 fullName;\n        bytes32 overviewUrl;\n        bytes32 assetLaunchDate;\n        bytes32 logoUrl;\n        bytes currencyIntro;\n    }\n\n    struct QuestionList{\n        string questionName;  //path\n        string questionDescription;  //question text\n    }\n\n    struct OptionsList{\n        int256 optionsContet;\n        int256 userQuantity;\n        address[] userAddress;\n    }\n\n    struct LifeLengthList{\n        int256 lifeLength;  // daily=1,weekly=7,monthly=30\n        int256 gameQuantity;  // daily=30,weekly=4,monthly=1\n        string title;\n    }\n\n    struct GameInfo{\n        int256 gameId;\n        bytes32 gameTitle;\n        string gameQuestion;\n        bytes gameDescription;\n        //int256[][] gameAnsOptions;\n        //uint gameWindowEndTime;\n        uint gameParticipateStartTime;\n        //uint gameParticipateEndTime;\n        string gameWindow;\n        string gameProperty;\n        bytes32 gameLogoLink;\n        int256 numOfParticipants;\n    }\n\n\n\n    mapping (int256 => CurrencyList) public currencyList;\n    mapping (int256 => GameList) public gameList;\n    mapping (int256 => mapping (int256 => OptionsList)) public optionsList;  // key: gamiListId\n    mapping (int256 => string) public propertyList;\n    mapping (int256 => LifeLengthList) public lifeLengthList;\n    mapping (int256 => QuestionList) public questionList;\n\n\n    address GetCurrencyInfoInterfaceAddress = 0xa580D0eF1d8bDefdcD06059f3B81D305778ab617;\n    GetCurrencyInfoInterface getCurrencyInfoContract = GetCurrencyInfoInterface(GetCurrencyInfoInterfaceAddress);\n\n    address GetAnswerInterfaceAddress = 0x6f33ed84c014F72D23240b9Ed589959a8c226C76;\n    GetAnswerInterface getAnswerContract = GetAnswerInterface(GetCurrencyInfoInterfaceAddress);\n\n    address GetVRFInterfaceAddress = 0x40C7b80E812a3683d651DB8b38278A256f51362D;\n    GetVRFInterface getVRFContract = GetVRFInterface(GetVRFInterfaceAddress);\n\n    constructor() public {\n        setPublicChainlinkToken();\n\n        questionList[1].questionName = \"PRICE\";\n        questionList[1].questionDescription = \"Guess the second digit after the decimal point\";\n\n        questionList[2].questionName = \"VOLUME\";\n        questionList[2].questionDescription = \"Guess remainder of volume divided by 3\";\n\n        propertyList[1] = \"Crypto Currency\";\n\n        lifeLengthList[1].lifeLength = 1;\n        lifeLengthList[1].gameQuantity = 30;\n        lifeLengthList[1].title = \"Daily\";\n\n\n        lifeLengthList[2].lifeLength = 7;\n        lifeLengthList[2].gameQuantity = 4;\n        lifeLengthList[2].title = \"Weekly\";\n\n        lifeLengthList[3].lifeLength = 30;\n        lifeLengthList[3].gameQuantity = 1;\n        lifeLengthList[3].title = \"Monthly\";\n\n        currencyQuantity = 10;\n    }\n\n\n\n// (SKIP)  1\n    function makeCurrencyList() public{\n        LinkTokenInterface linkToken = LinkTokenInterface(chainlinkTokenAddress());\n        require(linkToken.transfer(GetCurrencyInfoInterfaceAddress, linkToken.balanceOf(address(this))), \"Unable to transfer\");\n        getCurrencyInfoContract.addCurrency(currencyQuantity);\n    }\n\n// 2\n    function getCurrencyList() public{\n        for(int256 i=1;i<=currencyQuantity;i++){\n            currencyList[i].name = getCurrencyInfoContract.getCurrencyName(i);\n            currencyList[i].fullName = getCurrencyInfoContract.getCurrencyFullName(i);\n            currencyList[i].overviewUrl = getCurrencyInfoContract.getCurrencyOverviewUrl(i);\n            currencyList[i].assetLaunchDate = getCurrencyInfoContract.getCurrencyAssetLaunchDate(i);\n            currencyList[i].logoUrl = getCurrencyInfoContract.getCurrencyLogoUrl(i);\n            currencyList[i].currencyIntro = getCurrencyInfoContract.getCurrencyIntro(i);\n        }\n    }\n\n\n    function getRandom() public returns(uint256){\n        LinkTokenInterface linkToken = LinkTokenInterface(chainlinkTokenAddress());\n        require(linkToken.transfer(GetVRFInterfaceAddress, linkToken.balanceOf(address(this))), \"Unable to transfer\");\n        reqID_VRF=getVRFContract.getRandomNumber();\n        return getVRFContract.getVRF();\n    }\n\n// 3.5\n    function makeOptions(int256 _questionId, int256 _gameId) public{\n        if(_questionId == 1){\n            optionsList[_gameId][1].optionsContet = 1;\n            optionsList[_gameId][2].optionsContet = 2;\n            optionsList[_gameId][3].optionsContet = 3;\n            optionsList[_gameId][4].optionsContet = 4;\n            optionsList[_gameId][5].optionsContet = 5;\n            optionsList[_gameId][6].optionsContet = 6;\n            optionsList[_gameId][7].optionsContet = 7;\n            optionsList[_gameId][8].optionsContet = 8;\n            optionsList[_gameId][9].optionsContet = 9;\n            optionsList[_gameId][10].optionsContet = 0;\n        }else if(_questionId == 2){\n            optionsList[_gameId][1].optionsContet =0;\n            optionsList[_gameId][2].optionsContet =1;\n            optionsList[_gameId][3].optionsContet =2;\n        }\n   }\n\n// 3\n    function makeDailyGame() public{\n        for(int256 i=1;i<=3;i++){  // i=1 daily,i=2 weekly,i=3 monthly\n            for(int256 gameId=1;gameId<=lifeLengthList[i].gameQuantity;gameId++){\n                gameList[gameId].questionId = int256(getRandom()) % 2 + 1;\n                makeOptions(int256(getRandom()) % 2 + 1, gameId);\n                gameList[gameId].currencyId = int256(getRandom()) % currencyQuantity + 1;\n                gameList[gameId].revealTime = 0;\n                gameList[gameId].lifeLengthId = i;\n                gameList[gameId].property = propertyList[1];\n                gameList[gameId].isActivity = false;\n                gameList[gameId].isClose = false;\n            }\n        }\n    }\n\n    /*\n        struct GameInfo{\n            int256 gameId;\n            bytes32 gameTitle;\n            string gameQuestion;\n            bytes gameDescription;\n            //int256[][] gameAnsOptions;\n            //uint gameWindowEndTime;\n            uint gameParticipateStartTime;\n            //uint gameParticipateEndTime;\n            string gameWindow;\n            string gameProperty;\n            bytes32 gameLogoLink;\n            int256 numOfParticipants;\n        }\n    */\n    /*\n    function returnGameInfo() public returns(GameInfo memory){\n        GameInfo[4] memory gameInfo;\n        for(int256 i=1;i<=3;i++){  // i=1 daily,i=2 weekly,i=3 monthly\n            for(int256 gameId=1;gameId<=lifeLengthList[i].gameQuantity;gameId++){\n                if(gameList[gameId].isActivity || gameList[gameId].isClose){\n                    gameInfo[uint(i)].gameId = gameId;\n                    gameInfo[uint(i)].gameTitle = currencyList[gameList[gameId].currencyId].name;\n                    gameInfo[uint(i)].gameQuestion = questionList[gameList[gameId].questionId].questionDescription;\n                    gameInfo[uint(i)].gameDescription = currencyList[gameList[gameId].currencyId].currencyIntro;\n                    gameInfo[uint(i)].gameParticipateStartTime = now;\n                    gameInfo[uint(i)].gameWindow = lifeLengthList[i].title;\n                    gameInfo[uint(i)].gameProperty = gameList[gameId].property;\n                    gameInfo[uint(i)].gameLogoLink = currencyList[gameList[gameId].currencyId].logoUrl;\n                }\n            }\n        }\n        return(gameInfo[0]);\n    }\n    */\n\n    function getAnswer(int256 _gameId) public{\n        string memory url_main;\n        string memory url_sub;\n        bytes32 reqID;\n\n\n        url_main=\"https://min-api.cryptocompare.com/data/pricemultifull?fsyms=\";\n        url_sub=\"&tsyms=USD\";\n\n\n        LinkTokenInterface linkToken = LinkTokenInterface(chainlinkTokenAddress());\n        require(linkToken.transfer(GetAnswerInterfaceAddress, linkToken.balanceOf(address(this))), \"Unable to transfer\");\n\n        reqID=getAnswerContract.requestVolumeData(getAnswerContract.strAdd(\"\", currencyList[gameList[_gameId].currencyId].name, \"\"), questionList[gameList[_gameId].questionId].questionName, getAnswerContract.strAdd(url_main, currencyList[gameList[_gameId].currencyId].name, url_sub));\n\n    }\n\n    function returnAnswer() public view returns(uint256){\n        return getAnswerContract.getVolume();\n    }\n\n\n\n//\n    function addParticipant(int256 _gameId, address _userAddress, int256 _optionId) public{\n        optionsList[_gameId][_optionId].userAddress.push(_userAddress);\n    }\n\n\n\n\n}\n",
  "sourcePath": "/Users/adeleyu/projects/guess_get_gas/contracts/AddGameInfo.sol",
  "compiler": {
    "name": "solc",
    "version": "0.6.6+commit.6c089d02.Emscripten.clang"
  },
  "schemaVersion": "3.3.3",
  "updatedAt": "2021-04-08T14:21:28.522Z",
  "devdoc": {
    "methods": {}
  },
  "userdoc": {
    "methods": {}
  }
}