{
  "contractName": "GenerateBadge",
  "abi": [
    {
      "inputs": [],
      "stateMutability": "nonpayable",
      "type": "constructor"
    },
    {
      "anonymous": false,
      "inputs": [
        {
          "indexed": true,
          "internalType": "address",
          "name": "owner",
          "type": "address"
        },
        {
          "indexed": true,
          "internalType": "address",
          "name": "approved",
          "type": "address"
        },
        {
          "indexed": true,
          "internalType": "uint256",
          "name": "tokenId",
          "type": "uint256"
        }
      ],
      "name": "Approval",
      "type": "event"
    },
    {
      "anonymous": false,
      "inputs": [
        {
          "indexed": true,
          "internalType": "address",
          "name": "owner",
          "type": "address"
        },
        {
          "indexed": true,
          "internalType": "address",
          "name": "operator",
          "type": "address"
        },
        {
          "indexed": false,
          "internalType": "bool",
          "name": "approved",
          "type": "bool"
        }
      ],
      "name": "ApprovalForAll",
      "type": "event"
    },
    {
      "anonymous": false,
      "inputs": [
        {
          "indexed": true,
          "internalType": "address",
          "name": "from",
          "type": "address"
        },
        {
          "indexed": true,
          "internalType": "address",
          "name": "to",
          "type": "address"
        },
        {
          "indexed": true,
          "internalType": "uint256",
          "name": "tokenId",
          "type": "uint256"
        }
      ],
      "name": "Transfer",
      "type": "event"
    },
    {
      "inputs": [
        {
          "internalType": "address",
          "name": "to",
          "type": "address"
        },
        {
          "internalType": "uint256",
          "name": "tokenId",
          "type": "uint256"
        }
      ],
      "name": "approve",
      "outputs": [],
      "stateMutability": "nonpayable",
      "type": "function"
    },
    {
      "inputs": [
        {
          "internalType": "string",
          "name": "",
          "type": "string"
        }
      ],
      "name": "badgeUrls",
      "outputs": [
        {
          "internalType": "string",
          "name": "",
          "type": "string"
        }
      ],
      "stateMutability": "view",
      "type": "function",
      "constant": true
    },
    {
      "inputs": [
        {
          "internalType": "address",
          "name": "owner",
          "type": "address"
        }
      ],
      "name": "balanceOf",
      "outputs": [
        {
          "internalType": "uint256",
          "name": "",
          "type": "uint256"
        }
      ],
      "stateMutability": "view",
      "type": "function",
      "constant": true
    },
    {
      "inputs": [],
      "name": "baseURI",
      "outputs": [
        {
          "internalType": "string",
          "name": "",
          "type": "string"
        }
      ],
      "stateMutability": "view",
      "type": "function",
      "constant": true
    },
    {
      "inputs": [
        {
          "internalType": "uint256",
          "name": "tokenId",
          "type": "uint256"
        }
      ],
      "name": "getApproved",
      "outputs": [
        {
          "internalType": "address",
          "name": "",
          "type": "address"
        }
      ],
      "stateMutability": "view",
      "type": "function",
      "constant": true
    },
    {
      "inputs": [
        {
          "internalType": "address",
          "name": "owner",
          "type": "address"
        },
        {
          "internalType": "address",
          "name": "operator",
          "type": "address"
        }
      ],
      "name": "isApprovedForAll",
      "outputs": [
        {
          "internalType": "bool",
          "name": "",
          "type": "bool"
        }
      ],
      "stateMutability": "view",
      "type": "function",
      "constant": true
    },
    {
      "inputs": [],
      "name": "name",
      "outputs": [
        {
          "internalType": "string",
          "name": "",
          "type": "string"
        }
      ],
      "stateMutability": "view",
      "type": "function",
      "constant": true
    },
    {
      "inputs": [
        {
          "internalType": "uint256",
          "name": "tokenId",
          "type": "uint256"
        }
      ],
      "name": "ownerOf",
      "outputs": [
        {
          "internalType": "address",
          "name": "",
          "type": "address"
        }
      ],
      "stateMutability": "view",
      "type": "function",
      "constant": true
    },
    {
      "inputs": [
        {
          "internalType": "address",
          "name": "from",
          "type": "address"
        },
        {
          "internalType": "address",
          "name": "to",
          "type": "address"
        },
        {
          "internalType": "uint256",
          "name": "tokenId",
          "type": "uint256"
        }
      ],
      "name": "safeTransferFrom",
      "outputs": [],
      "stateMutability": "nonpayable",
      "type": "function"
    },
    {
      "inputs": [
        {
          "internalType": "address",
          "name": "from",
          "type": "address"
        },
        {
          "internalType": "address",
          "name": "to",
          "type": "address"
        },
        {
          "internalType": "uint256",
          "name": "tokenId",
          "type": "uint256"
        },
        {
          "internalType": "bytes",
          "name": "_data",
          "type": "bytes"
        }
      ],
      "name": "safeTransferFrom",
      "outputs": [],
      "stateMutability": "nonpayable",
      "type": "function"
    },
    {
      "inputs": [
        {
          "internalType": "address",
          "name": "operator",
          "type": "address"
        },
        {
          "internalType": "bool",
          "name": "approved",
          "type": "bool"
        }
      ],
      "name": "setApprovalForAll",
      "outputs": [],
      "stateMutability": "nonpayable",
      "type": "function"
    },
    {
      "inputs": [
        {
          "internalType": "bytes4",
          "name": "interfaceId",
          "type": "bytes4"
        }
      ],
      "name": "supportsInterface",
      "outputs": [
        {
          "internalType": "bool",
          "name": "",
          "type": "bool"
        }
      ],
      "stateMutability": "view",
      "type": "function",
      "constant": true
    },
    {
      "inputs": [],
      "name": "symbol",
      "outputs": [
        {
          "internalType": "string",
          "name": "",
          "type": "string"
        }
      ],
      "stateMutability": "view",
      "type": "function",
      "constant": true
    },
    {
      "inputs": [
        {
          "internalType": "uint256",
          "name": "index",
          "type": "uint256"
        }
      ],
      "name": "tokenByIndex",
      "outputs": [
        {
          "internalType": "uint256",
          "name": "",
          "type": "uint256"
        }
      ],
      "stateMutability": "view",
      "type": "function",
      "constant": true
    },
    {
      "inputs": [
        {
          "internalType": "address",
          "name": "owner",
          "type": "address"
        },
        {
          "internalType": "uint256",
          "name": "index",
          "type": "uint256"
        }
      ],
      "name": "tokenOfOwnerByIndex",
      "outputs": [
        {
          "internalType": "uint256",
          "name": "",
          "type": "uint256"
        }
      ],
      "stateMutability": "view",
      "type": "function",
      "constant": true
    },
    {
      "inputs": [
        {
          "internalType": "uint256",
          "name": "tokenId",
          "type": "uint256"
        }
      ],
      "name": "tokenURI",
      "outputs": [
        {
          "internalType": "string",
          "name": "",
          "type": "string"
        }
      ],
      "stateMutability": "view",
      "type": "function",
      "constant": true
    },
    {
      "inputs": [],
      "name": "totalSupply",
      "outputs": [
        {
          "internalType": "uint256",
          "name": "",
          "type": "uint256"
        }
      ],
      "stateMutability": "view",
      "type": "function",
      "constant": true
    },
    {
      "inputs": [
        {
          "internalType": "address",
          "name": "from",
          "type": "address"
        },
        {
          "internalType": "address",
          "name": "to",
          "type": "address"
        },
        {
          "internalType": "uint256",
          "name": "tokenId",
          "type": "uint256"
        }
      ],
      "name": "transferFrom",
      "outputs": [],
      "stateMutability": "nonpayable",
      "type": "function"
    },
    {
      "inputs": [
        {
          "internalType": "string",
          "name": "name",
          "type": "string"
        },
        {
          "internalType": "address",
          "name": "userAddress",
          "type": "address"
        }
      ],
      "name": "issueNFT",
      "outputs": [],
      "stateMutability": "nonpayable",
      "type": "function"
    }
  ],
  "bytecode": "0x60806040523480156200001157600080fd5b506040518060400160405280600881526020017f47474742616467650000000000000000000000000000000000000000000000008152506040518060400160405280600481526020017f4747474200000000000000000000000000000000000000000000000000000000815250620000966301ffc9a760e01b6200026260201b60201c565b8160069080519060200190620000ae9291906200036b565b508060079080519060200190620000c79291906200036b565b50620000e06380ac58cd60e01b6200026260201b60201c565b620000f8635b5e139f60e01b6200026260201b60201c565b6200011063780e9d6360e01b6200026260201b60201c565b5050604051806080016040528060598152602001620036b760599139600b60405180807f4c544300000000000000000000000000000000000000000000000000000000008152506003019050908152602001604051809103902090805190602001906200017f9291906200036b565b506040518060800160405280605981526020016200371060599139600b60405180807f4554480000000000000000000000000000000000000000000000000000000000815250600301905090815260200160405180910390209080519060200190620001ed9291906200036b565b506040518060800160405280605981526020016200376960599139600b60405180807f42544300000000000000000000000000000000000000000000000000000000008152506003019050908152602001604051809103902090805190602001906200025b9291906200036b565b506200041a565b63ffffffff60e01b817bffffffffffffffffffffffffffffffffffffffffffffffffffffffff19161415620002ff576040517f08c379a000000000000000000000000000000000000000000000000000000000815260040180806020018281038252601c8152602001807f4552433136353a20696e76616c696420696e746572666163652069640000000081525060200191505060405180910390fd5b6001600080837bffffffffffffffffffffffffffffffffffffffffffffffffffffffff19167bffffffffffffffffffffffffffffffffffffffffffffffffffffffff1916815260200190815260200160002060006101000a81548160ff02191690831515021790555050565b828054600181600116156101000203166002900490600052602060002090601f016020900481019282601f10620003ae57805160ff1916838001178555620003df565b82800160010185558215620003df579182015b82811115620003de578251825591602001919060010190620003c1565b5b509050620003ee9190620003f2565b5090565b6200041791905b8082111562000413576000816000905550600101620003f9565b5090565b90565b61328d806200042a6000396000f3fe608060405234801561001057600080fd5b50600436106101215760003560e01c80636352211e116100ad578063a22cb46511610071578063a22cb46514610768578063b0eb5b63146107b8578063b88d4fde14610893578063c87b56dd14610998578063e985e9c514610a3f57610121565b80636352211e146104685780636c0360eb146104d657806370a08231146105595780638695f04f146105b157806395d89b41146106e557610121565b806318160ddd116100f457806318160ddd146102ca57806323b872dd146102e85780632f745c591461035657806342842e0e146103b85780634f6ccce71461042657610121565b806301ffc9a71461012657806306fdde031461018b578063081812fc1461020e578063095ea7b31461027c575b600080fd5b6101716004803603602081101561013c57600080fd5b8101908080357bffffffffffffffffffffffffffffffffffffffffffffffffffffffff19169060200190929190505050610abb565b604051808215151515815260200191505060405180910390f35b610193610b22565b6040518080602001828103825283818151815260200191508051906020019080838360005b838110156101d35780820151818401526020810190506101b8565b50505050905090810190601f1680156102005780820380516001836020036101000a031916815260200191505b509250505060405180910390f35b61023a6004803603602081101561022457600080fd5b8101908080359060200190929190505050610bc4565b604051808273ffffffffffffffffffffffffffffffffffffffff1673ffffffffffffffffffffffffffffffffffffffff16815260200191505060405180910390f35b6102c86004803603604081101561029257600080fd5b81019080803573ffffffffffffffffffffffffffffffffffffffff16906020019092919080359060200190929190505050610c5f565b005b6102d2610da3565b6040518082815260200191505060405180910390f35b610354600480360360608110156102fe57600080fd5b81019080803573ffffffffffffffffffffffffffffffffffffffff169060200190929190803573ffffffffffffffffffffffffffffffffffffffff16906020019092919080359060200190929190505050610db4565b005b6103a26004803603604081101561036c57600080fd5b81019080803573ffffffffffffffffffffffffffffffffffffffff16906020019092919080359060200190929190505050610e2a565b6040518082815260200191505060405180910390f35b610424600480360360608110156103ce57600080fd5b81019080803573ffffffffffffffffffffffffffffffffffffffff169060200190929190803573ffffffffffffffffffffffffffffffffffffffff16906020019092919080359060200190929190505050610e85565b005b6104526004803603602081101561043c57600080fd5b8101908080359060200190929190505050610ea5565b6040518082815260200191505060405180910390f35b6104946004803603602081101561047e57600080fd5b8101908080359060200190929190505050610ec8565b604051808273ffffffffffffffffffffffffffffffffffffffff1673ffffffffffffffffffffffffffffffffffffffff16815260200191505060405180910390f35b6104de610eff565b6040518080602001828103825283818151815260200191508051906020019080838360005b8381101561051e578082015181840152602081019050610503565b50505050905090810190601f16801561054b5780820380516001836020036101000a031916815260200191505b509250505060405180910390f35b61059b6004803603602081101561056f57600080fd5b81019080803573ffffffffffffffffffffffffffffffffffffffff169060200190929190505050610fa1565b6040518082815260200191505060405180910390f35b61066a600480360360208110156105c757600080fd5b81019080803590602001906401000000008111156105e457600080fd5b8201836020820111156105f657600080fd5b8035906020019184600183028401116401000000008311171561061857600080fd5b91908080601f016020809104026020016040519081016040528093929190818152602001838380828437600081840152601f19601f820116905080830192505050505050509192919290505050611076565b6040518080602001828103825283818151815260200191508051906020019080838360005b838110156106aa57808201518184015260208101905061068f565b50505050905090810190601f1680156106d75780820380516001836020036101000a031916815260200191505b509250505060405180910390f35b6106ed61113c565b6040518080602001828103825283818151815260200191508051906020019080838360005b8381101561072d578082015181840152602081019050610712565b50505050905090810190601f16801561075a5780820380516001836020036101000a031916815260200191505b509250505060405180910390f35b6107b66004803603604081101561077e57600080fd5b81019080803573ffffffffffffffffffffffffffffffffffffffff1690602001909291908035151590602001909291905050506111de565b005b610891600480360360408110156107ce57600080fd5b81019080803590602001906401000000008111156107eb57600080fd5b8201836020820111156107fd57600080fd5b8035906020019184600183028401116401000000008311171561081f57600080fd5b91908080601f016020809104026020016040519081016040528093929190818152602001838380828437600081840152601f19601f820116905080830192505050505050509192919290803573ffffffffffffffffffffffffffffffffffffffff169060200190929190505050611396565b005b610996600480360360808110156108a957600080fd5b81019080803573ffffffffffffffffffffffffffffffffffffffff169060200190929190803573ffffffffffffffffffffffffffffffffffffffff169060200190929190803590602001909291908035906020019064010000000081111561091057600080fd5b82018360208201111561092257600080fd5b8035906020019184600183028401116401000000008311171561094457600080fd5b91908080601f016020809104026020016040519081016040528093929190818152602001838380828437600081840152601f19601f820116905080830192505050505050509192919290505050611789565b005b6109c4600480360360208110156109ae57600080fd5b8101908080359060200190929190505050611801565b6040518080602001828103825283818151815260200191508051906020019080838360005b83811015610a045780820151818401526020810190506109e9565b50505050905090810190601f168015610a315780820380516001836020036101000a031916815260200191505b509250505060405180910390f35b610aa160048036036040811015610a5557600080fd5b81019080803573ffffffffffffffffffffffffffffffffffffffff169060200190929190803573ffffffffffffffffffffffffffffffffffffffff169060200190929190505050611ad2565b604051808215151515815260200191505060405180910390f35b6000806000837bffffffffffffffffffffffffffffffffffffffffffffffffffffffff19167bffffffffffffffffffffffffffffffffffffffffffffffffffffffff1916815260200190815260200160002060009054906101000a900460ff169050919050565b606060068054600181600116156101000203166002900480601f016020809104026020016040519081016040528092919081815260200182805460018160011615610100020316600290048015610bba5780601f10610b8f57610100808354040283529160200191610bba565b820191906000526020600020905b815481529060010190602001808311610b9d57829003601f168201915b5050505050905090565b6000610bcf82611b66565b610c24576040517f08c379a000000000000000000000000000000000000000000000000000000000815260040180806020018281038252602c815260200180613156602c913960400191505060405180910390fd5b6004600083815260200190815260200160002060009054906101000a900473ffffffffffffffffffffffffffffffffffffffff169050919050565b6000610c6a82610ec8565b90508073ffffffffffffffffffffffffffffffffffffffff168373ffffffffffffffffffffffffffffffffffffffff161415610cf1576040517f08c379a00000000000000000000000000000000000000000000000000000000081526004018080602001828103825260218152602001806132066021913960400191505060405180910390fd5b8073ffffffffffffffffffffffffffffffffffffffff16610d10611b83565b73ffffffffffffffffffffffffffffffffffffffff161480610d3f5750610d3e81610d39611b83565b611ad2565b5b610d94576040517f08c379a00000000000000000000000000000000000000000000000000000000081526004018080602001828103825260388152602001806130a96038913960400191505060405180910390fd5b610d9e8383611b8b565b505050565b6000610daf6002611c44565b905090565b610dc5610dbf611b83565b82611c59565b610e1a576040517f08c379a00000000000000000000000000000000000000000000000000000000081526004018080602001828103825260318152602001806132276031913960400191505060405180910390fd5b610e25838383611d4d565b505050565b6000610e7d82600160008673ffffffffffffffffffffffffffffffffffffffff1673ffffffffffffffffffffffffffffffffffffffff168152602001908152602001600020611f9090919063ffffffff16565b905092915050565b610ea083838360405180602001604052806000815250611789565b505050565b600080610ebc836002611faa90919063ffffffff16565b50905080915050919050565b6000610ef88260405180606001604052806029815260200161310b602991396002611fd99092919063ffffffff16565b9050919050565b606060098054600181600116156101000203166002900480601f016020809104026020016040519081016040528092919081815260200182805460018160011615610100020316600290048015610f975780601f10610f6c57610100808354040283529160200191610f97565b820191906000526020600020905b815481529060010190602001808311610f7a57829003601f168201915b5050505050905090565b60008073ffffffffffffffffffffffffffffffffffffffff168273ffffffffffffffffffffffffffffffffffffffff161415611028576040517f08c379a000000000000000000000000000000000000000000000000000000000815260040180806020018281038252602a8152602001806130e1602a913960400191505060405180910390fd5b61106f600160008473ffffffffffffffffffffffffffffffffffffffff1673ffffffffffffffffffffffffffffffffffffffff168152602001908152602001600020611ff8565b9050919050565b600b818051602081018201805184825260208301602085012081835280955050505050506000915090508054600181600116156101000203166002900480601f0160208091040260200160405190810160405280929190818152602001828054600181600116156101000203166002900480156111345780601f1061110957610100808354040283529160200191611134565b820191906000526020600020905b81548152906001019060200180831161111757829003601f168201915b505050505081565b606060078054600181600116156101000203166002900480601f0160208091040260200160405190810160405280929190818152602001828054600181600116156101000203166002900480156111d45780601f106111a9576101008083540402835291602001916111d4565b820191906000526020600020905b8154815290600101906020018083116111b757829003601f168201915b5050505050905090565b6111e6611b83565b73ffffffffffffffffffffffffffffffffffffffff168273ffffffffffffffffffffffffffffffffffffffff161415611287576040517f08c379a00000000000000000000000000000000000000000000000000000000081526004018080602001828103825260198152602001807f4552433732313a20617070726f766520746f2063616c6c65720000000000000081525060200191505060405180910390fd5b8060056000611294611b83565b73ffffffffffffffffffffffffffffffffffffffff1673ffffffffffffffffffffffffffffffffffffffff16815260200190815260200160002060008473ffffffffffffffffffffffffffffffffffffffff1673ffffffffffffffffffffffffffffffffffffffff16815260200190815260200160002060006101000a81548160ff0219169083151502179055508173ffffffffffffffffffffffffffffffffffffffff16611341611b83565b73ffffffffffffffffffffffffffffffffffffffff167f17307eab39ab6107e8899845ad3d59bd9653f200f220920489ca2b5937696c3183604051808215151515815260200191505060405180910390a35050565b6113a0600a61200d565b60006113ac600a612023565b90506113b6612f12565b60405180606001604052806040518060400160405280600381526020017f4c5443000000000000000000000000000000000000000000000000000000000081525081526020016040518060400160405280600381526020017f455448000000000000000000000000000000000000000000000000000000000081525081526020016040518060400160405280600381526020017f42544300000000000000000000000000000000000000000000000000000000008152508152509050606060008090505b600381101561176d57856040516020018082805190602001908083835b602083106114ba5780518252602082019150602081019050602083039250611497565b6001836020036101000a0380198251168184511680821785525050505050509050019150506040516020818303038152906040528051906020012083826003811061150157fe5b60200201516040516020018082805190602001908083835b6020831061153c5780518252602082019150602081019050602083039250611519565b6001836020036101000a03801982511681845116808217855250505050505090500191505060405160208183030381529060405280519060200120141561168657600b866040518082805190602001908083835b602083106115b35780518252602082019150602081019050602083039250611590565b6001836020036101000a03801982511681845116808217855250505050505090500191505090815260200160405180910390208054600181600116156101000203166002900480601f01602080910402602001604051908101604052809291908181526020018280546001816001161561010002031660029004801561167a5780601f1061164f5761010080835404028352916020019161167a565b820191906000526020600020905b81548152906001019060200180831161165d57829003601f168201915b50505050509150611760565b600b60405180807f4554480000000000000000000000000000000000000000000000000000000000815250600301905090815260200160405180910390208054600181600116156101000203166002900480601f0160208091040260200160405190810160405280929190818152602001828054600181600116156101000203166002900480156117585780601f1061172d57610100808354040283529160200191611758565b820191906000526020600020905b81548152906001019060200180831161173b57829003601f168201915b505050505091505b808060010191505061147a565b506117788484612031565b611782838261204f565b5050505050565b61179a611794611b83565b83611c59565b6117ef576040517f08c379a00000000000000000000000000000000000000000000000000000000081526004018080602001828103825260318152602001806132276031913960400191505060405180910390fd5b6117fb848484846120d9565b50505050565b606061180c82611b66565b611861576040517f08c379a000000000000000000000000000000000000000000000000000000000815260040180806020018281038252602f8152602001806131d7602f913960400191505060405180910390fd5b6060600860008481526020019081526020016000208054600181600116156101000203166002900480601f01602080910402602001604051908101604052809291908181526020018280546001816001161561010002031660029004801561190a5780601f106118df5761010080835404028352916020019161190a565b820191906000526020600020905b8154815290600101906020018083116118ed57829003601f168201915b50505050509050606061191b610eff565b9050600081511415611931578192505050611acd565b600082511115611a025780826040516020018083805190602001908083835b602083106119735780518252602082019150602081019050602083039250611950565b6001836020036101000a03801982511681845116808217855250505050505090500182805190602001908083835b602083106119c457805182526020820191506020810190506020830392506119a1565b6001836020036101000a0380198251168184511680821785525050505050509050019250505060405160208183030381529060405292505050611acd565b80611a0c8561214b565b6040516020018083805190602001908083835b60208310611a425780518252602082019150602081019050602083039250611a1f565b6001836020036101000a03801982511681845116808217855250505050505090500182805190602001908083835b60208310611a935780518252602082019150602081019050602083039250611a70565b6001836020036101000a03801982511681845116808217855250505050505090500192505050604051602081830303815290604052925050505b919050565b6000600560008473ffffffffffffffffffffffffffffffffffffffff1673ffffffffffffffffffffffffffffffffffffffff16815260200190815260200160002060008373ffffffffffffffffffffffffffffffffffffffff1673ffffffffffffffffffffffffffffffffffffffff16815260200190815260200160002060009054906101000a900460ff16905092915050565b6000611b7c82600261229290919063ffffffff16565b9050919050565b600033905090565b816004600083815260200190815260200160002060006101000a81548173ffffffffffffffffffffffffffffffffffffffff021916908373ffffffffffffffffffffffffffffffffffffffff160217905550808273ffffffffffffffffffffffffffffffffffffffff16611bfe83610ec8565b73ffffffffffffffffffffffffffffffffffffffff167f8c5be1e5ebec7d5bd14f71427d1e84f3dd0314c0f7b2291e5b200ac8c7c3b92560405160405180910390a45050565b6000611c52826000016122ac565b9050919050565b6000611c6482611b66565b611cb9576040517f08c379a000000000000000000000000000000000000000000000000000000000815260040180806020018281038252602c81526020018061307d602c913960400191505060405180910390fd5b6000611cc483610ec8565b90508073ffffffffffffffffffffffffffffffffffffffff168473ffffffffffffffffffffffffffffffffffffffff161480611d3357508373ffffffffffffffffffffffffffffffffffffffff16611d1b84610bc4565b73ffffffffffffffffffffffffffffffffffffffff16145b80611d445750611d438185611ad2565b5b91505092915050565b8273ffffffffffffffffffffffffffffffffffffffff16611d6d82610ec8565b73ffffffffffffffffffffffffffffffffffffffff1614611dd9576040517f08c379a00000000000000000000000000000000000000000000000000000000081526004018080602001828103825260298152602001806131ae6029913960400191505060405180910390fd5b600073ffffffffffffffffffffffffffffffffffffffff168273ffffffffffffffffffffffffffffffffffffffff161415611e5f576040517f08c379a00000000000000000000000000000000000000000000000000000000081526004018080602001828103825260248152602001806130336024913960400191505060405180910390fd5b611e6a8383836122bd565b611e75600082611b8b565b611ec681600160008673ffffffffffffffffffffffffffffffffffffffff1673ffffffffffffffffffffffffffffffffffffffff1681526020019081526020016000206122c290919063ffffffff16565b50611f1881600160008573ffffffffffffffffffffffffffffffffffffffff1673ffffffffffffffffffffffffffffffffffffffff1681526020019081526020016000206122dc90919063ffffffff16565b50611f2f818360026122f69092919063ffffffff16565b50808273ffffffffffffffffffffffffffffffffffffffff168473ffffffffffffffffffffffffffffffffffffffff167fddf252ad1be2c89b69c2b068fc378daa952ba7f163c4a11628f55a4df523b3ef60405160405180910390a4505050565b6000611f9f836000018361232b565b60001c905092915050565b600080600080611fbd86600001866123ae565b915091508160001c8160001c8090509350935050509250929050565b6000611fec846000018460001b84612447565b60001c90509392505050565b60006120068260000161253d565b9050919050565b6001816000016000828254019250508190555050565b600081600001549050919050565b61204b82826040518060200160405280600081525061254e565b5050565b61205882611b66565b6120ad576040517f08c379a000000000000000000000000000000000000000000000000000000000815260040180806020018281038252602c815260200180613182602c913960400191505060405180910390fd5b806008600084815260200190815260200160002090805190602001906120d4929190612f39565b505050565b6120e4848484611d4d565b6120f0848484846125bf565b612145576040517f08c379a00000000000000000000000000000000000000000000000000000000081526004018080602001828103825260328152602001806130016032913960400191505060405180910390fd5b50505050565b60606000821415612193576040518060400160405280600181526020017f3000000000000000000000000000000000000000000000000000000000000000815250905061228d565b600082905060005b600082146121bd578080600101915050600a82816121b557fe5b04915061219b565b60608167ffffffffffffffff811180156121d657600080fd5b506040519080825280601f01601f1916602001820160405280156122095781602001600182028036833780820191505090505b50905060006001830390508593505b6000841461228557600a848161222a57fe5b0660300160f81b8282806001900393508151811061224457fe5b60200101907effffffffffffffffffffffffffffffffffffffffffffffffffffffffffffff1916908160001a905350600a848161227d57fe5b049350612218565b819450505050505b919050565b60006122a4836000018360001b612804565b905092915050565b600081600001805490509050919050565b505050565b60006122d4836000018360001b612827565b905092915050565b60006122ee836000018360001b61290f565b905092915050565b6000612322846000018460001b8473ffffffffffffffffffffffffffffffffffffffff1660001b61297f565b90509392505050565b60008183600001805490501161238c576040517f08c379a0000000000000000000000000000000000000000000000000000000008152600401808060200182810382526022815260200180612fdf6022913960400191505060405180910390fd5b82600001828154811061239b57fe5b9060005260206000200154905092915050565b60008082846000018054905011612410576040517f08c379a00000000000000000000000000000000000000000000000000000000081526004018080602001828103825260228152602001806131346022913960400191505060405180910390fd5b600084600001848154811061242157fe5b906000526020600020906002020190508060000154816001015492509250509250929050565b6000808460010160008581526020019081526020016000205490506000811415839061250e576040517f08c379a00000000000000000000000000000000000000000000000000000000081526004018080602001828103825283818151815260200191508051906020019080838360005b838110156124d35780820151818401526020810190506124b8565b50505050905090810190601f1680156125005780820380516001836020036101000a031916815260200191505b509250505060405180910390fd5b5084600001600182038154811061252157fe5b9060005260206000209060020201600101549150509392505050565b600081600001805490509050919050565b6125588383612a5b565b61256560008484846125bf565b6125ba576040517f08c379a00000000000000000000000000000000000000000000000000000000081526004018080602001828103825260328152602001806130016032913960400191505060405180910390fd5b505050565b60006125e08473ffffffffffffffffffffffffffffffffffffffff16612c4f565b6125ed57600190506127fc565b606061278363150b7a0260e01b612602611b83565b888787604051602401808573ffffffffffffffffffffffffffffffffffffffff1673ffffffffffffffffffffffffffffffffffffffff1681526020018473ffffffffffffffffffffffffffffffffffffffff1673ffffffffffffffffffffffffffffffffffffffff16815260200183815260200180602001828103825283818151815260200191508051906020019080838360005b838110156126b2578082015181840152602081019050612697565b50505050905090810190601f1680156126df5780820380516001836020036101000a031916815260200191505b5095505050505050604051602081830303815290604052907bffffffffffffffffffffffffffffffffffffffffffffffffffffffff19166020820180517bffffffffffffffffffffffffffffffffffffffffffffffffffffffff8381831617835250505050604051806060016040528060328152602001613001603291398773ffffffffffffffffffffffffffffffffffffffff16612c629092919063ffffffff16565b9050600081806020019051602081101561279c57600080fd5b8101908080519060200190929190505050905063150b7a0260e01b7bffffffffffffffffffffffffffffffffffffffffffffffffffffffff1916817bffffffffffffffffffffffffffffffffffffffffffffffffffffffff191614925050505b949350505050565b600080836001016000848152602001908152602001600020541415905092915050565b60008083600101600084815260200190815260200160002054905060008114612903576000600182039050600060018660000180549050039050600086600001828154811061287257fe5b906000526020600020015490508087600001848154811061288f57fe5b90600052602060002001819055506001830187600101600083815260200190815260200160002081905550866000018054806128c757fe5b60019003818190600052602060002001600090559055866001016000878152602001908152602001600020600090556001945050505050612909565b60009150505b92915050565b600061291b8383612c7a565b612974578260000182908060018154018082558091505060019003906000526020600020016000909190919091505582600001805490508360010160008481526020019081526020016000208190555060019050612979565b600090505b92915050565b6000808460010160008581526020019081526020016000205490506000811415612a2657846000016040518060400160405280868152602001858152509080600181540180825580915050600190039060005260206000209060020201600090919091909150600082015181600001556020820151816001015550508460000180549050856001016000868152602001908152602001600020819055506001915050612a54565b82856000016001830381548110612a3957fe5b90600052602060002090600202016001018190555060009150505b9392505050565b600073ffffffffffffffffffffffffffffffffffffffff168273ffffffffffffffffffffffffffffffffffffffff161415612afe576040517f08c379a00000000000000000000000000000000000000000000000000000000081526004018080602001828103825260208152602001807f4552433732313a206d696e7420746f20746865207a65726f206164647265737381525060200191505060405180910390fd5b612b0781611b66565b15612b7a576040517f08c379a000000000000000000000000000000000000000000000000000000000815260040180806020018281038252601c8152602001807f4552433732313a20746f6b656e20616c7265616479206d696e7465640000000081525060200191505060405180910390fd5b612b86600083836122bd565b612bd781600160008573ffffffffffffffffffffffffffffffffffffffff1673ffffffffffffffffffffffffffffffffffffffff1681526020019081526020016000206122dc90919063ffffffff16565b50612bee818360026122f69092919063ffffffff16565b50808273ffffffffffffffffffffffffffffffffffffffff16600073ffffffffffffffffffffffffffffffffffffffff167fddf252ad1be2c89b69c2b068fc378daa952ba7f163c4a11628f55a4df523b3ef60405160405180910390a45050565b600080823b905060008111915050919050565b6060612c718484600085612c9d565b90509392505050565b600080836001016000848152602001908152602001600020541415905092915050565b606082471015612cf8576040517f08c379a00000000000000000000000000000000000000000000000000000000081526004018080602001828103825260268152602001806130576026913960400191505060405180910390fd5b612d0185612c4f565b612d73576040517f08c379a000000000000000000000000000000000000000000000000000000000815260040180806020018281038252601d8152602001807f416464726573733a2063616c6c20746f206e6f6e2d636f6e747261637400000081525060200191505060405180910390fd5b600060608673ffffffffffffffffffffffffffffffffffffffff1685876040518082805190602001908083835b60208310612dc35780518252602082019150602081019050602083039250612da0565b6001836020036101000a03801982511681845116808217855250505050505090500191505060006040518083038185875af1925050503d8060008114612e25576040519150601f19603f3d011682016040523d82523d6000602084013e612e2a565b606091505b5091509150612e3a828286612e46565b92505050949350505050565b60608315612e5657829050612f0b565b600083511115612e695782518084602001fd5b816040517f08c379a00000000000000000000000000000000000000000000000000000000081526004018080602001828103825283818151815260200191508051906020019080838360005b83811015612ed0578082015181840152602081019050612eb5565b50505050905090810190601f168015612efd5780820380516001836020036101000a031916815260200191505b509250505060405180910390fd5b9392505050565b60405180606001604052806003905b6060815260200190600190039081612f215790505090565b828054600181600116156101000203166002900490600052602060002090601f016020900481019282601f10612f7a57805160ff1916838001178555612fa8565b82800160010185558215612fa8579182015b82811115612fa7578251825591602001919060010190612f8c565b5b509050612fb59190612fb9565b5090565b612fdb91905b80821115612fd7576000816000905550600101612fbf565b5090565b9056fe456e756d657261626c655365743a20696e646578206f7574206f6620626f756e64734552433732313a207472616e7366657220746f206e6f6e20455243373231526563656976657220696d706c656d656e7465724552433732313a207472616e7366657220746f20746865207a65726f2061646472657373416464726573733a20696e73756666696369656e742062616c616e636520666f722063616c6c4552433732313a206f70657261746f7220717565727920666f72206e6f6e6578697374656e7420746f6b656e4552433732313a20617070726f76652063616c6c6572206973206e6f74206f776e6572206e6f7220617070726f76656420666f7220616c6c4552433732313a2062616c616e636520717565727920666f7220746865207a65726f20616464726573734552433732313a206f776e657220717565727920666f72206e6f6e6578697374656e7420746f6b656e456e756d657261626c654d61703a20696e646578206f7574206f6620626f756e64734552433732313a20617070726f76656420717565727920666f72206e6f6e6578697374656e7420746f6b656e4552433732314d657461646174613a2055524920736574206f66206e6f6e6578697374656e7420746f6b656e4552433732313a207472616e73666572206f6620746f6b656e2074686174206973206e6f74206f776e4552433732314d657461646174613a2055524920717565727920666f72206e6f6e6578697374656e7420746f6b656e4552433732313a20617070726f76616c20746f2063757272656e74206f776e65724552433732313a207472616e736665722063616c6c6572206973206e6f74206f776e6572206e6f7220617070726f766564a26469706673582212207406b3982d350b7939dd52819ba3a87bc6f377fc79afa4a74cbca7f5462dcee164736f6c6343000606003368747470733a2f2f697066732e696f2f697066732f516d627479584c4239696255795a3959776551684a5432346257567964516e5548796835445278627668483468393f66696c656e616d653d6e66742d6c74632e6a736f6e68747470733a2f2f697066732e696f2f697066732f516d6333433775454b717255426f6b77747a444d385641426a6d6d4a6f525a50356d614c7942444e664e46744e383f66696c656e616d653d6e66742d6574682e6a736f6e68747470733a2f2f697066732e696f2f697066732f516d51456a4865474343687459596d38346f544563444b444355645770627a77354b754c514178634358716933623f66696c656e616d653d6e66742d6274632e6a736f6e",
  "immutableReferences": {},
  "source": "// contracts/GenerateBadge.sol\n// SPDX-License-Identifier: MIT\npragma solidity ^0.6.6;\n\nimport \"@openzeppelin/contracts/token/ERC721/ERC721.sol\";\nimport \"@openzeppelin/contracts/utils/Counters.sol\";\n\ncontract GenerateBadge is ERC721 {\n    using Counters for Counters.Counter;\n    Counters.Counter private _tokenIds;\n\n    mapping (string => string) public badgeUrls;\n\n    constructor()\n    ERC721(\"GGGBadge\", \"GGGB\") public {\n        badgeUrls[\"LTC\"] = \"https://ipfs.io/ipfs/QmbtyXLB9ibUyZ9YweQhJT24bWVydQnUHyh5DRxbvhH4h9?filename=nft-ltc.json\";\n        badgeUrls[\"ETH\"] = \"https://ipfs.io/ipfs/Qmc3C7uEKqrUBokwtzDM8VABjmmJoRZP5maLyBDNfNFtN8?filename=nft-eth.json\";\n        badgeUrls[\"BTC\"] = \"https://ipfs.io/ipfs/QmQEjHeGCChtYYm84oTEcDKDCUdWpbzw5KuLQAxcCXqi3b?filename=nft-btc.json\";\n    }\n\n    function issueNFT(string memory name, address userAddress) public {\n        _tokenIds.increment();\n        uint256 newNftTokenId = _tokenIds.current();\n\n        string[3] memory availableCurrencies = [\"LTC\", \"ETH\", \"BTC\"];\n        string memory badgeUrl;\n\n        for (uint i = 0; i < availableCurrencies.length; i++) {\n            if (keccak256(abi.encodePacked(availableCurrencies[i])) == keccak256(abi.encodePacked(name))) {\n                badgeUrl = badgeUrls[name];\n            } else {\n                badgeUrl = badgeUrls[\"ETH\"];\n            }\n        }\n\n        _safeMint(userAddress, newNftTokenId);\n        _setTokenURI(newNftTokenId, badgeUrl);\n    }\n}",
  "sourcePath": "/Users/adeleyu/projects/guess_get_gas/contracts/GenerateBadge.sol",
  "compiler": {
    "name": "solc",
    "version": "0.6.6+commit.6c089d02.Emscripten.clang"
  },
  "schemaVersion": "3.3.3",
  "updatedAt": "2021-04-11T19:14:05.088Z",
  "networkType": "ethereum",
  "devdoc": {
    "methods": {
      "approve(address,uint256)": {
        "details": "See {IERC721-approve}."
      },
      "balanceOf(address)": {
        "details": "See {IERC721-balanceOf}."
      },
      "baseURI()": {
        "details": "Returns the base URI set via {_setBaseURI}. This will be automatically added as a prefix in {tokenURI} to each token's URI, or to the token ID if no specific URI is set for that token ID."
      },
      "getApproved(uint256)": {
        "details": "See {IERC721-getApproved}."
      },
      "isApprovedForAll(address,address)": {
        "details": "See {IERC721-isApprovedForAll}."
      },
      "name()": {
        "details": "See {IERC721Metadata-name}."
      },
      "ownerOf(uint256)": {
        "details": "See {IERC721-ownerOf}."
      },
      "safeTransferFrom(address,address,uint256)": {
        "details": "See {IERC721-safeTransferFrom}."
      },
      "safeTransferFrom(address,address,uint256,bytes)": {
        "details": "See {IERC721-safeTransferFrom}."
      },
      "setApprovalForAll(address,bool)": {
        "details": "See {IERC721-setApprovalForAll}."
      },
      "supportsInterface(bytes4)": {
        "details": "See {IERC165-supportsInterface}.     * Time complexity O(1), guaranteed to always use less than 30 000 gas."
      },
      "symbol()": {
        "details": "See {IERC721Metadata-symbol}."
      },
      "tokenByIndex(uint256)": {
        "details": "See {IERC721Enumerable-tokenByIndex}."
      },
      "tokenOfOwnerByIndex(address,uint256)": {
        "details": "See {IERC721Enumerable-tokenOfOwnerByIndex}."
      },
      "tokenURI(uint256)": {
        "details": "See {IERC721Metadata-tokenURI}."
      },
      "totalSupply()": {
        "details": "See {IERC721Enumerable-totalSupply}."
      },
      "transferFrom(address,address,uint256)": {
        "details": "See {IERC721-transferFrom}."
      }
    }
  },
  "userdoc": {
    "methods": {}
  }
}