{
  "contractName": "GetAnswer",
  "abi": [
    {
      "inputs": [],
      "stateMutability": "nonpayable",
      "type": "constructor"
    },
    {
      "anonymous": false,
      "inputs": [
        {
          "indexed": true,
          "internalType": "bytes32",
          "name": "id",
          "type": "bytes32"
        }
      ],
      "name": "ChainlinkCancelled",
      "type": "event"
    },
    {
      "anonymous": false,
      "inputs": [
        {
          "indexed": true,
          "internalType": "bytes32",
          "name": "id",
          "type": "bytes32"
        }
      ],
      "name": "ChainlinkFulfilled",
      "type": "event"
    },
    {
      "anonymous": false,
      "inputs": [
        {
          "indexed": true,
          "internalType": "bytes32",
          "name": "id",
          "type": "bytes32"
        }
      ],
      "name": "ChainlinkRequested",
      "type": "event"
    },
    {
      "inputs": [],
      "name": "url",
      "outputs": [
        {
          "internalType": "string",
          "name": "",
          "type": "string"
        }
      ],
      "stateMutability": "view",
      "type": "function"
    },
    {
      "inputs": [],
      "name": "volume",
      "outputs": [
        {
          "internalType": "uint256",
          "name": "",
          "type": "uint256"
        }
      ],
      "stateMutability": "view",
      "type": "function"
    },
    {
      "inputs": [
        {
          "internalType": "string",
          "name": "_currenyName",
          "type": "string"
        },
        {
          "internalType": "string",
          "name": "_questionName",
          "type": "string"
        },
        {
          "internalType": "string",
          "name": "_apiUrl",
          "type": "string"
        }
      ],
      "name": "requestVolumeData",
      "outputs": [
        {
          "internalType": "bytes32",
          "name": "requestId",
          "type": "bytes32"
        }
      ],
      "stateMutability": "nonpayable",
      "type": "function"
    },
    {
      "inputs": [
        {
          "internalType": "bytes32",
          "name": "_requestId",
          "type": "bytes32"
        },
        {
          "internalType": "uint256",
          "name": "_volume",
          "type": "uint256"
        }
      ],
      "name": "fulfill",
      "outputs": [],
      "stateMutability": "nonpayable",
      "type": "function"
    },
    {
      "inputs": [],
      "name": "getVolume",
      "outputs": [
        {
          "internalType": "uint256",
          "name": "",
          "type": "uint256"
        }
      ],
      "stateMutability": "view",
      "type": "function"
    },
    {
      "inputs": [
        {
          "internalType": "string",
          "name": "_a",
          "type": "string"
        },
        {
          "internalType": "string",
          "name": "_b",
          "type": "string"
        },
        {
          "internalType": "string",
          "name": "_c",
          "type": "string"
        }
      ],
      "name": "strAdd",
      "outputs": [
        {
          "internalType": "string",
          "name": "",
          "type": "string"
        }
      ],
      "stateMutability": "nonpayable",
      "type": "function"
    },
    {
      "inputs": [],
      "name": "withdrawLink",
      "outputs": [],
      "stateMutability": "nonpayable",
      "type": "function"
    }
  ],
  "bytecode": "0x608060405260016004553480156200001657600080fd5b5062000027620000b860201b60201c565b737afe1118ea78c1eae84ca8fee5c65bc76ccf879e600860006101000a81548173ffffffffffffffffffffffffffffffffffffffff021916908373ffffffffffffffffffffffffffffffffffffffff1602179055507f633830383439383866306235343532306261313739343563346132616237626360098190555067016345785d8a0000600a81905550620001a6565b6200016073c89bd4e1632d3a43cb03aaad5262cbe4038bc57173ffffffffffffffffffffffffffffffffffffffff166338cc48316040518163ffffffff1660e01b815260040160206040518083038186803b1580156200011757600080fd5b505afa1580156200012c573d6000803e3d6000fd5b505050506040513d60208110156200014357600080fd5b81019080805190602001909291905050506200016260201b60201c565b565b80600260006101000a81548173ffffffffffffffffffffffffffffffffffffffff021916908373ffffffffffffffffffffffffffffffffffffffff16021790555050565b611a4280620001b66000396000f3fe608060405234801561001057600080fd5b506004361061007d5760003560e01c80638dc654a21161005b5780638dc654a21461039f578063a8f2c525146103a9578063c618a1e4146105a6578063c67bbc24146105c45761007d565b80634357855e146100825780635600f04f146100ba5780636b190f701461013d575b600080fd5b6100b86004803603604081101561009857600080fd5b8101908080359060200190929190803590602001909291905050506105e2565b005b6100c2610709565b6040518080602001828103825283818151815260200191508051906020019080838360005b838110156101025780820151818401526020810190506100e7565b50505050905090810190601f16801561012f5780820380516001836020036101000a031916815260200191505b509250505060405180910390f35b6103246004803603606081101561015357600080fd5b810190808035906020019064010000000081111561017057600080fd5b82018360208201111561018257600080fd5b803590602001918460018302840111640100000000831117156101a457600080fd5b91908080601f016020809104026020016040519081016040528093929190818152602001838380828437600081840152601f19601f8201169050808301925050505050505091929192908035906020019064010000000081111561020757600080fd5b82018360208201111561021957600080fd5b8035906020019184600183028401116401000000008311171561023b57600080fd5b91908080601f016020809104026020016040519081016040528093929190818152602001838380828437600081840152601f19601f8201169050808301925050505050505091929192908035906020019064010000000081111561029e57600080fd5b8201836020820111156102b057600080fd5b803590602001918460018302840111640100000000831117156102d257600080fd5b91908080601f016020809104026020016040519081016040528093929190818152602001838380828437600081840152601f19601f8201169050808301925050505050505091929192905050506107a7565b6040518080602001828103825283818151815260200191508051906020019080838360005b83811015610364578082015181840152602081019050610349565b50505050905090810190601f1680156103915780820380516001836020036101000a031916815260200191505b509250505060405180910390f35b6103a7610a37565b005b610590600480360360608110156103bf57600080fd5b81019080803590602001906401000000008111156103dc57600080fd5b8201836020820111156103ee57600080fd5b8035906020019184600183028401116401000000008311171561041057600080fd5b91908080601f016020809104026020016040519081016040528093929190818152602001838380828437600081840152601f19601f8201169050808301925050505050505091929192908035906020019064010000000081111561047357600080fd5b82018360208201111561048557600080fd5b803590602001918460018302840111640100000000831117156104a757600080fd5b91908080601f016020809104026020016040519081016040528093929190818152602001838380828437600081840152601f19601f8201169050808301925050505050505091929192908035906020019064010000000081111561050a57600080fd5b82018360208201111561051c57600080fd5b8035906020019184600183028401116401000000008311171561053e57600080fd5b91908080601f016020809104026020016040519081016040528093929190818152602001838380828437600081840152601f19601f820116905080830192505050505050509192919290505050610c31565b6040518082815260200191505060405180910390f35b6105ae610e3e565b6040518082815260200191505060405180910390f35b6105cc610e44565b6040518082815260200191505060405180910390f35b816005600082815260200190815260200160002060009054906101000a900473ffffffffffffffffffffffffffffffffffffffff1673ffffffffffffffffffffffffffffffffffffffff163373ffffffffffffffffffffffffffffffffffffffff161461069a576040517f08c379a00000000000000000000000000000000000000000000000000000000081526004018080602001828103825260288152602001806119e56028913960400191505060405180910390fd5b6005600082815260200190815260200160002060006101000a81549073ffffffffffffffffffffffffffffffffffffffff0219169055807f7cc135e0cebb02c3480ae5d74d377283180a2601f8f644edf7987b009316c63a60405160405180910390a281600681905550505050565b60078054600181600116156101000203166002900480601f01602080910402602001604051908101604052809291908181526020018280546001816001161561010002031660029004801561079f5780601f106107745761010080835404028352916020019161079f565b820191906000526020600020905b81548152906001019060200180831161078257829003601f168201915b505050505081565b606080849050606084905060608490506060815183518551010167ffffffffffffffff811180156107d757600080fd5b506040519080825280601f01601f19166020018201604052801561080a5781602001600182028036833780820191505090505b5090506060819050600080905060008090505b865181101561088b5786818151811061083257fe5b602001015160f81c60f81b83838060010194508151811061084f57fe5b60200101907effffffffffffffffffffffffffffffffffffffffffffffffffffffffffffff1916908160001a905350808060010191505061081d565b5060008090505b8551811015610900578581815181106108a757fe5b602001015160f81c60f81b8383806001019450815181106108c457fe5b60200101907effffffffffffffffffffffffffffffffffffffffffffffffffffffffffffff1916908160001a9053508080600101915050610892565b5060008090505b84518110156109755784818151811061091c57fe5b602001015160f81c60f81b83838060010194508151811061093957fe5b60200101907effffffffffffffffffffffffffffffffffffffffffffffffffffffffffffff1916908160001a9053508080600101915050610907565b50826007908051906020019061098c929190611895565b5060078054600181600116156101000203166002900480601f016020809104026020016040519081016040528092919081815260200182805460018160011615610100020316600290048015610a235780601f106109f857610100808354040283529160200191610a23565b820191906000526020600020905b815481529060010190602001808311610a0657829003601f168201915b505050505096505050505050509392505050565b6000610a41610e4e565b90508073ffffffffffffffffffffffffffffffffffffffff1663a9059cbb338373ffffffffffffffffffffffffffffffffffffffff166370a08231306040518263ffffffff1660e01b8152600401808273ffffffffffffffffffffffffffffffffffffffff1673ffffffffffffffffffffffffffffffffffffffff16815260200191505060206040518083038186803b158015610add57600080fd5b505afa158015610af1573d6000803e3d6000fd5b505050506040513d6020811015610b0757600080fd5b81019080805190602001909291905050506040518363ffffffff1660e01b8152600401808373ffffffffffffffffffffffffffffffffffffffff1673ffffffffffffffffffffffffffffffffffffffff16815260200182815260200192505050602060405180830381600087803b158015610b8157600080fd5b505af1158015610b95573d6000803e3d6000fd5b505050506040513d6020811015610bab57600080fd5b8101908080519060200190929190505050610c2e576040517f08c379a00000000000000000000000000000000000000000000000000000000081526004018080602001828103825260128152602001807f556e61626c6520746f207472616e73666572000000000000000000000000000081525060200191505060405180910390fd5b50565b6000610c3b611915565b610c4f60095430634357855e60e01b610e78565b9050610c9b6040518060400160405280600381526020017f67657400000000000000000000000000000000000000000000000000000000008152508483610ea99092919063ffffffff16565b6060600467ffffffffffffffff81118015610cb557600080fd5b50604051908082528060200260200182016040528015610ce957816020015b6060815260200190600190039081610cd45790505b5090506040518060400160405280600381526020017f524157000000000000000000000000000000000000000000000000000000000081525081600081518110610d2f57fe5b60200260200101819052508581600181518110610d4857fe5b60200260200101819052506040518060400160405280600381526020017f555344000000000000000000000000000000000000000000000000000000000081525081600281518110610d9657fe5b60200260200101819052508481600381518110610daf57fe5b6020026020010181905250610e046040518060400160405280600481526020017f70617468000000000000000000000000000000000000000000000000000000008152508284610edc9092919063ffffffff16565b610e33600860009054906101000a900473ffffffffffffffffffffffffffffffffffffffff1683600a54610f59565b925050509392505050565b60065481565b6000600654905090565b6000600260009054906101000a900473ffffffffffffffffffffffffffffffffffffffff16905090565b610e80611915565b610e88611915565b610e9f85858584611211909392919063ffffffff16565b9150509392505050565b610ec08284608001516112c190919063ffffffff16565b610ed78184608001516112c190919063ffffffff16565b505050565b610ef38284608001516112c190919063ffffffff16565b610f0083608001516112e6565b60008090505b8151811015610f4657610f39828281518110610f1e57fe5b602002602001015185608001516112c190919063ffffffff16565b8080600101915050610f06565b50610f5483608001516112f4565b505050565b600030600454604051602001808373ffffffffffffffffffffffffffffffffffffffff1673ffffffffffffffffffffffffffffffffffffffff1660601b815260140182815260200192505050604051602081830303815290604052805190602001209050600454836060018181525050836005600083815260200190815260200160002060006101000a81548173ffffffffffffffffffffffffffffffffffffffff021916908373ffffffffffffffffffffffffffffffffffffffff160217905550807fb5e6e01e79f91267dc17b4e6314d5d4d03593d2ceee0fbb452b750bd70ea5af960405160405180910390a2600260009054906101000a900473ffffffffffffffffffffffffffffffffffffffff1673ffffffffffffffffffffffffffffffffffffffff16634000aea0858461109187611302565b6040518463ffffffff1660e01b8152600401808473ffffffffffffffffffffffffffffffffffffffff1673ffffffffffffffffffffffffffffffffffffffff16815260200183815260200180602001828103825283818151815260200191508051906020019080838360005b838110156111185780820151818401526020810190506110fd565b50505050905090810190601f1680156111455780820380516001836020036101000a031916815260200191505b50945050505050602060405180830381600087803b15801561116657600080fd5b505af115801561117a573d6000803e3d6000fd5b505050506040513d602081101561119057600080fd5b81019080805190602001909291905050506111f6576040517f08c379a00000000000000000000000000000000000000000000000000000000081526004018080602001828103825260238152602001806119c26023913960400191505060405180910390fd5b60016004600082825401925050819055508090509392505050565b611219611915565b61122985608001516101006114ce565b508385600001818152505082856020019073ffffffffffffffffffffffffffffffffffffffff16908173ffffffffffffffffffffffffffffffffffffffff16815250508185604001907bffffffffffffffffffffffffffffffffffffffffffffffffffffffff191690817bffffffffffffffffffffffffffffffffffffffffffffffffffffffff191681525050849050949350505050565b6112ce8260038351611522565b6112e1818361166790919063ffffffff16565b505050565b6112f1816004611689565b50565b6112ff816007611689565b50565b6060634042994660e01b60008084600001518560200151866040015187606001516001896080015160000151604051602401808973ffffffffffffffffffffffffffffffffffffffff1673ffffffffffffffffffffffffffffffffffffffff1681526020018881526020018781526020018673ffffffffffffffffffffffffffffffffffffffff1673ffffffffffffffffffffffffffffffffffffffff168152602001857bffffffffffffffffffffffffffffffffffffffffffffffffffffffff19167bffffffffffffffffffffffffffffffffffffffffffffffffffffffff1916815260200184815260200183815260200180602001828103825283818151815260200191508051906020019080838360005b83811015611431578082015181840152602081019050611416565b50505050905090810190601f16801561145e5780820380516001836020036101000a031916815260200191505b509950505050505050505050604051602081830303815290604052907bffffffffffffffffffffffffffffffffffffffffffffffffffffffff19166020820180517bffffffffffffffffffffffffffffffffffffffffffffffffffffffff83818316178352505050509050919050565b6114d6611982565b6000602083816114e257fe5b06146114fb57602082816114f257fe5b06602003820191505b81836020018181525050604051808452600081528281016020016040525082905092915050565b6017811161154f576115498160058460ff16901b60ff1617846116ab90919063ffffffff16565b50611662565b60ff811161159157611574601860058460ff16901b17846116ab90919063ffffffff16565b5061158b816001856116cb9092919063ffffffff16565b50611661565b61ffff81116115d4576115b7601960058460ff16901b17846116ab90919063ffffffff16565b506115ce816002856116cb9092919063ffffffff16565b50611660565b63ffffffff8111611619576115fc601a60058460ff16901b17846116ab90919063ffffffff16565b50611613816004856116cb9092919063ffffffff16565b5061165f565b67ffffffffffffffff811161165e57611645601b60058460ff16901b17846116ab90919063ffffffff16565b5061165c816008856116cb9092919063ffffffff16565b505b5b5b5b5b505050565b61166f611982565b611681838460000151518485516116ed565b905092915050565b6116a6601f60058360ff16901b17836116ab90919063ffffffff16565b505050565b6116b3611982565b6116c383846000015151846117a6565b905092915050565b6116d3611982565b6116e48485600001515185856117f4565b90509392505050565b6116f5611982565b825182111561170357600080fd5b8460200151828501111561172e5761172d8560026117278860200151888701611855565b02611871565b5b60008086518051876020830101935080888701111561174d5787860182525b60208701925050505b602084106117795780518252602082019150602081019050602084039350611756565b60006001856020036101000a03905080198251168184511681811785525050879350505050949350505050565b6117ae611982565b836020015183106117cb576117ca846002866020015102611871565b5b83518051602085830101848153818614156117e7576001820183525b5050508390509392505050565b6117fc611982565b8460200151848301111561181a5761181985600286850102611871565b5b60006001836101000a03905085518386820101858319825116178152815185880111156118475784870182525b505085915050949350505050565b6000818311156118675782905061186b565b8190505b92915050565b60608260000151905061188483836114ce565b5061188f8382611667565b50505050565b828054600181600116156101000203166002900490600052602060002090601f016020900481019282601f106118d657805160ff1916838001178555611904565b82800160010185558215611904579182015b828111156119035782518255916020019190600101906118e8565b5b509050611911919061199c565b5090565b6040518060a0016040528060008019168152602001600073ffffffffffffffffffffffffffffffffffffffff16815260200160007bffffffffffffffffffffffffffffffffffffffffffffffffffffffff191681526020016000815260200161197c611982565b81525090565b604051806040016040528060608152602001600081525090565b6119be91905b808211156119ba5760008160009055506001016119a2565b5090565b9056fe756e61626c6520746f207472616e73666572416e6443616c6c20746f206f7261636c65536f75726365206d75737420626520746865206f7261636c65206f66207468652072657175657374a26469706673582212203be89f631432a67353c6f281f631172f12b28162d12327696ba6be3b5d7fe73664736f6c63430006060033",
  "immutableReferences": {},
  "source": "//Address: 0x6f33ed84c014F72D23240b9Ed589959a8c226C76\n// This example code is designed to quickly deploy an example contract using Remix.\n// SPDX-License-Identifier: GPL-3.0\n\npragma solidity ^0.6.0;\n\nimport \"@chainlink/contracts/src/v0.6/ChainlinkClient.sol\";\n\ncontract GetAnswer is ChainlinkClient {\n\n\n\n    uint256 public volume;\n    string public url;\n\n    address private oracle;\n    bytes32 private jobId;\n    uint256 private fee;\n\n    constructor() public {\n        setPublicChainlinkToken();\n        oracle = 0x7AFe1118Ea78C1eae84ca8feE5C65Bc76CcF879e;\n        jobId = \"c8084988f0b54520ba17945c4a2ab7bc\";\n        fee = 0.1 * 10 ** 18; // 0.1 LINK\n\n\n    }\n\n    function requestVolumeData(string memory _currenyName, string memory _questionName, string memory _apiUrl) public returns (bytes32 requestId){\n        Chainlink.Request memory request = buildChainlinkRequest(jobId, address(this), this.fulfill.selector);\n\n        request.add(\"get\", _apiUrl);\n\n        string[] memory path = new string[](4);\n        path[0] = \"RAW\";\n        path[1] = _currenyName;\n        path[2] = \"USD\";\n        path[3] = _questionName;\n        request.addStringArray(\"path\", path);\n\n        return sendChainlinkRequestTo(oracle, request, fee);\n    }\n\n    function fulfill(bytes32 _requestId, uint256 _volume) public recordChainlinkFulfillment(_requestId)\n    {\n        volume = _volume;\n    }\n\n    function getVolume() public view returns (uint256){\n        return volume;\n    }\n\n    function strAdd(string memory _a, string memory _b, string memory _c) public returns(string memory){\n        bytes memory _ba = bytes(_a);\n        bytes memory _bb = bytes(_b);\n        bytes memory _bc = bytes(_c);\n        string memory ret = new string(_ba.length + _bb.length + _bc.length);\n        bytes memory bret = bytes(ret);\n        uint k = 0;\n        for (uint i = 0; i < _ba.length; i++)bret[k++] = _ba[i];\n        for (uint i = 0; i < _bb.length; i++) bret[k++] = _bb[i];\n        for (uint i = 0; i < _bc.length; i++) bret[k++] = _bc[i];\n        url=ret;\n        return url;\n    }\n\n\n    function withdrawLink() external {\n        LinkTokenInterface linkToken = LinkTokenInterface(chainlinkTokenAddress());\n        require(linkToken.transfer(msg.sender, linkToken.balanceOf(address(this))), \"Unable to transfer\");\n    }\n}\n",
  "sourcePath": "/Users/derekchou/Desktop/crypto/guess_get_gas/contracts/getAnswer.sol",
  "compiler": {
    "name": "solc",
    "version": "0.6.6+commit.6c089d02.Emscripten.clang"
  },
  "schemaVersion": "3.3.4",
  "updatedAt": "2021-04-10T12:58:36.781Z",
  "devdoc": {
    "methods": {}
  },
  "userdoc": {
    "methods": {}
  }
}