{
  "contractName": "GetCoinList",
  "abi": [
    {
      "inputs": [],
      "stateMutability": "nonpayable",
      "type": "constructor"
    },
    {
      "anonymous": false,
      "inputs": [
        {
          "indexed": true,
          "internalType": "bytes32",
          "name": "id",
          "type": "bytes32"
        }
      ],
      "name": "ChainlinkCancelled",
      "type": "event"
    },
    {
      "anonymous": false,
      "inputs": [
        {
          "indexed": true,
          "internalType": "bytes32",
          "name": "id",
          "type": "bytes32"
        }
      ],
      "name": "ChainlinkFulfilled",
      "type": "event"
    },
    {
      "anonymous": false,
      "inputs": [
        {
          "indexed": true,
          "internalType": "bytes32",
          "name": "id",
          "type": "bytes32"
        }
      ],
      "name": "ChainlinkRequested",
      "type": "event"
    },
    {
      "inputs": [],
      "name": "apiUrl",
      "outputs": [
        {
          "internalType": "string",
          "name": "",
          "type": "string"
        }
      ],
      "stateMutability": "view",
      "type": "function"
    },
    {
      "inputs": [],
      "name": "coinData",
      "outputs": [
        {
          "internalType": "bytes32",
          "name": "",
          "type": "bytes32"
        }
      ],
      "stateMutability": "view",
      "type": "function"
    },
    {
      "inputs": [
        {
          "internalType": "int256",
          "name": "",
          "type": "int256"
        }
      ],
      "name": "coinList",
      "outputs": [
        {
          "internalType": "bytes32",
          "name": "name",
          "type": "bytes32"
        },
        {
          "internalType": "bytes32",
          "name": "fullName",
          "type": "bytes32"
        },
        {
          "internalType": "bytes32",
          "name": "overviewUrl",
          "type": "bytes32"
        },
        {
          "internalType": "bytes32",
          "name": "assetLaunchDate",
          "type": "bytes32"
        },
        {
          "internalType": "bytes32",
          "name": "logoUrl",
          "type": "bytes32"
        }
      ],
      "stateMutability": "view",
      "type": "function"
    },
    {
      "inputs": [
        {
          "internalType": "int256",
          "name": "",
          "type": "int256"
        }
      ],
      "name": "dataCount",
      "outputs": [
        {
          "internalType": "int256",
          "name": "",
          "type": "int256"
        }
      ],
      "stateMutability": "view",
      "type": "function"
    },
    {
      "inputs": [
        {
          "internalType": "int256",
          "name": "",
          "type": "int256"
        }
      ],
      "name": "infoList",
      "outputs": [
        {
          "internalType": "string",
          "name": "",
          "type": "string"
        }
      ],
      "stateMutability": "view",
      "type": "function"
    },
    {
      "inputs": [
        {
          "internalType": "int256",
          "name": "_coinQuantity",
          "type": "int256"
        }
      ],
      "name": "addCoin",
      "outputs": [],
      "stateMutability": "nonpayable",
      "type": "function"
    },
    {
      "inputs": [
        {
          "internalType": "int256",
          "name": "_id",
          "type": "int256"
        }
      ],
      "name": "getCoinName",
      "outputs": [
        {
          "internalType": "bytes32",
          "name": "",
          "type": "bytes32"
        }
      ],
      "stateMutability": "view",
      "type": "function"
    },
    {
      "inputs": [
        {
          "internalType": "int256",
          "name": "_id",
          "type": "int256"
        }
      ],
      "name": "getCoinFullName",
      "outputs": [
        {
          "internalType": "bytes32",
          "name": "",
          "type": "bytes32"
        }
      ],
      "stateMutability": "view",
      "type": "function"
    },
    {
      "inputs": [
        {
          "internalType": "int256",
          "name": "_id",
          "type": "int256"
        }
      ],
      "name": "getCoinOverviewUrl",
      "outputs": [
        {
          "internalType": "bytes32",
          "name": "",
          "type": "bytes32"
        }
      ],
      "stateMutability": "view",
      "type": "function"
    },
    {
      "inputs": [
        {
          "internalType": "int256",
          "name": "_id",
          "type": "int256"
        }
      ],
      "name": "getCoinAssetLaunchDate",
      "outputs": [
        {
          "internalType": "bytes32",
          "name": "",
          "type": "bytes32"
        }
      ],
      "stateMutability": "view",
      "type": "function"
    },
    {
      "inputs": [
        {
          "internalType": "int256",
          "name": "_id",
          "type": "int256"
        }
      ],
      "name": "getCoinLogoUrl",
      "outputs": [
        {
          "internalType": "bytes32",
          "name": "",
          "type": "bytes32"
        }
      ],
      "stateMutability": "view",
      "type": "function"
    },
    {
      "inputs": [
        {
          "internalType": "string",
          "name": "_id",
          "type": "string"
        },
        {
          "internalType": "string",
          "name": "_adiUrl",
          "type": "string"
        },
        {
          "internalType": "string",
          "name": "_infoData",
          "type": "string"
        }
      ],
      "name": "requestName",
      "outputs": [
        {
          "internalType": "bytes32",
          "name": "requestId",
          "type": "bytes32"
        }
      ],
      "stateMutability": "nonpayable",
      "type": "function"
    },
    {
      "inputs": [
        {
          "internalType": "string",
          "name": "_id",
          "type": "string"
        },
        {
          "internalType": "string",
          "name": "_adiUrl",
          "type": "string"
        },
        {
          "internalType": "string",
          "name": "_infoData",
          "type": "string"
        }
      ],
      "name": "requestFullName",
      "outputs": [
        {
          "internalType": "bytes32",
          "name": "requestId",
          "type": "bytes32"
        }
      ],
      "stateMutability": "nonpayable",
      "type": "function"
    },
    {
      "inputs": [
        {
          "internalType": "string",
          "name": "_id",
          "type": "string"
        },
        {
          "internalType": "string",
          "name": "_adiUrl",
          "type": "string"
        },
        {
          "internalType": "string",
          "name": "_infoData",
          "type": "string"
        }
      ],
      "name": "requestUrl",
      "outputs": [
        {
          "internalType": "bytes32",
          "name": "requestId",
          "type": "bytes32"
        }
      ],
      "stateMutability": "nonpayable",
      "type": "function"
    },
    {
      "inputs": [
        {
          "internalType": "string",
          "name": "_id",
          "type": "string"
        },
        {
          "internalType": "string",
          "name": "_adiUrl",
          "type": "string"
        },
        {
          "internalType": "string",
          "name": "_infoData",
          "type": "string"
        }
      ],
      "name": "requestAssetLaunchDate",
      "outputs": [
        {
          "internalType": "bytes32",
          "name": "requestId",
          "type": "bytes32"
        }
      ],
      "stateMutability": "nonpayable",
      "type": "function"
    },
    {
      "inputs": [
        {
          "internalType": "string",
          "name": "_id",
          "type": "string"
        },
        {
          "internalType": "string",
          "name": "_adiUrl",
          "type": "string"
        },
        {
          "internalType": "string",
          "name": "_infoData",
          "type": "string"
        }
      ],
      "name": "requestImageUrl",
      "outputs": [
        {
          "internalType": "bytes32",
          "name": "requestId",
          "type": "bytes32"
        }
      ],
      "stateMutability": "nonpayable",
      "type": "function"
    },
    {
      "inputs": [
        {
          "internalType": "bytes32",
          "name": "_requestId",
          "type": "bytes32"
        },
        {
          "internalType": "bytes32",
          "name": "_coinData",
          "type": "bytes32"
        }
      ],
      "name": "fulfillName",
      "outputs": [],
      "stateMutability": "nonpayable",
      "type": "function"
    },
    {
      "inputs": [
        {
          "internalType": "bytes32",
          "name": "_requestId",
          "type": "bytes32"
        },
        {
          "internalType": "bytes32",
          "name": "_coinData",
          "type": "bytes32"
        }
      ],
      "name": "fulfillFullName",
      "outputs": [],
      "stateMutability": "nonpayable",
      "type": "function"
    },
    {
      "inputs": [
        {
          "internalType": "bytes32",
          "name": "_requestId",
          "type": "bytes32"
        },
        {
          "internalType": "bytes32",
          "name": "_coinData",
          "type": "bytes32"
        }
      ],
      "name": "fulfillUrl",
      "outputs": [],
      "stateMutability": "nonpayable",
      "type": "function"
    },
    {
      "inputs": [
        {
          "internalType": "bytes32",
          "name": "_requestId",
          "type": "bytes32"
        },
        {
          "internalType": "bytes32",
          "name": "_coinData",
          "type": "bytes32"
        }
      ],
      "name": "fulfillAssetLaunchDate",
      "outputs": [],
      "stateMutability": "nonpayable",
      "type": "function"
    },
    {
      "inputs": [
        {
          "internalType": "bytes32",
          "name": "_requestId",
          "type": "bytes32"
        },
        {
          "internalType": "bytes32",
          "name": "_coinData",
          "type": "bytes32"
        }
      ],
      "name": "fulfillImageUrl",
      "outputs": [],
      "stateMutability": "nonpayable",
      "type": "function"
    },
    {
      "inputs": [
        {
          "internalType": "uint256",
          "name": "_i",
          "type": "uint256"
        }
      ],
      "name": "intToString",
      "outputs": [
        {
          "internalType": "string",
          "name": "",
          "type": "string"
        }
      ],
      "stateMutability": "nonpayable",
      "type": "function"
    },
    {
      "inputs": [
        {
          "internalType": "string",
          "name": "_strA",
          "type": "string"
        },
        {
          "internalType": "string",
          "name": "_strB",
          "type": "string"
        }
      ],
      "name": "stringAdd",
      "outputs": [
        {
          "internalType": "string",
          "name": "",
          "type": "string"
        }
      ],
      "stateMutability": "nonpayable",
      "type": "function"
    },
    {
      "inputs": [],
      "name": "withdrawLink",
      "outputs": [],
      "stateMutability": "nonpayable",
      "type": "function"
    }
  ],
  "bytecode": "0x608060405260016004553480156200001657600080fd5b50620000276200029860201b60201c565b73aa1dc356dc4b18f30c347798fd5379f3d77abc5b600960006101000a81548173ffffffffffffffffffffffffffffffffffffffff021916908373ffffffffffffffffffffffffffffffffffffffff1602179055507f6237323835643438353964613462323839633738363164623937316261663061600a8190555067016345785d8a0000600b819055506040518060400160405280600481526020017f4e616d6500000000000000000000000000000000000000000000000000000000815250600760006001815260200190815260200160002090805190602001906200011192919062000386565b506040518060400160405280600881526020017f46756c6c4e616d65000000000000000000000000000000000000000000000000815250600760006002815260200190815260200160002090805190602001906200017192919062000386565b506040518060400160405280600381526020017f55726c000000000000000000000000000000000000000000000000000000000081525060076000600381526020019081526020016000209080519060200190620001d192919062000386565b506040518060400160405280600f81526020017f41737365744c61756e6368446174650000000000000000000000000000000000815250600760006004815260200190815260200160002090805190602001906200023192919062000386565b506040518060400160405280600881526020017f496d61676555726c000000000000000000000000000000000000000000000000815250600760006005815260200190815260200160002090805190602001906200029192919062000386565b5062000435565b6200034073c89bd4e1632d3a43cb03aaad5262cbe4038bc57173ffffffffffffffffffffffffffffffffffffffff166338cc48316040518163ffffffff1660e01b815260040160206040518083038186803b158015620002f757600080fd5b505afa1580156200030c573d6000803e3d6000fd5b505050506040513d60208110156200032357600080fd5b81019080805190602001909291905050506200034260201b60201c565b565b80600260006101000a81548173ffffffffffffffffffffffffffffffffffffffff021916908373ffffffffffffffffffffffffffffffffffffffff16021790555050565b828054600181600116156101000203166002900490600052602060002090601f016020900481019282601f10620003c957805160ff1916838001178555620003fa565b82800160010185558215620003fa579182015b82811115620003f9578251825591602001919060010190620003dc565b5b5090506200040991906200040d565b5090565b6200043291905b808211156200042e57600081600090555060010162000414565b5090565b90565b613e4580620004456000396000f3fe608060405234801561001057600080fd5b50600436106101585760003560e01c80638367e120116100c3578063ca99ea6b1161007c578063ca99ea6b14610d78578063cfc0532914610dba578063d4dad88d14610fb7578063e83a65a314610fef578063eb9f53471461100d578063f0ef92321461104557610158565b80638367e12014610c015780638dc654a214610c845780639f55aef414610c8e578063a037f7d014610cd0578063a5f2995814610d08578063c10da37114610d4a57610158565b8063506145ed11610115578063506145ed1461070957806358bbf8761461074b5780635db77c5b1461078357806360f0f34a146107c55780636fca861d146109c257806379a1172214610a0457610158565b80630911a37c1461015d578063201e12811461032857806320f5a678146103865780632290b49e1461058357806329b1a29a146105bb57806343a8af4714610662575b600080fd5b6102ad6004803603604081101561017357600080fd5b810190808035906020019064010000000081111561019057600080fd5b8201836020820111156101a257600080fd5b803590602001918460018302840111640100000000831117156101c457600080fd5b91908080601f016020809104026020016040519081016040528093929190818152602001838380828437600081840152601f19601f8201169050808301925050505050505091929192908035906020019064010000000081111561022757600080fd5b82018360208201111561023957600080fd5b8035906020019184600183028401116401000000008311171561025b57600080fd5b91908080601f016020809104026020016040519081016040528093929190818152602001838380828437600081840152601f19601f820116905080830192505050505050509192919290505050611242565b6040518080602001828103825283818151815260200191508051906020019080838360005b838110156102ed5780820151818401526020810190506102d2565b50505050905090810190601f16801561031a5780820380516001836020036101000a031916815260200191505b509250505060405180910390f35b6103546004803603602081101561033e57600080fd5b81019080803590602001909291905050506113a2565b604051808681526020018581526020018481526020018381526020018281526020019550505050505060405180910390f35b61056d6004803603606081101561039c57600080fd5b81019080803590602001906401000000008111156103b957600080fd5b8201836020820111156103cb57600080fd5b803590602001918460018302840111640100000000831117156103ed57600080fd5b91908080601f016020809104026020016040519081016040528093929190818152602001838380828437600081840152601f19601f8201169050808301925050505050505091929192908035906020019064010000000081111561045057600080fd5b82018360208201111561046257600080fd5b8035906020019184600183028401116401000000008311171561048457600080fd5b91908080601f016020809104026020016040519081016040528093929190818152602001838380828437600081840152601f19601f820116905080830192505050505050509192919290803590602001906401000000008111156104e757600080fd5b8201836020820111156104f957600080fd5b8035906020019184600183028401116401000000008311171561051b57600080fd5b91908080601f016020809104026020016040519081016040528093929190818152602001838380828437600081840152601f19601f8201169050808301925050505050505091929192905050506113d8565b6040518082815260200191505060405180910390f35b6105b96004803603604081101561059957600080fd5b8101908080359060200190929190803590602001909291905050506115e5565b005b6105e7600480360360208110156105d157600080fd5b8101908080359060200190929190505050611758565b6040518080602001828103825283818151815260200191508051906020019080838360005b8381101561062757808201518184015260208101905061060c565b50505050905090810190601f1680156106545780820380516001836020036101000a031916815260200191505b509250505060405180910390f35b61068e6004803603602081101561067857600080fd5b8101908080359060200190929190505050611861565b6040518080602001828103825283818151815260200191508051906020019080838360005b838110156106ce5780820151818401526020810190506106b3565b50505050905090810190601f1680156106fb5780820380516001836020036101000a031916815260200191505b509250505060405180910390f35b6107356004803603602081101561071f57600080fd5b8101908080359060200190929190505050611911565b6040518082815260200191505060405180910390f35b6107816004803603604081101561076157600080fd5b810190808035906020019092919080359060200190929190505050611931565b005b6107af6004803603602081101561079957600080fd5b8101908080359060200190929190505050611aa4565b6040518082815260200191505060405180910390f35b6109ac600480360360608110156107db57600080fd5b81019080803590602001906401000000008111156107f857600080fd5b82018360208201111561080a57600080fd5b8035906020019184600183028401116401000000008311171561082c57600080fd5b91908080601f016020809104026020016040519081016040528093929190818152602001838380828437600081840152601f19601f8201169050808301925050505050505091929192908035906020019064010000000081111561088f57600080fd5b8201836020820111156108a157600080fd5b803590602001918460018302840111640100000000831117156108c357600080fd5b91908080601f016020809104026020016040519081016040528093929190818152602001838380828437600081840152601f19601f8201169050808301925050505050505091929192908035906020019064010000000081111561092657600080fd5b82018360208201111561093857600080fd5b8035906020019184600183028401116401000000008311171561095a57600080fd5b91908080601f016020809104026020016040519081016040528093929190818152602001838380828437600081840152601f19601f820116905080830192505050505050509192919290505050611ac4565b6040518082815260200191505060405180910390f35b6109ee600480360360208110156109d857600080fd5b8101908080359060200190929190505050611cd1565b6040518082815260200191505060405180910390f35b610beb60048036036060811015610a1a57600080fd5b8101908080359060200190640100000000811115610a3757600080fd5b820183602082011115610a4957600080fd5b80359060200191846001830284011164010000000083111715610a6b57600080fd5b91908080601f016020809104026020016040519081016040528093929190818152602001838380828437600081840152601f19601f82011690508083019250505050505050919291929080359060200190640100000000811115610ace57600080fd5b820183602082011115610ae057600080fd5b80359060200191846001830284011164010000000083111715610b0257600080fd5b91908080601f016020809104026020016040519081016040528093929190818152602001838380828437600081840152601f19601f82011690508083019250505050505050919291929080359060200190640100000000811115610b6557600080fd5b820183602082011115610b7757600080fd5b80359060200191846001830284011164010000000083111715610b9957600080fd5b91908080601f016020809104026020016040519081016040528093929190818152602001838380828437600081840152601f19601f820116905080830192505050505050509192919290505050611cf1565b6040518082815260200191505060405180910390f35b610c09611efe565b6040518080602001828103825283818151815260200191508051906020019080838360005b83811015610c49578082015181840152602081019050610c2e565b50505050905090810190601f168015610c765780820380516001836020036101000a031916815260200191505b509250505060405180910390f35b610c8c611f9c565b005b610cba60048036036020811015610ca457600080fd5b8101908080359060200190929190505050612196565b6040518082815260200191505060405180910390f35b610d0660048036036040811015610ce657600080fd5b8101908080359060200190929190803590602001909291905050506121ae565b005b610d3460048036036020811015610d1e57600080fd5b8101908080359060200190929190505050612321565b6040518082815260200191505060405180910390f35b610d7660048036036020811015610d6057600080fd5b8101908080359060200190929190505050612341565b005b610da460048036036020811015610d8e57600080fd5b8101908080359060200190929190505050612ae4565b6040518082815260200191505060405180910390f35b610fa160048036036060811015610dd057600080fd5b8101908080359060200190640100000000811115610ded57600080fd5b820183602082011115610dff57600080fd5b80359060200191846001830284011164010000000083111715610e2157600080fd5b91908080601f016020809104026020016040519081016040528093929190818152602001838380828437600081840152601f19601f82011690508083019250505050505050919291929080359060200190640100000000811115610e8457600080fd5b820183602082011115610e9657600080fd5b80359060200191846001830284011164010000000083111715610eb857600080fd5b91908080601f016020809104026020016040519081016040528093929190818152602001838380828437600081840152601f19601f82011690508083019250505050505050919291929080359060200190640100000000811115610f1b57600080fd5b820183602082011115610f2d57600080fd5b80359060200191846001830284011164010000000083111715610f4f57600080fd5b91908080601f016020809104026020016040519081016040528093929190818152602001838380828437600081840152601f19601f820116905080830192505050505050509192919290505050612b04565b6040518082815260200191505060405180910390f35b610fed60048036036040811015610fcd57600080fd5b810190808035906020019092919080359060200190929190505050612d11565b005b610ff7612e84565b6040518082815260200191505060405180910390f35b6110436004803603604081101561102357600080fd5b810190808035906020019092919080359060200190929190505050612e8a565b005b61122c6004803603606081101561105b57600080fd5b810190808035906020019064010000000081111561107857600080fd5b82018360208201111561108a57600080fd5b803590602001918460018302840111640100000000831117156110ac57600080fd5b91908080601f016020809104026020016040519081016040528093929190818152602001838380828437600081840152601f19601f8201169050808301925050505050505091929192908035906020019064010000000081111561110f57600080fd5b82018360208201111561112157600080fd5b8035906020019184600183028401116401000000008311171561114357600080fd5b91908080601f016020809104026020016040519081016040528093929190818152602001838380828437600081840152601f19601f820116905080830192505050505050509192919290803590602001906401000000008111156111a657600080fd5b8201836020820111156111b857600080fd5b803590602001918460018302840111640100000000831117156111da57600080fd5b91908080601f016020809104026020016040519081016040528093929190818152602001838380828437600081840152601f19601f820116905080830192505050505050509192919290505050612ffd565b6040518082815260200191505060405180910390f35b60608083905060608390506060815183510167ffffffffffffffff8111801561126a57600080fd5b506040519080825280601f01601f19166020018201604052801561129d5781602001600182028036833780820191505090505b5090506060819050600080905060008090505b855181101561131e578581815181106112c557fe5b602001015160f81c60f81b8383806001019450815181106112e257fe5b60200101907effffffffffffffffffffffffffffffffffffffffffffffffffffffffffffff1916908160001a90535080806001019150506112b0565b5060008090505b84518110156113935784818151811061133a57fe5b602001015160f81c60f81b83838060010194508151811061135757fe5b60200101907effffffffffffffffffffffffffffffffffffffffffffffffffffffffffffff1916908160001a9053508080600101915050611325565b50829550505050505092915050565b60066020528060005260406000206000915090508060000154908060010154908060020154908060030154908060040154905085565b60006113e2613c51565b6113f6600a543063eb9f534760e01b61320a565b90506114426040518060400160405280600381526020017f6765740000000000000000000000000000000000000000000000000000000000815250858361323b9092919063ffffffff16565b6060600467ffffffffffffffff8111801561145c57600080fd5b5060405190808252806020026020018201604052801561149057816020015b606081526020019060019003908161147b5790505b5090506040518060400160405280600481526020017f4461746100000000000000000000000000000000000000000000000000000000815250816000815181106114d657fe5b602002602001018190525085816001815181106114ef57fe5b60200260200101819052506040518060400160405280600881526020017f436f696e496e666f0000000000000000000000000000000000000000000000008152508160028151811061153d57fe5b6020026020010181905250838160038151811061155657fe5b60200260200101819052506115ab6040518060400160405280600481526020017f7061746800000000000000000000000000000000000000000000000000000000815250828461326e9092919063ffffffff16565b6115da600960009054906101000a900473ffffffffffffffffffffffffffffffffffffffff1683600b546132eb565b925050509392505050565b816005600082815260200190815260200160002060009054906101000a900473ffffffffffffffffffffffffffffffffffffffff1673ffffffffffffffffffffffffffffffffffffffff163373ffffffffffffffffffffffffffffffffffffffff161461169d576040517f08c379a0000000000000000000000000000000000000000000000000000000008152600401808060200182810382526028815260200180613de86028913960400191505060405180910390fd5b6005600082815260200190815260200160002060006101000a81549073ffffffffffffffffffffffffffffffffffffffff0219169055807f7cc135e0cebb02c3480ae5d74d377283180a2601f8f644edf7987b009316c63a60405160405180910390a28160066000600860006001815260200190815260200160002054815260200190815260200160002060000181905550600860006001815260200190815260200160002060008154809291906001019190505550505050565b6060600082905060005b60008214611784578080600101915050600a828161177c57fe5b049150611762565b60608167ffffffffffffffff8111801561179d57600080fd5b506040519080825280601f01601f1916602001820160405280156117d05781602001600182028036833780820191505090505b50905060008290505b60008614611855576001810390506000600a8088816117f457fe5b04028703603001905060008160f81b90508084848151811061181257fe5b60200101907effffffffffffffffffffffffffffffffffffffffffffffffffffffffffffff1916908160001a905350600a888161184b57fe5b04975050506117d9565b81945050505050919050565b60076020528060005260406000206000915090508054600181600116156101000203166002900480601f0160208091040260200160405190810160405280929190818152602001828054600181600116156101000203166002900480156119095780601f106118de57610100808354040283529160200191611909565b820191906000526020600020905b8154815290600101906020018083116118ec57829003601f168201915b505050505081565b600060066000838152602001908152602001600020600101549050919050565b816005600082815260200190815260200160002060009054906101000a900473ffffffffffffffffffffffffffffffffffffffff1673ffffffffffffffffffffffffffffffffffffffff163373ffffffffffffffffffffffffffffffffffffffff16146119e9576040517f08c379a0000000000000000000000000000000000000000000000000000000008152600401808060200182810382526028815260200180613de86028913960400191505060405180910390fd5b6005600082815260200190815260200160002060006101000a81549073ffffffffffffffffffffffffffffffffffffffff0219169055807f7cc135e0cebb02c3480ae5d74d377283180a2601f8f644edf7987b009316c63a60405160405180910390a28160066000600860006004815260200190815260200160002054815260200190815260200160002060030181905550600860006004815260200190815260200160002060008154809291906001019190505550505050565b600060066000838152602001908152602001600020600301549050919050565b6000611ace613c51565b611ae2600a5430632290b49e60e01b61320a565b9050611b2e6040518060400160405280600381526020017f6765740000000000000000000000000000000000000000000000000000000000815250858361323b9092919063ffffffff16565b6060600467ffffffffffffffff81118015611b4857600080fd5b50604051908082528060200260200182016040528015611b7c57816020015b6060815260200190600190039081611b675790505b5090506040518060400160405280600481526020017f446174610000000000000000000000000000000000000000000000000000000081525081600081518110611bc257fe5b60200260200101819052508581600181518110611bdb57fe5b60200260200101819052506040518060400160405280600881526020017f436f696e496e666f00000000000000000000000000000000000000000000000081525081600281518110611c2957fe5b60200260200101819052508381600381518110611c4257fe5b6020026020010181905250611c976040518060400160405280600481526020017f7061746800000000000000000000000000000000000000000000000000000000815250828461326e9092919063ffffffff16565b611cc6600960009054906101000a900473ffffffffffffffffffffffffffffffffffffffff1683600b546132eb565b925050509392505050565b600060066000838152602001908152602001600020600001549050919050565b6000611cfb613c51565b611d0f600a543063a037f7d060e01b61320a565b9050611d5b6040518060400160405280600381526020017f6765740000000000000000000000000000000000000000000000000000000000815250858361323b9092919063ffffffff16565b6060600467ffffffffffffffff81118015611d7557600080fd5b50604051908082528060200260200182016040528015611da957816020015b6060815260200190600190039081611d945790505b5090506040518060400160405280600481526020017f446174610000000000000000000000000000000000000000000000000000000081525081600081518110611def57fe5b60200260200101819052508581600181518110611e0857fe5b60200260200101819052506040518060400160405280600881526020017f436f696e496e666f00000000000000000000000000000000000000000000000081525081600281518110611e5657fe5b60200260200101819052508381600381518110611e6f57fe5b6020026020010181905250611ec46040518060400160405280600481526020017f7061746800000000000000000000000000000000000000000000000000000000815250828461326e9092919063ffffffff16565b611ef3600960009054906101000a900473ffffffffffffffffffffffffffffffffffffffff1683600b546132eb565b925050509392505050565b600d8054600181600116156101000203166002900480601f016020809104026020016040519081016040528092919081815260200182805460018160011615610100020316600290048015611f945780601f10611f6957610100808354040283529160200191611f94565b820191906000526020600020905b815481529060010190602001808311611f7757829003601f168201915b505050505081565b6000611fa66135a3565b90508073ffffffffffffffffffffffffffffffffffffffff1663a9059cbb338373ffffffffffffffffffffffffffffffffffffffff166370a08231306040518263ffffffff1660e01b8152600401808273ffffffffffffffffffffffffffffffffffffffff1673ffffffffffffffffffffffffffffffffffffffff16815260200191505060206040518083038186803b15801561204257600080fd5b505afa158015612056573d6000803e3d6000fd5b505050506040513d602081101561206c57600080fd5b81019080805190602001909291905050506040518363ffffffff1660e01b8152600401808373ffffffffffffffffffffffffffffffffffffffff1673ffffffffffffffffffffffffffffffffffffffff16815260200182815260200192505050602060405180830381600087803b1580156120e657600080fd5b505af11580156120fa573d6000803e3d6000fd5b505050506040513d602081101561211057600080fd5b8101908080519060200190929190505050612193576040517f08c379a00000000000000000000000000000000000000000000000000000000081526004018080602001828103825260128152602001807f556e61626c6520746f207472616e73666572000000000000000000000000000081525060200191505060405180910390fd5b50565b60086020528060005260406000206000915090505481565b816005600082815260200190815260200160002060009054906101000a900473ffffffffffffffffffffffffffffffffffffffff1673ffffffffffffffffffffffffffffffffffffffff163373ffffffffffffffffffffffffffffffffffffffff1614612266576040517f08c379a0000000000000000000000000000000000000000000000000000000008152600401808060200182810382526028815260200180613de86028913960400191505060405180910390fd5b6005600082815260200190815260200160002060006101000a81549073ffffffffffffffffffffffffffffffffffffffff0219169055807f7cc135e0cebb02c3480ae5d74d377283180a2601f8f644edf7987b009316c63a60405160405180910390a28160066000600860006002815260200190815260200160002054815260200190815260200160002060010181905550600860006002815260200190815260200160002060008154809291906001019190505550505050565b600060066000838152602001908152602001600020600201549050919050565b600160086000600181526020019081526020016000208190555060016008600060028152602001908152602001600020819055506001600860006003815260200190815260200160002081905550600160086000600481526020019081526020016000208190555060016008600060058152602001908152602001600020819055506123ed604051806080016040528060478152602001613d7e604791396123e883611758565b611242565b600d9080519060200190612402929190613cbe565b5060008090505b81811215612ae05761256a61241d82611758565b600d8054600181600116156101000203166002900480601f0160208091040260200160405190810160405280929190818152602001828054600181600116156101000203166002900480156124b35780601f10612488576101008083540402835291602001916124b3565b820191906000526020600020905b81548152906001019060200180831161249657829003601f168201915b505050505060076000600181526020019081526020016000208054600181600116156101000203166002900480601f0160208091040260200160405190810160405280929190818152602001828054600181600116156101000203166002900480156125605780601f1061253557610100808354040283529160200191612560565b820191906000526020600020905b81548152906001019060200180831161254357829003601f168201915b5050505050611ac4565b506126c461257782611758565b600d8054600181600116156101000203166002900480601f01602080910402602001604051908101604052809291908181526020018280546001816001161561010002031660029004801561260d5780601f106125e25761010080835404028352916020019161260d565b820191906000526020600020905b8154815290600101906020018083116125f057829003601f168201915b505050505060076000600281526020019081526020016000208054600181600116156101000203166002900480601f0160208091040260200160405190810160405280929190818152602001828054600181600116156101000203166002900480156126ba5780601f1061268f576101008083540402835291602001916126ba565b820191906000526020600020905b81548152906001019060200180831161269d57829003601f168201915b5050505050611cf1565b5061281e6126d182611758565b600d8054600181600116156101000203166002900480601f0160208091040260200160405190810160405280929190818152602001828054600181600116156101000203166002900480156127675780601f1061273c57610100808354040283529160200191612767565b820191906000526020600020905b81548152906001019060200180831161274a57829003601f168201915b505050505060076000600381526020019081526020016000208054600181600116156101000203166002900480601f0160208091040260200160405190810160405280929190818152602001828054600181600116156101000203166002900480156128145780601f106127e957610100808354040283529160200191612814565b820191906000526020600020905b8154815290600101906020018083116127f757829003601f168201915b5050505050612ffd565b5061297861282b82611758565b600d8054600181600116156101000203166002900480601f0160208091040260200160405190810160405280929190818152602001828054600181600116156101000203166002900480156128c15780601f10612896576101008083540402835291602001916128c1565b820191906000526020600020905b8154815290600101906020018083116128a457829003601f168201915b505050505060076000600481526020019081526020016000208054600181600116156101000203166002900480601f01602080910402602001604051908101604052809291908181526020018280546001816001161561010002031660029004801561296e5780601f106129435761010080835404028352916020019161296e565b820191906000526020600020905b81548152906001019060200180831161295157829003601f168201915b5050505050612b04565b50612ad261298582611758565b600d8054600181600116156101000203166002900480601f016020809104026020016040519081016040528092919081815260200182805460018160011615610100020316600290048015612a1b5780601f106129f057610100808354040283529160200191612a1b565b820191906000526020600020905b8154815290600101906020018083116129fe57829003601f168201915b505050505060076000600581526020019081526020016000208054600181600116156101000203166002900480601f016020809104026020016040519081016040528092919081815260200182805460018160011615610100020316600290048015612ac85780601f10612a9d57610100808354040283529160200191612ac8565b820191906000526020600020905b815481529060010190602001808311612aab57829003601f168201915b50505050506113d8565b508080600101915050612409565b5050565b600060066000838152602001908152602001600020600401549050919050565b6000612b0e613c51565b612b22600a54306358bbf87660e01b61320a565b9050612b6e6040518060400160405280600381526020017f6765740000000000000000000000000000000000000000000000000000000000815250858361323b9092919063ffffffff16565b6060600467ffffffffffffffff81118015612b8857600080fd5b50604051908082528060200260200182016040528015612bbc57816020015b6060815260200190600190039081612ba75790505b5090506040518060400160405280600481526020017f446174610000000000000000000000000000000000000000000000000000000081525081600081518110612c0257fe5b60200260200101819052508581600181518110612c1b57fe5b60200260200101819052506040518060400160405280600881526020017f436f696e496e666f00000000000000000000000000000000000000000000000081525081600281518110612c6957fe5b60200260200101819052508381600381518110612c8257fe5b6020026020010181905250612cd76040518060400160405280600481526020017f7061746800000000000000000000000000000000000000000000000000000000815250828461326e9092919063ffffffff16565b612d06600960009054906101000a900473ffffffffffffffffffffffffffffffffffffffff1683600b546132eb565b925050509392505050565b816005600082815260200190815260200160002060009054906101000a900473ffffffffffffffffffffffffffffffffffffffff1673ffffffffffffffffffffffffffffffffffffffff163373ffffffffffffffffffffffffffffffffffffffff1614612dc9576040517f08c379a0000000000000000000000000000000000000000000000000000000008152600401808060200182810382526028815260200180613de86028913960400191505060405180910390fd5b6005600082815260200190815260200160002060006101000a81549073ffffffffffffffffffffffffffffffffffffffff0219169055807f7cc135e0cebb02c3480ae5d74d377283180a2601f8f644edf7987b009316c63a60405160405180910390a28160066000600860006003815260200190815260200160002054815260200190815260200160002060020181905550600860006003815260200190815260200160002060008154809291906001019190505550505050565b600c5481565b816005600082815260200190815260200160002060009054906101000a900473ffffffffffffffffffffffffffffffffffffffff1673ffffffffffffffffffffffffffffffffffffffff163373ffffffffffffffffffffffffffffffffffffffff1614612f42576040517f08c379a0000000000000000000000000000000000000000000000000000000008152600401808060200182810382526028815260200180613de86028913960400191505060405180910390fd5b6005600082815260200190815260200160002060006101000a81549073ffffffffffffffffffffffffffffffffffffffff0219169055807f7cc135e0cebb02c3480ae5d74d377283180a2601f8f644edf7987b009316c63a60405160405180910390a28160066000600860006005815260200190815260200160002054815260200190815260200160002060040181905550600860006005815260200190815260200160002060008154809291906001019190505550505050565b6000613007613c51565b61301b600a543063d4dad88d60e01b61320a565b90506130676040518060400160405280600381526020017f6765740000000000000000000000000000000000000000000000000000000000815250858361323b9092919063ffffffff16565b6060600467ffffffffffffffff8111801561308157600080fd5b506040519080825280602002602001820160405280156130b557816020015b60608152602001906001900390816130a05790505b5090506040518060400160405280600481526020017f4461746100000000000000000000000000000000000000000000000000000000815250816000815181106130fb57fe5b6020026020010181905250858160018151811061311457fe5b60200260200101819052506040518060400160405280600881526020017f436f696e496e666f0000000000000000000000000000000000000000000000008152508160028151811061316257fe5b6020026020010181905250838160038151811061317b57fe5b60200260200101819052506131d06040518060400160405280600481526020017f7061746800000000000000000000000000000000000000000000000000000000815250828461326e9092919063ffffffff16565b6131ff600960009054906101000a900473ffffffffffffffffffffffffffffffffffffffff1683600b546132eb565b925050509392505050565b613212613c51565b61321a613c51565b613231858585846135cd909392919063ffffffff16565b9150509392505050565b61325282846080015161367d90919063ffffffff16565b61326981846080015161367d90919063ffffffff16565b505050565b61328582846080015161367d90919063ffffffff16565b61329283608001516136a2565b60008090505b81518110156132d8576132cb8282815181106132b057fe5b6020026020010151856080015161367d90919063ffffffff16565b8080600101915050613298565b506132e683608001516136b0565b505050565b600030600454604051602001808373ffffffffffffffffffffffffffffffffffffffff1673ffffffffffffffffffffffffffffffffffffffff1660601b815260140182815260200192505050604051602081830303815290604052805190602001209050600454836060018181525050836005600083815260200190815260200160002060006101000a81548173ffffffffffffffffffffffffffffffffffffffff021916908373ffffffffffffffffffffffffffffffffffffffff160217905550807fb5e6e01e79f91267dc17b4e6314d5d4d03593d2ceee0fbb452b750bd70ea5af960405160405180910390a2600260009054906101000a900473ffffffffffffffffffffffffffffffffffffffff1673ffffffffffffffffffffffffffffffffffffffff16634000aea08584613423876136be565b6040518463ffffffff1660e01b8152600401808473ffffffffffffffffffffffffffffffffffffffff1673ffffffffffffffffffffffffffffffffffffffff16815260200183815260200180602001828103825283818151815260200191508051906020019080838360005b838110156134aa57808201518184015260208101905061348f565b50505050905090810190601f1680156134d75780820380516001836020036101000a031916815260200191505b50945050505050602060405180830381600087803b1580156134f857600080fd5b505af115801561350c573d6000803e3d6000fd5b505050506040513d602081101561352257600080fd5b8101908080519060200190929190505050613588576040517f08c379a0000000000000000000000000000000000000000000000000000000008152600401808060200182810382526023815260200180613dc56023913960400191505060405180910390fd5b60016004600082825401925050819055508090509392505050565b6000600260009054906101000a900473ffffffffffffffffffffffffffffffffffffffff16905090565b6135d5613c51565b6135e5856080015161010061388a565b508385600001818152505082856020019073ffffffffffffffffffffffffffffffffffffffff16908173ffffffffffffffffffffffffffffffffffffffff16815250508185604001907bffffffffffffffffffffffffffffffffffffffffffffffffffffffff191690817bffffffffffffffffffffffffffffffffffffffffffffffffffffffff191681525050849050949350505050565b61368a82600383516138de565b61369d8183613a2390919063ffffffff16565b505050565b6136ad816004613a45565b50565b6136bb816007613a45565b50565b6060634042994660e01b60008084600001518560200151866040015187606001516001896080015160000151604051602401808973ffffffffffffffffffffffffffffffffffffffff1673ffffffffffffffffffffffffffffffffffffffff1681526020018881526020018781526020018673ffffffffffffffffffffffffffffffffffffffff1673ffffffffffffffffffffffffffffffffffffffff168152602001857bffffffffffffffffffffffffffffffffffffffffffffffffffffffff19167bffffffffffffffffffffffffffffffffffffffffffffffffffffffff1916815260200184815260200183815260200180602001828103825283818151815260200191508051906020019080838360005b838110156137ed5780820151818401526020810190506137d2565b50505050905090810190601f16801561381a5780820380516001836020036101000a031916815260200191505b509950505050505050505050604051602081830303815290604052907bffffffffffffffffffffffffffffffffffffffffffffffffffffffff19166020820180517bffffffffffffffffffffffffffffffffffffffffffffffffffffffff83818316178352505050509050919050565b613892613d3e565b60006020838161389e57fe5b06146138b757602082816138ae57fe5b06602003820191505b81836020018181525050604051808452600081528281016020016040525082905092915050565b6017811161390b576139058160058460ff16901b60ff161784613a6790919063ffffffff16565b50613a1e565b60ff811161394d57613930601860058460ff16901b1784613a6790919063ffffffff16565b5061394781600185613a879092919063ffffffff16565b50613a1d565b61ffff811161399057613973601960058460ff16901b1784613a6790919063ffffffff16565b5061398a81600285613a879092919063ffffffff16565b50613a1c565b63ffffffff81116139d5576139b8601a60058460ff16901b1784613a6790919063ffffffff16565b506139cf81600485613a879092919063ffffffff16565b50613a1b565b67ffffffffffffffff8111613a1a57613a01601b60058460ff16901b1784613a6790919063ffffffff16565b50613a1881600885613a879092919063ffffffff16565b505b5b5b5b5b505050565b613a2b613d3e565b613a3d83846000015151848551613aa9565b905092915050565b613a62601f60058360ff16901b1783613a6790919063ffffffff16565b505050565b613a6f613d3e565b613a7f8384600001515184613b62565b905092915050565b613a8f613d3e565b613aa0848560000151518585613bb0565b90509392505050565b613ab1613d3e565b8251821115613abf57600080fd5b84602001518285011115613aea57613ae9856002613ae38860200151888701613c11565b02613c2d565b5b600080865180518760208301019350808887011115613b095787860182525b60208701925050505b60208410613b355780518252602082019150602081019050602084039350613b12565b60006001856020036101000a03905080198251168184511681811785525050879350505050949350505050565b613b6a613d3e565b83602001518310613b8757613b86846002866020015102613c2d565b5b8351805160208583010184815381861415613ba3576001820183525b5050508390509392505050565b613bb8613d3e565b84602001518483011115613bd657613bd585600286850102613c2d565b5b60006001836101000a0390508551838682010185831982511617815281518588011115613c035784870182525b505085915050949350505050565b600081831115613c2357829050613c27565b8190505b92915050565b606082600001519050613c40838361388a565b50613c4b8382613a23565b50505050565b6040518060a0016040528060008019168152602001600073ffffffffffffffffffffffffffffffffffffffff16815260200160007bffffffffffffffffffffffffffffffffffffffffffffffffffffffff1916815260200160008152602001613cb8613d3e565b81525090565b828054600181600116156101000203166002900490600052602060002090601f016020900481019282601f10613cff57805160ff1916838001178555613d2d565b82800160010185558215613d2d579182015b82811115613d2c578251825591602001919060010190613d11565b5b509050613d3a9190613d58565b5090565b604051806040016040528060608152602001600081525090565b613d7a91905b80821115613d76576000816000905550600101613d5e565b5090565b9056fe68747470733a2f2f6d696e2d6170692e63727970746f636f6d706172652e636f6d2f646174612f746f702f746f74616c766f6c66756c6c3f7473796d3d555344266c696d69743d756e61626c6520746f207472616e73666572416e6443616c6c20746f206f7261636c65536f75726365206d75737420626520746865206f7261636c65206f66207468652072657175657374a264697066735822122092e2f07a5158725d90f61b335ee7145b3d97ec227783dbfc8a0cfa98fec7394c64736f6c63430006060033",
  "immutableReferences": {},
  "source": "// This example code is designed to quickly deploy an example contract using Remix.\n// SPDX-License-Identifier: GPL-3.0\n\npragma solidity ^0.6.0;\n\nimport \"@chainlink/contracts/src/v0.6/ChainlinkClient.sol\";\n\ncontract GetCoinList is ChainlinkClient {\n\n    struct CoinList{\n         bytes32 name;\n         bytes32 fullName;\n         bytes32 overviewUrl;\n         bytes32 assetLaunchDate;\n         bytes32 logoUrl;\n    }\n\n    mapping (int256 => CoinList) public coinList;\n    mapping (int256 => string) public infoList;\n    mapping (int256 => int256) public dataCount;\n\n    address private oracle;\n    bytes32 private jobId;\n    uint256 private fee;\n    bytes32 public coinData;\n    string public apiUrl;\n\n\n\n    /**\n     * Network: Kovan\n     * Chainlink - 0x2f90A6D021db21e1B2A077c5a37B3C7E75D15b7e\n     * Chainlink - 29fa9aa13bf1468788b7cc4a500a45b8\n     * Fee: 0.1 LINK\n     */\n    constructor() public {\n        setPublicChainlinkToken();\n        oracle = 0xAA1DC356dc4B18f30C347798FD5379F3D77ABC5b;\n        jobId = \"b7285d4859da4b289c7861db971baf0a\";\n        fee = 0.1 * 10 ** 18; // 0.1 LINK\n\n        infoList[1]=\"Name\";\n        infoList[2]=\"FullName\";\n        infoList[3]=\"Url\";\n        infoList[4]=\"AssetLaunchDate\";\n        infoList[5]=\"ImageUrl\";\n\n    }\n\n\n    function addCoin(int256 _coinQuantity) public{\n\n        dataCount[1]=1;\n        dataCount[2]=1;\n        dataCount[3]=1;\n        dataCount[4]=1;\n        dataCount[5]=1;\n\n        apiUrl=stringAdd(\"https://min-api.cryptocompare.com/data/top/totalvolfull?tsym=USD&limit=\",intToString(uint(_coinQuantity)));\n        for(int256 i=0;i<_coinQuantity;i++){\n                requestName(intToString(uint(i)), apiUrl, infoList[1]);\n                requestFullName(intToString(uint(i)), apiUrl, infoList[2]);\n                requestUrl(intToString(uint(i)), apiUrl, infoList[3]);\n                requestAssetLaunchDate(intToString(uint(i)), apiUrl, infoList[4]);\n                requestImageUrl(intToString(uint(i)), apiUrl, infoList[5]);\n        }\n    }\n\n\n    function getCoinName(int256 _id) public view returns(bytes32){\n        return coinList[_id].name;\n    }\n    function getCoinFullName(int256 _id) public view returns(bytes32){\n        return coinList[_id].fullName;\n    }\n    function getCoinOverviewUrl(int256 _id) public view returns(bytes32){\n        return coinList[_id].overviewUrl;\n    }\n    function getCoinAssetLaunchDate(int256 _id) public view returns(bytes32){\n        return coinList[_id].assetLaunchDate;\n    }\n    function getCoinLogoUrl(int256 _id) public view returns(bytes32){\n        return coinList[_id].logoUrl;\n    }\n\n    /**\n     * Create a Chainlink request to retrieve API response, find the target\n     * data, then multiply by 1000000000000000000 (to remove decimal places from data).\n     */\n    function requestName(string memory _id, string memory _adiUrl, string memory _infoData) public returns (bytes32 requestId)\n    {\n        Chainlink.Request memory request = buildChainlinkRequest(jobId, address(this), this.fulfillName.selector);\n\n        request.add(\"get\", _adiUrl);\n\n        string[] memory path = new string[](4);\n        path[0] = \"Data\";\n        path[1] = _id;\n        path[2] = \"CoinInfo\";\n        path[3] = _infoData;\n        request.addStringArray(\"path\", path);\n\n        return sendChainlinkRequestTo(oracle, request, fee);\n    }\n    function requestFullName(string memory _id, string memory _adiUrl, string memory _infoData) public returns (bytes32 requestId)\n    {\n        Chainlink.Request memory request = buildChainlinkRequest(jobId, address(this), this.fulfillFullName.selector);\n\n        request.add(\"get\", _adiUrl);\n\n        string[] memory path = new string[](4);\n        path[0] = \"Data\";\n        path[1] = _id;\n        path[2] = \"CoinInfo\";\n        path[3] = _infoData;\n        request.addStringArray(\"path\", path);\n\n        return sendChainlinkRequestTo(oracle, request, fee);\n    }\n    function requestUrl(string memory _id, string memory _adiUrl, string memory _infoData) public returns (bytes32 requestId)\n    {\n        Chainlink.Request memory request = buildChainlinkRequest(jobId, address(this), this.fulfillUrl.selector);\n\n        request.add(\"get\", _adiUrl);\n\n        string[] memory path = new string[](4);\n        path[0] = \"Data\";\n        path[1] = _id;\n        path[2] = \"CoinInfo\";\n        path[3] = _infoData;\n        request.addStringArray(\"path\", path);\n\n        return sendChainlinkRequestTo(oracle, request, fee);\n    }\n    function requestAssetLaunchDate(string memory _id, string memory _adiUrl, string memory _infoData) public returns (bytes32 requestId)\n    {\n        Chainlink.Request memory request = buildChainlinkRequest(jobId, address(this), this.fulfillAssetLaunchDate.selector);\n\n        request.add(\"get\", _adiUrl);\n\n        string[] memory path = new string[](4);\n        path[0] = \"Data\";\n        path[1] = _id;\n        path[2] = \"CoinInfo\";\n        path[3] = _infoData;\n        request.addStringArray(\"path\", path);\n\n        return sendChainlinkRequestTo(oracle, request, fee);\n    }\n    function requestImageUrl(string memory _id, string memory _adiUrl, string memory _infoData) public returns (bytes32 requestId)\n    {\n        Chainlink.Request memory request = buildChainlinkRequest(jobId, address(this), this.fulfillImageUrl.selector);\n\n        request.add(\"get\", _adiUrl);\n\n        string[] memory path = new string[](4);\n        path[0] = \"Data\";\n        path[1] = _id;\n        path[2] = \"CoinInfo\";\n        path[3] = _infoData;\n        request.addStringArray(\"path\", path);\n\n        return sendChainlinkRequestTo(oracle, request, fee);\n    }\n\n\n    /**\n     * Receive the response in the form of uint256\n     */\n    function fulfillName(bytes32 _requestId, bytes32 _coinData) public recordChainlinkFulfillment(_requestId)\n    {\n        coinList[dataCount[1]].name = _coinData;\n        dataCount[1]++;\n    }\n    function fulfillFullName(bytes32 _requestId, bytes32 _coinData) public recordChainlinkFulfillment(_requestId)\n    {\n        coinList[dataCount[2]].fullName = _coinData;\n        dataCount[2]++;\n    }\n    function fulfillUrl(bytes32 _requestId, bytes32 _coinData) public recordChainlinkFulfillment(_requestId)\n    {\n        coinList[dataCount[3]].overviewUrl = _coinData;\n        dataCount[3]++;\n    }\n    function fulfillAssetLaunchDate(bytes32 _requestId, bytes32 _coinData) public recordChainlinkFulfillment(_requestId)\n    {\n        coinList[dataCount[4]].assetLaunchDate = _coinData;\n        dataCount[4]++;\n    }\n    function fulfillImageUrl(bytes32 _requestId, bytes32 _coinData) public recordChainlinkFulfillment(_requestId)\n    {\n        coinList[dataCount[5]].logoUrl = _coinData;\n        dataCount[5]++;\n    }\n\n\n\n\n\n    function intToString(uint _i) public returns(string memory){\n        uint j = _i;\n        uint len;\n        while (j != 0) {\n            len++;\n            j /= 10;\n        }\n        bytes memory bstr = new bytes(len);\n        uint k = len;\n        while (_i != 0) {\n            k = k-1;\n            uint8 temp = (48 + uint8(_i - _i / 10 * 10));\n            bytes1 b1 = bytes1(temp);\n            bstr[k] = b1;\n            _i /= 10;\n        }\n        return string(bstr);\n    }\n\n\n    function stringAdd(string memory _strA, string memory _strB) public returns(string memory){\n        bytes memory _byteStrA = bytes(_strA);\n        bytes memory _byteStrB = bytes(_strB);\n        string memory fullString = new string(_byteStrA.length + _byteStrB.length);\n        bytes memory byteFullString = bytes(fullString);\n        uint k = 0;\n        for (uint i = 0; i < _byteStrA.length; i++) byteFullString[k++] = _byteStrA[i];\n        for (uint i = 0; i < _byteStrB.length; i++) byteFullString[k++] = _byteStrB[i];\n\n        return fullString;\n    }\n\n\n\n\n\n\n    /**\n     * Withdraw LINK from this contract\n     *\n     * NOTE: DO NOT USE THIS IN PRODUCTION AS IT CAN BE CALLED BY ANY ADDRESS.\n     * THIS IS PURELY FOR EXAMPLE PURPOSES ONLY.\n     */\n    function withdrawLink() external {\n        LinkTokenInterface linkToken = LinkTokenInterface(chainlinkTokenAddress());\n        require(linkToken.transfer(msg.sender, linkToken.balanceOf(address(this))), \"Unable to transfer\");\n    }\n}\n",
  "sourcePath": "/Users/adeleyu/projects/guess_get_gas/contracts/GetCoinInfo.sol",
  "compiler": {
    "name": "solc",
    "version": "0.6.6+commit.6c089d02.Emscripten.clang"
  },
  "schemaVersion": "3.3.3",
  "updatedAt": "2021-04-08T14:21:28.579Z",
  "devdoc": {
    "methods": {}
  },
  "userdoc": {
    "methods": {
      "constructor": "Network: Kovan Chainlink - 0x2f90A6D021db21e1B2A077c5a37B3C7E75D15b7e Chainlink - 29fa9aa13bf1468788b7cc4a500a45b8 Fee: 0.1 LINK",
      "fulfillName(bytes32,bytes32)": {
        "notice": "Receive the response in the form of uint256"
      },
      "requestName(string,string,string)": {
        "notice": "Create a Chainlink request to retrieve API response, find the target data, then multiply by 1000000000000000000 (to remove decimal places from data)."
      },
      "withdrawLink()": {
        "notice": "Withdraw LINK from this contract     * NOTE: DO NOT USE THIS IN PRODUCTION AS IT CAN BE CALLED BY ANY ADDRESS. THIS IS PURELY FOR EXAMPLE PURPOSES ONLY."
      }
    }
  }
}