{
  "contractName": "getCurrencyList",
  "abi": [
    {
      "inputs": [],
      "stateMutability": "nonpayable",
      "type": "constructor"
    },
    {
      "anonymous": false,
      "inputs": [
        {
          "indexed": true,
          "internalType": "bytes32",
          "name": "id",
          "type": "bytes32"
        }
      ],
      "name": "ChainlinkCancelled",
      "type": "event"
    },
    {
      "anonymous": false,
      "inputs": [
        {
          "indexed": true,
          "internalType": "bytes32",
          "name": "id",
          "type": "bytes32"
        }
      ],
      "name": "ChainlinkFulfilled",
      "type": "event"
    },
    {
      "anonymous": false,
      "inputs": [
        {
          "indexed": true,
          "internalType": "bytes32",
          "name": "id",
          "type": "bytes32"
        }
      ],
      "name": "ChainlinkRequested",
      "type": "event"
    },
    {
      "inputs": [],
      "name": "apiUrl",
      "outputs": [
        {
          "internalType": "string",
          "name": "",
          "type": "string"
        }
      ],
      "stateMutability": "view",
      "type": "function"
    },
    {
      "inputs": [],
      "name": "currencyData",
      "outputs": [
        {
          "internalType": "bytes32",
          "name": "",
          "type": "bytes32"
        }
      ],
      "stateMutability": "view",
      "type": "function"
    },
    {
      "inputs": [
        {
          "internalType": "int256",
          "name": "",
          "type": "int256"
        }
      ],
      "name": "currencyList",
      "outputs": [
        {
          "internalType": "bytes32",
          "name": "name",
          "type": "bytes32"
        },
        {
          "internalType": "bytes32",
          "name": "fullName",
          "type": "bytes32"
        },
        {
          "internalType": "bytes32",
          "name": "overviewUrl",
          "type": "bytes32"
        },
        {
          "internalType": "bytes32",
          "name": "assetLaunchDate",
          "type": "bytes32"
        },
        {
          "internalType": "bytes32",
          "name": "logoUrl",
          "type": "bytes32"
        }
      ],
      "stateMutability": "view",
      "type": "function"
    },
    {
      "inputs": [
        {
          "internalType": "int256",
          "name": "",
          "type": "int256"
        }
      ],
      "name": "dataCount",
      "outputs": [
        {
          "internalType": "int256",
          "name": "",
          "type": "int256"
        }
      ],
      "stateMutability": "view",
      "type": "function"
    },
    {
      "inputs": [
        {
          "internalType": "int256",
          "name": "",
          "type": "int256"
        }
      ],
      "name": "infoList",
      "outputs": [
        {
          "internalType": "string",
          "name": "",
          "type": "string"
        }
      ],
      "stateMutability": "view",
      "type": "function"
    },
    {
      "inputs": [
        {
          "internalType": "int256",
          "name": "_currencyQuantity",
          "type": "int256"
        }
      ],
      "name": "addCurrency",
      "outputs": [],
      "stateMutability": "nonpayable",
      "type": "function"
    },
    {
      "inputs": [
        {
          "internalType": "int256",
          "name": "_id",
          "type": "int256"
        }
      ],
      "name": "getCurrencyName",
      "outputs": [
        {
          "internalType": "bytes32",
          "name": "",
          "type": "bytes32"
        }
      ],
      "stateMutability": "view",
      "type": "function"
    },
    {
      "inputs": [
        {
          "internalType": "int256",
          "name": "_id",
          "type": "int256"
        }
      ],
      "name": "getCurrencyFullName",
      "outputs": [
        {
          "internalType": "bytes32",
          "name": "",
          "type": "bytes32"
        }
      ],
      "stateMutability": "view",
      "type": "function"
    },
    {
      "inputs": [
        {
          "internalType": "int256",
          "name": "_id",
          "type": "int256"
        }
      ],
      "name": "getCurrencyOverviewUrl",
      "outputs": [
        {
          "internalType": "bytes32",
          "name": "",
          "type": "bytes32"
        }
      ],
      "stateMutability": "view",
      "type": "function"
    },
    {
      "inputs": [
        {
          "internalType": "int256",
          "name": "_id",
          "type": "int256"
        }
      ],
      "name": "getCurrencyAssetLaunchDate",
      "outputs": [
        {
          "internalType": "bytes32",
          "name": "",
          "type": "bytes32"
        }
      ],
      "stateMutability": "view",
      "type": "function"
    },
    {
      "inputs": [
        {
          "internalType": "int256",
          "name": "_id",
          "type": "int256"
        }
      ],
      "name": "getCurrencyLogoUrl",
      "outputs": [
        {
          "internalType": "bytes32",
          "name": "",
          "type": "bytes32"
        }
      ],
      "stateMutability": "view",
      "type": "function"
    },
    {
      "inputs": [
        {
          "internalType": "string",
          "name": "_id",
          "type": "string"
        },
        {
          "internalType": "string",
          "name": "_adiUrl",
          "type": "string"
        },
        {
          "internalType": "string",
          "name": "_infoData",
          "type": "string"
        }
      ],
      "name": "requestName",
      "outputs": [
        {
          "internalType": "bytes32",
          "name": "requestId",
          "type": "bytes32"
        }
      ],
      "stateMutability": "nonpayable",
      "type": "function"
    },
    {
      "inputs": [
        {
          "internalType": "string",
          "name": "_id",
          "type": "string"
        },
        {
          "internalType": "string",
          "name": "_adiUrl",
          "type": "string"
        },
        {
          "internalType": "string",
          "name": "_infoData",
          "type": "string"
        }
      ],
      "name": "requestFullName",
      "outputs": [
        {
          "internalType": "bytes32",
          "name": "requestId",
          "type": "bytes32"
        }
      ],
      "stateMutability": "nonpayable",
      "type": "function"
    },
    {
      "inputs": [
        {
          "internalType": "string",
          "name": "_id",
          "type": "string"
        },
        {
          "internalType": "string",
          "name": "_adiUrl",
          "type": "string"
        },
        {
          "internalType": "string",
          "name": "_infoData",
          "type": "string"
        }
      ],
      "name": "requestUrl",
      "outputs": [
        {
          "internalType": "bytes32",
          "name": "requestId",
          "type": "bytes32"
        }
      ],
      "stateMutability": "nonpayable",
      "type": "function"
    },
    {
      "inputs": [
        {
          "internalType": "string",
          "name": "_id",
          "type": "string"
        },
        {
          "internalType": "string",
          "name": "_adiUrl",
          "type": "string"
        },
        {
          "internalType": "string",
          "name": "_infoData",
          "type": "string"
        }
      ],
      "name": "requestAssetLaunchDate",
      "outputs": [
        {
          "internalType": "bytes32",
          "name": "requestId",
          "type": "bytes32"
        }
      ],
      "stateMutability": "nonpayable",
      "type": "function"
    },
    {
      "inputs": [
        {
          "internalType": "string",
          "name": "_id",
          "type": "string"
        },
        {
          "internalType": "string",
          "name": "_adiUrl",
          "type": "string"
        },
        {
          "internalType": "string",
          "name": "_infoData",
          "type": "string"
        }
      ],
      "name": "requestImageUrl",
      "outputs": [
        {
          "internalType": "bytes32",
          "name": "requestId",
          "type": "bytes32"
        }
      ],
      "stateMutability": "nonpayable",
      "type": "function"
    },
    {
      "inputs": [
        {
          "internalType": "bytes32",
          "name": "_requestId",
          "type": "bytes32"
        },
        {
          "internalType": "bytes32",
          "name": "_currencyData",
          "type": "bytes32"
        }
      ],
      "name": "fulfillName",
      "outputs": [],
      "stateMutability": "nonpayable",
      "type": "function"
    },
    {
      "inputs": [
        {
          "internalType": "bytes32",
          "name": "_requestId",
          "type": "bytes32"
        },
        {
          "internalType": "bytes32",
          "name": "_currencyData",
          "type": "bytes32"
        }
      ],
      "name": "fulfillFullName",
      "outputs": [],
      "stateMutability": "nonpayable",
      "type": "function"
    },
    {
      "inputs": [
        {
          "internalType": "bytes32",
          "name": "_requestId",
          "type": "bytes32"
        },
        {
          "internalType": "bytes32",
          "name": "_currencyData",
          "type": "bytes32"
        }
      ],
      "name": "fulfillUrl",
      "outputs": [],
      "stateMutability": "nonpayable",
      "type": "function"
    },
    {
      "inputs": [
        {
          "internalType": "bytes32",
          "name": "_requestId",
          "type": "bytes32"
        },
        {
          "internalType": "bytes32",
          "name": "_currencyData",
          "type": "bytes32"
        }
      ],
      "name": "fulfillAssetLaunchDate",
      "outputs": [],
      "stateMutability": "nonpayable",
      "type": "function"
    },
    {
      "inputs": [
        {
          "internalType": "bytes32",
          "name": "_requestId",
          "type": "bytes32"
        },
        {
          "internalType": "bytes32",
          "name": "_currencyData",
          "type": "bytes32"
        }
      ],
      "name": "fulfillImageUrl",
      "outputs": [],
      "stateMutability": "nonpayable",
      "type": "function"
    },
    {
      "inputs": [
        {
          "internalType": "uint256",
          "name": "_i",
          "type": "uint256"
        }
      ],
      "name": "intToString",
      "outputs": [
        {
          "internalType": "string",
          "name": "",
          "type": "string"
        }
      ],
      "stateMutability": "nonpayable",
      "type": "function"
    },
    {
      "inputs": [
        {
          "internalType": "string",
          "name": "_strA",
          "type": "string"
        },
        {
          "internalType": "string",
          "name": "_strB",
          "type": "string"
        }
      ],
      "name": "stringAdd",
      "outputs": [
        {
          "internalType": "string",
          "name": "",
          "type": "string"
        }
      ],
      "stateMutability": "nonpayable",
      "type": "function"
    },
    {
      "inputs": [],
      "name": "withdrawLink",
      "outputs": [],
      "stateMutability": "nonpayable",
      "type": "function"
    }
  ],
  "bytecode": "0x608060405260016004553480156200001657600080fd5b506200003c73326c977e6efc84e512bb9c30f76e30c160ed06fb62000e6560201b60201c565b73b33d8a4e62236ea91f3a8fd7ab15a95b9b7eec7d600960006101000a81548173ffffffffffffffffffffffffffffffffffffffff021916908373ffffffffffffffffffffffffffffffffffffffff1602179055507f3932626338326664633938323461373161323732316362356630306238653335600a8190555067016345785d8a0000600b819055506040518060400160405280600481526020017f4e616d6500000000000000000000000000000000000000000000000000000000815250600760006001815260200190815260200160002090805190602001906200012692919062000ea9565b506040518060400160405280600881526020017f46756c6c4e616d65000000000000000000000000000000000000000000000000815250600760006002815260200190815260200160002090805190602001906200018692919062000ea9565b506040518060400160405280600381526020017f55726c000000000000000000000000000000000000000000000000000000000081525060076000600381526020019081526020016000209080519060200190620001e692919062000ea9565b506040518060400160405280600f81526020017f41737365744c61756e6368446174650000000000000000000000000000000000815250600760006004815260200190815260200160002090805190602001906200024692919062000ea9565b506040518060400160405280600881526020017f496d61676555726c00000000000000000000000000000000000000000000000081525060076000600581526020019081526020016000209080519060200190620002a692919062000ea9565b507f41565400000000000000000000000000000000000000000000000000000000006006600060018152602001908152602001600020600001819055507f4176656e747573000000000000000000000000000000000000000000000000006006600060018152602001908152602001600020600101819055507f2f636f696e732f6176742f6f76657276696577000000000000000000000000006006600060018152602001908152602001600020600201819055507f323031372d30392d3033000000000000000000000000000000000000000000006006600060018152602001908152602001600020600301819055507f2f6d656469612f33373734363539322f6176742e706e670000000000000000006006600060018152602001908152602001600020600401819055507f42544300000000000000000000000000000000000000000000000000000000006006600060028152602001908152602001600020600001819055507f426974636f696e000000000000000000000000000000000000000000000000006006600060028152602001908152602001600020600101819055507f2f636f696e732f6274632f6f76657276696577000000000000000000000000006006600060028152602001908152602001600020600201819055507f323030392d30312d3033000000000000000000000000000000000000000000006006600060028152602001908152602001600020600301819055507f2f6d656469612f33373734363235312f6274632e706e670000000000000000006006600060028152602001908152602001600020600401819055507f42545400000000000000000000000000000000000000000000000000000000006006600060038152602001908152602001600020600001819055507f426974546f7272656e74000000000000000000000000000000000000000000006006600060038152602001908152602001600020600101819055507f2f636f696e732f6274742f6f76657276696577000000000000000000000000006006600060038152602001908152602001600020600201819055507f323031392d30312d3238000000000000000000000000000000000000000000006006600060038152602001908152602001600020600301819055507f2f6d656469612f33373734363133342f627474706e672e706e670000000000006006600060038152602001908152602001600020600401819055507f45544800000000000000000000000000000000000000000000000000000000006006600060048152602001908152602001600020600001819055507f457468657265756d0000000000000000000000000000000000000000000000006006600060048152602001908152602001600020600101819055507f2f636f696e732f6574682f6f76657276696577000000000000000000000000006006600060048152602001908152602001600020600201819055507f323031352d30372d3330000000000000000000000000000000000000000000006006600060048152602001908152602001600020600301819055507f2f6d656469612f33373734363233382f6574682e706e670000000000000000006006600060048152602001908152602001600020600401819055507f54525800000000000000000000000000000000000000000000000000000000006006600060058152602001908152602001600020600001819055507f54524f4e000000000000000000000000000000000000000000000000000000006006600060058152602001908152602001600020600101819055507f2f636f696e732f7472782f6f76657276696577000000000000000000000000006006600060058152602001908152602001600020600201819055507f323031372d30392d3236000000000000000000000000000000000000000000006006600060058152602001908152602001600020600301819055507f2f6d656469612f33373734363135322f7472786a70672e706e670000000000006006600060058152602001908152602001600020600401819055507f58525000000000000000000000000000000000000000000000000000000000006006600060068152602001908152602001600020600001819055507f58525000000000000000000000000000000000000000000000000000000000006006600060068152602001908152602001600020600101819055507f2f636f696e732f7872702f6f76657276696577000000000000000000000000006006600060068152602001908152602001600020600201819055507f323031332d30312d3031000000000000000000000000000000000000000000006006600060068152602001908152602001600020600301819055507f2f6d656469612f33373734363334372f7872702e706e670000000000000000006006600060068152602001908152602001600020600401819055507f57525800000000000000000000000000000000000000000000000000000000006006600060078152602001908152602001600020600001819055507f57617a69725800000000000000000000000000000000000000000000000000006006600060078152602001908152602001600020600101819055507f2f636f696e732f7772782f6f76657276696577000000000000000000000000006006600060078152602001908152602001600020600201819055507f323032302d30312d3231000000000000000000000000000000000000000000006006600060078152602001908152602001600020600301819055507f2f6d656469612f33373734363039342f7772782e706e670000000000000000006006600060078152602001908152602001600020600401819055507f57494e00000000000000000000000000000000000000000000000000000000006006600060088152602001908152602001600020600001819055507f57494e6b000000000000000000000000000000000000000000000000000000006006600060088152602001908152602001600020600101819055507f2f636f696e732f77696e2f6f76657276696577000000000000000000000000006006600060088152602001908152602001600020600201819055507f323031392d30372d3239000000000000000000000000000000000000000000006006600060088152602001908152602001600020600301819055507f2f6d656469612f33353635313235352f77696e2e706e670000000000000000006006600060088152602001908152602001600020600401819055507f424e4200000000000000000000000000000000000000000000000000000000006006600060098152602001908152602001600020600001819055507f42696e616e636520436f696e00000000000000000000000000000000000000006006600060098152602001908152602001600020600101819055507f2f636f696e732f626e622f6f76657276696577000000000000000000000000006006600060098152602001908152602001600020600201819055507f323031372d30362d3237000000000000000000000000000000000000000000006006600060098152602001908152602001600020600301819055507f2f6d656469612f33373734363235302f626e622e706e670000000000000000006006600060098152602001908152602001600020600401819055507f454f53000000000000000000000000000000000000000000000000000000000060066000600a8152602001908152602001600020600001819055507f454f53000000000000000000000000000000000000000000000000000000000060066000600a8152602001908152602001600020600101819055507f2f636f696e732f656f732f6f766572766965770000000000000000000000000060066000600a8152602001908152602001600020600201819055507f323031372d30362d32360000000000000000000000000000000000000000000060066000600a8152602001908152602001600020600301819055507f2f6d656469612f33373734363334392f656f732e706e6700000000000000000060066000600a81526020019081526020016000206004018190555062000f58565b80600260006101000a81548173ffffffffffffffffffffffffffffffffffffffff021916908373ffffffffffffffffffffffffffffffffffffffff16021790555050565b828054600181600116156101000203166002900490600052602060002090601f016020900481019282601f1062000eec57805160ff191683800117855562000f1d565b8280016001018555821562000f1d579182015b8281111562000f1c57825182559160200191906001019062000eff565b5b50905062000f2c919062000f30565b5090565b62000f5591905b8082111562000f5157600081600090555060010162000f37565b5090565b90565b613e458062000f686000396000f3fe608060405234801561001057600080fd5b50600436106101585760003560e01c80638dc654a2116100c3578063eb9f53471161007c578063eb9f534714610ee9578063ebab4ffe14610f21578063f0ef923214610f63578063f1feff3414611160578063f4f20d7a146111be578063f771044a1461120057610158565b80638dc654a214610c125780639f55aef414610c1c578063a037f7d014610c5e578063cb59a5f114610c96578063cfc0532914610cb4578063d4dad88d14610eb157610158565b80632b8dc6ff116101155780632b8dc6ff1461068857806343a8af47146106b657806358bbf8761461075d57806360f0f34a1461079557806379a11722146109925780638367e12014610b8f57610158565b806303b603311461015d5780630911a37c1461019f57806319eb4d4d1461036a57806320f5a678146103ac5780632290b49e146105a957806329b1a29a146105e1575b600080fd5b6101896004803603602081101561017357600080fd5b8101908080359060200190929190505050611242565b6040518082815260200191505060405180910390f35b6102ef600480360360408110156101b557600080fd5b81019080803590602001906401000000008111156101d257600080fd5b8201836020820111156101e457600080fd5b8035906020019184600183028401116401000000008311171561020657600080fd5b91908080601f016020809104026020016040519081016040528093929190818152602001838380828437600081840152601f19601f8201169050808301925050505050505091929192908035906020019064010000000081111561026957600080fd5b82018360208201111561027b57600080fd5b8035906020019184600183028401116401000000008311171561029d57600080fd5b91908080601f016020809104026020016040519081016040528093929190818152602001838380828437600081840152601f19601f820116905080830192505050505050509192919290505050611262565b6040518080602001828103825283818151815260200191508051906020019080838360005b8381101561032f578082015181840152602081019050610314565b50505050905090810190601f16801561035c5780820380516001836020036101000a031916815260200191505b509250505060405180910390f35b6103966004803603602081101561038057600080fd5b81019080803590602001909291905050506113c2565b6040518082815260200191505060405180910390f35b610593600480360360608110156103c257600080fd5b81019080803590602001906401000000008111156103df57600080fd5b8201836020820111156103f157600080fd5b8035906020019184600183028401116401000000008311171561041357600080fd5b91908080601f016020809104026020016040519081016040528093929190818152602001838380828437600081840152601f19601f8201169050808301925050505050505091929192908035906020019064010000000081111561047657600080fd5b82018360208201111561048857600080fd5b803590602001918460018302840111640100000000831117156104aa57600080fd5b91908080601f016020809104026020016040519081016040528093929190818152602001838380828437600081840152601f19601f8201169050808301925050505050505091929192908035906020019064010000000081111561050d57600080fd5b82018360208201111561051f57600080fd5b8035906020019184600183028401116401000000008311171561054157600080fd5b91908080601f016020809104026020016040519081016040528093929190818152602001838380828437600081840152601f19601f8201169050808301925050505050505091929192905050506113e2565b6040518082815260200191505060405180910390f35b6105df600480360360408110156105bf57600080fd5b8101908080359060200190929190803590602001909291905050506115ef565b005b61060d600480360360208110156105f757600080fd5b8101908080359060200190929190505050611762565b6040518080602001828103825283818151815260200191508051906020019080838360005b8381101561064d578082015181840152602081019050610632565b50505050905090810190601f16801561067a5780820380516001836020036101000a031916815260200191505b509250505060405180910390f35b6106b46004803603602081101561069e57600080fd5b810190808035906020019092919050505061186b565b005b6106e2600480360360208110156106cc57600080fd5b810190808035906020019092919050505061200e565b6040518080602001828103825283818151815260200191508051906020019080838360005b83811015610722578082015181840152602081019050610707565b50505050905090810190601f16801561074f5780820380516001836020036101000a031916815260200191505b509250505060405180910390f35b6107936004803603604081101561077357600080fd5b8101908080359060200190929190803590602001909291905050506120be565b005b61097c600480360360608110156107ab57600080fd5b81019080803590602001906401000000008111156107c857600080fd5b8201836020820111156107da57600080fd5b803590602001918460018302840111640100000000831117156107fc57600080fd5b91908080601f016020809104026020016040519081016040528093929190818152602001838380828437600081840152601f19601f8201169050808301925050505050505091929192908035906020019064010000000081111561085f57600080fd5b82018360208201111561087157600080fd5b8035906020019184600183028401116401000000008311171561089357600080fd5b91908080601f016020809104026020016040519081016040528093929190818152602001838380828437600081840152601f19601f820116905080830192505050505050509192919290803590602001906401000000008111156108f657600080fd5b82018360208201111561090857600080fd5b8035906020019184600183028401116401000000008311171561092a57600080fd5b91908080601f016020809104026020016040519081016040528093929190818152602001838380828437600081840152601f19601f820116905080830192505050505050509192919290505050612231565b6040518082815260200191505060405180910390f35b610b79600480360360608110156109a857600080fd5b81019080803590602001906401000000008111156109c557600080fd5b8201836020820111156109d757600080fd5b803590602001918460018302840111640100000000831117156109f957600080fd5b91908080601f016020809104026020016040519081016040528093929190818152602001838380828437600081840152601f19601f82011690508083019250505050505050919291929080359060200190640100000000811115610a5c57600080fd5b820183602082011115610a6e57600080fd5b80359060200191846001830284011164010000000083111715610a9057600080fd5b91908080601f016020809104026020016040519081016040528093929190818152602001838380828437600081840152601f19601f82011690508083019250505050505050919291929080359060200190640100000000811115610af357600080fd5b820183602082011115610b0557600080fd5b80359060200191846001830284011164010000000083111715610b2757600080fd5b91908080601f016020809104026020016040519081016040528093929190818152602001838380828437600081840152601f19601f82011690508083019250505050505050919291929050505061243e565b6040518082815260200191505060405180910390f35b610b9761264b565b6040518080602001828103825283818151815260200191508051906020019080838360005b83811015610bd7578082015181840152602081019050610bbc565b50505050905090810190601f168015610c045780820380516001836020036101000a031916815260200191505b509250505060405180910390f35b610c1a6126e9565b005b610c4860048036036020811015610c3257600080fd5b81019080803590602001909291905050506128e3565b6040518082815260200191505060405180910390f35b610c9460048036036040811015610c7457600080fd5b8101908080359060200190929190803590602001909291905050506128fb565b005b610c9e612a6e565b6040518082815260200191505060405180910390f35b610e9b60048036036060811015610cca57600080fd5b8101908080359060200190640100000000811115610ce757600080fd5b820183602082011115610cf957600080fd5b80359060200191846001830284011164010000000083111715610d1b57600080fd5b91908080601f016020809104026020016040519081016040528093929190818152602001838380828437600081840152601f19601f82011690508083019250505050505050919291929080359060200190640100000000811115610d7e57600080fd5b820183602082011115610d9057600080fd5b80359060200191846001830284011164010000000083111715610db257600080fd5b91908080601f016020809104026020016040519081016040528093929190818152602001838380828437600081840152601f19601f82011690508083019250505050505050919291929080359060200190640100000000811115610e1557600080fd5b820183602082011115610e2757600080fd5b80359060200191846001830284011164010000000083111715610e4957600080fd5b91908080601f016020809104026020016040519081016040528093929190818152602001838380828437600081840152601f19601f820116905080830192505050505050509192919290505050612a74565b6040518082815260200191505060405180910390f35b610ee760048036036040811015610ec757600080fd5b810190808035906020019092919080359060200190929190505050612c81565b005b610f1f60048036036040811015610eff57600080fd5b810190808035906020019092919080359060200190929190505050612df4565b005b610f4d60048036036020811015610f3757600080fd5b8101908080359060200190929190505050612f67565b6040518082815260200191505060405180910390f35b61114a60048036036060811015610f7957600080fd5b8101908080359060200190640100000000811115610f9657600080fd5b820183602082011115610fa857600080fd5b80359060200191846001830284011164010000000083111715610fca57600080fd5b91908080601f016020809104026020016040519081016040528093929190818152602001838380828437600081840152601f19601f8201169050808301925050505050505091929192908035906020019064010000000081111561102d57600080fd5b82018360208201111561103f57600080fd5b8035906020019184600183028401116401000000008311171561106157600080fd5b91908080601f016020809104026020016040519081016040528093929190818152602001838380828437600081840152601f19601f820116905080830192505050505050509192919290803590602001906401000000008111156110c457600080fd5b8201836020820111156110d657600080fd5b803590602001918460018302840111640100000000831117156110f857600080fd5b91908080601f016020809104026020016040519081016040528093929190818152602001838380828437600081840152601f19601f820116905080830192505050505050509192919290505050612f87565b6040518082815260200191505060405180910390f35b61118c6004803603602081101561117657600080fd5b8101908080359060200190929190505050613194565b604051808681526020018581526020018481526020018381526020018281526020019550505050505060405180910390f35b6111ea600480360360208110156111d457600080fd5b81019080803590602001909291905050506131ca565b6040518082815260200191505060405180910390f35b61122c6004803603602081101561121657600080fd5b81019080803590602001909291905050506131ea565b6040518082815260200191505060405180910390f35b600060066000838152602001908152602001600020600001549050919050565b60608083905060608390506060815183510167ffffffffffffffff8111801561128a57600080fd5b506040519080825280601f01601f1916602001820160405280156112bd5781602001600182028036833780820191505090505b5090506060819050600080905060008090505b855181101561133e578581815181106112e557fe5b602001015160f81c60f81b83838060010194508151811061130257fe5b60200101907effffffffffffffffffffffffffffffffffffffffffffffffffffffffffffff1916908160001a90535080806001019150506112d0565b5060008090505b84518110156113b35784818151811061135a57fe5b602001015160f81c60f81b83838060010194508151811061137757fe5b60200101907effffffffffffffffffffffffffffffffffffffffffffffffffffffffffffff1916908160001a9053508080600101915050611345565b50829550505050505092915050565b600060066000838152602001908152602001600020600201549050919050565b60006113ec613c51565b611400600a543063eb9f534760e01b61320a565b905061144c6040518060400160405280600381526020017f6765740000000000000000000000000000000000000000000000000000000000815250858361323b9092919063ffffffff16565b6060600467ffffffffffffffff8111801561146657600080fd5b5060405190808252806020026020018201604052801561149a57816020015b60608152602001906001900390816114855790505b5090506040518060400160405280600481526020017f4461746100000000000000000000000000000000000000000000000000000000815250816000815181106114e057fe5b602002602001018190525085816001815181106114f957fe5b60200260200101819052506040518060400160405280600881526020017f436f696e496e666f0000000000000000000000000000000000000000000000008152508160028151811061154757fe5b6020026020010181905250838160038151811061156057fe5b60200260200101819052506115b56040518060400160405280600481526020017f7061746800000000000000000000000000000000000000000000000000000000815250828461326e9092919063ffffffff16565b6115e4600960009054906101000a900473ffffffffffffffffffffffffffffffffffffffff1683600b546132eb565b925050509392505050565b816005600082815260200190815260200160002060009054906101000a900473ffffffffffffffffffffffffffffffffffffffff1673ffffffffffffffffffffffffffffffffffffffff163373ffffffffffffffffffffffffffffffffffffffff16146116a7576040517f08c379a0000000000000000000000000000000000000000000000000000000008152600401808060200182810382526028815260200180613de86028913960400191505060405180910390fd5b6005600082815260200190815260200160002060006101000a81549073ffffffffffffffffffffffffffffffffffffffff0219169055807f7cc135e0cebb02c3480ae5d74d377283180a2601f8f644edf7987b009316c63a60405160405180910390a28160066000600860006001815260200190815260200160002054815260200190815260200160002060000181905550600860006001815260200190815260200160002060008154809291906001019190505550505050565b6060600082905060005b6000821461178e578080600101915050600a828161178657fe5b04915061176c565b60608167ffffffffffffffff811180156117a757600080fd5b506040519080825280601f01601f1916602001820160405280156117da5781602001600182028036833780820191505090505b50905060008290505b6000861461185f576001810390506000600a8088816117fe57fe5b04028703603001905060008160f81b90508084848151811061181c57fe5b60200101907effffffffffffffffffffffffffffffffffffffffffffffffffffffffffffff1916908160001a905350600a888161185557fe5b04975050506117e3565b81945050505050919050565b60016008600060018152602001908152602001600020819055506001600860006002815260200190815260200160002081905550600160086000600381526020019081526020016000208190555060016008600060048152602001908152602001600020819055506001600860006005815260200190815260200160002081905550611917604051806080016040528060478152602001613d7e6047913961191283611762565b611262565b600d908051906020019061192c929190613cbe565b5060008090505b8181121561200a57611a9461194782611762565b600d8054600181600116156101000203166002900480601f0160208091040260200160405190810160405280929190818152602001828054600181600116156101000203166002900480156119dd5780601f106119b2576101008083540402835291602001916119dd565b820191906000526020600020905b8154815290600101906020018083116119c057829003601f168201915b505050505060076000600181526020019081526020016000208054600181600116156101000203166002900480601f016020809104026020016040519081016040528092919081815260200182805460018160011615610100020316600290048015611a8a5780601f10611a5f57610100808354040283529160200191611a8a565b820191906000526020600020905b815481529060010190602001808311611a6d57829003601f168201915b5050505050612231565b50611bee611aa182611762565b600d8054600181600116156101000203166002900480601f016020809104026020016040519081016040528092919081815260200182805460018160011615610100020316600290048015611b375780601f10611b0c57610100808354040283529160200191611b37565b820191906000526020600020905b815481529060010190602001808311611b1a57829003601f168201915b505050505060076000600281526020019081526020016000208054600181600116156101000203166002900480601f016020809104026020016040519081016040528092919081815260200182805460018160011615610100020316600290048015611be45780601f10611bb957610100808354040283529160200191611be4565b820191906000526020600020905b815481529060010190602001808311611bc757829003601f168201915b505050505061243e565b50611d48611bfb82611762565b600d8054600181600116156101000203166002900480601f016020809104026020016040519081016040528092919081815260200182805460018160011615610100020316600290048015611c915780601f10611c6657610100808354040283529160200191611c91565b820191906000526020600020905b815481529060010190602001808311611c7457829003601f168201915b505050505060076000600381526020019081526020016000208054600181600116156101000203166002900480601f016020809104026020016040519081016040528092919081815260200182805460018160011615610100020316600290048015611d3e5780601f10611d1357610100808354040283529160200191611d3e565b820191906000526020600020905b815481529060010190602001808311611d2157829003601f168201915b5050505050612f87565b50611ea2611d5582611762565b600d8054600181600116156101000203166002900480601f016020809104026020016040519081016040528092919081815260200182805460018160011615610100020316600290048015611deb5780601f10611dc057610100808354040283529160200191611deb565b820191906000526020600020905b815481529060010190602001808311611dce57829003601f168201915b505050505060076000600481526020019081526020016000208054600181600116156101000203166002900480601f016020809104026020016040519081016040528092919081815260200182805460018160011615610100020316600290048015611e985780601f10611e6d57610100808354040283529160200191611e98565b820191906000526020600020905b815481529060010190602001808311611e7b57829003601f168201915b5050505050612a74565b50611ffc611eaf82611762565b600d8054600181600116156101000203166002900480601f016020809104026020016040519081016040528092919081815260200182805460018160011615610100020316600290048015611f455780601f10611f1a57610100808354040283529160200191611f45565b820191906000526020600020905b815481529060010190602001808311611f2857829003601f168201915b505050505060076000600581526020019081526020016000208054600181600116156101000203166002900480601f016020809104026020016040519081016040528092919081815260200182805460018160011615610100020316600290048015611ff25780601f10611fc757610100808354040283529160200191611ff2565b820191906000526020600020905b815481529060010190602001808311611fd557829003601f168201915b50505050506113e2565b508080600101915050611933565b5050565b60076020528060005260406000206000915090508054600181600116156101000203166002900480601f0160208091040260200160405190810160405280929190818152602001828054600181600116156101000203166002900480156120b65780601f1061208b576101008083540402835291602001916120b6565b820191906000526020600020905b81548152906001019060200180831161209957829003601f168201915b505050505081565b816005600082815260200190815260200160002060009054906101000a900473ffffffffffffffffffffffffffffffffffffffff1673ffffffffffffffffffffffffffffffffffffffff163373ffffffffffffffffffffffffffffffffffffffff1614612176576040517f08c379a0000000000000000000000000000000000000000000000000000000008152600401808060200182810382526028815260200180613de86028913960400191505060405180910390fd5b6005600082815260200190815260200160002060006101000a81549073ffffffffffffffffffffffffffffffffffffffff0219169055807f7cc135e0cebb02c3480ae5d74d377283180a2601f8f644edf7987b009316c63a60405160405180910390a28160066000600860006004815260200190815260200160002054815260200190815260200160002060030181905550600860006004815260200190815260200160002060008154809291906001019190505550505050565b600061223b613c51565b61224f600a5430632290b49e60e01b61320a565b905061229b6040518060400160405280600381526020017f6765740000000000000000000000000000000000000000000000000000000000815250858361323b9092919063ffffffff16565b6060600467ffffffffffffffff811180156122b557600080fd5b506040519080825280602002602001820160405280156122e957816020015b60608152602001906001900390816122d45790505b5090506040518060400160405280600481526020017f44617461000000000000000000000000000000000000000000000000000000008152508160008151811061232f57fe5b6020026020010181905250858160018151811061234857fe5b60200260200101819052506040518060400160405280600881526020017f436f696e496e666f0000000000000000000000000000000000000000000000008152508160028151811061239657fe5b602002602001018190525083816003815181106123af57fe5b60200260200101819052506124046040518060400160405280600481526020017f7061746800000000000000000000000000000000000000000000000000000000815250828461326e9092919063ffffffff16565b612433600960009054906101000a900473ffffffffffffffffffffffffffffffffffffffff1683600b546132eb565b925050509392505050565b6000612448613c51565b61245c600a543063a037f7d060e01b61320a565b90506124a86040518060400160405280600381526020017f6765740000000000000000000000000000000000000000000000000000000000815250858361323b9092919063ffffffff16565b6060600467ffffffffffffffff811180156124c257600080fd5b506040519080825280602002602001820160405280156124f657816020015b60608152602001906001900390816124e15790505b5090506040518060400160405280600481526020017f44617461000000000000000000000000000000000000000000000000000000008152508160008151811061253c57fe5b6020026020010181905250858160018151811061255557fe5b60200260200101819052506040518060400160405280600881526020017f436f696e496e666f000000000000000000000000000000000000000000000000815250816002815181106125a357fe5b602002602001018190525083816003815181106125bc57fe5b60200260200101819052506126116040518060400160405280600481526020017f7061746800000000000000000000000000000000000000000000000000000000815250828461326e9092919063ffffffff16565b612640600960009054906101000a900473ffffffffffffffffffffffffffffffffffffffff1683600b546132eb565b925050509392505050565b600d8054600181600116156101000203166002900480601f0160208091040260200160405190810160405280929190818152602001828054600181600116156101000203166002900480156126e15780601f106126b6576101008083540402835291602001916126e1565b820191906000526020600020905b8154815290600101906020018083116126c457829003601f168201915b505050505081565b60006126f36135a3565b90508073ffffffffffffffffffffffffffffffffffffffff1663a9059cbb338373ffffffffffffffffffffffffffffffffffffffff166370a08231306040518263ffffffff1660e01b8152600401808273ffffffffffffffffffffffffffffffffffffffff1673ffffffffffffffffffffffffffffffffffffffff16815260200191505060206040518083038186803b15801561278f57600080fd5b505afa1580156127a3573d6000803e3d6000fd5b505050506040513d60208110156127b957600080fd5b81019080805190602001909291905050506040518363ffffffff1660e01b8152600401808373ffffffffffffffffffffffffffffffffffffffff1673ffffffffffffffffffffffffffffffffffffffff16815260200182815260200192505050602060405180830381600087803b15801561283357600080fd5b505af1158015612847573d6000803e3d6000fd5b505050506040513d602081101561285d57600080fd5b81019080805190602001909291905050506128e0576040517f08c379a00000000000000000000000000000000000000000000000000000000081526004018080602001828103825260128152602001807f556e61626c6520746f207472616e73666572000000000000000000000000000081525060200191505060405180910390fd5b50565b60086020528060005260406000206000915090505481565b816005600082815260200190815260200160002060009054906101000a900473ffffffffffffffffffffffffffffffffffffffff1673ffffffffffffffffffffffffffffffffffffffff163373ffffffffffffffffffffffffffffffffffffffff16146129b3576040517f08c379a0000000000000000000000000000000000000000000000000000000008152600401808060200182810382526028815260200180613de86028913960400191505060405180910390fd5b6005600082815260200190815260200160002060006101000a81549073ffffffffffffffffffffffffffffffffffffffff0219169055807f7cc135e0cebb02c3480ae5d74d377283180a2601f8f644edf7987b009316c63a60405160405180910390a28160066000600860006002815260200190815260200160002054815260200190815260200160002060010181905550600860006002815260200190815260200160002060008154809291906001019190505550505050565b600c5481565b6000612a7e613c51565b612a92600a54306358bbf87660e01b61320a565b9050612ade6040518060400160405280600381526020017f6765740000000000000000000000000000000000000000000000000000000000815250858361323b9092919063ffffffff16565b6060600467ffffffffffffffff81118015612af857600080fd5b50604051908082528060200260200182016040528015612b2c57816020015b6060815260200190600190039081612b175790505b5090506040518060400160405280600481526020017f446174610000000000000000000000000000000000000000000000000000000081525081600081518110612b7257fe5b60200260200101819052508581600181518110612b8b57fe5b60200260200101819052506040518060400160405280600881526020017f436f696e496e666f00000000000000000000000000000000000000000000000081525081600281518110612bd957fe5b60200260200101819052508381600381518110612bf257fe5b6020026020010181905250612c476040518060400160405280600481526020017f7061746800000000000000000000000000000000000000000000000000000000815250828461326e9092919063ffffffff16565b612c76600960009054906101000a900473ffffffffffffffffffffffffffffffffffffffff1683600b546132eb565b925050509392505050565b816005600082815260200190815260200160002060009054906101000a900473ffffffffffffffffffffffffffffffffffffffff1673ffffffffffffffffffffffffffffffffffffffff163373ffffffffffffffffffffffffffffffffffffffff1614612d39576040517f08c379a0000000000000000000000000000000000000000000000000000000008152600401808060200182810382526028815260200180613de86028913960400191505060405180910390fd5b6005600082815260200190815260200160002060006101000a81549073ffffffffffffffffffffffffffffffffffffffff0219169055807f7cc135e0cebb02c3480ae5d74d377283180a2601f8f644edf7987b009316c63a60405160405180910390a28160066000600860006003815260200190815260200160002054815260200190815260200160002060020181905550600860006003815260200190815260200160002060008154809291906001019190505550505050565b816005600082815260200190815260200160002060009054906101000a900473ffffffffffffffffffffffffffffffffffffffff1673ffffffffffffffffffffffffffffffffffffffff163373ffffffffffffffffffffffffffffffffffffffff1614612eac576040517f08c379a0000000000000000000000000000000000000000000000000000000008152600401808060200182810382526028815260200180613de86028913960400191505060405180910390fd5b6005600082815260200190815260200160002060006101000a81549073ffffffffffffffffffffffffffffffffffffffff0219169055807f7cc135e0cebb02c3480ae5d74d377283180a2601f8f644edf7987b009316c63a60405160405180910390a28160066000600860006005815260200190815260200160002054815260200190815260200160002060040181905550600860006005815260200190815260200160002060008154809291906001019190505550505050565b600060066000838152602001908152602001600020600301549050919050565b6000612f91613c51565b612fa5600a543063d4dad88d60e01b61320a565b9050612ff16040518060400160405280600381526020017f6765740000000000000000000000000000000000000000000000000000000000815250858361323b9092919063ffffffff16565b6060600467ffffffffffffffff8111801561300b57600080fd5b5060405190808252806020026020018201604052801561303f57816020015b606081526020019060019003908161302a5790505b5090506040518060400160405280600481526020017f44617461000000000000000000000000000000000000000000000000000000008152508160008151811061308557fe5b6020026020010181905250858160018151811061309e57fe5b60200260200101819052506040518060400160405280600881526020017f436f696e496e666f000000000000000000000000000000000000000000000000815250816002815181106130ec57fe5b6020026020010181905250838160038151811061310557fe5b602002602001018190525061315a6040518060400160405280600481526020017f7061746800000000000000000000000000000000000000000000000000000000815250828461326e9092919063ffffffff16565b613189600960009054906101000a900473ffffffffffffffffffffffffffffffffffffffff1683600b546132eb565b925050509392505050565b60066020528060005260406000206000915090508060000154908060010154908060020154908060030154908060040154905085565b600060066000838152602001908152602001600020600401549050919050565b600060066000838152602001908152602001600020600101549050919050565b613212613c51565b61321a613c51565b613231858585846135cd909392919063ffffffff16565b9150509392505050565b61325282846080015161367d90919063ffffffff16565b61326981846080015161367d90919063ffffffff16565b505050565b61328582846080015161367d90919063ffffffff16565b61329283608001516136a2565b60008090505b81518110156132d8576132cb8282815181106132b057fe5b6020026020010151856080015161367d90919063ffffffff16565b8080600101915050613298565b506132e683608001516136b0565b505050565b600030600454604051602001808373ffffffffffffffffffffffffffffffffffffffff1673ffffffffffffffffffffffffffffffffffffffff1660601b815260140182815260200192505050604051602081830303815290604052805190602001209050600454836060018181525050836005600083815260200190815260200160002060006101000a81548173ffffffffffffffffffffffffffffffffffffffff021916908373ffffffffffffffffffffffffffffffffffffffff160217905550807fb5e6e01e79f91267dc17b4e6314d5d4d03593d2ceee0fbb452b750bd70ea5af960405160405180910390a2600260009054906101000a900473ffffffffffffffffffffffffffffffffffffffff1673ffffffffffffffffffffffffffffffffffffffff16634000aea08584613423876136be565b6040518463ffffffff1660e01b8152600401808473ffffffffffffffffffffffffffffffffffffffff1673ffffffffffffffffffffffffffffffffffffffff16815260200183815260200180602001828103825283818151815260200191508051906020019080838360005b838110156134aa57808201518184015260208101905061348f565b50505050905090810190601f1680156134d75780820380516001836020036101000a031916815260200191505b50945050505050602060405180830381600087803b1580156134f857600080fd5b505af115801561350c573d6000803e3d6000fd5b505050506040513d602081101561352257600080fd5b8101908080519060200190929190505050613588576040517f08c379a0000000000000000000000000000000000000000000000000000000008152600401808060200182810382526023815260200180613dc56023913960400191505060405180910390fd5b60016004600082825401925050819055508090509392505050565b6000600260009054906101000a900473ffffffffffffffffffffffffffffffffffffffff16905090565b6135d5613c51565b6135e5856080015161010061388a565b508385600001818152505082856020019073ffffffffffffffffffffffffffffffffffffffff16908173ffffffffffffffffffffffffffffffffffffffff16815250508185604001907bffffffffffffffffffffffffffffffffffffffffffffffffffffffff191690817bffffffffffffffffffffffffffffffffffffffffffffffffffffffff191681525050849050949350505050565b61368a82600383516138de565b61369d8183613a2390919063ffffffff16565b505050565b6136ad816004613a45565b50565b6136bb816007613a45565b50565b6060634042994660e01b60008084600001518560200151866040015187606001516001896080015160000151604051602401808973ffffffffffffffffffffffffffffffffffffffff1673ffffffffffffffffffffffffffffffffffffffff1681526020018881526020018781526020018673ffffffffffffffffffffffffffffffffffffffff1673ffffffffffffffffffffffffffffffffffffffff168152602001857bffffffffffffffffffffffffffffffffffffffffffffffffffffffff19167bffffffffffffffffffffffffffffffffffffffffffffffffffffffff1916815260200184815260200183815260200180602001828103825283818151815260200191508051906020019080838360005b838110156137ed5780820151818401526020810190506137d2565b50505050905090810190601f16801561381a5780820380516001836020036101000a031916815260200191505b509950505050505050505050604051602081830303815290604052907bffffffffffffffffffffffffffffffffffffffffffffffffffffffff19166020820180517bffffffffffffffffffffffffffffffffffffffffffffffffffffffff83818316178352505050509050919050565b613892613d3e565b60006020838161389e57fe5b06146138b757602082816138ae57fe5b06602003820191505b81836020018181525050604051808452600081528281016020016040525082905092915050565b6017811161390b576139058160058460ff16901b60ff161784613a6790919063ffffffff16565b50613a1e565b60ff811161394d57613930601860058460ff16901b1784613a6790919063ffffffff16565b5061394781600185613a879092919063ffffffff16565b50613a1d565b61ffff811161399057613973601960058460ff16901b1784613a6790919063ffffffff16565b5061398a81600285613a879092919063ffffffff16565b50613a1c565b63ffffffff81116139d5576139b8601a60058460ff16901b1784613a6790919063ffffffff16565b506139cf81600485613a879092919063ffffffff16565b50613a1b565b67ffffffffffffffff8111613a1a57613a01601b60058460ff16901b1784613a6790919063ffffffff16565b50613a1881600885613a879092919063ffffffff16565b505b5b5b5b5b505050565b613a2b613d3e565b613a3d83846000015151848551613aa9565b905092915050565b613a62601f60058360ff16901b1783613a6790919063ffffffff16565b505050565b613a6f613d3e565b613a7f8384600001515184613b62565b905092915050565b613a8f613d3e565b613aa0848560000151518585613bb0565b90509392505050565b613ab1613d3e565b8251821115613abf57600080fd5b84602001518285011115613aea57613ae9856002613ae38860200151888701613c11565b02613c2d565b5b600080865180518760208301019350808887011115613b095787860182525b60208701925050505b60208410613b355780518252602082019150602081019050602084039350613b12565b60006001856020036101000a03905080198251168184511681811785525050879350505050949350505050565b613b6a613d3e565b83602001518310613b8757613b86846002866020015102613c2d565b5b8351805160208583010184815381861415613ba3576001820183525b5050508390509392505050565b613bb8613d3e565b84602001518483011115613bd657613bd585600286850102613c2d565b5b60006001836101000a0390508551838682010185831982511617815281518588011115613c035784870182525b505085915050949350505050565b600081831115613c2357829050613c27565b8190505b92915050565b606082600001519050613c40838361388a565b50613c4b8382613a23565b50505050565b6040518060a0016040528060008019168152602001600073ffffffffffffffffffffffffffffffffffffffff16815260200160007bffffffffffffffffffffffffffffffffffffffffffffffffffffffff1916815260200160008152602001613cb8613d3e565b81525090565b828054600181600116156101000203166002900490600052602060002090601f016020900481019282601f10613cff57805160ff1916838001178555613d2d565b82800160010185558215613d2d579182015b82811115613d2c578251825591602001919060010190613d11565b5b509050613d3a9190613d58565b5090565b604051806040016040528060608152602001600081525090565b613d7a91905b80821115613d76576000816000905550600101613d5e565b5090565b9056fe68747470733a2f2f6d696e2d6170692e63727970746f636f6d706172652e636f6d2f646174612f746f702f746f74616c766f6c66756c6c3f7473796d3d555344266c696d69743d756e61626c6520746f207472616e73666572416e6443616c6c20746f206f7261636c65536f75726365206d75737420626520746865206f7261636c65206f66207468652072657175657374a26469706673582212209e634647aea8d5c306daf15abda8507665b031e56b748218b12b95d27130ed6264736f6c63430006060033",
  "immutableReferences": {},
  "source": "// This example code is designed to quickly deploy an example contract using Remix.\n// SPDX-License-Identifier: GPL-3.0\n\npragma solidity ^0.6.0;\n\nimport \"@chainlink/contracts/src/v0.6/ChainlinkClient.sol\";\n\ncontract getCurrencyList is ChainlinkClient {\n\n    struct CurrencyList{\n         bytes32 name;\n         bytes32 fullName;\n         bytes32 overviewUrl;\n         bytes32 assetLaunchDate;\n         bytes32 logoUrl;\n         //bytes currencyIntro;\n    }\n\n    mapping (int256 => CurrencyList) public currencyList;\n    mapping (int256 => string) public infoList;\n    mapping (int256 => int256) public dataCount;\n\n    address private oracle;\n    bytes32 private jobId;\n    uint256 private fee;\n    bytes32 public currencyData;\n    string public apiUrl;\n\n\n\n    /*\n     * Network: Polygon\n     * JobsId(Get -> bytes32) - 92bc82fdc9824a71a2721cb5f00b8e35\n     * Node - 0xb33D8A4e62236eA91F3a8fD7ab15A95B9B7eEc7D\n     * ChainlinkToken - 0x326C977E6efc84E512bB9C30f76E30c160eD06FB\n     * Fee: 0.1 LINK\n     */\n    constructor() public {\n        setChainlinkToken(0x326C977E6efc84E512bB9C30f76E30c160eD06FB);\n        oracle = 0xb33D8A4e62236eA91F3a8fD7ab15A95B9B7eEc7D;\n        jobId = \"92bc82fdc9824a71a2721cb5f00b8e35\";\n        fee = 0.1 * 10 ** 18; // 0.1 LINK\n\n        infoList[1]=\"Name\";\n        infoList[2]=\"FullName\";\n        infoList[3]=\"Url\";\n        infoList[4]=\"AssetLaunchDate\";\n        infoList[5]=\"ImageUrl\";\n\n        currencyList[1].name = bytes32(\"AVT\");\n        currencyList[1].fullName = bytes32(\"Aventus\");\n        currencyList[1].overviewUrl = bytes32(\"/coins/avt/overview\");\n        currencyList[1].assetLaunchDate = bytes32(\"2017-09-03\");\n        currencyList[1].logoUrl = bytes32(\"/media/37746592/avt.png\");\n        //currencyList[1].currencyIntro = bytes(\"Aventus is a layer-2 blockchain protocol designed to bring scalability, lower costs, and speed to Ethereum transactions.The Aventus Network (AvN) let businesses build on top of the Ethereum network with Aventus second-layer protocol. With the AvN, applications can easily work with any other promising blockchain tech, cross-chain, by plugging into the Polkadot ecosystem, building on Substrate.Benefits of AventusScaleThe Aventus Network (AvN) can theoretically scale to 2,000 transactions per second.PriceThe average transaction cost on the Aventus Network will begin at just $0.01 (paid in AVT) and decrease over time.SpeedThe AvN will process a token transfer within 0.13 seconds.Enterprise GradeThe AvN will onboard a minimum of 8.5 million client transactions that have been active in private test networks throughout the past year.Key Use CasesFinancial AssetsSupply ChainsRewards and LoyaltyLive EntertainmentData IntegrityDecentralised Applications\");\n\n        currencyList[2].name = bytes32(\"BTC\");\n        currencyList[2].fullName = bytes32(\"Bitcoin\");\n        currencyList[2].overviewUrl = bytes32(\"/coins/btc/overview\");\n        currencyList[2].assetLaunchDate = bytes32(\"2009-01-03\");\n        currencyList[2].logoUrl = bytes32(\"/media/37746251/btc.png\");\n        //currencyList[2].currencyIntro = bytes(\"Bitcoin uses peer-to-peer technology to operate with no central authority or banks; managing transactions and the issuing of bitcoins is carried out collectively by the network. Although other cryptocurrencies have come before, Bitcoin is the first decentralized cryptocurrency - Its reputation has spawned copies and evolution in the space.With the largest variety of markets and the biggest value - having reached a peak of 318 billion USD - Bitcoin is here to stay. As with any new invention, there can be improvements or flaws in the initial model however the community and a team of dedicated developers are pushing to overcome any obstacle they come across. It is also the most traded cryptocurrency and one of the main entry points for all the other cryptocurrencies. The price is as unstable as always and it can go up or down by 10%-20% in a single day.Bitcoin is an SHA-256 POW coin with almost 21,000,000 total minable coins. The block time is 10 minutes. See below for a full range of Bitcoin markets where you can trade US Dollars for Bitcoin, crypto to Bitcoin and many other fiat currencies too.Bitcoin Whitepaper PDF - A Peer-to-Peer Electronic Cash SystemBlockchain data provided by: Blockchain (main source), Blockchair (backup)\");\n\n        currencyList[3].name = bytes32(\"BTT\");\n        currencyList[3].fullName = bytes32(\"BitTorrent\");\n        currencyList[3].overviewUrl = bytes32(\"/coins/btt/overview\");\n        currencyList[3].assetLaunchDate = bytes32(\"2019-01-28\");\n        currencyList[3].logoUrl = bytes32(\"/media/37746134/bttpng.png\");\n        //currencyList[3].currencyIntro = bytes(\"BitTorrent Protocol is a decentralized protocol with over 1 billion users. BitTorrent Inc. invented and maintains the BitTorrent protocol. While there are many implementations of the BitTorrent software, BitTorrent and Torrent (often called utorrent) remain two of the most popular. In 2018, BitTorrent Protocol reached a strategic partnership with TRON Blockchain Protocol. On July 24, 2018 TRON has successfully acquired BitTorrent and all BitTorrent products.BitTorrent (BTT) the token is a TRC-10 utility token based on the TRON blockchain to foster faster speed on the worlds largest decentralized application.\");\n\n        currencyList[4].name = bytes32(\"ETH\");\n        currencyList[4].fullName = bytes32(\"Ethereum\");\n        currencyList[4].overviewUrl = bytes32(\"/coins/eth/overview\");\n        currencyList[4].assetLaunchDate = bytes32(\"2015-07-30\");\n        currencyList[4].logoUrl = bytes32(\"/media/37746238/eth.png\");\n        //currencyList[4].currencyIntro = bytes(\"Ethereum is a decentralized platform that runs smart contracts: applications that run exactly as programmed without any possibility of downtime, censorship, fraud or third party interference. In the Ethereum protocol and blockchain there is a price for each operation. The general idea is, in order to have things transferred or executed by the network, you have to consume or burn Gas.\");\n\n        currencyList[5].name = bytes32(\"TRX\");\n        currencyList[5].fullName = bytes32(\"TRON\");\n        currencyList[5].overviewUrl = bytes32(\"/coins/trx/overview\");\n        currencyList[5].assetLaunchDate = bytes32(\"2017-09-26\");\n        currencyList[5].logoUrl = bytes32(\"/media/37746152/trxjpg.png\");\n        //currencyList[5].currencyIntro = bytes(\"TRON is a cryptocurrency payment platform. It allows the users to perform cryptocurrencies transactions between them on a global scale within a decentralized ecosystem. TRON has finished its native token (TRX) migration to the mainnet. In addition, users can access the platform digital wallet, the TRON Wallet where it is possible to store and manage their digital assets, with support for desktop and mobile devices. Since July 24th, 2018, TRON acquired BitTorrent Inc. which is an Internet technology company based in San Francisco. It designs distributed technologies that scale efficiently, keep intelligence at the edge, and keep creators and consumers in control of their content and data.The TRX token is a cryptographic currency developed by TRON. Formerly an ERC-20 token, the TRX has now finished its migration to the TRON mainnet. This token is the medium for the users to exchange value between them when using the platform services.Whitepaper\");\n\n        currencyList[6].name = bytes32(\"XRP\");\n        currencyList[6].fullName = bytes32(\"XRP\");\n        currencyList[6].overviewUrl = bytes32(\"/coins/xrp/overview\");\n        currencyList[6].assetLaunchDate = bytes32(\"2013-01-01\");\n        currencyList[6].logoUrl = bytes32(\"/media/37746347/xrp.png\");\n        //currencyList[6].currencyIntro = bytes(\"XRP positions itself as one of the most liquid currencies which is fast (settles in 3-5 seconds), scalable (can handle 1,500 transactions per second), decentralized (140+ validators), stable (7-year track record) and with a negligible energy consumption (due to the consensus protocol vs proof-of-work). XRP is a distributed network which means transactions occur immediately across the network - and as it is peer to peer - the network is resilient to systemic risk. XRPs aren&#39;t mined - unlike bitcoin and its peers - but each transaction destroys a small amount of XRP which adds a deflationary measure into the system.Blockchain data provided by: Blockchair (Block/Ledgers Number only), Ripple Data API (Total Supply only)\");\n\n        currencyList[7].name = bytes32(\"WRX\");\n        currencyList[7].fullName = bytes32(\"WazirX\");\n        currencyList[7].overviewUrl = bytes32(\"/coins/wrx/overview\");\n        currencyList[7].assetLaunchDate = bytes32(\"2020-01-21\");\n        currencyList[7].logoUrl = bytes32(\"/media/37746094/wrx.png\");\n        //currencyList[7].currencyIntro = bytes(\"WRX, a utility token backed by WazirX, forms the backbone of the WazirX ecosystem. It launched WRX tokens to involve its community in helping build out WazirX, and reward them accordingly for contributing to success. This helps WazirX stay true to the ethos of cryptocurrency and blockchain - to share the rewards of WazirX&#39;s success with its early adopters and supporters.\");\n\n        currencyList[8].name = bytes32(\"WIN\");\n        currencyList[8].fullName = bytes32(\"WINk\");\n        currencyList[8].overviewUrl = bytes32(\"/coins/win/overview\");\n        currencyList[8].assetLaunchDate = bytes32(\"2019-07-29\");\n        currencyList[8].logoUrl = bytes32(\"/media/35651255/win.png\");\n        //currencyList[8].currencyIntro = bytes(\"By creating a whole mining ecosystem, WINk will revolutionize the way that developers adopt the blockchain ecosystem while keeping wealth redistribution at its core. WIN will continue to be the centerpiece of the platform while developers will be able to utilize everything the WINk ecosystem has to offer. By taking behavioral mining to the next level, traditional apps will now have all the resources at their disposal to convert their apps to the TRON blockchain.\");\n\n        currencyList[9].name = bytes32(\"BNB\");\n        currencyList[9].fullName = bytes32(\"Binance Coin\");\n        currencyList[9].overviewUrl = bytes32(\"/coins/bnb/overview\");\n        currencyList[9].assetLaunchDate = bytes32(\"2017-06-27\");\n        currencyList[9].logoUrl = bytes32(\"/media/37746250/bnb.png\");\n        //currencyList[9].currencyIntro = bytes(\"BNB powers the Binance ecosystem and is the native asset of the Binance Chain. BNB is a cryptocurrency created in June 2017, launched during an ICO in July, and initially issued as an ERC-20 token. Designed to be used for a fee reduction on the Binance exchange, its scope was extended over the years.BNB powers the Binance Chain as its native chain token. For instance, it is used to pay fees on the Binance DEX, issue new tokens, send/cancel orders, and transfer assets.BNB is also powering the Binance Smart Chain, which is an EVM-compatible network, forked from go-ethereum. It supports smart contracts and relies on a new consensus mechanism: Proof-of-Staked Authority (PoSA) consensus (Parlia), which incorporates elements from both Proof of Stake and Proof of Authority. BNB is used for delegated staking on the authority validator, leading to staking rewards for users and validators.Besides its on-chain functions, BNB has multiple additional use-cases such as fee discounts on multiple exchanges (e.g., Binance.com), payment asset on third-party services, and participation rights &amp; transacting currency on Binance Launchpad.At the core of the economics of BNB, there is a burn mechanism leading to period reductions in its total supply (~ every three months). From its initial maximum supply of 200 million, burns are expected to continue until the supply reaches 100 million.Whitepaper\");\n\n        currencyList[10].name = bytes32(\"EOS\");\n        currencyList[10].fullName = bytes32(\"EOS\");\n        currencyList[10].overviewUrl = bytes32(\"/coins/eos/overview\");\n        currencyList[10].assetLaunchDate = bytes32(\"2017-06-26\");\n        currencyList[10].logoUrl = bytes32(\"/media/37746349/eos.png\");\n        //currencyList[10].currencyIntro = bytes(\"EOS.IO is software that introduces a blockchain architecture designed to enable vertical and horizontal scaling of decentralized applications (the EOS.IO Software). This is achieved through an operating system-like construct upon which applications can be built. The software provides accounts, authentication, databases, asynchronous communication and the scheduling of applications across multiple CPU cores and/or clusters. The resulting technology is a blockchain architecture that has the potential to scale to millions of transactions per second, eliminates user fees and allows for quick and easy deployment of decentralized applications. For more information, please read the EOS.IO Technical White Paper.Blockexplorer: https://eospark.com/In the case of EOS, circulating supply and total supply are available but max supply is not available, which indicates that EOS supply is infinite. The current cap is 1 billion tokens, there will be an inflation of up to 5% per annum to reward the block producers and they may use these to sell or to invest back into EOS dapps.Blockchain data provided by: Blockchair (main source), Bloks.io (backup)\");\n\n    }\n\n\n    function addCurrency(int256 _currencyQuantity) public{\n\n        dataCount[1]=1;\n        dataCount[2]=1;\n        dataCount[3]=1;\n        dataCount[4]=1;\n        dataCount[5]=1;\n\n        apiUrl=stringAdd(\"https://min-api.cryptocompare.com/data/top/totalvolfull?tsym=USD&limit=\",intToString(uint(_currencyQuantity)));\n        for(int256 i=0;i<_currencyQuantity;i++){\n                requestName(intToString(uint(i)), apiUrl, infoList[1]);\n                requestFullName(intToString(uint(i)), apiUrl, infoList[2]);\n                requestUrl(intToString(uint(i)), apiUrl, infoList[3]);\n                requestAssetLaunchDate(intToString(uint(i)), apiUrl, infoList[4]);\n                requestImageUrl(intToString(uint(i)), apiUrl, infoList[5]);\n        }\n    }\n\n\n    function getCurrencyName(int256 _id) public view returns(bytes32){\n        return currencyList[_id].name;\n    }\n    function getCurrencyFullName(int256 _id) public view returns(bytes32){\n        return currencyList[_id].fullName;\n    }\n    function getCurrencyOverviewUrl(int256 _id) public view returns(bytes32){\n        return currencyList[_id].overviewUrl;\n    }\n    function getCurrencyAssetLaunchDate(int256 _id) public view returns(bytes32){\n        return currencyList[_id].assetLaunchDate;\n    }\n    function getCurrencyLogoUrl(int256 _id) public view returns(bytes32){\n        return currencyList[_id].logoUrl;\n    }\n    /*\n    function getCurrencyIntro(int256 _id) public view returns(bytes memory){\n        return currencyList[_id].currencyIntro;\n    }\n    */\n\n    /**\n     * Create a Chainlink request to retrieve API response, find the target\n     * data, then multiply by 1000000000000000000 (to remove decimal places from data).\n     */\n    function requestName(string memory _id, string memory _adiUrl, string memory _infoData) public returns (bytes32 requestId)\n    {\n        Chainlink.Request memory request = buildChainlinkRequest(jobId, address(this), this.fulfillName.selector);\n\n        request.add(\"get\", _adiUrl);\n\n        string[] memory path = new string[](4);\n        path[0] = \"Data\";\n        path[1] = _id;\n        path[2] = \"CoinInfo\";\n        path[3] = _infoData;\n        request.addStringArray(\"path\", path);\n\n        return sendChainlinkRequestTo(oracle, request, fee);\n    }\n    function requestFullName(string memory _id, string memory _adiUrl, string memory _infoData) public returns (bytes32 requestId)\n    {\n        Chainlink.Request memory request = buildChainlinkRequest(jobId, address(this), this.fulfillFullName.selector);\n\n        request.add(\"get\", _adiUrl);\n\n        string[] memory path = new string[](4);\n        path[0] = \"Data\";\n        path[1] = _id;\n        path[2] = \"CoinInfo\";\n        path[3] = _infoData;\n        request.addStringArray(\"path\", path);\n\n        return sendChainlinkRequestTo(oracle, request, fee);\n    }\n    function requestUrl(string memory _id, string memory _adiUrl, string memory _infoData) public returns (bytes32 requestId)\n    {\n        Chainlink.Request memory request = buildChainlinkRequest(jobId, address(this), this.fulfillUrl.selector);\n\n        request.add(\"get\", _adiUrl);\n\n        string[] memory path = new string[](4);\n        path[0] = \"Data\";\n        path[1] = _id;\n        path[2] = \"CoinInfo\";\n        path[3] = _infoData;\n        request.addStringArray(\"path\", path);\n\n        return sendChainlinkRequestTo(oracle, request, fee);\n    }\n    function requestAssetLaunchDate(string memory _id, string memory _adiUrl, string memory _infoData) public returns (bytes32 requestId)\n    {\n        Chainlink.Request memory request = buildChainlinkRequest(jobId, address(this), this.fulfillAssetLaunchDate.selector);\n\n        request.add(\"get\", _adiUrl);\n\n        string[] memory path = new string[](4);\n        path[0] = \"Data\";\n        path[1] = _id;\n        path[2] = \"CoinInfo\";\n        path[3] = _infoData;\n        request.addStringArray(\"path\", path);\n\n        return sendChainlinkRequestTo(oracle, request, fee);\n    }\n    function requestImageUrl(string memory _id, string memory _adiUrl, string memory _infoData) public returns (bytes32 requestId)\n    {\n        Chainlink.Request memory request = buildChainlinkRequest(jobId, address(this), this.fulfillImageUrl.selector);\n\n        request.add(\"get\", _adiUrl);\n\n        string[] memory path = new string[](4);\n        path[0] = \"Data\";\n        path[1] = _id;\n        path[2] = \"CoinInfo\";\n        path[3] = _infoData;\n        request.addStringArray(\"path\", path);\n\n        return sendChainlinkRequestTo(oracle, request, fee);\n    }\n\n\n    /**\n     * Receive the response in the form of uint256\n     */\n    function fulfillName(bytes32 _requestId, bytes32 _currencyData) public recordChainlinkFulfillment(_requestId)\n    {\n        currencyList[dataCount[1]].name = _currencyData;\n        dataCount[1]++;\n    }\n    function fulfillFullName(bytes32 _requestId, bytes32 _currencyData) public recordChainlinkFulfillment(_requestId)\n    {\n        currencyList[dataCount[2]].fullName = _currencyData;\n        dataCount[2]++;\n    }\n    function fulfillUrl(bytes32 _requestId, bytes32 _currencyData) public recordChainlinkFulfillment(_requestId)\n    {\n        currencyList[dataCount[3]].overviewUrl = _currencyData;\n        dataCount[3]++;\n    }\n    function fulfillAssetLaunchDate(bytes32 _requestId, bytes32 _currencyData) public recordChainlinkFulfillment(_requestId)\n    {\n        currencyList[dataCount[4]].assetLaunchDate = _currencyData;\n        dataCount[4]++;\n    }\n    function fulfillImageUrl(bytes32 _requestId, bytes32 _currencyData) public recordChainlinkFulfillment(_requestId)\n    {\n        currencyList[dataCount[5]].logoUrl = _currencyData;\n        dataCount[5]++;\n    }\n\n\n\n\n\n    function intToString(uint _i) public returns(string memory){\n        uint j = _i;\n        uint len;\n        while (j != 0) {\n            len++;\n            j /= 10;\n        }\n        bytes memory bstr = new bytes(len);\n        uint k = len;\n        while (_i != 0) {\n            k = k-1;\n            uint8 temp = (48 + uint8(_i - _i / 10 * 10));\n            bytes1 b1 = bytes1(temp);\n            bstr[k] = b1;\n            _i /= 10;\n        }\n        return string(bstr);\n    }\n\n\n    function stringAdd(string memory _strA, string memory _strB) public returns(string memory){\n        bytes memory _byteStrA = bytes(_strA);\n        bytes memory _byteStrB = bytes(_strB);\n        string memory fullString = new string(_byteStrA.length + _byteStrB.length);\n        bytes memory byteFullString = bytes(fullString);\n        uint k = 0;\n        for (uint i = 0; i < _byteStrA.length; i++) byteFullString[k++] = _byteStrA[i];\n        for (uint i = 0; i < _byteStrB.length; i++) byteFullString[k++] = _byteStrB[i];\n\n        return fullString;\n    }\n\n\n\n\n\n\n    /**\n     * Withdraw LINK from this contract\n     *\n     * NOTE: DO NOT USE THIS IN PRODUCTION AS IT CAN BE CALLED BY ANY ADDRESS.\n     * THIS IS PURELY FOR EXAMPLE PURPOSES ONLY.\n     */\n    function withdrawLink() external {\n        LinkTokenInterface linkToken = LinkTokenInterface(chainlinkTokenAddress());\n        require(linkToken.transfer(msg.sender, linkToken.balanceOf(address(this))), \"Unable to transfer\");\n    }\n}\n",
  "sourcePath": "/Users/adeleyu/projects/guess_get_gas/contracts/GetCurrencyList.sol",
  "compiler": {
    "name": "solc",
    "version": "0.6.6+commit.6c089d02.Emscripten.clang"
  },
  "schemaVersion": "3.3.3",
  "updatedAt": "2021-04-11T18:13:54.523Z",
  "devdoc": {
    "methods": {}
  },
  "userdoc": {
    "methods": {
      "fulfillName(bytes32,bytes32)": {
        "notice": "Receive the response in the form of uint256"
      },
      "requestName(string,string,string)": {
        "notice": "Create a Chainlink request to retrieve API response, find the target data, then multiply by 1000000000000000000 (to remove decimal places from data)."
      },
      "withdrawLink()": {
        "notice": "Withdraw LINK from this contract     * NOTE: DO NOT USE THIS IN PRODUCTION AS IT CAN BE CALLED BY ANY ADDRESS. THIS IS PURELY FOR EXAMPLE PURPOSES ONLY."
      }
    }
  }
}