{
  "contractName": "MakeQuestions",
  "abi": [
    {
      "inputs": [],
      "stateMutability": "nonpayable",
      "type": "constructor"
    },
    {
      "anonymous": false,
      "inputs": [
        {
          "indexed": true,
          "internalType": "bytes32",
          "name": "id",
          "type": "bytes32"
        }
      ],
      "name": "ChainlinkCancelled",
      "type": "event"
    },
    {
      "anonymous": false,
      "inputs": [
        {
          "indexed": true,
          "internalType": "bytes32",
          "name": "id",
          "type": "bytes32"
        }
      ],
      "name": "ChainlinkFulfilled",
      "type": "event"
    },
    {
      "anonymous": false,
      "inputs": [
        {
          "indexed": true,
          "internalType": "bytes32",
          "name": "id",
          "type": "bytes32"
        }
      ],
      "name": "ChainlinkRequested",
      "type": "event"
    },
    {
      "inputs": [
        {
          "internalType": "int256",
          "name": "",
          "type": "int256"
        }
      ],
      "name": "coinList",
      "outputs": [
        {
          "internalType": "bytes32",
          "name": "name",
          "type": "bytes32"
        },
        {
          "internalType": "bytes32",
          "name": "fullName",
          "type": "bytes32"
        },
        {
          "internalType": "bytes32",
          "name": "overviewUrl",
          "type": "bytes32"
        },
        {
          "internalType": "bytes32",
          "name": "assetLaunchDate",
          "type": "bytes32"
        },
        {
          "internalType": "bytes32",
          "name": "logoUrl",
          "type": "bytes32"
        }
      ],
      "stateMutability": "view",
      "type": "function"
    },
    {
      "inputs": [],
      "name": "coinQuantity",
      "outputs": [
        {
          "internalType": "int256",
          "name": "",
          "type": "int256"
        }
      ],
      "stateMutability": "view",
      "type": "function"
    },
    {
      "inputs": [
        {
          "internalType": "int256",
          "name": "",
          "type": "int256"
        }
      ],
      "name": "gameList",
      "outputs": [
        {
          "internalType": "int256",
          "name": "questionId",
          "type": "int256"
        },
        {
          "internalType": "int256",
          "name": "badgeTypeId",
          "type": "int256"
        },
        {
          "internalType": "uint256",
          "name": "revealTime",
          "type": "uint256"
        },
        {
          "internalType": "int256",
          "name": "lifeLengthId",
          "type": "int256"
        },
        {
          "internalType": "int256",
          "name": "propertyId",
          "type": "int256"
        },
        {
          "internalType": "bool",
          "name": "activity",
          "type": "bool"
        }
      ],
      "stateMutability": "view",
      "type": "function"
    },
    {
      "inputs": [],
      "name": "gameQuantity",
      "outputs": [
        {
          "internalType": "int256",
          "name": "",
          "type": "int256"
        }
      ],
      "stateMutability": "view",
      "type": "function"
    },
    {
      "inputs": [
        {
          "internalType": "int256",
          "name": "",
          "type": "int256"
        }
      ],
      "name": "lifeLengthList",
      "outputs": [
        {
          "internalType": "int256",
          "name": "",
          "type": "int256"
        }
      ],
      "stateMutability": "view",
      "type": "function"
    },
    {
      "inputs": [
        {
          "internalType": "int256",
          "name": "",
          "type": "int256"
        },
        {
          "internalType": "int256",
          "name": "",
          "type": "int256"
        },
        {
          "internalType": "uint256",
          "name": "",
          "type": "uint256"
        }
      ],
      "name": "optionsList",
      "outputs": [
        {
          "internalType": "int256",
          "name": "",
          "type": "int256"
        }
      ],
      "stateMutability": "view",
      "type": "function"
    },
    {
      "inputs": [
        {
          "internalType": "int256",
          "name": "",
          "type": "int256"
        }
      ],
      "name": "participantList",
      "outputs": [
        {
          "internalType": "address",
          "name": "userAddress",
          "type": "address"
        },
        {
          "internalType": "int256",
          "name": "optionId",
          "type": "int256"
        }
      ],
      "stateMutability": "view",
      "type": "function"
    },
    {
      "inputs": [
        {
          "internalType": "int256",
          "name": "",
          "type": "int256"
        }
      ],
      "name": "propertyList",
      "outputs": [
        {
          "internalType": "string",
          "name": "",
          "type": "string"
        }
      ],
      "stateMutability": "view",
      "type": "function"
    },
    {
      "inputs": [
        {
          "internalType": "int256",
          "name": "",
          "type": "int256"
        }
      ],
      "name": "questionList",
      "outputs": [
        {
          "internalType": "string",
          "name": "questionName",
          "type": "string"
        },
        {
          "internalType": "string",
          "name": "questionDescription",
          "type": "string"
        }
      ],
      "stateMutability": "view",
      "type": "function"
    },
    {
      "inputs": [],
      "name": "rand_b",
      "outputs": [
        {
          "internalType": "int256",
          "name": "",
          "type": "int256"
        }
      ],
      "stateMutability": "view",
      "type": "function"
    },
    {
      "inputs": [],
      "name": "reqID_VRF",
      "outputs": [
        {
          "internalType": "bytes32",
          "name": "",
          "type": "bytes32"
        }
      ],
      "stateMutability": "view",
      "type": "function"
    },
    {
      "inputs": [],
      "name": "getRandom",
      "outputs": [
        {
          "internalType": "uint256",
          "name": "",
          "type": "uint256"
        }
      ],
      "stateMutability": "nonpayable",
      "type": "function"
    },
    {
      "inputs": [],
      "name": "makeCoinList",
      "outputs": [],
      "stateMutability": "nonpayable",
      "type": "function"
    },
    {
      "inputs": [],
      "name": "getCoinList",
      "outputs": [],
      "stateMutability": "nonpayable",
      "type": "function"
    },
    {
      "inputs": [],
      "name": "makeDailyGame",
      "outputs": [],
      "stateMutability": "nonpayable",
      "type": "function"
    },
    {
      "inputs": [],
      "name": "makeWeeklyGame",
      "outputs": [],
      "stateMutability": "nonpayable",
      "type": "function"
    },
    {
      "inputs": [],
      "name": "makeMonthGame",
      "outputs": [],
      "stateMutability": "nonpayable",
      "type": "function"
    },
    {
      "inputs": [
        {
          "internalType": "int256",
          "name": "_questionId",
          "type": "int256"
        },
        {
          "internalType": "int256",
          "name": "_questionQuantity",
          "type": "int256"
        }
      ],
      "name": "makeOptions",
      "outputs": [],
      "stateMutability": "nonpayable",
      "type": "function"
    },
    {
      "inputs": [
        {
          "internalType": "int256",
          "name": "_gameId",
          "type": "int256"
        },
        {
          "internalType": "address",
          "name": "_userAddress",
          "type": "address"
        },
        {
          "internalType": "int256",
          "name": "_optionId",
          "type": "int256"
        }
      ],
      "name": "addParticipant",
      "outputs": [],
      "stateMutability": "nonpayable",
      "type": "function"
    }
  ],
  "bytecode": "0x60806040526001600455732af265e375e8e8114680447a1036db86623d45fb601160006101000a81548173ffffffffffffffffffffffffffffffffffffffff021916908373ffffffffffffffffffffffffffffffffffffffff160217905550601160009054906101000a900473ffffffffffffffffffffffffffffffffffffffff16601260006101000a81548173ffffffffffffffffffffffffffffffffffffffff021916908373ffffffffffffffffffffffffffffffffffffffff16021790555073bc59eb1edafdbcc86237c534d556704a446ea4bf601360006101000a81548173ffffffffffffffffffffffffffffffffffffffff021916908373ffffffffffffffffffffffffffffffffffffffff160217905550601360009054906101000a900473ffffffffffffffffffffffffffffffffffffffff16601460006101000a81548173ffffffffffffffffffffffffffffffffffffffff021916908373ffffffffffffffffffffffffffffffffffffffff1602179055503480156200018657600080fd5b5062000197620003af60201b60201c565b6040518060400160405280600581526020017f5052494345000000000000000000000000000000000000000000000000000000815250600f6000600181526020019081526020016000206000019080519060200190620001f99291906200049d565b506040518060400160405280600681526020017f564f4c554d450000000000000000000000000000000000000000000000000000815250600f60006002815260200190815260200160002060000190805190602001906200025c9291906200049d565b506040518060600160405280602e815260200162002005602e9139600f6000600181526020019081526020016000206001019080519060200190620002a39291906200049d565b506040518060600160405280602681526020016200203360269139600f6000600281526020019081526020016000206001019080519060200190620002ea9291906200049d565b506040518060400160405280600f81526020017f43727970746f2043757272656e63790000000000000000000000000000000000815250600d60006001815260200190815260200160002090805190602001906200034a9291906200049d565b506001600e600060018152602001908152602001600020819055506007600e60006002815260200190815260200160002081905550601e600e60006003815260200190815260200160002081905550600a60068190555060016007819055506200054c565b6200045773c89bd4e1632d3a43cb03aaad5262cbe4038bc57173ffffffffffffffffffffffffffffffffffffffff166338cc48316040518163ffffffff1660e01b815260040160206040518083038186803b1580156200040e57600080fd5b505afa15801562000423573d6000803e3d6000fd5b505050506040513d60208110156200043a57600080fd5b81019080805190602001909291905050506200045960201b60201c565b565b80600260006101000a81548173ffffffffffffffffffffffffffffffffffffffff021916908373ffffffffffffffffffffffffffffffffffffffff16021790555050565b828054600181600116156101000203166002900490600052602060002090601f016020900481019282601f10620004e057805160ff191683800117855562000511565b8280016001018555821562000511579182015b8281111562000510578251825591602001919060010190620004f3565b5b50905062000520919062000524565b5090565b6200054991905b80821115620005455760008160009055506001016200052b565b5090565b90565b611aa9806200055c6000396000f3fe608060405234801561001057600080fd5b50600436106101215760003560e01c80638dfad597116100ad578063c3f449c911610071578063c3f449c914610507578063cfcc9daf14610511578063dc7c155f14610567578063e50f4c0b14610585578063f6368cd5146105ee57610121565b80638dfad59714610442578063998b5cd31461044c5780639b9111401461046a578063aacc5a17146104df578063bfa70801146104fd57610121565b80633c8130e3116100f45780633c8130e31461028d5780633cff7ed3146103a0578063494ca322146103aa5780637421a206146103e25780637ce6a0fb1461042457610121565b806302d7638d14610126578063201e12811461013057806322c0391f1461018e57806332d4e5ec146101e6575b600080fd5b61012e61060c565b005b61015c6004803603602081101561014657600080fd5b81019080803590602001909291905050506108b7565b604051808681526020018581526020018481526020018381526020018281526020019550505050505060405180910390f35b6101e4600480360360608110156101a457600080fd5b8101908080359060200190929190803573ffffffffffffffffffffffffffffffffffffffff169060200190929190803590602001909291905050506108ed565b005b610212600480360360208110156101fc57600080fd5b8101908080359060200190929190505050610962565b6040518080602001828103825283818151815260200191508051906020019080838360005b83811015610252578082015181840152602081019050610237565b50505050905090810190601f16801561027f5780820380516001836020036101000a031916815260200191505b509250505060405180910390f35b6102b9600480360360208110156102a357600080fd5b8101908080359060200190929190505050610a12565b604051808060200180602001838103835285818151815260200191508051906020019080838360005b838110156102fd5780820151818401526020810190506102e2565b50505050905090810190601f16801561032a5780820380516001836020036101000a031916815260200191505b50838103825284818151815260200191508051906020019080838360005b83811015610363578082015181840152602081019050610348565b50505050905090810190601f1680156103905780820380516001836020036101000a031916815260200191505b5094505050505060405180910390f35b6103a8610b66565b005b6103e0600480360360408110156103c057600080fd5b810190808035906020019092919080359060200190929190505050610c99565b005b61040e600480360360208110156103f857600080fd5b8101908080359060200190929190505050610f14565b6040518082815260200191505060405180910390f35b61042c610f2c565b6040518082815260200191505060405180910390f35b61044a610f32565b005b61045461133a565b6040518082815260200191505060405180910390f35b6104966004803603602081101561048057600080fd5b8101908080359060200190929190505050611340565b604051808373ffffffffffffffffffffffffffffffffffffffff1673ffffffffffffffffffffffffffffffffffffffff1681526020018281526020019250505060405180910390f35b6104e7611384565b6040518082815260200191505060405180910390f35b6105056116f2565b005b61050f611825565b005b6105516004803603606081101561052757600080fd5b81019080803590602001909291908035906020019092919080359060200190929190505050611958565b6040518082815260200191505060405180910390f35b61056f61198a565b6040518082815260200191505060405180910390f35b6105b16004803603602081101561059b57600080fd5b8101908080359060200190929190505050611990565b6040518087815260200186815260200185815260200184815260200183815260200182151515158152602001965050505050505060405180910390f35b6105f66119d9565b6040518082815260200191505060405180910390f35b60006106166119df565b90508073ffffffffffffffffffffffffffffffffffffffff1663a9059cbb601160009054906101000a900473ffffffffffffffffffffffffffffffffffffffff168373ffffffffffffffffffffffffffffffffffffffff166370a08231306040518263ffffffff1660e01b8152600401808273ffffffffffffffffffffffffffffffffffffffff1673ffffffffffffffffffffffffffffffffffffffff16815260200191505060206040518083038186803b1580156106d457600080fd5b505afa1580156106e8573d6000803e3d6000fd5b505050506040513d60208110156106fe57600080fd5b81019080805190602001909291905050506040518363ffffffff1660e01b8152600401808373ffffffffffffffffffffffffffffffffffffffff1673ffffffffffffffffffffffffffffffffffffffff16815260200182815260200192505050602060405180830381600087803b15801561077857600080fd5b505af115801561078c573d6000803e3d6000fd5b505050506040513d60208110156107a257600080fd5b8101908080519060200190929190505050610825576040517f08c379a00000000000000000000000000000000000000000000000000000000081526004018080602001828103825260128152602001807f556e61626c6520746f207472616e73666572000000000000000000000000000081525060200191505060405180910390fd5b601260009054906101000a900473ffffffffffffffffffffffffffffffffffffffff1673ffffffffffffffffffffffffffffffffffffffff1663c10da3716006546040518263ffffffff1660e01b815260040180828152602001915050600060405180830381600087803b15801561089c57600080fd5b505af11580156108b0573d6000803e3d6000fd5b5050505050565b600a6020528060005260406000206000915090508060000154908060010154908060020154908060030154908060040154905085565b816010600085815260200190815260200160002060000160006101000a81548173ffffffffffffffffffffffffffffffffffffffff021916908373ffffffffffffffffffffffffffffffffffffffff160217905550806010600085815260200190815260200160002060010181905550505050565b600d6020528060005260406000206000915090508054600181600116156101000203166002900480601f016020809104026020016040519081016040528092919081815260200182805460018160011615610100020316600290048015610a0a5780601f106109df57610100808354040283529160200191610a0a565b820191906000526020600020905b8154815290600101906020018083116109ed57829003601f168201915b505050505081565b600f602052806000526040600020600091509050806000018054600181600116156101000203166002900480601f016020809104026020016040519081016040528092919081815260200182805460018160011615610100020316600290048015610abe5780601f10610a9357610100808354040283529160200191610abe565b820191906000526020600020905b815481529060010190602001808311610aa157829003601f168201915b505050505090806001018054600181600116156101000203166002900480601f016020809104026020016040519081016040528092919081815260200182805460018160011615610100020316600290048015610b5c5780601f10610b3157610100808354040283529160200191610b5c565b820191906000526020600020905b815481529060010190602001808311610b3f57829003601f168201915b5050505050905082565b60016002610b72611384565b81610b7957fe5b0701600b6000600754815260200190815260200160002060000181905550610bb760016002610ba6611384565b81610bad57fe5b0701600754610c99565b6001600654610bc4611384565b81610bcb57fe5b0701600b600060075481526020019081526020016000206001018190555042600b60006007548152602001908152602001600020600201819055506003600b6000600754815260200190815260200160002060030181905550600180610c2f611384565b81610c3657fe5b0701600b60006007548152602001908152602001600020600401819055506001600b6000600754815260200190815260200160002060050160006101000a81548160ff021916908315150217905550600760008154809291906001019190505550565b6001821415610dd6576040518060800160405280600160ff168152602001600260ff168152602001600360ff168152602001600060ff16815250600c6000838152602001908152602001600020600060018152602001908152602001600020906004610d06929190611a09565b506040518060800160405280600460ff168152602001600560ff168152602001600660ff168152602001600060ff16815250600c6000838152602001908152602001600020600060028152602001908152602001600020906004610d6b929190611a09565b506040518060800160405280600760ff168152602001600860ff168152602001600960ff168152602001600060ff16815250600c6000838152602001908152602001600020600060038152602001908152602001600020906004610dd0929190611a09565b50610f10565b6002821415610f0f576040518060800160405280600060ff168152602001600060ff168152602001600060ff168152602001600060ff16815250600c6000838152602001908152602001600020600060018152602001908152602001600020906004610e43929190611a09565b506040518060800160405280600160ff168152602001600060ff168152602001600060ff168152602001600060ff16815250600c6000838152602001908152602001600020600060028152602001908152602001600020906004610ea8929190611a09565b506040518060800160405280600260ff168152602001600260ff168152602001600260ff168152602001600260ff16815250600c6000838152602001908152602001600020600060038152602001908152602001600020906004610f0d929190611a09565b505b5b5050565b600e6020528060005260406000206000915090505481565b60095481565b6000600190505b600654811361133757601260009054906101000a900473ffffffffffffffffffffffffffffffffffffffff1673ffffffffffffffffffffffffffffffffffffffff16636fca861d826040518263ffffffff1660e01b81526004018082815260200191505060206040518083038186803b158015610fb557600080fd5b505afa158015610fc9573d6000803e3d6000fd5b505050506040513d6020811015610fdf57600080fd5b8101908080519060200190929190505050600a600083815260200190815260200160002060000181905550601260009054906101000a900473ffffffffffffffffffffffffffffffffffffffff1673ffffffffffffffffffffffffffffffffffffffff1663506145ed826040518263ffffffff1660e01b81526004018082815260200191505060206040518083038186803b15801561107d57600080fd5b505afa158015611091573d6000803e3d6000fd5b505050506040513d60208110156110a757600080fd5b8101908080519060200190929190505050600a600083815260200190815260200160002060010181905550601260009054906101000a900473ffffffffffffffffffffffffffffffffffffffff1673ffffffffffffffffffffffffffffffffffffffff1663a5f29958826040518263ffffffff1660e01b81526004018082815260200191505060206040518083038186803b15801561114557600080fd5b505afa158015611159573d6000803e3d6000fd5b505050506040513d602081101561116f57600080fd5b8101908080519060200190929190505050600a600083815260200190815260200160002060020181905550601260009054906101000a900473ffffffffffffffffffffffffffffffffffffffff1673ffffffffffffffffffffffffffffffffffffffff16635db77c5b826040518263ffffffff1660e01b81526004018082815260200191505060206040518083038186803b15801561120d57600080fd5b505afa158015611221573d6000803e3d6000fd5b505050506040513d602081101561123757600080fd5b8101908080519060200190929190505050600a600083815260200190815260200160002060030181905550601260009054906101000a900473ffffffffffffffffffffffffffffffffffffffff1673ffffffffffffffffffffffffffffffffffffffff1663ca99ea6b826040518263ffffffff1660e01b81526004018082815260200191505060206040518083038186803b1580156112d557600080fd5b505afa1580156112e9573d6000803e3d6000fd5b505050506040513d60208110156112ff57600080fd5b8101908080519060200190929190505050600a6000838152602001908152602001600020600401819055508080600101915050610f39565b50565b60065481565b60106020528060005260406000206000915090508060000160009054906101000a900473ffffffffffffffffffffffffffffffffffffffff16908060010154905082565b60008061138f6119df565b90508073ffffffffffffffffffffffffffffffffffffffff1663a9059cbb601360009054906101000a900473ffffffffffffffffffffffffffffffffffffffff168373ffffffffffffffffffffffffffffffffffffffff166370a08231306040518263ffffffff1660e01b8152600401808273ffffffffffffffffffffffffffffffffffffffff1673ffffffffffffffffffffffffffffffffffffffff16815260200191505060206040518083038186803b15801561144d57600080fd5b505afa158015611461573d6000803e3d6000fd5b505050506040513d602081101561147757600080fd5b81019080805190602001909291905050506040518363ffffffff1660e01b8152600401808373ffffffffffffffffffffffffffffffffffffffff1673ffffffffffffffffffffffffffffffffffffffff16815260200182815260200192505050602060405180830381600087803b1580156114f157600080fd5b505af1158015611505573d6000803e3d6000fd5b505050506040513d602081101561151b57600080fd5b810190808051906020019092919050505061159e576040517f08c379a00000000000000000000000000000000000000000000000000000000081526004018080602001828103825260128152602001807f556e61626c6520746f207472616e73666572000000000000000000000000000081525060200191505060405180910390fd5b601460009054906101000a900473ffffffffffffffffffffffffffffffffffffffff1673ffffffffffffffffffffffffffffffffffffffff1663dbdff2c16040518163ffffffff1660e01b8152600401602060405180830381600087803b15801561160857600080fd5b505af115801561161c573d6000803e3d6000fd5b505050506040513d602081101561163257600080fd5b8101908080519060200190929190505050600881905550601460009054906101000a900473ffffffffffffffffffffffffffffffffffffffff1673ffffffffffffffffffffffffffffffffffffffff1663edd3159d6040518163ffffffff1660e01b815260040160206040518083038186803b1580156116b157600080fd5b505afa1580156116c5573d6000803e3d6000fd5b505050506040513d60208110156116db57600080fd5b810190808051906020019092919050505091505090565b600160026116fe611384565b8161170557fe5b0701600b600060075481526020019081526020016000206000018190555061174360016002611732611384565b8161173957fe5b0701600754610c99565b6001600654611750611384565b8161175757fe5b0701600b600060075481526020019081526020016000206001018190555042600b60006007548152602001908152602001600020600201819055506002600b60006007548152602001908152602001600020600301819055506001806117bb611384565b816117c257fe5b0701600b60006007548152602001908152602001600020600401819055506001600b6000600754815260200190815260200160002060050160006101000a81548160ff021916908315150217905550600760008154809291906001019190505550565b60016002611831611384565b8161183857fe5b0701600b600060075481526020019081526020016000206000018190555061187660016002611865611384565b8161186c57fe5b0701600754610c99565b6001600654611883611384565b8161188a57fe5b0701600b600060075481526020019081526020016000206001018190555042600b60006007548152602001908152602001600020600201819055506001600b60006007548152602001908152602001600020600301819055506001806118ee611384565b816118f557fe5b0701600b60006007548152602001908152602001600020600401819055506001600b6000600754815260200190815260200160002060050160006101000a81548160ff021916908315150217905550600760008154809291906001019190505550565b600c602052826000526040600020602052816000526040600020816004811061197d57fe5b0160009250925050505481565b60085481565b600b6020528060005260406000206000915090508060000154908060010154908060020154908060030154908060040154908060050160009054906101000a900460ff16905086565b60075481565b6000600260009054906101000a900473ffffffffffffffffffffffffffffffffffffffff16905090565b8260048101928215611a3d579160200282015b82811115611a3c578251829060ff16905591602001919060010190611a1c565b5b509050611a4a9190611a4e565b5090565b611a7091905b80821115611a6c576000816000905550600101611a54565b5090565b9056fea26469706673582212207158cd487131df767671ffa12fea7933ed62fcf89ae0dd57797207b91e80ed2a64736f6c63430006060033477565737320746865207365636f6e642064696769742061667465722074686520646563696d616c20706f696e7447756573732072656d61696e646572206f6620766f6c756d6520646976696465642062792033",
  "immutableReferences": {},
  "source": "\n// SPDX-License-Identifier: GPL-3.0\n\npragma solidity >=0.6.0 <0.9.0;\n\nimport \"@chainlink/contracts/src/v0.6/ChainlinkClient.sol\";\n\n\ninterface GetCoinInfoInterface {\n    function addCoin(int256 _coinQuantity) external;\n    function getCoinName(int256 _id) external view returns(bytes32);\n    function getCoinFullName(int256 _id) external view returns(bytes32);\n    function getCoinOverviewUrl(int256 _id) external view returns(bytes32);\n    function getCoinAssetLaunchDate(int256 _id) external view returns(bytes32);\n    function getCoinLogoUrl(int256 _id) external view returns(bytes32);\n}\n\ninterface GetVRFInterface {\n    function getVRF() external view returns (uint256);\n    function getRandomNumber() external returns (bytes32 requestId);\n}\n\ncontract MakeQuestions is ChainlinkClient{\n    int256 public coinQuantity;\n    int256 public gameQuantity;\n    bytes32 public reqID_VRF;\n    int256 public rand_b;\n\n    struct GameList{\n        int256 questionId;  // 2 items\n        int256 badgeTypeId;  // which coin  // coinQuantity items\n        uint revealTime;   //\n        int256 lifeLengthId;  // daily=1,weekly=7,monthly=30  // 3 items\n        int256 propertyId;  // 1 items\n        bool activity;\n    }\n\n    struct ParticipantList{\n        address userAddress;\n        int256 optionId;\n    }\n\n    struct CoinList{\n        bytes32 name;\n        bytes32 fullName;\n        bytes32 overviewUrl;\n        bytes32 assetLaunchDate;\n        bytes32 logoUrl;\n    }\n\n    struct QuestionList{\n        string questionName;\n        string questionDescription;\n    }\n\n\n\n    mapping (int256 => CoinList) public coinList;\n    mapping (int256 => GameList) public gameList;\n    mapping (int256 => mapping(int256 => int256 [4])) public optionsList;\n    mapping (int256 => string) public propertyList;\n    mapping (int256 => int256) public lifeLengthList;\n    mapping (int256 => QuestionList) public questionList;\n    mapping (int256 => ParticipantList) public participantList;\n\n    address GetCoinInfoInterfaceAddress = 0x2AF265E375e8E8114680447a1036DB86623d45Fb;\n    GetCoinInfoInterface getCoinInfoContract = GetCoinInfoInterface(GetCoinInfoInterfaceAddress);\n\n    address GetVRFInterfaceAddress = 0xBC59eB1EDaFDBCC86237C534D556704A446ea4Bf;\n    GetVRFInterface getVRFContract = GetVRFInterface(GetVRFInterfaceAddress);\n\n    constructor() public {\n        setPublicChainlinkToken();\n\n        questionList[1].questionName = \"PRICE\";\n        questionList[2].questionName = \"VOLUME\";\n        questionList[1].questionDescription = \"Guess the second digit after the decimal point\";\n        questionList[2].questionDescription = \"Guess remainder of volume divided by 3\";\n\n        propertyList[1] = \"Crypto Currency\";\n\n        lifeLengthList[1] = 1;\n        lifeLengthList[2] = 7;\n        lifeLengthList[3] = 30;\n\n        coinQuantity = 10;\n\n        gameQuantity=1;\n    }\n\n\n\n    function getRandom() public returns(uint256){\n        LinkTokenInterface linkToken = LinkTokenInterface(chainlinkTokenAddress());\n        require(linkToken.transfer(GetVRFInterfaceAddress, linkToken.balanceOf(address(this))), \"Unable to transfer\");\n        reqID_VRF=getVRFContract.getRandomNumber();\n        return getVRFContract.getVRF();\n    }\n\n// 1\n    function makeCoinList() public{\n        LinkTokenInterface linkToken = LinkTokenInterface(chainlinkTokenAddress());\n        require(linkToken.transfer(GetCoinInfoInterfaceAddress, linkToken.balanceOf(address(this))), \"Unable to transfer\");\n        getCoinInfoContract.addCoin(coinQuantity);\n    }\n\n// 2\n    function getCoinList() public{\n        for(int256 i=1;i<=coinQuantity;i++){\n            coinList[i].name = getCoinInfoContract.getCoinName(i);\n            coinList[i].fullName = getCoinInfoContract.getCoinFullName(i);\n            coinList[i].overviewUrl = getCoinInfoContract.getCoinOverviewUrl(i);\n            coinList[i].assetLaunchDate = getCoinInfoContract.getCoinAssetLaunchDate(i);\n            coinList[i].logoUrl = getCoinInfoContract.getCoinLogoUrl(i);\n        }\n    }\n\n// 3 Daily\n    function makeDailyGame() public{\n        gameList[gameQuantity].questionId = int256(getRandom()) % 2 + 1;\n        makeOptions(int256(getRandom()) % 2 + 1, gameQuantity);\n        gameList[gameQuantity].badgeTypeId = int256(getRandom()) % coinQuantity + 1;\n        gameList[gameQuantity].revealTime = now;\n        gameList[gameQuantity].lifeLengthId = 1;\n        gameList[gameQuantity].propertyId = int256(getRandom()) % 1 + 1;\n        gameList[gameQuantity].activity = true;\n\n        gameQuantity++;\n    }\n// 3 Weekly\n    function makeWeeklyGame() public{\n        gameList[gameQuantity].questionId = int256(getRandom()) % 2 + 1;\n        makeOptions(int256(getRandom()) % 2 + 1, gameQuantity);\n        gameList[gameQuantity].badgeTypeId = int256(getRandom()) % coinQuantity + 1;\n        gameList[gameQuantity].revealTime = now;\n        gameList[gameQuantity].lifeLengthId = 2;\n        gameList[gameQuantity].propertyId = int256(getRandom()) % 1 + 1;\n        gameList[gameQuantity].activity = true;\n\n        gameQuantity++;\n    }\n// 3 Month\n    function makeMonthGame() public{\n        gameList[gameQuantity].questionId = int256(getRandom()) % 2 + 1;\n        makeOptions(int256(getRandom()) % 2 + 1, gameQuantity);\n        gameList[gameQuantity].badgeTypeId = int256(getRandom()) % coinQuantity + 1;\n        gameList[gameQuantity].revealTime = now;\n        gameList[gameQuantity].lifeLengthId = 3;\n        gameList[gameQuantity].propertyId = int256(getRandom()) % 1 + 1;\n        gameList[gameQuantity].activity = true;\n\n        gameQuantity++;\n    }\n    function makeOptions(int256 _questionId, int256 _questionQuantity) public{\n        if(_questionId == 1){\n            optionsList[_questionQuantity][1] = [1,2,3,0];\n            optionsList[_questionQuantity][2] = [4,5,6,0];\n            optionsList[_questionQuantity][3] = [7,8,9,0];\n        }else if(_questionId == 2){\n            optionsList[_questionQuantity][1] = [0,0,0,0];\n            optionsList[_questionQuantity][2] = [1,0,0,0];\n            optionsList[_questionQuantity][3] = [2,2,2,2];\n        }\n\n   }\n\n   function addParticipant(int256 _gameId, address _userAddress, int256 _optionId) public{\n        participantList[_gameId].userAddress = _userAddress;\n        participantList[_gameId].optionId = _optionId;\n   }\n\n\n\n\n}\n",
  "sourcePath": "/Users/derekchou/Desktop/crypto/guess_get_gas/contracts/MakeQuestions.sol",
  "compiler": {
    "name": "solc",
    "version": "0.6.6+commit.6c089d02.Emscripten.clang"
  },
  "schemaVersion": "3.3.3",
  "updatedAt": "2021-04-11T01:17:46.893Z",
  "devdoc": {
    "methods": {}
  },
  "userdoc": {
    "methods": {}
  }
}