{
  "contractName": "TokenFarm",
  "abi": [
    {
      "inputs": [
        {
          "internalType": "address",
          "name": "_dappTokenAddress",
          "type": "address"
        }
      ],
      "stateMutability": "nonpayable",
      "type": "constructor"
    },
    {
      "anonymous": false,
      "inputs": [
        {
          "indexed": true,
          "internalType": "bytes32",
          "name": "id",
          "type": "bytes32"
        }
      ],
      "name": "ChainlinkCancelled",
      "type": "event"
    },
    {
      "anonymous": false,
      "inputs": [
        {
          "indexed": true,
          "internalType": "bytes32",
          "name": "id",
          "type": "bytes32"
        }
      ],
      "name": "ChainlinkFulfilled",
      "type": "event"
    },
    {
      "anonymous": false,
      "inputs": [
        {
          "indexed": true,
          "internalType": "bytes32",
          "name": "id",
          "type": "bytes32"
        }
      ],
      "name": "ChainlinkRequested",
      "type": "event"
    },
    {
      "anonymous": false,
      "inputs": [
        {
          "indexed": true,
          "internalType": "address",
          "name": "previousOwner",
          "type": "address"
        },
        {
          "indexed": true,
          "internalType": "address",
          "name": "newOwner",
          "type": "address"
        }
      ],
      "name": "OwnershipTransferred",
      "type": "event"
    },
    {
      "inputs": [],
      "name": "activeGameStatus",
      "outputs": [],
      "stateMutability": "nonpayable",
      "type": "function"
    },
    {
      "inputs": [
        {
          "internalType": "int256",
          "name": "_gameId",
          "type": "int256"
        },
        {
          "internalType": "address",
          "name": "_userAddress",
          "type": "address"
        },
        {
          "internalType": "int256",
          "name": "_optionId",
          "type": "int256"
        }
      ],
      "name": "addParticipant",
      "outputs": [],
      "stateMutability": "nonpayable",
      "type": "function"
    },
    {
      "inputs": [
        {
          "internalType": "bytes32",
          "name": "_bytes32",
          "type": "bytes32"
        }
      ],
      "name": "bytes32ToString",
      "outputs": [
        {
          "internalType": "string",
          "name": "",
          "type": "string"
        }
      ],
      "stateMutability": "nonpayable",
      "type": "function"
    },
    {
      "inputs": [
        {
          "internalType": "int256",
          "name": "",
          "type": "int256"
        }
      ],
      "name": "currencyList",
      "outputs": [
        {
          "internalType": "bytes32",
          "name": "name",
          "type": "bytes32"
        },
        {
          "internalType": "bytes32",
          "name": "fullName",
          "type": "bytes32"
        },
        {
          "internalType": "bytes32",
          "name": "overviewUrl",
          "type": "bytes32"
        },
        {
          "internalType": "bytes32",
          "name": "assetLaunchDate",
          "type": "bytes32"
        },
        {
          "internalType": "bytes32",
          "name": "logoUrl",
          "type": "bytes32"
        },
        {
          "internalType": "bytes",
          "name": "currencyIntro",
          "type": "bytes"
        }
      ],
      "stateMutability": "view",
      "type": "function",
      "constant": true
    },
    {
      "inputs": [],
      "name": "currencyQuantity",
      "outputs": [
        {
          "internalType": "int256",
          "name": "",
          "type": "int256"
        }
      ],
      "stateMutability": "view",
      "type": "function",
      "constant": true
    },
    {
      "inputs": [],
      "name": "dailyGameQuantity",
      "outputs": [
        {
          "internalType": "int256",
          "name": "",
          "type": "int256"
        }
      ],
      "stateMutability": "view",
      "type": "function",
      "constant": true
    },
    {
      "inputs": [],
      "name": "dappToken",
      "outputs": [
        {
          "internalType": "contract IERC20",
          "name": "",
          "type": "address"
        }
      ],
      "stateMutability": "view",
      "type": "function",
      "constant": true
    },
    {
      "inputs": [
        {
          "internalType": "int256",
          "name": "",
          "type": "int256"
        }
      ],
      "name": "gameInfoList",
      "outputs": [
        {
          "internalType": "int256",
          "name": "gameId",
          "type": "int256"
        },
        {
          "internalType": "string",
          "name": "gameTitle",
          "type": "string"
        },
        {
          "internalType": "string",
          "name": "gameQuestion",
          "type": "string"
        },
        {
          "internalType": "string",
          "name": "gameDescription",
          "type": "string"
        },
        {
          "internalType": "uint256",
          "name": "gameParticipateStartTime",
          "type": "uint256"
        },
        {
          "internalType": "string",
          "name": "gameWindow",
          "type": "string"
        },
        {
          "internalType": "string",
          "name": "gameProperty",
          "type": "string"
        },
        {
          "internalType": "string",
          "name": "gameLogoLink",
          "type": "string"
        },
        {
          "internalType": "int256",
          "name": "numOfParticipants",
          "type": "int256"
        }
      ],
      "stateMutability": "view",
      "type": "function",
      "constant": true
    },
    {
      "inputs": [
        {
          "internalType": "int256",
          "name": "",
          "type": "int256"
        }
      ],
      "name": "gameList",
      "outputs": [
        {
          "internalType": "int256",
          "name": "questionId",
          "type": "int256"
        },
        {
          "internalType": "int256",
          "name": "currencyId",
          "type": "int256"
        },
        {
          "internalType": "uint256",
          "name": "revealTime",
          "type": "uint256"
        },
        {
          "internalType": "int256",
          "name": "lifeLengthId",
          "type": "int256"
        },
        {
          "internalType": "string",
          "name": "property",
          "type": "string"
        },
        {
          "internalType": "bool",
          "name": "isActivity",
          "type": "bool"
        },
        {
          "internalType": "bool",
          "name": "isClose",
          "type": "bool"
        }
      ],
      "stateMutability": "view",
      "type": "function",
      "constant": true
    },
    {
      "inputs": [
        {
          "internalType": "int256",
          "name": "_gameId",
          "type": "int256"
        }
      ],
      "name": "getAnswer",
      "outputs": [],
      "stateMutability": "nonpayable",
      "type": "function"
    },
    {
      "inputs": [],
      "name": "getAvailableGameIds",
      "outputs": [
        {
          "internalType": "int256[]",
          "name": "",
          "type": "int256[]"
        }
      ],
      "stateMutability": "view",
      "type": "function",
      "constant": true
    },
    {
      "inputs": [],
      "name": "getCurrencyList",
      "outputs": [],
      "stateMutability": "nonpayable",
      "type": "function"
    },
    {
      "inputs": [],
      "name": "getRandom",
      "outputs": [
        {
          "internalType": "uint256",
          "name": "",
          "type": "uint256"
        }
      ],
      "stateMutability": "nonpayable",
      "type": "function"
    },
    {
      "inputs": [
        {
          "internalType": "int256",
          "name": "",
          "type": "int256"
        }
      ],
      "name": "lifeLengthList",
      "outputs": [
        {
          "internalType": "int256",
          "name": "lifeLength",
          "type": "int256"
        },
        {
          "internalType": "int256",
          "name": "gameQuantity",
          "type": "int256"
        },
        {
          "internalType": "string",
          "name": "title",
          "type": "string"
        }
      ],
      "stateMutability": "view",
      "type": "function",
      "constant": true
    },
    {
      "inputs": [],
      "name": "makeCurrencyList",
      "outputs": [],
      "stateMutability": "nonpayable",
      "type": "function"
    },
    {
      "inputs": [],
      "name": "makeDailyGame",
      "outputs": [],
      "stateMutability": "nonpayable",
      "type": "function"
    },
    {
      "inputs": [
        {
          "internalType": "int256",
          "name": "_questionId",
          "type": "int256"
        },
        {
          "internalType": "int256",
          "name": "_gameId",
          "type": "int256"
        }
      ],
      "name": "makeOptions",
      "outputs": [],
      "stateMutability": "nonpayable",
      "type": "function"
    },
    {
      "inputs": [],
      "name": "monthlyGameQuantity",
      "outputs": [
        {
          "internalType": "int256",
          "name": "",
          "type": "int256"
        }
      ],
      "stateMutability": "view",
      "type": "function",
      "constant": true
    },
    {
      "inputs": [],
      "name": "name",
      "outputs": [
        {
          "internalType": "string",
          "name": "",
          "type": "string"
        }
      ],
      "stateMutability": "view",
      "type": "function",
      "constant": true
    },
    {
      "inputs": [
        {
          "internalType": "int256",
          "name": "",
          "type": "int256"
        },
        {
          "internalType": "int256",
          "name": "",
          "type": "int256"
        }
      ],
      "name": "optionsList",
      "outputs": [
        {
          "internalType": "int256",
          "name": "optionsContet",
          "type": "int256"
        },
        {
          "internalType": "int256",
          "name": "userQuantity",
          "type": "int256"
        }
      ],
      "stateMutability": "view",
      "type": "function",
      "constant": true
    },
    {
      "inputs": [],
      "name": "owner",
      "outputs": [
        {
          "internalType": "address",
          "name": "",
          "type": "address"
        }
      ],
      "stateMutability": "view",
      "type": "function",
      "constant": true
    },
    {
      "inputs": [
        {
          "internalType": "int256",
          "name": "",
          "type": "int256"
        }
      ],
      "name": "propertyList",
      "outputs": [
        {
          "internalType": "string",
          "name": "",
          "type": "string"
        }
      ],
      "stateMutability": "view",
      "type": "function",
      "constant": true
    },
    {
      "inputs": [
        {
          "internalType": "int256",
          "name": "",
          "type": "int256"
        }
      ],
      "name": "questionList",
      "outputs": [
        {
          "internalType": "string",
          "name": "questionName",
          "type": "string"
        },
        {
          "internalType": "string",
          "name": "questionDescription",
          "type": "string"
        }
      ],
      "stateMutability": "view",
      "type": "function",
      "constant": true
    },
    {
      "inputs": [],
      "name": "rand_b",
      "outputs": [
        {
          "internalType": "int256",
          "name": "",
          "type": "int256"
        }
      ],
      "stateMutability": "view",
      "type": "function",
      "constant": true
    },
    {
      "inputs": [],
      "name": "randomNum",
      "outputs": [
        {
          "internalType": "uint256",
          "name": "",
          "type": "uint256"
        }
      ],
      "stateMutability": "view",
      "type": "function",
      "constant": true
    },
    {
      "inputs": [],
      "name": "renounceOwnership",
      "outputs": [],
      "stateMutability": "nonpayable",
      "type": "function"
    },
    {
      "inputs": [],
      "name": "reqID_VRF",
      "outputs": [
        {
          "internalType": "bytes32",
          "name": "",
          "type": "bytes32"
        }
      ],
      "stateMutability": "view",
      "type": "function",
      "constant": true
    },
    {
      "inputs": [],
      "name": "returnAnswer",
      "outputs": [
        {
          "internalType": "uint256",
          "name": "",
          "type": "uint256"
        }
      ],
      "stateMutability": "view",
      "type": "function",
      "constant": true
    },
    {
      "inputs": [
        {
          "internalType": "uint256",
          "name": "",
          "type": "uint256"
        }
      ],
      "name": "stakers",
      "outputs": [
        {
          "internalType": "address",
          "name": "",
          "type": "address"
        }
      ],
      "stateMutability": "view",
      "type": "function",
      "constant": true
    },
    {
      "inputs": [
        {
          "internalType": "address",
          "name": "",
          "type": "address"
        },
        {
          "internalType": "address",
          "name": "",
          "type": "address"
        }
      ],
      "name": "stakingBalance",
      "outputs": [
        {
          "internalType": "uint256",
          "name": "",
          "type": "uint256"
        }
      ],
      "stateMutability": "view",
      "type": "function",
      "constant": true
    },
    {
      "inputs": [],
      "name": "storeAvailableGameIds",
      "outputs": [],
      "stateMutability": "nonpayable",
      "type": "function"
    },
    {
      "inputs": [
        {
          "internalType": "address",
          "name": "",
          "type": "address"
        }
      ],
      "name": "tokenPriceFeedMapping",
      "outputs": [
        {
          "internalType": "address",
          "name": "",
          "type": "address"
        }
      ],
      "stateMutability": "view",
      "type": "function",
      "constant": true
    },
    {
      "inputs": [
        {
          "internalType": "address",
          "name": "newOwner",
          "type": "address"
        }
      ],
      "name": "transferOwnership",
      "outputs": [],
      "stateMutability": "nonpayable",
      "type": "function"
    },
    {
      "inputs": [
        {
          "internalType": "address",
          "name": "",
          "type": "address"
        }
      ],
      "name": "uniqueTokensStaked",
      "outputs": [
        {
          "internalType": "uint256",
          "name": "",
          "type": "uint256"
        }
      ],
      "stateMutability": "view",
      "type": "function",
      "constant": true
    },
    {
      "inputs": [
        {
          "internalType": "address",
          "name": "",
          "type": "address"
        }
      ],
      "name": "userDataStructs",
      "outputs": [
        {
          "internalType": "address",
          "name": "addr",
          "type": "address"
        },
        {
          "internalType": "uint256",
          "name": "balance",
          "type": "uint256"
        }
      ],
      "stateMutability": "view",
      "type": "function",
      "constant": true
    },
    {
      "inputs": [
        {
          "internalType": "address",
          "name": "",
          "type": "address"
        },
        {
          "internalType": "uint256",
          "name": "",
          "type": "uint256"
        }
      ],
      "name": "userGameStructs",
      "outputs": [
        {
          "internalType": "uint256",
          "name": "gameId",
          "type": "uint256"
        },
        {
          "internalType": "uint8",
          "name": "answerId",
          "type": "uint8"
        },
        {
          "internalType": "uint256",
          "name": "amount",
          "type": "uint256"
        },
        {
          "internalType": "bool",
          "name": "isCorrect",
          "type": "bool"
        },
        {
          "internalType": "bool",
          "name": "isNotified",
          "type": "bool"
        }
      ],
      "stateMutability": "view",
      "type": "function",
      "constant": true
    },
    {
      "inputs": [
        {
          "internalType": "address",
          "name": "",
          "type": "address"
        }
      ],
      "name": "userList",
      "outputs": [
        {
          "internalType": "bool",
          "name": "",
          "type": "bool"
        }
      ],
      "stateMutability": "view",
      "type": "function",
      "constant": true
    },
    {
      "inputs": [],
      "name": "weeklyGameQuantity",
      "outputs": [
        {
          "internalType": "int256",
          "name": "",
          "type": "int256"
        }
      ],
      "stateMutability": "view",
      "type": "function",
      "constant": true
    },
    {
      "inputs": [
        {
          "internalType": "address",
          "name": "addr",
          "type": "address"
        }
      ],
      "name": "getUserBalance",
      "outputs": [
        {
          "internalType": "uint256",
          "name": "",
          "type": "uint256"
        }
      ],
      "stateMutability": "nonpayable",
      "type": "function"
    },
    {
      "inputs": [
        {
          "internalType": "address",
          "name": "addr",
          "type": "address"
        },
        {
          "internalType": "uint256",
          "name": "amount",
          "type": "uint256"
        }
      ],
      "name": "reloadBalance",
      "outputs": [
        {
          "internalType": "uint256",
          "name": "",
          "type": "uint256"
        }
      ],
      "stateMutability": "nonpayable",
      "type": "function"
    },
    {
      "inputs": [
        {
          "internalType": "address",
          "name": "addr",
          "type": "address"
        },
        {
          "internalType": "uint256",
          "name": "amount",
          "type": "uint256"
        }
      ],
      "name": "withdrawBalance",
      "outputs": [
        {
          "internalType": "uint256",
          "name": "",
          "type": "uint256"
        }
      ],
      "stateMutability": "nonpayable",
      "type": "function"
    },
    {
      "inputs": [],
      "name": "getTotalContractBalance",
      "outputs": [
        {
          "internalType": "uint256",
          "name": "contractBalance",
          "type": "uint256"
        }
      ],
      "stateMutability": "nonpayable",
      "type": "function"
    },
    {
      "inputs": [
        {
          "internalType": "address",
          "name": "addr",
          "type": "address"
        },
        {
          "internalType": "uint256",
          "name": "gameId",
          "type": "uint256"
        }
      ],
      "name": "getUserGameInfo",
      "outputs": [
        {
          "internalType": "uint8",
          "name": "answerId",
          "type": "uint8"
        },
        {
          "internalType": "uint256",
          "name": "amount",
          "type": "uint256"
        }
      ],
      "stateMutability": "view",
      "type": "function",
      "constant": true
    },
    {
      "inputs": [
        {
          "internalType": "address",
          "name": "addr",
          "type": "address"
        },
        {
          "internalType": "uint256",
          "name": "gameId",
          "type": "uint256"
        },
        {
          "internalType": "uint8",
          "name": "answerId",
          "type": "uint8"
        },
        {
          "internalType": "uint256",
          "name": "amount",
          "type": "uint256"
        }
      ],
      "name": "addGameInfoToUserData",
      "outputs": [
        {
          "internalType": "bool",
          "name": "success",
          "type": "bool"
        }
      ],
      "stateMutability": "nonpayable",
      "type": "function"
    },
    {
      "inputs": [
        {
          "internalType": "uint256",
          "name": "amount",
          "type": "uint256"
        },
        {
          "internalType": "address",
          "name": "tokenAddress",
          "type": "address"
        }
      ],
      "name": "stakeTokens",
      "outputs": [],
      "stateMutability": "nonpayable",
      "type": "function"
    },
    {
      "inputs": [
        {
          "internalType": "address",
          "name": "token",
          "type": "address"
        }
      ],
      "name": "unstakeTokens",
      "outputs": [],
      "stateMutability": "nonpayable",
      "type": "function"
    },
    {
      "inputs": [],
      "name": "issueTokens",
      "outputs": [],
      "stateMutability": "nonpayable",
      "type": "function"
    },
    {
      "inputs": [
        {
          "internalType": "address",
          "name": "token",
          "type": "address"
        },
        {
          "internalType": "address",
          "name": "priceFeed",
          "type": "address"
        }
      ],
      "name": "setPriceFeedContract",
      "outputs": [],
      "stateMutability": "nonpayable",
      "type": "function"
    },
    {
      "inputs": [
        {
          "internalType": "address",
          "name": "token",
          "type": "address"
        }
      ],
      "name": "isTokenAllowed",
      "outputs": [
        {
          "internalType": "bool",
          "name": "",
          "type": "bool"
        }
      ],
      "stateMutability": "nonpayable",
      "type": "function"
    },
    {
      "inputs": [
        {
          "internalType": "address",
          "name": "token",
          "type": "address"
        }
      ],
      "name": "addAllowedTokens",
      "outputs": [],
      "stateMutability": "nonpayable",
      "type": "function"
    },
    {
      "inputs": [
        {
          "internalType": "address",
          "name": "user",
          "type": "address"
        }
      ],
      "name": "getUserTotalValue",
      "outputs": [
        {
          "internalType": "uint256",
          "name": "",
          "type": "uint256"
        }
      ],
      "stateMutability": "view",
      "type": "function",
      "constant": true
    },
    {
      "inputs": [
        {
          "internalType": "address",
          "name": "user",
          "type": "address"
        },
        {
          "internalType": "address",
          "name": "token",
          "type": "address"
        }
      ],
      "name": "getUserStakingBalanceEthValue",
      "outputs": [
        {
          "internalType": "uint256",
          "name": "",
          "type": "uint256"
        }
      ],
      "stateMutability": "view",
      "type": "function",
      "constant": true
    },
    {
      "inputs": [
        {
          "internalType": "address",
          "name": "token",
          "type": "address"
        }
      ],
      "name": "getTokenEthPrice",
      "outputs": [
        {
          "internalType": "uint256",
          "name": "",
          "type": "uint256"
        }
      ],
      "stateMutability": "view",
      "type": "function",
      "constant": true
    }
  ],
  "bytecode": "0x6080604052600160055573a580d0ef1d8bdefdcd06059f3b81d305778ab617601560006101000a81548173ffffffffffffffffffffffffffffffffffffffff021916908373ffffffffffffffffffffffffffffffffffffffff160217905550601560009054906101000a900473ffffffffffffffffffffffffffffffffffffffff16601660006101000a81548173ffffffffffffffffffffffffffffffffffffffff021916908373ffffffffffffffffffffffffffffffffffffffff160217905550736f33ed84c014f72d23240b9ed589959a8c226c76601760006101000a81548173ffffffffffffffffffffffffffffffffffffffff021916908373ffffffffffffffffffffffffffffffffffffffff160217905550601560009054906101000a900473ffffffffffffffffffffffffffffffffffffffff16601860006101000a81548173ffffffffffffffffffffffffffffffffffffffff021916908373ffffffffffffffffffffffffffffffffffffffff1602179055507340c7b80e812a3683d651db8b38278a256f51362d601960006101000a81548173ffffffffffffffffffffffffffffffffffffffff021916908373ffffffffffffffffffffffffffffffffffffffff160217905550601960009054906101000a900473ffffffffffffffffffffffffffffffffffffffff16601a60006101000a81548173ffffffffffffffffffffffffffffffffffffffff021916908373ffffffffffffffffffffffffffffffffffffffff1602179055506040518060400160405280601281526020017f43727970746f20476173204561726e696e670000000000000000000000000000815250601d90805190602001906200027e92919062000854565b503480156200028c57600080fd5b50604051620064b8380380620064b883398181016040526020811015620002b257600080fd5b81019080805190602001909291905050506000620002d56200075e60201b60201c565b9050806000806101000a81548173ffffffffffffffffffffffffffffffffffffffff021916908373ffffffffffffffffffffffffffffffffffffffff1602179055508073ffffffffffffffffffffffffffffffffffffffff16600073ffffffffffffffffffffffffffffffffffffffff167f8be0079c531659141344cd1fd0a4f28419497f9722a3daafe3b4186f6b6457e060405160405180910390a350620003836200076660201b60201c565b6040518060400160405280600581526020017f505249434500000000000000000000000000000000000000000000000000000081525060146000600181526020019081526020016000206000019080519060200190620003e592919062000854565b506040518060600160405280602e815260200162006464602e9139601460006001815260200190815260200160002060010190805190602001906200042c92919062000854565b506040518060400160405280600681526020017f564f4c554d450000000000000000000000000000000000000000000000000000815250601460006002815260200190815260200160002060000190805190602001906200048f92919062000854565b50604051806060016040528060268152602001620064926026913960146000600281526020019081526020016000206001019080519060200190620004d692919062000854565b506040518060400160405280600f81526020017f43727970746f2043757272656e63790000000000000000000000000000000000815250601260006001815260200190815260200160002090805190602001906200053692919062000854565b506001601360006001815260200190815260200160002060000181905550600a6013600060018152602001908152602001600020600101819055506040518060400160405280600581526020017f4461696c7900000000000000000000000000000000000000000000000000000081525060136000600181526020019081526020016000206002019080519060200190620005d392919062000854565b50600760136000600281526020019081526020016000206000018190555060046013600060028152602001908152602001600020600101819055506040518060400160405280600681526020017f5765656b6c790000000000000000000000000000000000000000000000000000815250601360006002815260200190815260200160002060020190805190602001906200067092919062000854565b50601e60136000600381526020019081526020016000206000018190555060016013600060038152602001908152602001600020600101819055506040518060400160405280600781526020017f4d6f6e74686c7900000000000000000000000000000000000000000000000000815250601360006003815260200190815260200160002060020190805190602001906200070d92919062000854565b50600a60078190555080601e60006101000a81548173ffffffffffffffffffffffffffffffffffffffff021916908373ffffffffffffffffffffffffffffffffffffffff1602179055505062000903565b600033905090565b6200080e73c89bd4e1632d3a43cb03aaad5262cbe4038bc57173ffffffffffffffffffffffffffffffffffffffff166338cc48316040518163ffffffff1660e01b815260040160206040518083038186803b158015620007c557600080fd5b505afa158015620007da573d6000803e3d6000fd5b505050506040513d6020811015620007f157600080fd5b81019080805190602001909291905050506200081060201b60201c565b565b80600360006101000a81548173ffffffffffffffffffffffffffffffffffffffff021916908373ffffffffffffffffffffffffffffffffffffffff16021790555050565b828054600181600116156101000203166002900490600052602060002090601f016020900481019282601f106200089757805160ff1916838001178555620008c8565b82800160010185558215620008c8579182015b82811115620008c7578251825591602001919060010190620008aa565b5b509050620008d79190620008db565b5090565b6200090091905b80821115620008fc576000816000905550600101620008e2565b5090565b90565b615b5180620009136000396000f3fe608060405234801561001057600080fd5b50600436106103275760003560e01c80636c1c38ae116101b8578063c67a3d9311610104578063e50f4c0b116100a2578063f2fde38b1161007c578063f2fde38b146115c9578063f630aa651461160d578063f9eaee0d1461162b578063fd5e6dd11461168757610327565b8063e50f4c0b1461141c578063f1feff34146114f5578063f2ce4dc0146115bf57610327565b8063d17f7b0d116100de578063d17f7b0d1461137e578063d9e3fd6414611388578063dc7c155f146113a6578063df00018d146113c457610327565b8063c67a3d93146112de578063c6b7bd4c146112fc578063cc81e0601461130657610327565b80639201de5511610171578063af3f5e221161014b578063af3f5e221461121a578063b83e023414611272578063b8b5ecd1146112ca578063c3f449c9146112d457610327565b80639201de55146110f357806395ab14f31461119a578063aacc5a17146111fc57610327565b80636c1c38ae14610f4a578063715018a614610f685780637421a20614610f725780637ce6a0fb14611027578063877dd39d146110455780638da5cb5b146110a957610327565b806331e1bf38116102775780634773489211610230578063568ce9451161020a578063568ce94514610e595780635eb186f814610ec857806360ab585214610f125780636a22246714610f1c57610327565b80634773489214610dab57806349400fba14610e03578063494ca32214610e2157610327565b806331e1bf3814610acb57806332d4e5ec14610b2a578063374a63d714610bd15780633c8130e314610c5c5780633cb1033314610d6f5780633f5693b214610d8d57610327565b8063157bb2c8116102e457806322c0391f116102be57806322c0391f1461093357806327927b3e1461098b57806329161a0014610a0f5780632d1ad8b814610a8757610327565b8063157bb2c814610807578063171e44ea146108935780631b4e7bd2146108d757610327565b8063063afb041461032c57806306fdde0314610604578063071c5443146106875780630b9b5ad0146106da5780630bea440d146107575780630cf20cc9146107a5575b600080fd5b6103586004803603602081101561034257600080fd5b81019080803590602001909291905050506116f5565b604051808a815260200180602001806020018060200189815260200180602001806020018060200188815260200187810387528f818151815260200191508051906020019080838360005b838110156103be5780820151818401526020810190506103a3565b50505050905090810190601f1680156103eb5780820380516001836020036101000a031916815260200191505b5087810386528e818151815260200191508051906020019080838360005b83811015610424578082015181840152602081019050610409565b50505050905090810190601f1680156104515780820380516001836020036101000a031916815260200191505b5087810385528d818151815260200191508051906020019080838360005b8381101561048a57808201518184015260208101905061046f565b50505050905090810190601f1680156104b75780820380516001836020036101000a031916815260200191505b5087810384528b818151815260200191508051906020019080838360005b838110156104f05780820151818401526020810190506104d5565b50505050905090810190601f16801561051d5780820380516001836020036101000a031916815260200191505b5087810383528a818151815260200191508051906020019080838360005b8381101561055657808201518184015260208101905061053b565b50505050905090810190601f1680156105835780820380516001836020036101000a031916815260200191505b50878103825289818151815260200191508051906020019080838360005b838110156105bc5780820151818401526020810190506105a1565b50505050905090810190601f1680156105e95780820380516001836020036101000a031916815260200191505b509f5050505050505050505050505050505060405180910390f35b61060c611ad3565b6040518080602001828103825283818151815260200191508051906020019080838360005b8381101561064c578082015181840152602081019050610631565b50505050905090810190601f1680156106795780820380516001836020036101000a031916815260200191505b509250505060405180910390f35b6106bd6004803603604081101561069d57600080fd5b810190808035906020019092919080359060200190929190505050611b71565b604051808381526020018281526020019250505060405180910390f35b61073d600480360360808110156106f057600080fd5b81019080803573ffffffffffffffffffffffffffffffffffffffff16906020019092919080359060200190929190803560ff16906020019092919080359060200190929190505050611ba2565b604051808215151515815260200191505060405180910390f35b6107a36004803603604081101561076d57600080fd5b8101908080359060200190929190803573ffffffffffffffffffffffffffffffffffffffff169060200190929190505050611e91565b005b6107f1600480360360408110156107bb57600080fd5b81019080803573ffffffffffffffffffffffffffffffffffffffff169060200190929190803590602001909291905050506121c6565b6040518082815260200191505060405180910390f35b6108536004803603604081101561081d57600080fd5b81019080803573ffffffffffffffffffffffffffffffffffffffff16906020019092919080359060200190929190505050612275565b604051808681526020018560ff1660ff16815260200184815260200183151515158152602001821515151581526020019550505050505060405180910390f35b6108d5600480360360208110156108a957600080fd5b81019080803573ffffffffffffffffffffffffffffffffffffffff1690602001909291905050506122de565b005b610919600480360360208110156108ed57600080fd5b81019080803573ffffffffffffffffffffffffffffffffffffffff1690602001909291905050506123f3565b604051808215151515815260200191505060405180910390f35b6109896004803603606081101561094957600080fd5b8101908080359060200190929190803573ffffffffffffffffffffffffffffffffffffffff16906020019092919080359060200190929190505050612413565b005b6109cd600480360360208110156109a157600080fd5b81019080803573ffffffffffffffffffffffffffffffffffffffff1690602001909291905050506124a0565b604051808273ffffffffffffffffffffffffffffffffffffffff1673ffffffffffffffffffffffffffffffffffffffff16815260200191505060405180910390f35b610a7160048036036040811015610a2557600080fd5b81019080803573ffffffffffffffffffffffffffffffffffffffff169060200190929190803573ffffffffffffffffffffffffffffffffffffffff1690602001909291905050506124d3565b6040518082815260200191505060405180910390f35b610ac960048036036020811015610a9d57600080fd5b81019080803573ffffffffffffffffffffffffffffffffffffffff1690602001909291905050506124f8565b005b610ad36127be565b6040518080602001828103825283818151815260200191508051906020019060200280838360005b83811015610b16578082015181840152602081019050610afb565b505050509050019250505060405180910390f35b610b5660048036036020811015610b4057600080fd5b810190808035906020019092919050505061281b565b6040518080602001828103825283818151815260200191508051906020019080838360005b83811015610b96578082015181840152602081019050610b7b565b50505050905090810190601f168015610bc35780820380516001836020036101000a031916815260200191505b509250505060405180910390f35b610c1360048036036020811015610be757600080fd5b81019080803573ffffffffffffffffffffffffffffffffffffffff1690602001909291905050506128cb565b604051808373ffffffffffffffffffffffffffffffffffffffff1673ffffffffffffffffffffffffffffffffffffffff1681526020018281526020019250505060405180910390f35b610c8860048036036020811015610c7257600080fd5b810190808035906020019092919050505061290f565b604051808060200180602001838103835285818151815260200191508051906020019080838360005b83811015610ccc578082015181840152602081019050610cb1565b50505050905090810190601f168015610cf95780820380516001836020036101000a031916815260200191505b50838103825284818151815260200191508051906020019080838360005b83811015610d32578082015181840152602081019050610d17565b50505050905090810190601f168015610d5f5780820380516001836020036101000a031916815260200191505b5094505050505060405180910390f35b610d77612a63565b6040518082815260200191505060405180910390f35b610d95612a69565b6040518082815260200191505060405180910390f35b610ded60048036036020811015610dc157600080fd5b81019080803573ffffffffffffffffffffffffffffffffffffffff169060200190929190505050612a6f565b6040518082815260200191505060405180910390f35b610e0b612be6565b6040518082815260200191505060405180910390f35b610e5760048036036040811015610e3757600080fd5b810190808035906020019092919080359060200190929190505050612bec565b005b610ea560048036036040811015610e6f57600080fd5b81019080803573ffffffffffffffffffffffffffffffffffffffff16906020019092919080359060200190929190505050612e5f565b604051808360ff1660ff1681526020018281526020019250505060405180910390f35b610ed0612f28565b604051808273ffffffffffffffffffffffffffffffffffffffff1673ffffffffffffffffffffffffffffffffffffffff16815260200191505060405180910390f35b610f1a612f4e565b005b610f4860048036036020811015610f3257600080fd5b810190808035906020019092919050505061314a565b005b610f526138e1565b6040518082815260200191505060405180910390f35b610f706138e7565b005b610f9e60048036036020811015610f8857600080fd5b8101908080359060200190929190505050613a55565b6040518084815260200183815260200180602001828103825283818151815260200191508051906020019080838360005b83811015610fea578082015181840152602081019050610fcf565b50505050905090810190601f1680156110175780820380516001836020036101000a031916815260200191505b5094505050505060405180910390f35b61102f613b17565b6040518082815260200191505060405180910390f35b6110a76004803603604081101561105b57600080fd5b81019080803573ffffffffffffffffffffffffffffffffffffffff169060200190929190803573ffffffffffffffffffffffffffffffffffffffff169060200190929190505050613b1d565b005b6110b1613c4e565b604051808273ffffffffffffffffffffffffffffffffffffffff1673ffffffffffffffffffffffffffffffffffffffff16815260200191505060405180910390f35b61111f6004803603602081101561110957600080fd5b8101908080359060200190929190505050613c77565b6040518080602001828103825283818151815260200191508051906020019080838360005b8381101561115f578082015181840152602081019050611144565b50505050905090810190601f16801561118c5780820380516001836020036101000a031916815260200191505b509250505060405180910390f35b6111e6600480360360408110156111b057600080fd5b81019080803573ffffffffffffffffffffffffffffffffffffffff16906020019092919080359060200190929190505050613deb565b6040518082815260200191505060405180910390f35b611204613e91565b6040518082815260200191505060405180910390f35b61125c6004803603602081101561123057600080fd5b81019080803573ffffffffffffffffffffffffffffffffffffffff169060200190929190505050614208565b6040518082815260200191505060405180910390f35b6112b46004803603602081101561128857600080fd5b81019080803573ffffffffffffffffffffffffffffffffffffffff1690602001909291905050506142c7565b6040518082815260200191505060405180910390f35b6112d26142df565b005b6112dc61432e565b005b6112e6614768565b6040518082815260200191505060405180910390f35b61130461476d565b005b6113686004803603604081101561131c57600080fd5b81019080803573ffffffffffffffffffffffffffffffffffffffff169060200190929190803573ffffffffffffffffffffffffffffffffffffffff169060200190929190505050614868565b6040518082815260200191505060405180910390f35b61138661495a565b005b611390614c05565b6040518082815260200191505060405180910390f35b6113ae614c0f565b6040518082815260200191505060405180910390f35b611406600480360360208110156113da57600080fd5b81019080803573ffffffffffffffffffffffffffffffffffffffff169060200190929190505050614c15565b6040518082815260200191505060405180910390f35b6114486004803603602081101561143257600080fd5b8101908080359060200190929190505050614d49565b60405180888152602001878152602001868152602001858152602001806020018415151515815260200183151515158152602001828103825285818151815260200191508051906020019080838360005b838110156114b4578082015181840152602081019050611499565b50505050905090810190601f1680156114e15780820380516001836020036101000a031916815260200191505b509850505050505050505060405180910390f35b6115216004803603602081101561150b57600080fd5b8101908080359060200190929190505050614e3d565b6040518087815260200186815260200185815260200184815260200183815260200180602001828103825283818151815260200191508051906020019080838360005b8381101561157f578082015181840152602081019050611564565b50505050905090810190601f1680156115ac5780820380516001836020036101000a031916815260200191505b5097505050505050505060405180910390f35b6115c7614f11565b005b61160b600480360360208110156115df57600080fd5b81019080803573ffffffffffffffffffffffffffffffffffffffff1690602001909291905050506154af565b005b6116156156a2565b6040518082815260200191505060405180910390f35b61166d6004803603602081101561164157600080fd5b81019080803573ffffffffffffffffffffffffffffffffffffffff1690602001909291905050506156a8565b604051808215151515815260200191505060405180910390f35b6116b36004803603602081101561169d57600080fd5b810190808035906020019092919050505061574a565b604051808273ffffffffffffffffffffffffffffffffffffffff1673ffffffffffffffffffffffffffffffffffffffff16815260200191505060405180910390f35b6010602052806000526040600020600091509050806000015490806001018054600181600116156101000203166002900480601f0160208091040260200160405190810160405280929190818152602001828054600181600116156101000203166002900480156117a75780601f1061177c576101008083540402835291602001916117a7565b820191906000526020600020905b81548152906001019060200180831161178a57829003601f168201915b505050505090806002018054600181600116156101000203166002900480601f0160208091040260200160405190810160405280929190818152602001828054600181600116156101000203166002900480156118455780601f1061181a57610100808354040283529160200191611845565b820191906000526020600020905b81548152906001019060200180831161182857829003601f168201915b505050505090806003018054600181600116156101000203166002900480601f0160208091040260200160405190810160405280929190818152602001828054600181600116156101000203166002900480156118e35780601f106118b8576101008083540402835291602001916118e3565b820191906000526020600020905b8154815290600101906020018083116118c657829003601f168201915b505050505090806004015490806005018054600181600116156101000203166002900480601f0160208091040260200160405190810160405280929190818152602001828054600181600116156101000203166002900480156119875780601f1061195c57610100808354040283529160200191611987565b820191906000526020600020905b81548152906001019060200180831161196a57829003601f168201915b505050505090806006018054600181600116156101000203166002900480601f016020809104026020016040519081016040528092919081815260200182805460018160011615610100020316600290048015611a255780601f106119fa57610100808354040283529160200191611a25565b820191906000526020600020905b815481529060010190602001808311611a0857829003601f168201915b505050505090806007018054600181600116156101000203166002900480601f016020809104026020016040519081016040528092919081815260200182805460018160011615610100020316600290048015611ac35780601f10611a9857610100808354040283529160200191611ac3565b820191906000526020600020905b815481529060010190602001808311611aa657829003601f168201915b5050505050908060080154905089565b601d8054600181600116156101000203166002900480601f016020809104026020016040519081016040528092919081815260200182805460018160011615610100020316600290048015611b695780601f10611b3e57610100808354040283529160200191611b69565b820191906000526020600020905b815481529060010190602001808311611b4c57829003601f168201915b505050505081565b6011602052816000526040600020602052806000526040600020600091509150508060000154908060010154905082565b600081601f60008773ffffffffffffffffffffffffffffffffffffffff1673ffffffffffffffffffffffffffffffffffffffff1681526020019081526020016000206001015410611e845781601f60008773ffffffffffffffffffffffffffffffffffffffff1673ffffffffffffffffffffffffffffffffffffffff1681526020019081526020016000206001015403601f60008773ffffffffffffffffffffffffffffffffffffffff1673ffffffffffffffffffffffffffffffffffffffff1681526020019081526020016000206001018190555083601f60008773ffffffffffffffffffffffffffffffffffffffff1673ffffffffffffffffffffffffffffffffffffffff16815260200190815260200160002060020160008681526020019081526020016000206000018190555082601f60008773ffffffffffffffffffffffffffffffffffffffff1673ffffffffffffffffffffffffffffffffffffffff168152602001908152602001600020600201600086815260200190815260200160002060010160006101000a81548160ff021916908360ff16021790555081601f60008773ffffffffffffffffffffffffffffffffffffffff1673ffffffffffffffffffffffffffffffffffffffff1681526020019081526020016000206002016000868152602001908152602001600020600201819055506000601f60008773ffffffffffffffffffffffffffffffffffffffff1673ffffffffffffffffffffffffffffffffffffffff168152602001908152602001600020600201600086815260200190815260200160002060030160006101000a81548160ff0219169083151502179055506000601f60008773ffffffffffffffffffffffffffffffffffffffff1673ffffffffffffffffffffffffffffffffffffffff168152602001908152602001600020600201600086815260200190815260200160002060030160016101000a81548160ff02191690831515021790555060019050611e89565b600090505b949350505050565b60008211611f07576040517f08c379a00000000000000000000000000000000000000000000000000000000081526004018080602001828103825260128152602001807f416d6f756e742063616e6e6f742062652030000000000000000000000000000081525060200191505060405180910390fd5b611f10816156a8565b156121c257611f1f3382615786565b8073ffffffffffffffffffffffffffffffffffffffff166323b872dd3330856040518463ffffffff1660e01b8152600401808473ffffffffffffffffffffffffffffffffffffffff1673ffffffffffffffffffffffffffffffffffffffff1681526020018373ffffffffffffffffffffffffffffffffffffffff1673ffffffffffffffffffffffffffffffffffffffff1681526020018281526020019350505050602060405180830381600087803b158015611fda57600080fd5b505af1158015611fee573d6000803e3d6000fd5b505050506040513d602081101561200457600080fd5b81019080805190602001909291905050505081602360008373ffffffffffffffffffffffffffffffffffffffff1673ffffffffffffffffffffffffffffffffffffffff16815260200190815260200160002060003373ffffffffffffffffffffffffffffffffffffffff1673ffffffffffffffffffffffffffffffffffffffff1681526020019081526020016000205401602360008373ffffffffffffffffffffffffffffffffffffffff1673ffffffffffffffffffffffffffffffffffffffff16815260200190815260200160002060003373ffffffffffffffffffffffffffffffffffffffff1673ffffffffffffffffffffffffffffffffffffffff168152602001908152602001600020819055506001602460003373ffffffffffffffffffffffffffffffffffffffff1673ffffffffffffffffffffffffffffffffffffffff1681526020019081526020016000205414156121c1576027339080600181540180825580915050600190039060005260206000200160009091909190916101000a81548173ffffffffffffffffffffffffffffffffffffffff021916908373ffffffffffffffffffffffffffffffffffffffff1602179055505b5b5050565b60008082601f60008673ffffffffffffffffffffffffffffffffffffffff1673ffffffffffffffffffffffffffffffffffffffff168152602001908152602001600020600101540390506000811061226b5780601f60008673ffffffffffffffffffffffffffffffffffffffff1673ffffffffffffffffffffffffffffffffffffffff1681526020019081526020016000206001018190555082602254036022819055505b8091505092915050565b60208052816000526040600020602052806000526040600020600091509150508060000154908060010160009054906101000a900460ff16908060020154908060030160009054906101000a900460ff16908060030160019054906101000a900460ff16905085565b6122e6615895565b73ffffffffffffffffffffffffffffffffffffffff16612304613c4e565b73ffffffffffffffffffffffffffffffffffffffff161461238d576040517f08c379a00000000000000000000000000000000000000000000000000000000081526004018080602001828103825260208152602001807f4f776e61626c653a2063616c6c6572206973206e6f7420746865206f776e657281525060200191505060405180910390fd5b6026819080600181540180825580915050600190039060005260206000200160009091909190916101000a81548173ffffffffffffffffffffffffffffffffffffffff021916908373ffffffffffffffffffffffffffffffffffffffff16021790555050565b60216020528060005260406000206000915054906101000a900460ff1681565b601160008481526020019081526020016000206000828152602001908152602001600020600201829080600181540180825580915050600190039060005260206000200160009091909190916101000a81548173ffffffffffffffffffffffffffffffffffffffff021916908373ffffffffffffffffffffffffffffffffffffffff160217905550505050565b60256020528060005260406000206000915054906101000a900473ffffffffffffffffffffffffffffffffffffffff1681565b6023602052816000526040600020602052806000526040600020600091509150505481565b6000602360008373ffffffffffffffffffffffffffffffffffffffff1673ffffffffffffffffffffffffffffffffffffffff16815260200190815260200160002060003373ffffffffffffffffffffffffffffffffffffffff1673ffffffffffffffffffffffffffffffffffffffff168152602001908152602001600020549050600081116125ef576040517f08c379a000000000000000000000000000000000000000000000000000000000815260040180806020018281038252601b8152602001807f5374616b696e672062616c616e63652063616e6e6f742062652030000000000081525060200191505060405180910390fd5b8173ffffffffffffffffffffffffffffffffffffffff1663a9059cbb33836040518363ffffffff1660e01b8152600401808373ffffffffffffffffffffffffffffffffffffffff1673ffffffffffffffffffffffffffffffffffffffff16815260200182815260200192505050602060405180830381600087803b15801561267657600080fd5b505af115801561268a573d6000803e3d6000fd5b505050506040513d60208110156126a057600080fd5b8101908080519060200190929190505050506000602360008473ffffffffffffffffffffffffffffffffffffffff1673ffffffffffffffffffffffffffffffffffffffff16815260200190815260200160002060003373ffffffffffffffffffffffffffffffffffffffff1673ffffffffffffffffffffffffffffffffffffffff168152602001908152602001600020819055506001602460003373ffffffffffffffffffffffffffffffffffffffff1673ffffffffffffffffffffffffffffffffffffffff1681526020019081526020016000205403602460003373ffffffffffffffffffffffffffffffffffffffff1673ffffffffffffffffffffffffffffffffffffffff168152602001908152602001600020819055505050565b606080601c80548060200260200160405190810160405280929190818152602001828054801561280d57602002820191906000526020600020905b8154815260200190600101908083116127f9575b505050505090508091505090565b60126020528060005260406000206000915090508054600181600116156101000203166002900480601f0160208091040260200160405190810160405280929190818152602001828054600181600116156101000203166002900480156128c35780601f10612898576101008083540402835291602001916128c3565b820191906000526020600020905b8154815290600101906020018083116128a657829003601f168201915b505050505081565b601f6020528060005260406000206000915090508060000160009054906101000a900473ffffffffffffffffffffffffffffffffffffffff16908060010154905082565b6014602052806000526040600020600091509050806000018054600181600116156101000203166002900480601f0160208091040260200160405190810160405280929190818152602001828054600181600116156101000203166002900480156129bb5780601f10612990576101008083540402835291602001916129bb565b820191906000526020600020905b81548152906001019060200180831161299e57829003601f168201915b505050505090806001018054600181600116156101000203166002900480601f016020809104026020016040519081016040528092919081815260200182805460018160011615610100020316600290048015612a595780601f10612a2e57610100808354040283529160200191612a59565b820191906000526020600020905b815481529060010190602001808311612a3c57829003601f168201915b5050505050905082565b60095481565b600a5481565b6000602160008373ffffffffffffffffffffffffffffffffffffffff1673ffffffffffffffffffffffffffffffffffffffff16815260200190815260200160002060009054906101000a900460ff16612b9c5781601f60008473ffffffffffffffffffffffffffffffffffffffff1673ffffffffffffffffffffffffffffffffffffffff16815260200190815260200160002060000160006101000a81548173ffffffffffffffffffffffffffffffffffffffff021916908373ffffffffffffffffffffffffffffffffffffffff1602179055506001602160008473ffffffffffffffffffffffffffffffffffffffff1673ffffffffffffffffffffffffffffffffffffffff16815260200190815260200160002060006101000a81548160ff0219169083151502179055505b601f60008373ffffffffffffffffffffffffffffffffffffffff1673ffffffffffffffffffffffffffffffffffffffff168152602001908152602001600020600101549050919050565b60085481565b6001821415612dc6576001601160008381526020019081526020016000206000600181526020019081526020016000206000018190555060026011600083815260200190815260200160002060006002815260200190815260200160002060000181905550600360116000838152602001908152602001600020600060038152602001908152602001600020600001819055506004601160008381526020019081526020016000206000600481526020019081526020016000206000018190555060056011600083815260200190815260200160002060006005815260200190815260200160002060000181905550600660116000838152602001908152602001600020600060068152602001908152602001600020600001819055506007601160008381526020019081526020016000206000600781526020019081526020016000206000018190555060086011600083815260200190815260200160002060006008815260200190815260200160002060000181905550600960116000838152602001908152602001600020600060098152602001908152602001600020600001819055506000601160008381526020019081526020016000206000600a815260200190815260200160002060000181905550612e5b565b6002821415612e5a576000601160008381526020019081526020016000206000600181526020019081526020016000206000018190555060016011600083815260200190815260200160002060006002815260200190815260200160002060000181905550600260116000838152602001908152602001600020600060038152602001908152602001600020600001819055505b5b5050565b600080601f60008573ffffffffffffffffffffffffffffffffffffffff1673ffffffffffffffffffffffffffffffffffffffff168152602001908152602001600020600201600084815260200190815260200160002060010160009054906101000a900460ff16601f60008673ffffffffffffffffffffffffffffffffffffffff1673ffffffffffffffffffffffffffffffffffffffff168152602001908152602001600020600201600085815260200190815260200160002060020154915091509250929050565b601e60009054906101000a900473ffffffffffffffffffffffffffffffffffffffff1681565b612f56615895565b73ffffffffffffffffffffffffffffffffffffffff16612f74613c4e565b73ffffffffffffffffffffffffffffffffffffffff1614612ffd576040517f08c379a00000000000000000000000000000000000000000000000000000000081526004018080602001828103825260208152602001807f4f776e61626c653a2063616c6c6572206973206e6f7420746865206f776e657281525060200191505060405180910390fd5b60008090505b6027805490508110156131475760006027828154811061301f57fe5b9060005260206000200160009054906101000a900473ffffffffffffffffffffffffffffffffffffffff169050601e60009054906101000a900473ffffffffffffffffffffffffffffffffffffffff1673ffffffffffffffffffffffffffffffffffffffff1663a9059cbb8261309484614208565b6040518363ffffffff1660e01b8152600401808373ffffffffffffffffffffffffffffffffffffffff1673ffffffffffffffffffffffffffffffffffffffff16815260200182815260200192505050602060405180830381600087803b1580156130fd57600080fd5b505af1158015613111573d6000803e3d6000fd5b505050506040513d602081101561312757600080fd5b810190808051906020019092919050505050508080600101915050613003565b50565b60608060006060613186600e6000600f600089815260200190815260200160002060010154815260200190815260200160002060000154613c77565b90506040518060600160405280603c8152602001615aba603c913993506040518060400160405280600a81526020017f267473796d733d55534400000000000000000000000000000000000000000000815250925060006131e561589d565b90508073ffffffffffffffffffffffffffffffffffffffff1663a9059cbb601760009054906101000a900473ffffffffffffffffffffffffffffffffffffffff168373ffffffffffffffffffffffffffffffffffffffff166370a08231306040518263ffffffff1660e01b8152600401808273ffffffffffffffffffffffffffffffffffffffff1673ffffffffffffffffffffffffffffffffffffffff16815260200191505060206040518083038186803b1580156132a357600080fd5b505afa1580156132b7573d6000803e3d6000fd5b505050506040513d60208110156132cd57600080fd5b81019080805190602001909291905050506040518363ffffffff1660e01b8152600401808373ffffffffffffffffffffffffffffffffffffffff1673ffffffffffffffffffffffffffffffffffffffff16815260200182815260200192505050602060405180830381600087803b15801561334757600080fd5b505af115801561335b573d6000803e3d6000fd5b505050506040513d602081101561337157600080fd5b81019080805190602001909291905050506133f4576040517f08c379a00000000000000000000000000000000000000000000000000000000081526004018080602001828103825260128152602001807f556e61626c6520746f207472616e73666572000000000000000000000000000081525060200191505060405180910390fd5b601860009054906101000a900473ffffffffffffffffffffffffffffffffffffffff1673ffffffffffffffffffffffffffffffffffffffff1663a8f2c5258360146000600f60008c8152602001908152602001600020600001548152602001908152602001600020600001601860009054906101000a900473ffffffffffffffffffffffffffffffffffffffff1673ffffffffffffffffffffffffffffffffffffffff16636b190f708a888b6040518463ffffffff1660e01b815260040180806020018060200180602001848103845287818151815260200191508051906020019080838360005b838110156134f75780820151818401526020810190506134dc565b50505050905090810190601f1680156135245780820380516001836020036101000a031916815260200191505b50848103835286818151815260200191508051906020019080838360005b8381101561355d578082015181840152602081019050613542565b50505050905090810190601f16801561358a5780820380516001836020036101000a031916815260200191505b50848103825285818151815260200191508051906020019080838360005b838110156135c35780820151818401526020810190506135a8565b50505050905090810190601f1680156135f05780820380516001836020036101000a031916815260200191505b509650505050505050600060405180830381600087803b15801561361357600080fd5b505af1158015613627573d6000803e3d6000fd5b505050506040513d6000823e3d601f19601f82011682018060405250602081101561365157600080fd5b810190808051604051939291908464010000000082111561367157600080fd5b8382019150602082018581111561368757600080fd5b82518660018202830111640100000000821117156136a457600080fd5b8083526020830192505050908051906020019080838360005b838110156136d85780820151818401526020810190506136bd565b50505050905090810190601f1680156137055780820380516001836020036101000a031916815260200191505b506040525050506040518463ffffffff1660e01b815260040180806020018060200180602001848103845287818151815260200191508051906020019080838360005b83811015613763578082015181840152602081019050613748565b50505050905090810190601f1680156137905780820380516001836020036101000a031916815260200191505b508481038352868181546001816001161561010002031660029004815260200191508054600181600116156101000203166002900480156138125780601f106137e757610100808354040283529160200191613812565b820191906000526020600020905b8154815290600101906020018083116137f557829003601f168201915b5050848103825285818151815260200191508051906020019080838360005b8381101561384c578082015181840152602081019050613831565b50505050905090810190601f1680156138795780820380516001836020036101000a031916815260200191505b509650505050505050602060405180830381600087803b15801561389c57600080fd5b505af11580156138b0573d6000803e3d6000fd5b505050506040513d60208110156138c657600080fd5b81019080805190602001909291905050509250505050505050565b60075481565b6138ef615895565b73ffffffffffffffffffffffffffffffffffffffff1661390d613c4e565b73ffffffffffffffffffffffffffffffffffffffff1614613996576040517f08c379a00000000000000000000000000000000000000000000000000000000081526004018080602001828103825260208152602001807f4f776e61626c653a2063616c6c6572206973206e6f7420746865206f776e657281525060200191505060405180910390fd5b600073ffffffffffffffffffffffffffffffffffffffff166000809054906101000a900473ffffffffffffffffffffffffffffffffffffffff1673ffffffffffffffffffffffffffffffffffffffff167f8be0079c531659141344cd1fd0a4f28419497f9722a3daafe3b4186f6b6457e060405160405180910390a360008060006101000a81548173ffffffffffffffffffffffffffffffffffffffff021916908373ffffffffffffffffffffffffffffffffffffffff160217905550565b6013602052806000526040600020600091509050806000015490806001015490806002018054600181600116156101000203166002900480601f016020809104026020016040519081016040528092919081815260200182805460018160011615610100020316600290048015613b0d5780601f10613ae257610100808354040283529160200191613b0d565b820191906000526020600020905b815481529060010190602001808311613af057829003601f168201915b5050505050905083565b600c5481565b613b25615895565b73ffffffffffffffffffffffffffffffffffffffff16613b43613c4e565b73ffffffffffffffffffffffffffffffffffffffff1614613bcc576040517f08c379a00000000000000000000000000000000000000000000000000000000081526004018080602001828103825260208152602001807f4f776e61626c653a2063616c6c6572206973206e6f7420746865206f776e657281525060200191505060405180910390fd5b80602560008473ffffffffffffffffffffffffffffffffffffffff1673ffffffffffffffffffffffffffffffffffffffff16815260200190815260200160002060006101000a81548173ffffffffffffffffffffffffffffffffffffffff021916908373ffffffffffffffffffffffffffffffffffffffff1602179055505050565b60008060009054906101000a900473ffffffffffffffffffffffffffffffffffffffff16905090565b606060008090505b60208160ff16108015613cca5750600060f81b838260ff1660208110613ca157fe5b1a60f81b7effffffffffffffffffffffffffffffffffffffffffffffffffffffffffffff191614155b15613cdc578080600101915050613c7f565b60608160ff1667ffffffffffffffff81118015613cf857600080fd5b506040519080825280601f01601f191660200182016040528015613d2b5781602001600182028036833780820191505090505b509050600091505b60208260ff16108015613d7e5750600060f81b848360ff1660208110613d5557fe5b1a60f81b7effffffffffffffffffffffffffffffffffffffffffffffffffffffffffffff191614155b15613de157838260ff1660208110613d9257fe5b1a60f81b818360ff1681518110613da557fe5b60200101907effffffffffffffffffffffffffffffffffffffffffffffffffffffffffffff1916908160001a9053508180600101925050613d33565b8092505050919050565b60008082601f60008673ffffffffffffffffffffffffffffffffffffffff1673ffffffffffffffffffffffffffffffffffffffff1681526020019081526020016000206001015401905080601f60008673ffffffffffffffffffffffffffffffffffffffff1673ffffffffffffffffffffffffffffffffffffffff1681526020019081526020016000206001018190555082602254016022819055508091505092915050565b600080613e9c61589d565b90508073ffffffffffffffffffffffffffffffffffffffff1663a9059cbb601960009054906101000a900473ffffffffffffffffffffffffffffffffffffffff168373ffffffffffffffffffffffffffffffffffffffff166370a08231306040518263ffffffff1660e01b8152600401808273ffffffffffffffffffffffffffffffffffffffff1673ffffffffffffffffffffffffffffffffffffffff16815260200191505060206040518083038186803b158015613f5a57600080fd5b505afa158015613f6e573d6000803e3d6000fd5b505050506040513d6020811015613f8457600080fd5b81019080805190602001909291905050506040518363ffffffff1660e01b8152600401808373ffffffffffffffffffffffffffffffffffffffff1673ffffffffffffffffffffffffffffffffffffffff16815260200182815260200192505050602060405180830381600087803b158015613ffe57600080fd5b505af1158015614012573d6000803e3d6000fd5b505050506040513d602081101561402857600080fd5b81019080805190602001909291905050506140ab576040517f08c379a00000000000000000000000000000000000000000000000000000000081526004018080602001828103825260128152602001807f556e61626c6520746f207472616e73666572000000000000000000000000000081525060200191505060405180910390fd5b601a60009054906101000a900473ffffffffffffffffffffffffffffffffffffffff1673ffffffffffffffffffffffffffffffffffffffff1663dbdff2c16040518163ffffffff1660e01b8152600401602060405180830381600087803b15801561411557600080fd5b505af1158015614129573d6000803e3d6000fd5b505050506040513d602081101561413f57600080fd5b8101908080519060200190929190505050600b81905550601a60009054906101000a900473ffffffffffffffffffffffffffffffffffffffff1673ffffffffffffffffffffffffffffffffffffffff1663edd3159d6040518163ffffffff1660e01b815260040160206040518083038186803b1580156141be57600080fd5b505afa1580156141d2573d6000803e3d6000fd5b505050506040513d60208110156141e857600080fd5b8101908080519060200190929190505050600d81905550600d5491505090565b600080600090506000602460008573ffffffffffffffffffffffffffffffffffffffff1673ffffffffffffffffffffffffffffffffffffffff1681526020019081526020016000205411156142be5760008090505b6026805490508110156142bc576142ab846026838154811061427b57fe5b9060005260206000200160009054906101000a900473ffffffffffffffffffffffffffffffffffffffff16614868565b82019150808060010191505061425d565b505b80915050919050565b60246020528060005260406000206000915090505481565b6000600190505b600681121561432b576001600f600083815260200190815260200160002060050160006101000a81548160ff02191690831515021790555080806001019150506142e6565b50565b6001601b819055506000600190505b60038113614765576000600190505b601360008381526020019081526020016000206001015481136147575760016002428161437557fe5b0701600f6000601b548152602001908152602001600020600001819055506143ac6001600242816143a257fe5b0701601b54612bec565b600160075442816143b957fe5b0701600f6000601b548152602001908152602001600020600101819055506000600f6000601b5481526020019081526020016000206002018190555081600f6000601b548152602001908152602001600020600301819055506012600060018152602001908152602001600020600f6000601b548152602001908152602001600020600401908054600181600116156101000203166002900461445d9291906158c7565b506000600f6000601b54815260200190815260200160002060050160006101000a81548160ff0219169083151502179055506000600f6000601b54815260200190815260200160002060050160016101000a81548160ff021916908315150217905550601b5460106000601b54815260200190815260200160002060000181905550614516600e6000600f6000601b54815260200190815260200160002060010154815260200190815260200160002060000154613c77565b60106000601b548152602001908152602001600020600101908051906020019061454192919061594e565b5060146000600f6000601b54815260200190815260200160002060000154815260200190815260200160002060010160106000601b54815260200190815260200160002060020190805460018160011615610100020316600290046145a79291906158c7565b506040518060200160405280600081525060106000601b54815260200190815260200160002060030190805190602001906145e392919061594e565b504260106000601b5481526020019081526020016000206004018190555060136000600f6000601b54815260200190815260200160002060030154815260200190815260200160002060020160106000601b54815260200190815260200160002060050190805460018160011615610100020316600290046146669291906158c7565b50600f6000601b54815260200190815260200160002060040160106000601b54815260200190815260200160002060060190805460018160011615610100020316600290046146b69291906158c7565b506146ee600e6000600f6000601b54815260200190815260200160002060010154815260200190815260200160002060040154613c77565b60106000601b548152602001908152602001600020600701908051906020019061471992919061594e565b50600060106000601b54815260200190815260200160002060080181905550601b60008154809291906001019190505550808060010191505061434c565b50808060010191505061433d565b50565b600090565b601c600061477b91906159ce565b60006013600060038152602001908152602001600020600101546013600060028152602001908152602001600020600101546013600060018152602001908152602001600020600101540101905060008190505b600081131561486457600f600082815260200190815260200160002060050160009054906101000a900460ff16806148275750600f600082815260200190815260200160002060050160019054906101000a900460ff165b1561485657601c8190806001815401808255809150506001900390600052602060002001600090919091909150555b8080600190039150506147cf565b5050565b600080602460008573ffffffffffffffffffffffffffffffffffffffff1673ffffffffffffffffffffffffffffffffffffffff16815260200190815260200160002054116148b95760009050614954565b670de0b6b3a76400006148cb83614c15565b602360008573ffffffffffffffffffffffffffffffffffffffff1673ffffffffffffffffffffffffffffffffffffffff16815260200190815260200160002060008673ffffffffffffffffffffffffffffffffffffffff1673ffffffffffffffffffffffffffffffffffffffff16815260200190815260200160002054028161495057fe5b0490505b92915050565b600061496461589d565b90508073ffffffffffffffffffffffffffffffffffffffff1663a9059cbb601560009054906101000a900473ffffffffffffffffffffffffffffffffffffffff168373ffffffffffffffffffffffffffffffffffffffff166370a08231306040518263ffffffff1660e01b8152600401808273ffffffffffffffffffffffffffffffffffffffff1673ffffffffffffffffffffffffffffffffffffffff16815260200191505060206040518083038186803b158015614a2257600080fd5b505afa158015614a36573d6000803e3d6000fd5b505050506040513d6020811015614a4c57600080fd5b81019080805190602001909291905050506040518363ffffffff1660e01b8152600401808373ffffffffffffffffffffffffffffffffffffffff1673ffffffffffffffffffffffffffffffffffffffff16815260200182815260200192505050602060405180830381600087803b158015614ac657600080fd5b505af1158015614ada573d6000803e3d6000fd5b505050506040513d6020811015614af057600080fd5b8101908080519060200190929190505050614b73576040517f08c379a00000000000000000000000000000000000000000000000000000000081526004018080602001828103825260128152602001807f556e61626c6520746f207472616e73666572000000000000000000000000000081525060200191505060405180910390fd5b601660009054906101000a900473ffffffffffffffffffffffffffffffffffffffff1673ffffffffffffffffffffffffffffffffffffffff16632b8dc6ff6007546040518263ffffffff1660e01b815260040180828152602001915050600060405180830381600087803b158015614bea57600080fd5b505af1158015614bfe573d6000803e3d6000fd5b5050505050565b6000602254905090565b600b5481565b600080602560008473ffffffffffffffffffffffffffffffffffffffff1673ffffffffffffffffffffffffffffffffffffffff16815260200190815260200160002060009054906101000a900473ffffffffffffffffffffffffffffffffffffffff169050600081905060008060008060008573ffffffffffffffffffffffffffffffffffffffff1663feaf968c6040518163ffffffff1660e01b815260040160a06040518083038186803b158015614ccd57600080fd5b505afa158015614ce1573d6000803e3d6000fd5b505050506040513d60a0811015614cf757600080fd5b8101908080519060200190929190805190602001909291908051906020019092919080519060200190929190805190602001909291905050509450945094509450945083975050505050505050919050565b600f602052806000526040600020600091509050806000015490806001015490806002015490806003015490806004018054600181600116156101000203166002900480601f016020809104026020016040519081016040528092919081815260200182805460018160011615610100020316600290048015614e0d5780601f10614de257610100808354040283529160200191614e0d565b820191906000526020600020905b815481529060010190602001808311614df057829003601f168201915b5050505050908060050160009054906101000a900460ff16908060050160019054906101000a900460ff16905087565b600e602052806000526040600020600091509050806000015490806001015490806002015490806003015490806004015490806005018054600181600116156101000203166002900480601f016020809104026020016040519081016040528092919081815260200182805460018160011615610100020316600290048015614f075780601f10614edc57610100808354040283529160200191614f07565b820191906000526020600020905b815481529060010190602001808311614eea57829003601f168201915b5050505050905086565b6000600190505b60075481136154ac57601660009054906101000a900473ffffffffffffffffffffffffffffffffffffffff1673ffffffffffffffffffffffffffffffffffffffff166303b60331826040518263ffffffff1660e01b81526004018082815260200191505060206040518083038186803b158015614f9457600080fd5b505afa158015614fa8573d6000803e3d6000fd5b505050506040513d6020811015614fbe57600080fd5b8101908080519060200190929190505050600e600083815260200190815260200160002060000181905550601660009054906101000a900473ffffffffffffffffffffffffffffffffffffffff1673ffffffffffffffffffffffffffffffffffffffff1663f771044a826040518263ffffffff1660e01b81526004018082815260200191505060206040518083038186803b15801561505c57600080fd5b505afa158015615070573d6000803e3d6000fd5b505050506040513d602081101561508657600080fd5b8101908080519060200190929190505050600e600083815260200190815260200160002060010181905550601660009054906101000a900473ffffffffffffffffffffffffffffffffffffffff1673ffffffffffffffffffffffffffffffffffffffff166319eb4d4d826040518263ffffffff1660e01b81526004018082815260200191505060206040518083038186803b15801561512457600080fd5b505afa158015615138573d6000803e3d6000fd5b505050506040513d602081101561514e57600080fd5b8101908080519060200190929190505050600e600083815260200190815260200160002060020181905550601660009054906101000a900473ffffffffffffffffffffffffffffffffffffffff1673ffffffffffffffffffffffffffffffffffffffff1663ebab4ffe826040518263ffffffff1660e01b81526004018082815260200191505060206040518083038186803b1580156151ec57600080fd5b505afa158015615200573d6000803e3d6000fd5b505050506040513d602081101561521657600080fd5b8101908080519060200190929190505050600e600083815260200190815260200160002060030181905550601660009054906101000a900473ffffffffffffffffffffffffffffffffffffffff1673ffffffffffffffffffffffffffffffffffffffff1663f4f20d7a826040518263ffffffff1660e01b81526004018082815260200191505060206040518083038186803b1580156152b457600080fd5b505afa1580156152c8573d6000803e3d6000fd5b505050506040513d60208110156152de57600080fd5b8101908080519060200190929190505050600e600083815260200190815260200160002060040181905550601660009054906101000a900473ffffffffffffffffffffffffffffffffffffffff1673ffffffffffffffffffffffffffffffffffffffff16631fd038b5826040518263ffffffff1660e01b81526004018082815260200191505060006040518083038186803b15801561537c57600080fd5b505afa158015615390573d6000803e3d6000fd5b505050506040513d6000823e3d601f19601f8201168201806040525060208110156153ba57600080fd5b81019080805160405193929190846401000000008211156153da57600080fd5b838201915060208201858111156153f057600080fd5b825186600182028301116401000000008211171561540d57600080fd5b8083526020830192505050908051906020019080838360005b83811015615441578082015181840152602081019050615426565b50505050905090810190601f16801561546e5780820380516001836020036101000a031916815260200191505b50604052505050600e6000838152602001908152602001600020600501908051906020019061549e9291906159ef565b508080600101915050614f18565b50565b6154b7615895565b73ffffffffffffffffffffffffffffffffffffffff166154d5613c4e565b73ffffffffffffffffffffffffffffffffffffffff161461555e576040517f08c379a00000000000000000000000000000000000000000000000000000000081526004018080602001828103825260208152602001807f4f776e61626c653a2063616c6c6572206973206e6f7420746865206f776e657281525060200191505060405180910390fd5b600073ffffffffffffffffffffffffffffffffffffffff168173ffffffffffffffffffffffffffffffffffffffff1614156155e4576040517f08c379a0000000000000000000000000000000000000000000000000000000008152600401808060200182810382526026815260200180615af66026913960400191505060405180910390fd5b8073ffffffffffffffffffffffffffffffffffffffff166000809054906101000a900473ffffffffffffffffffffffffffffffffffffffff1673ffffffffffffffffffffffffffffffffffffffff167f8be0079c531659141344cd1fd0a4f28419497f9722a3daafe3b4186f6b6457e060405160405180910390a3806000806101000a81548173ffffffffffffffffffffffffffffffffffffffff021916908373ffffffffffffffffffffffffffffffffffffffff16021790555050565b600d5481565b600080600090505b60268054905081101561573f578273ffffffffffffffffffffffffffffffffffffffff16602682815481106156e157fe5b9060005260206000200160009054906101000a900473ffffffffffffffffffffffffffffffffffffffff1673ffffffffffffffffffffffffffffffffffffffff161415615732576001915050615745565b80806001019150506156b0565b50600090505b919050565b6027818154811061575757fe5b906000526020600020016000915054906101000a900473ffffffffffffffffffffffffffffffffffffffff1681565b6000602360008373ffffffffffffffffffffffffffffffffffffffff1673ffffffffffffffffffffffffffffffffffffffff16815260200190815260200160002060008473ffffffffffffffffffffffffffffffffffffffff1673ffffffffffffffffffffffffffffffffffffffff1681526020019081526020016000205411615891576001602460008473ffffffffffffffffffffffffffffffffffffffff1673ffffffffffffffffffffffffffffffffffffffff1681526020019081526020016000205401602460008473ffffffffffffffffffffffffffffffffffffffff1673ffffffffffffffffffffffffffffffffffffffff168152602001908152602001600020819055505b5050565b600033905090565b6000600360009054906101000a900473ffffffffffffffffffffffffffffffffffffffff16905090565b828054600181600116156101000203166002900490600052602060002090601f016020900481019282601f10615900578054855561593d565b8280016001018555821561593d57600052602060002091601f016020900482015b8281111561593c578254825591600101919060010190615921565b5b50905061594a9190615a6f565b5090565b828054600181600116156101000203166002900490600052602060002090601f016020900481019282601f1061598f57805160ff19168380011785556159bd565b828001600101855582156159bd579182015b828111156159bc5782518255916020019190600101906159a1565b5b5090506159ca9190615a6f565b5090565b50805460008255906000526020600020908101906159ec9190615a94565b50565b828054600181600116156101000203166002900490600052602060002090601f016020900481019282601f10615a3057805160ff1916838001178555615a5e565b82800160010185558215615a5e579182015b82811115615a5d578251825591602001919060010190615a42565b5b509050615a6b9190615a6f565b5090565b615a9191905b80821115615a8d576000816000905550600101615a75565b5090565b90565b615ab691905b80821115615ab2576000816000905550600101615a9a565b5090565b9056fe68747470733a2f2f6d696e2d6170692e63727970746f636f6d706172652e636f6d2f646174612f70726963656d756c746966756c6c3f6673796d733d4f776e61626c653a206e6577206f776e657220697320746865207a65726f2061646472657373a26469706673582212208b7d5688e7138f8a84156c5ad90d97aa3c679a66a52e583c3766a18f0f1e30a864736f6c63430006060033477565737320746865207365636f6e642064696769742061667465722074686520646563696d616c20706f696e7447756573732072656d61696e646572206f6620766f6c756d6520646976696465642062792033",
  "immutableReferences": {},
  "source": "pragma solidity ^0.6.0;\n// pragma experimental ABIEncoderV2;\n\nimport \"@nomiclabs/buidler/console.sol\";\nimport \"@openzeppelin/contracts/token/ERC20/IERC20.sol\";\nimport \"@openzeppelin/contracts/access/Ownable.sol\";\nimport \"@chainlink/contracts/src/v0.6/interfaces/AggregatorV3Interface.sol\";\n\nimport \"./AddGameInfo.sol\";\n\ncontract TokenFarm is Ownable, AddGameInfo {\n    // string public name = \"Dapp Token Farm\";\n    string public name = \"Crypto Gas Earning\";\n    IERC20 public dappToken;\n\n    struct UserGameInfo {\n        uint256 gameId; // game id\n        uint8 answerId; // answer chosen by user\n        uint256 amount; // bet amount on this game\n        bool isCorrect;\n        bool isNotified; // has notified result to the user\n    }\n\n    struct UserData {\n        address addr; // user wallet address\n        uint256 balance; // user balance stored in the contract, including ones in the games\n        mapping(uint256 => UserGameInfo) gameInfoStructs;\n    }\n\n    // UserData Map\n    mapping(address => UserData) public userDataStructs;\n    mapping(address => mapping(uint256 => UserGameInfo)) public userGameStructs;\n    mapping(address => bool) public userList;\n    uint256 totalContractBalance;\n\n    /* Get user's available balance */\n    function getUserBalance(address addr) public returns (uint256) {\n        if (!userList[addr]) {\n            userDataStructs[addr].addr = addr;\n            userList[addr] = true;\n        }\n        return userDataStructs[addr].balance;\n    }\n\n    /* load balance from user's address to contract */\n    function reloadBalance(address addr, uint256 amount)\n        public\n        returns (uint256)\n    {\n        uint256 total = userDataStructs[addr].balance + amount;\n        userDataStructs[addr].balance = total;\n        totalContractBalance = totalContractBalance + amount;\n        return total;\n    }\n\n    /* withdraw balance from contract to user's balance */\n    function withdrawBalance(address addr, uint256 amount)\n        public\n        returns (uint256)\n    {\n        uint256 remainding = userDataStructs[addr].balance - amount;\n        if (remainding >= 0) {\n            userDataStructs[addr].balance = remainding;\n            totalContractBalance = totalContractBalance - amount;\n        }\n        return remainding;\n    }\n\n    function getTotalContractBalance()\n        public\n        returns (uint256 contractBalance)\n    {\n        return totalContractBalance;\n    }\n\n    /* Check if user is currently participating in a game */\n    function getUserGameInfo(address addr, uint256 gameId)\n        public\n        view\n        returns (uint8 answerId, uint256 amount)\n    {\n        return (\n            userDataStructs[addr].gameInfoStructs[gameId].answerId,\n            userDataStructs[addr].gameInfoStructs[gameId].amount\n        );\n    }\n\n    /* When user register to participate in a game */\n    function addGameInfoToUserData(\n        address addr,\n        uint256 gameId,\n        uint8 answerId,\n        uint256 amount\n    ) public returns (bool success) {\n        if (userDataStructs[addr].balance >= amount) {\n            userDataStructs[addr].balance =\n                userDataStructs[addr].balance -\n                amount;\n            userDataStructs[addr].gameInfoStructs[gameId].gameId = gameId;\n            userDataStructs[addr].gameInfoStructs[gameId].answerId = answerId;\n            userDataStructs[addr].gameInfoStructs[gameId].amount = amount;\n            userDataStructs[addr].gameInfoStructs[gameId].isCorrect = false;\n            userDataStructs[addr].gameInfoStructs[gameId].isNotified = false;\n            return true;\n        }\n        return false;\n    }\n\n    // issueReward\n\n    // Deposit Balance (stakeToken -> Deposit tokan)\n    function stakeTokens(uint256 amount, address tokenAddress) public {\n        require(amount > 0, \"Amount cannot be 0\");\n        // only allow certain token to be deposit\n        if (isTokenAllowed(tokenAddress)) {\n            updateUniqueTokensStake(msg.sender, tokenAddress);\n\n            // token flow: user address to smart contract\n            // because contract does not own the token, use TransferFrom\n            IERC20(tokenAddress).transferFrom(\n                msg.sender,\n                address(this),\n                amount\n            );\n\n            // get the original/current balance and add in the new stake amount\n            stakingBalance[tokenAddress][msg.sender] =\n                stakingBalance[tokenAddress][msg.sender] +\n                amount;\n\n            // New staker\n            if (uniqueTokensStaked[msg.sender] == 1) {\n                stakers.push(msg.sender);\n            }\n        }\n    }\n\n    // token addresses -> mapping of user address -> amounts\n    // **need to change it to have more info\n    mapping(address => mapping(address => uint256)) public stakingBalance;\n    //\n    mapping(address => uint256) public uniqueTokensStaked;\n    //\n    mapping(address => address) public tokenPriceFeedMapping;\n\n    // store: token allowed to be deposit\n    address[] allowedTokens;\n\n    // store all the stakers\n    address[] public stakers;\n\n    constructor(address _dappTokenAddress) public {\n        // interface to set ERC20\n        dappToken = IERC20(_dappTokenAddress);\n    }\n\n    // Withdraw Balance (unstakeTokens -> Withdraw token)\n    function unstakeTokens(address token) public {\n        uint256 balance = stakingBalance[token][msg.sender];\n        require(balance > 0, \"Staking balance cannot be 0\");\n\n        // token flow: contract to user address\n        // because contract DOES  own the token, use Transfer\n        IERC20(token).transfer(msg.sender, balance);\n\n        // withdraw all balance\n        stakingBalance[token][msg.sender] = 0;\n        uniqueTokensStaked[msg.sender] = uniqueTokensStaked[msg.sender] - 1;\n    }\n\n    // Issue Rewards (issueTokens -> Issue Rewards)\n    function issueTokens() public onlyOwner {\n        for (\n            uint256 stakersIndex = 0;\n            stakersIndex < stakers.length;\n            stakersIndex++\n        ) {\n            address recipient = stakers[stakersIndex];\n            dappToken.transfer(recipient, getUserTotalValue(recipient));\n        }\n    }\n\n    function setPriceFeedContract(address token, address priceFeed)\n        public\n        onlyOwner\n    {\n        tokenPriceFeedMapping[token] = priceFeed;\n    }\n\n    function updateUniqueTokensStake(address user, address token) internal {\n        if (stakingBalance[token][user] <= 0) {\n            uniqueTokensStaked[user] = uniqueTokensStaked[user] + 1;\n        }\n    }\n\n    // Checking if the token user's sending is valid for our app\n    // update it to mapping so less gas will be charged\n    function isTokenAllowed(address token) public returns (bool) {\n        for (\n            uint256 allowedTokensIndex = 0;\n            allowedTokensIndex < allowedTokens.length;\n            allowedTokensIndex++\n        ) {\n            if (allowedTokens[allowedTokensIndex] == token) {\n                return true;\n            }\n        }\n        return false;\n    }\n\n    // Add allowed tokens (can only be modified/called by the onwer)\n    function addAllowedTokens(address token) public onlyOwner {\n        allowedTokens.push(token);\n        // allowedTokens[token]=true; for mapping\n    }\n\n    function getUserTotalValue(address user) public view returns (uint256) {\n        uint256 totalValue = 0;\n        if (uniqueTokensStaked[user] > 0) {\n            for (\n                uint256 allowedTokensIndex = 0;\n                allowedTokensIndex < allowedTokens.length;\n                allowedTokensIndex++\n            ) {\n                totalValue =\n                    totalValue +\n                    getUserStakingBalanceEthValue(\n                        user,\n                        allowedTokens[allowedTokensIndex]\n                    );\n            }\n        }\n        return totalValue;\n    }\n\n    function getUserStakingBalanceEthValue(address user, address token)\n        public\n        view\n        returns (uint256)\n    {\n        // user does not have token\n        if (uniqueTokensStaked[user] <= 0) {\n            return 0;\n        }\n        return\n            (stakingBalance[token][user] * getTokenEthPrice(token)) / (10**18);\n    }\n\n    function getTokenEthPrice(address token) public view returns (uint256) {\n        address priceFeedAddress = tokenPriceFeedMapping[token];\n        AggregatorV3Interface priceFeed =\n            AggregatorV3Interface(priceFeedAddress);\n        (\n            uint80 roundID,\n            int256 price,\n            uint256 startedAt,\n            uint256 timeStamp,\n            uint80 answerdInRound\n        ) = priceFeed.latestRoundData();\n        return uint256(price);\n    }\n}\n",
  "sourcePath": "/Users/derekchou/Desktop/crypto/guess_get_gas/contracts/TokenFarm.sol",
  "compiler": {
    "name": "solc",
    "version": "0.6.6+commit.6c089d02.Emscripten.clang"
  },
  "schemaVersion": "3.3.3",
  "updatedAt": "2021-04-10T22:41:20.464Z",
  "networkType": "ethereum",
  "devdoc": {
    "methods": {
      "owner()": {
        "details": "Returns the address of the current owner."
      },
      "renounceOwnership()": {
        "details": "Leaves the contract without owner. It will not be possible to call `onlyOwner` functions anymore. Can only be called by the current owner.     * NOTE: Renouncing ownership will leave the contract without an owner, thereby removing any functionality that is only available to the owner."
      },
      "transferOwnership(address)": {
        "details": "Transfers ownership of the contract to a new account (`newOwner`). Can only be called by the current owner."
      }
    }
  },
  "userdoc": {
    "methods": {}
  }
}