{
  "contractName": "TokenFarm",
  "abi": [
    {
      "inputs": [
        {
          "internalType": "address",
          "name": "_dappTokenAddress",
          "type": "address"
        }
      ],
      "stateMutability": "nonpayable",
      "type": "constructor"
    },
    {
      "anonymous": false,
      "inputs": [
        {
          "indexed": true,
          "internalType": "bytes32",
          "name": "id",
          "type": "bytes32"
        }
      ],
      "name": "ChainlinkCancelled",
      "type": "event"
    },
    {
      "anonymous": false,
      "inputs": [
        {
          "indexed": true,
          "internalType": "bytes32",
          "name": "id",
          "type": "bytes32"
        }
      ],
      "name": "ChainlinkFulfilled",
      "type": "event"
    },
    {
      "anonymous": false,
      "inputs": [
        {
          "indexed": true,
          "internalType": "bytes32",
          "name": "id",
          "type": "bytes32"
        }
      ],
      "name": "ChainlinkRequested",
      "type": "event"
    },
    {
      "anonymous": false,
      "inputs": [
        {
          "indexed": true,
          "internalType": "address",
          "name": "previousOwner",
          "type": "address"
        },
        {
          "indexed": true,
          "internalType": "address",
          "name": "newOwner",
          "type": "address"
        }
      ],
      "name": "OwnershipTransferred",
      "type": "event"
    },
    {
      "inputs": [
        {
          "internalType": "int256",
          "name": "_gameId",
          "type": "int256"
        },
        {
          "internalType": "address",
          "name": "_userAddress",
          "type": "address"
        },
        {
          "internalType": "int256",
          "name": "_optionId",
          "type": "int256"
        }
      ],
      "name": "addParticipant",
      "outputs": [],
      "stateMutability": "nonpayable",
      "type": "function"
    },
    {
      "inputs": [
        {
          "internalType": "bytes32",
          "name": "_bytes32",
          "type": "bytes32"
        }
      ],
      "name": "bytes32ToString",
      "outputs": [
        {
          "internalType": "string",
          "name": "",
          "type": "string"
        }
      ],
      "stateMutability": "nonpayable",
      "type": "function"
    },
    {
      "inputs": [
        {
          "internalType": "int256",
          "name": "",
          "type": "int256"
        }
      ],
      "name": "currencyList",
      "outputs": [
        {
          "internalType": "bytes32",
          "name": "name",
          "type": "bytes32"
        },
        {
          "internalType": "bytes32",
          "name": "fullName",
          "type": "bytes32"
        },
        {
          "internalType": "bytes32",
          "name": "overviewUrl",
          "type": "bytes32"
        },
        {
          "internalType": "bytes32",
          "name": "assetLaunchDate",
          "type": "bytes32"
        },
        {
          "internalType": "bytes32",
          "name": "logoUrl",
          "type": "bytes32"
        },
        {
          "internalType": "bytes",
          "name": "currencyIntro",
          "type": "bytes"
        }
      ],
      "stateMutability": "view",
      "type": "function"
    },
    {
      "inputs": [],
      "name": "currencyQuantity",
      "outputs": [
        {
          "internalType": "int256",
          "name": "",
          "type": "int256"
        }
      ],
      "stateMutability": "view",
      "type": "function"
    },
    {
      "inputs": [],
      "name": "dailyGameQuantity",
      "outputs": [
        {
          "internalType": "int256",
          "name": "",
          "type": "int256"
        }
      ],
      "stateMutability": "view",
      "type": "function"
    },
    {
      "inputs": [],
      "name": "dappToken",
      "outputs": [
        {
          "internalType": "contract IERC20",
          "name": "",
          "type": "address"
        }
      ],
      "stateMutability": "view",
      "type": "function"
    },
    {
      "inputs": [
        {
          "internalType": "int256",
          "name": "",
          "type": "int256"
        }
      ],
      "name": "gameList",
      "outputs": [
        {
          "internalType": "int256",
          "name": "questionId",
          "type": "int256"
        },
        {
          "internalType": "int256",
          "name": "currencyId",
          "type": "int256"
        },
        {
          "internalType": "uint256",
          "name": "revealTime",
          "type": "uint256"
        },
        {
          "internalType": "int256",
          "name": "lifeLengthId",
          "type": "int256"
        },
        {
          "internalType": "string",
          "name": "property",
          "type": "string"
        },
        {
          "internalType": "bool",
          "name": "isActivity",
          "type": "bool"
        },
        {
          "internalType": "bool",
          "name": "isClose",
          "type": "bool"
        }
      ],
      "stateMutability": "view",
      "type": "function"
    },
    {
      "inputs": [
        {
          "internalType": "int256",
          "name": "_gameId",
          "type": "int256"
        }
      ],
      "name": "getAnswer",
      "outputs": [],
      "stateMutability": "nonpayable",
      "type": "function"
    },
    {
      "inputs": [],
      "name": "getCurrencyList",
      "outputs": [],
      "stateMutability": "nonpayable",
      "type": "function"
    },
    {
      "inputs": [],
      "name": "getRandom",
      "outputs": [
        {
          "internalType": "uint256",
          "name": "",
          "type": "uint256"
        }
      ],
      "stateMutability": "nonpayable",
      "type": "function"
    },
    {
      "inputs": [
        {
          "internalType": "int256",
          "name": "",
          "type": "int256"
        }
      ],
      "name": "lifeLengthList",
      "outputs": [
        {
          "internalType": "int256",
          "name": "lifeLength",
          "type": "int256"
        },
        {
          "internalType": "int256",
          "name": "gameQuantity",
          "type": "int256"
        },
        {
          "internalType": "string",
          "name": "title",
          "type": "string"
        }
      ],
      "stateMutability": "view",
      "type": "function"
    },
    {
      "inputs": [],
      "name": "makeCurrencyList",
      "outputs": [],
      "stateMutability": "nonpayable",
      "type": "function"
    },
    {
      "inputs": [],
      "name": "makeDailyGame",
      "outputs": [],
      "stateMutability": "nonpayable",
      "type": "function"
    },
    {
      "inputs": [
        {
          "internalType": "int256",
          "name": "_questionId",
          "type": "int256"
        },
        {
          "internalType": "int256",
          "name": "_gameId",
          "type": "int256"
        }
      ],
      "name": "makeOptions",
      "outputs": [],
      "stateMutability": "nonpayable",
      "type": "function"
    },
    {
      "inputs": [],
      "name": "monthlyGameQuantity",
      "outputs": [
        {
          "internalType": "int256",
          "name": "",
          "type": "int256"
        }
      ],
      "stateMutability": "view",
      "type": "function"
    },
    {
      "inputs": [],
      "name": "name",
      "outputs": [
        {
          "internalType": "string",
          "name": "",
          "type": "string"
        }
      ],
      "stateMutability": "view",
      "type": "function"
    },
    {
      "inputs": [
        {
          "internalType": "int256",
          "name": "",
          "type": "int256"
        },
        {
          "internalType": "int256",
          "name": "",
          "type": "int256"
        }
      ],
      "name": "optionsList",
      "outputs": [
        {
          "internalType": "int256",
          "name": "optionsContet",
          "type": "int256"
        },
        {
          "internalType": "int256",
          "name": "userQuantity",
          "type": "int256"
        }
      ],
      "stateMutability": "view",
      "type": "function"
    },
    {
      "inputs": [],
      "name": "owner",
      "outputs": [
        {
          "internalType": "address",
          "name": "",
          "type": "address"
        }
      ],
      "stateMutability": "view",
      "type": "function"
    },
    {
      "inputs": [
        {
          "internalType": "int256",
          "name": "",
          "type": "int256"
        }
      ],
      "name": "propertyList",
      "outputs": [
        {
          "internalType": "string",
          "name": "",
          "type": "string"
        }
      ],
      "stateMutability": "view",
      "type": "function"
    },
    {
      "inputs": [
        {
          "internalType": "int256",
          "name": "",
          "type": "int256"
        }
      ],
      "name": "questionList",
      "outputs": [
        {
          "internalType": "string",
          "name": "questionName",
          "type": "string"
        },
        {
          "internalType": "string",
          "name": "questionDescription",
          "type": "string"
        }
      ],
      "stateMutability": "view",
      "type": "function"
    },
    {
      "inputs": [],
      "name": "rand_b",
      "outputs": [
        {
          "internalType": "int256",
          "name": "",
          "type": "int256"
        }
      ],
      "stateMutability": "view",
      "type": "function"
    },
    {
      "inputs": [],
      "name": "randomNum",
      "outputs": [
        {
          "internalType": "uint256",
          "name": "",
          "type": "uint256"
        }
      ],
      "stateMutability": "view",
      "type": "function"
    },
    {
      "inputs": [],
      "name": "renounceOwnership",
      "outputs": [],
      "stateMutability": "nonpayable",
      "type": "function"
    },
    {
      "inputs": [],
      "name": "reqID_VRF",
      "outputs": [
        {
          "internalType": "bytes32",
          "name": "",
          "type": "bytes32"
        }
      ],
      "stateMutability": "view",
      "type": "function"
    },
    {
      "inputs": [],
      "name": "returnAnswer",
      "outputs": [
        {
          "internalType": "uint256",
          "name": "",
          "type": "uint256"
        }
      ],
      "stateMutability": "view",
      "type": "function"
    },
    {
      "inputs": [
        {
          "internalType": "uint256",
          "name": "",
          "type": "uint256"
        }
      ],
      "name": "stakers",
      "outputs": [
        {
          "internalType": "address",
          "name": "",
          "type": "address"
        }
      ],
      "stateMutability": "view",
      "type": "function"
    },
    {
      "inputs": [
        {
          "internalType": "address",
          "name": "",
          "type": "address"
        },
        {
          "internalType": "address",
          "name": "",
          "type": "address"
        }
      ],
      "name": "stakingBalance",
      "outputs": [
        {
          "internalType": "uint256",
          "name": "",
          "type": "uint256"
        }
      ],
      "stateMutability": "view",
      "type": "function"
    },
    {
      "inputs": [
        {
          "internalType": "address",
          "name": "",
          "type": "address"
        }
      ],
      "name": "tokenPriceFeedMapping",
      "outputs": [
        {
          "internalType": "address",
          "name": "",
          "type": "address"
        }
      ],
      "stateMutability": "view",
      "type": "function"
    },
    {
      "inputs": [
        {
          "internalType": "address",
          "name": "newOwner",
          "type": "address"
        }
      ],
      "name": "transferOwnership",
      "outputs": [],
      "stateMutability": "nonpayable",
      "type": "function"
    },
    {
      "inputs": [
        {
          "internalType": "address",
          "name": "",
          "type": "address"
        }
      ],
      "name": "uniqueTokensStaked",
      "outputs": [
        {
          "internalType": "uint256",
          "name": "",
          "type": "uint256"
        }
      ],
      "stateMutability": "view",
      "type": "function"
    },
    {
      "inputs": [
        {
          "internalType": "address",
          "name": "",
          "type": "address"
        }
      ],
      "name": "userDataStructs",
      "outputs": [
        {
          "internalType": "address",
          "name": "addr",
          "type": "address"
        },
        {
          "internalType": "uint256",
          "name": "balance",
          "type": "uint256"
        }
      ],
      "stateMutability": "view",
      "type": "function"
    },
    {
      "inputs": [
        {
          "internalType": "address",
          "name": "",
          "type": "address"
        },
        {
          "internalType": "uint256",
          "name": "",
          "type": "uint256"
        }
      ],
      "name": "userGameStructs",
      "outputs": [
        {
          "internalType": "uint256",
          "name": "gameId",
          "type": "uint256"
        },
        {
          "internalType": "uint8",
          "name": "answerId",
          "type": "uint8"
        },
        {
          "internalType": "uint256",
          "name": "amount",
          "type": "uint256"
        },
        {
          "internalType": "bool",
          "name": "isCorrect",
          "type": "bool"
        },
        {
          "internalType": "bool",
          "name": "isNotified",
          "type": "bool"
        }
      ],
      "stateMutability": "view",
      "type": "function"
    },
    {
      "inputs": [
        {
          "internalType": "address",
          "name": "",
          "type": "address"
        }
      ],
      "name": "userList",
      "outputs": [
        {
          "internalType": "bool",
          "name": "",
          "type": "bool"
        }
      ],
      "stateMutability": "view",
      "type": "function"
    },
    {
      "inputs": [],
      "name": "weeklyGameQuantity",
      "outputs": [
        {
          "internalType": "int256",
          "name": "",
          "type": "int256"
        }
      ],
      "stateMutability": "view",
      "type": "function"
    },
    {
      "inputs": [
        {
          "internalType": "address",
          "name": "addr",
          "type": "address"
        }
      ],
      "name": "getUserBalance",
      "outputs": [
        {
          "internalType": "uint256",
          "name": "",
          "type": "uint256"
        }
      ],
      "stateMutability": "nonpayable",
      "type": "function"
    },
    {
      "inputs": [
        {
          "internalType": "address",
          "name": "addr",
          "type": "address"
        },
        {
          "internalType": "uint256",
          "name": "amount",
          "type": "uint256"
        }
      ],
      "name": "reloadBalance",
      "outputs": [
        {
          "internalType": "uint256",
          "name": "",
          "type": "uint256"
        }
      ],
      "stateMutability": "nonpayable",
      "type": "function"
    },
    {
      "inputs": [
        {
          "internalType": "address",
          "name": "addr",
          "type": "address"
        },
        {
          "internalType": "uint256",
          "name": "amount",
          "type": "uint256"
        }
      ],
      "name": "withdrawBalance",
      "outputs": [
        {
          "internalType": "uint256",
          "name": "",
          "type": "uint256"
        }
      ],
      "stateMutability": "nonpayable",
      "type": "function"
    },
    {
      "inputs": [],
      "name": "getTotalContractBalance",
      "outputs": [
        {
          "internalType": "uint256",
          "name": "contractBalance",
          "type": "uint256"
        }
      ],
      "stateMutability": "nonpayable",
      "type": "function"
    },
    {
      "inputs": [
        {
          "internalType": "address",
          "name": "addr",
          "type": "address"
        },
        {
          "internalType": "uint256",
          "name": "gameId",
          "type": "uint256"
        }
      ],
      "name": "getUserGameInfo",
      "outputs": [
        {
          "internalType": "uint8",
          "name": "answerId",
          "type": "uint8"
        },
        {
          "internalType": "uint256",
          "name": "amount",
          "type": "uint256"
        }
      ],
      "stateMutability": "view",
      "type": "function"
    },
    {
      "inputs": [
        {
          "internalType": "address",
          "name": "addr",
          "type": "address"
        },
        {
          "internalType": "uint256",
          "name": "gameId",
          "type": "uint256"
        },
        {
          "internalType": "uint8",
          "name": "answerId",
          "type": "uint8"
        },
        {
          "internalType": "uint256",
          "name": "amount",
          "type": "uint256"
        }
      ],
      "name": "addGameInfoToUserData",
      "outputs": [
        {
          "internalType": "bool",
          "name": "success",
          "type": "bool"
        }
      ],
      "stateMutability": "nonpayable",
      "type": "function"
    },
    {
      "inputs": [
        {
          "internalType": "uint256",
          "name": "amount",
          "type": "uint256"
        },
        {
          "internalType": "address",
          "name": "tokenAddress",
          "type": "address"
        }
      ],
      "name": "stakeTokens",
      "outputs": [],
      "stateMutability": "nonpayable",
      "type": "function"
    },
    {
      "inputs": [
        {
          "internalType": "address",
          "name": "token",
          "type": "address"
        }
      ],
      "name": "unstakeTokens",
      "outputs": [],
      "stateMutability": "nonpayable",
      "type": "function"
    },
    {
      "inputs": [],
      "name": "issueTokens",
      "outputs": [],
      "stateMutability": "nonpayable",
      "type": "function"
    },
    {
      "inputs": [
        {
          "internalType": "address",
          "name": "token",
          "type": "address"
        },
        {
          "internalType": "address",
          "name": "priceFeed",
          "type": "address"
        }
      ],
      "name": "setPriceFeedContract",
      "outputs": [],
      "stateMutability": "nonpayable",
      "type": "function"
    },
    {
      "inputs": [
        {
          "internalType": "address",
          "name": "token",
          "type": "address"
        }
      ],
      "name": "isTokenAllowed",
      "outputs": [
        {
          "internalType": "bool",
          "name": "",
          "type": "bool"
        }
      ],
      "stateMutability": "nonpayable",
      "type": "function"
    },
    {
      "inputs": [
        {
          "internalType": "address",
          "name": "token",
          "type": "address"
        }
      ],
      "name": "addAllowedTokens",
      "outputs": [],
      "stateMutability": "nonpayable",
      "type": "function"
    },
    {
      "inputs": [
        {
          "internalType": "address",
          "name": "user",
          "type": "address"
        }
      ],
      "name": "getUserTotalValue",
      "outputs": [
        {
          "internalType": "uint256",
          "name": "",
          "type": "uint256"
        }
      ],
      "stateMutability": "view",
      "type": "function"
    },
    {
      "inputs": [
        {
          "internalType": "address",
          "name": "user",
          "type": "address"
        },
        {
          "internalType": "address",
          "name": "token",
          "type": "address"
        }
      ],
      "name": "getUserStakingBalanceEthValue",
      "outputs": [
        {
          "internalType": "uint256",
          "name": "",
          "type": "uint256"
        }
      ],
      "stateMutability": "view",
      "type": "function"
    },
    {
      "inputs": [
        {
          "internalType": "address",
          "name": "token",
          "type": "address"
        }
      ],
      "name": "getTokenEthPrice",
      "outputs": [
        {
          "internalType": "uint256",
          "name": "",
          "type": "uint256"
        }
      ],
      "stateMutability": "view",
      "type": "function"
    }
  ],
  "bytecode": "0x6080604052600160055573a580d0ef1d8bdefdcd06059f3b81d305778ab617601460006101000a81548173ffffffffffffffffffffffffffffffffffffffff021916908373ffffffffffffffffffffffffffffffffffffffff160217905550601460009054906101000a900473ffffffffffffffffffffffffffffffffffffffff16601560006101000a81548173ffffffffffffffffffffffffffffffffffffffff021916908373ffffffffffffffffffffffffffffffffffffffff160217905550736f33ed84c014f72d23240b9ed589959a8c226c76601660006101000a81548173ffffffffffffffffffffffffffffffffffffffff021916908373ffffffffffffffffffffffffffffffffffffffff160217905550601460009054906101000a900473ffffffffffffffffffffffffffffffffffffffff16601760006101000a81548173ffffffffffffffffffffffffffffffffffffffff021916908373ffffffffffffffffffffffffffffffffffffffff1602179055507340c7b80e812a3683d651db8b38278a256f51362d601860006101000a81548173ffffffffffffffffffffffffffffffffffffffff021916908373ffffffffffffffffffffffffffffffffffffffff160217905550601860009054906101000a900473ffffffffffffffffffffffffffffffffffffffff16601960006101000a81548173ffffffffffffffffffffffffffffffffffffffff021916908373ffffffffffffffffffffffffffffffffffffffff1602179055506040518060400160405280601281526020017f43727970746f20476173204561726e696e670000000000000000000000000000815250601a90805190602001906200027e92919062000854565b503480156200028c57600080fd5b506040516200581a3803806200581a83398181016040526020811015620002b257600080fd5b81019080805190602001909291905050506000620002d56200075e60201b60201c565b9050806000806101000a81548173ffffffffffffffffffffffffffffffffffffffff021916908373ffffffffffffffffffffffffffffffffffffffff1602179055508073ffffffffffffffffffffffffffffffffffffffff16600073ffffffffffffffffffffffffffffffffffffffff167f8be0079c531659141344cd1fd0a4f28419497f9722a3daafe3b4186f6b6457e060405160405180910390a350620003836200076660201b60201c565b6040518060400160405280600581526020017f505249434500000000000000000000000000000000000000000000000000000081525060136000600181526020019081526020016000206000019080519060200190620003e592919062000854565b506040518060600160405280602e8152602001620057c6602e9139601360006001815260200190815260200160002060010190805190602001906200042c92919062000854565b506040518060400160405280600681526020017f564f4c554d450000000000000000000000000000000000000000000000000000815250601360006002815260200190815260200160002060000190805190602001906200048f92919062000854565b50604051806060016040528060268152602001620057f46026913960136000600281526020019081526020016000206001019080519060200190620004d692919062000854565b506040518060400160405280600f81526020017f43727970746f2043757272656e63790000000000000000000000000000000000815250601160006001815260200190815260200160002090805190602001906200053692919062000854565b506001601260006001815260200190815260200160002060000181905550601e6012600060018152602001908152602001600020600101819055506040518060400160405280600581526020017f4461696c7900000000000000000000000000000000000000000000000000000081525060126000600181526020019081526020016000206002019080519060200190620005d392919062000854565b50600760126000600281526020019081526020016000206000018190555060046012600060028152602001908152602001600020600101819055506040518060400160405280600681526020017f5765656b6c790000000000000000000000000000000000000000000000000000815250601260006002815260200190815260200160002060020190805190602001906200067092919062000854565b50601e60126000600381526020019081526020016000206000018190555060016012600060038152602001908152602001600020600101819055506040518060400160405280600781526020017f4d6f6e74686c7900000000000000000000000000000000000000000000000000815250601260006003815260200190815260200160002060020190805190602001906200070d92919062000854565b50600a60078190555080601b60006101000a81548173ffffffffffffffffffffffffffffffffffffffff021916908373ffffffffffffffffffffffffffffffffffffffff1602179055505062000903565b600033905090565b6200080e73c89bd4e1632d3a43cb03aaad5262cbe4038bc57173ffffffffffffffffffffffffffffffffffffffff166338cc48316040518163ffffffff1660e01b815260040160206040518083038186803b158015620007c557600080fd5b505afa158015620007da573d6000803e3d6000fd5b505050506040513d6020811015620007f157600080fd5b81019080805190602001909291905050506200081060201b60201c565b565b80600360006101000a81548173ffffffffffffffffffffffffffffffffffffffff021916908373ffffffffffffffffffffffffffffffffffffffff16021790555050565b828054600181600116156101000203166002900490600052602060002090601f016020900481019282601f106200089757805160ff1916838001178555620008c8565b82800160010185558215620008c8579182015b82811115620008c7578251825591602001919060010190620008aa565b5b509050620008d79190620008db565b5090565b6200090091905b80821115620008fc576000816000905550600101620008e2565b5090565b90565b614eb380620009136000396000f3fe608060405234801561001057600080fd5b50600436106102bb5760003560e01c80636c1c38ae11610182578063c67a3d93116100e9578063e50f4c0b116100a2578063f2fde38b1161007c578063f2fde38b14611212578063f630aa6514611256578063f9eaee0d14611274578063fd5e6dd1146112d0576102bb565b8063e50f4c0b14611065578063f1feff341461113e578063f2ce4dc014611208576102bb565b8063c67a3d9314610f31578063cc81e06014610f4f578063d17f7b0d14610fc7578063d9e3fd6414610fd1578063dc7c155f14610fef578063df00018d1461100d576102bb565b80639201de551161013b5780639201de5514610d5057806395ab14f314610df7578063aacc5a1714610e59578063af3f5e2214610e77578063b83e023414610ecf578063c3f449c914610f27576102bb565b80636c1c38ae14610ba7578063715018a614610bc55780637421a20614610bcf5780637ce6a0fb14610c84578063877dd39d14610ca25780638da5cb5b14610d06576102bb565b806332d4e5ec1161022657806349400fba116101df57806349400fba14610a60578063494ca32214610a7e578063568ce94514610ab65780635eb186f814610b2557806360ab585214610b6f5780636a22246714610b79576102bb565b806332d4e5ec14610787578063374a63d71461082e5780633c8130e3146108b95780633cb10333146109cc5780633f5693b2146109ea5780634773489214610a08576102bb565b8063171e44ea11610278578063171e44ea1461054f5780631b4e7bd21461059357806322c0391f146105ef57806327927b3e1461064757806329161a00146106cb5780632d1ad8b814610743576102bb565b806306fdde03146102c0578063071c5443146103435780630b9b5ad0146103965780630bea440d146104135780630cf20cc914610461578063157bb2c8146104c3575b600080fd5b6102c861133e565b6040518080602001828103825283818151815260200191508051906020019080838360005b838110156103085780820151818401526020810190506102ed565b50505050905090810190601f1680156103355780820380516001836020036101000a031916815260200191505b509250505060405180910390f35b6103796004803603604081101561035957600080fd5b8101908080359060200190929190803590602001909291905050506113dc565b604051808381526020018281526020019250505060405180910390f35b6103f9600480360360808110156103ac57600080fd5b81019080803573ffffffffffffffffffffffffffffffffffffffff16906020019092919080359060200190929190803560ff1690602001909291908035906020019092919050505061140d565b604051808215151515815260200191505060405180910390f35b61045f6004803603604081101561042957600080fd5b8101908080359060200190929190803573ffffffffffffffffffffffffffffffffffffffff1690602001909291905050506116fc565b005b6104ad6004803603604081101561047757600080fd5b81019080803573ffffffffffffffffffffffffffffffffffffffff16906020019092919080359060200190929190505050611a31565b6040518082815260200191505060405180910390f35b61050f600480360360408110156104d957600080fd5b81019080803573ffffffffffffffffffffffffffffffffffffffff16906020019092919080359060200190929190505050611ae0565b604051808681526020018560ff1660ff16815260200184815260200183151515158152602001821515151581526020019550505050505060405180910390f35b6105916004803603602081101561056557600080fd5b81019080803573ffffffffffffffffffffffffffffffffffffffff169060200190929190505050611b4a565b005b6105d5600480360360208110156105a957600080fd5b81019080803573ffffffffffffffffffffffffffffffffffffffff169060200190929190505050611c5f565b604051808215151515815260200191505060405180910390f35b6106456004803603606081101561060557600080fd5b8101908080359060200190929190803573ffffffffffffffffffffffffffffffffffffffff16906020019092919080359060200190929190505050611c7f565b005b6106896004803603602081101561065d57600080fd5b81019080803573ffffffffffffffffffffffffffffffffffffffff169060200190929190505050611d0c565b604051808273ffffffffffffffffffffffffffffffffffffffff1673ffffffffffffffffffffffffffffffffffffffff16815260200191505060405180910390f35b61072d600480360360408110156106e157600080fd5b81019080803573ffffffffffffffffffffffffffffffffffffffff169060200190929190803573ffffffffffffffffffffffffffffffffffffffff169060200190929190505050611d3f565b6040518082815260200191505060405180910390f35b6107856004803603602081101561075957600080fd5b81019080803573ffffffffffffffffffffffffffffffffffffffff169060200190929190505050611d63565b005b6107b36004803603602081101561079d57600080fd5b8101908080359060200190929190505050612029565b6040518080602001828103825283818151815260200191508051906020019080838360005b838110156107f35780820151818401526020810190506107d8565b50505050905090810190601f1680156108205780820380516001836020036101000a031916815260200191505b509250505060405180910390f35b6108706004803603602081101561084457600080fd5b81019080803573ffffffffffffffffffffffffffffffffffffffff1690602001909291905050506120d9565b604051808373ffffffffffffffffffffffffffffffffffffffff1673ffffffffffffffffffffffffffffffffffffffff1681526020018281526020019250505060405180910390f35b6108e5600480360360208110156108cf57600080fd5b810190808035906020019092919050505061211d565b604051808060200180602001838103835285818151815260200191508051906020019080838360005b8381101561092957808201518184015260208101905061090e565b50505050905090810190601f1680156109565780820380516001836020036101000a031916815260200191505b50838103825284818151815260200191508051906020019080838360005b8381101561098f578082015181840152602081019050610974565b50505050905090810190601f1680156109bc5780820380516001836020036101000a031916815260200191505b5094505050505060405180910390f35b6109d4612271565b6040518082815260200191505060405180910390f35b6109f2612277565b6040518082815260200191505060405180910390f35b610a4a60048036036020811015610a1e57600080fd5b81019080803573ffffffffffffffffffffffffffffffffffffffff16906020019092919050505061227d565b6040518082815260200191505060405180910390f35b610a686123f4565b6040518082815260200191505060405180910390f35b610ab460048036036040811015610a9457600080fd5b8101908080359060200190929190803590602001909291905050506123fa565b005b610b0260048036036040811015610acc57600080fd5b81019080803573ffffffffffffffffffffffffffffffffffffffff1690602001909291908035906020019092919050505061266d565b604051808360ff1660ff1681526020018281526020019250505060405180910390f35b610b2d612736565b604051808273ffffffffffffffffffffffffffffffffffffffff1673ffffffffffffffffffffffffffffffffffffffff16815260200191505060405180910390f35b610b7761275c565b005b610ba560048036036020811015610b8f57600080fd5b8101908080359060200190929190505050612958565b005b610baf6130ef565b6040518082815260200191505060405180910390f35b610bcd6130f5565b005b610bfb60048036036020811015610be557600080fd5b8101908080359060200190929190505050613263565b6040518084815260200183815260200180602001828103825283818151815260200191508051906020019080838360005b83811015610c47578082015181840152602081019050610c2c565b50505050905090810190601f168015610c745780820380516001836020036101000a031916815260200191505b5094505050505060405180910390f35b610c8c613325565b6040518082815260200191505060405180910390f35b610d0460048036036040811015610cb857600080fd5b81019080803573ffffffffffffffffffffffffffffffffffffffff169060200190929190803573ffffffffffffffffffffffffffffffffffffffff16906020019092919050505061332b565b005b610d0e61345c565b604051808273ffffffffffffffffffffffffffffffffffffffff1673ffffffffffffffffffffffffffffffffffffffff16815260200191505060405180910390f35b610d7c60048036036020811015610d6657600080fd5b8101908080359060200190929190505050613485565b6040518080602001828103825283818151815260200191508051906020019080838360005b83811015610dbc578082015181840152602081019050610da1565b50505050905090810190601f168015610de95780820380516001836020036101000a031916815260200191505b509250505060405180910390f35b610e4360048036036040811015610e0d57600080fd5b81019080803573ffffffffffffffffffffffffffffffffffffffff169060200190929190803590602001909291905050506135f9565b6040518082815260200191505060405180910390f35b610e6161369f565b6040518082815260200191505060405180910390f35b610eb960048036036020811015610e8d57600080fd5b81019080803573ffffffffffffffffffffffffffffffffffffffff169060200190929190505050613a16565b6040518082815260200191505060405180910390f35b610f1160048036036020811015610ee557600080fd5b81019080803573ffffffffffffffffffffffffffffffffffffffff169060200190929190505050613ad5565b6040518082815260200191505060405180910390f35b610f2f613aed565b005b610f39613c8b565b6040518082815260200191505060405180910390f35b610fb160048036036040811015610f6557600080fd5b81019080803573ffffffffffffffffffffffffffffffffffffffff169060200190929190803573ffffffffffffffffffffffffffffffffffffffff169060200190929190505050613c90565b6040518082815260200191505060405180910390f35b610fcf613d82565b005b610fd961402d565b6040518082815260200191505060405180910390f35b610ff7614037565b6040518082815260200191505060405180910390f35b61104f6004803603602081101561102357600080fd5b81019080803573ffffffffffffffffffffffffffffffffffffffff16906020019092919050505061403d565b6040518082815260200191505060405180910390f35b6110916004803603602081101561107b57600080fd5b8101908080359060200190929190505050614171565b60405180888152602001878152602001868152602001858152602001806020018415151515815260200183151515158152602001828103825285818151815260200191508051906020019080838360005b838110156110fd5780820151818401526020810190506110e2565b50505050905090810190601f16801561112a5780820380516001836020036101000a031916815260200191505b509850505050505050505060405180910390f35b61116a6004803603602081101561115457600080fd5b8101908080359060200190929190505050614265565b6040518087815260200186815260200185815260200184815260200183815260200180602001828103825283818151815260200191508051906020019080838360005b838110156111c85780820151818401526020810190506111ad565b50505050905090810190601f1680156111f55780820380516001836020036101000a031916815260200191505b5097505050505050505060405180910390f35b611210614339565b005b6112546004803603602081101561122857600080fd5b81019080803573ffffffffffffffffffffffffffffffffffffffff1690602001909291905050506148d7565b005b61125e614aca565b6040518082815260200191505060405180910390f35b6112b66004803603602081101561128a57600080fd5b81019080803573ffffffffffffffffffffffffffffffffffffffff169060200190929190505050614ad0565b604051808215151515815260200191505060405180910390f35b6112fc600480360360208110156112e657600080fd5b8101908080359060200190929190505050614b72565b604051808273ffffffffffffffffffffffffffffffffffffffff1673ffffffffffffffffffffffffffffffffffffffff16815260200191505060405180910390f35b601a8054600181600116156101000203166002900480601f0160208091040260200160405190810160405280929190818152602001828054600181600116156101000203166002900480156113d45780601f106113a9576101008083540402835291602001916113d4565b820191906000526020600020905b8154815290600101906020018083116113b757829003601f168201915b505050505081565b6010602052816000526040600020602052806000526040600020600091509150508060000154908060010154905082565b600081601c60008773ffffffffffffffffffffffffffffffffffffffff1673ffffffffffffffffffffffffffffffffffffffff16815260200190815260200160002060010154106116ef5781601c60008773ffffffffffffffffffffffffffffffffffffffff1673ffffffffffffffffffffffffffffffffffffffff1681526020019081526020016000206001015403601c60008773ffffffffffffffffffffffffffffffffffffffff1673ffffffffffffffffffffffffffffffffffffffff1681526020019081526020016000206001018190555083601c60008773ffffffffffffffffffffffffffffffffffffffff1673ffffffffffffffffffffffffffffffffffffffff16815260200190815260200160002060020160008681526020019081526020016000206000018190555082601c60008773ffffffffffffffffffffffffffffffffffffffff1673ffffffffffffffffffffffffffffffffffffffff168152602001908152602001600020600201600086815260200190815260200160002060010160006101000a81548160ff021916908360ff16021790555081601c60008773ffffffffffffffffffffffffffffffffffffffff1673ffffffffffffffffffffffffffffffffffffffff1681526020019081526020016000206002016000868152602001908152602001600020600201819055506000601c60008773ffffffffffffffffffffffffffffffffffffffff1673ffffffffffffffffffffffffffffffffffffffff168152602001908152602001600020600201600086815260200190815260200160002060030160006101000a81548160ff0219169083151502179055506000601c60008773ffffffffffffffffffffffffffffffffffffffff1673ffffffffffffffffffffffffffffffffffffffff168152602001908152602001600020600201600086815260200190815260200160002060030160016101000a81548160ff021916908315150217905550600190506116f4565b600090505b949350505050565b60008211611772576040517f08c379a00000000000000000000000000000000000000000000000000000000081526004018080602001828103825260128152602001807f416d6f756e742063616e6e6f742062652030000000000000000000000000000081525060200191505060405180910390fd5b61177b81614ad0565b15611a2d5761178a3382614bae565b8073ffffffffffffffffffffffffffffffffffffffff166323b872dd3330856040518463ffffffff1660e01b8152600401808473ffffffffffffffffffffffffffffffffffffffff1673ffffffffffffffffffffffffffffffffffffffff1681526020018373ffffffffffffffffffffffffffffffffffffffff1673ffffffffffffffffffffffffffffffffffffffff1681526020018281526020019350505050602060405180830381600087803b15801561184557600080fd5b505af1158015611859573d6000803e3d6000fd5b505050506040513d602081101561186f57600080fd5b81019080805190602001909291905050505081602060008373ffffffffffffffffffffffffffffffffffffffff1673ffffffffffffffffffffffffffffffffffffffff16815260200190815260200160002060003373ffffffffffffffffffffffffffffffffffffffff1673ffffffffffffffffffffffffffffffffffffffff1681526020019081526020016000205401602060008373ffffffffffffffffffffffffffffffffffffffff1673ffffffffffffffffffffffffffffffffffffffff16815260200190815260200160002060003373ffffffffffffffffffffffffffffffffffffffff1673ffffffffffffffffffffffffffffffffffffffff168152602001908152602001600020819055506001602160003373ffffffffffffffffffffffffffffffffffffffff1673ffffffffffffffffffffffffffffffffffffffff168152602001908152602001600020541415611a2c576024339080600181540180825580915050600190039060005260206000200160009091909190916101000a81548173ffffffffffffffffffffffffffffffffffffffff021916908373ffffffffffffffffffffffffffffffffffffffff1602179055505b5b5050565b60008082601c60008673ffffffffffffffffffffffffffffffffffffffff1673ffffffffffffffffffffffffffffffffffffffff1681526020019081526020016000206001015403905060008110611ad65780601c60008673ffffffffffffffffffffffffffffffffffffffff1673ffffffffffffffffffffffffffffffffffffffff1681526020019081526020016000206001018190555082601f5403601f819055505b8091505092915050565b601d602052816000526040600020602052806000526040600020600091509150508060000154908060010160009054906101000a900460ff16908060020154908060030160009054906101000a900460ff16908060030160019054906101000a900460ff16905085565b611b52614cbd565b73ffffffffffffffffffffffffffffffffffffffff16611b7061345c565b73ffffffffffffffffffffffffffffffffffffffff1614611bf9576040517f08c379a00000000000000000000000000000000000000000000000000000000081526004018080602001828103825260208152602001807f4f776e61626c653a2063616c6c6572206973206e6f7420746865206f776e657281525060200191505060405180910390fd5b6023819080600181540180825580915050600190039060005260206000200160009091909190916101000a81548173ffffffffffffffffffffffffffffffffffffffff021916908373ffffffffffffffffffffffffffffffffffffffff16021790555050565b601e6020528060005260406000206000915054906101000a900460ff1681565b601060008481526020019081526020016000206000828152602001908152602001600020600201829080600181540180825580915050600190039060005260206000200160009091909190916101000a81548173ffffffffffffffffffffffffffffffffffffffff021916908373ffffffffffffffffffffffffffffffffffffffff160217905550505050565b60226020528060005260406000206000915054906101000a900473ffffffffffffffffffffffffffffffffffffffff1681565b60208052816000526040600020602052806000526040600020600091509150505481565b6000602060008373ffffffffffffffffffffffffffffffffffffffff1673ffffffffffffffffffffffffffffffffffffffff16815260200190815260200160002060003373ffffffffffffffffffffffffffffffffffffffff1673ffffffffffffffffffffffffffffffffffffffff16815260200190815260200160002054905060008111611e5a576040517f08c379a000000000000000000000000000000000000000000000000000000000815260040180806020018281038252601b8152602001807f5374616b696e672062616c616e63652063616e6e6f742062652030000000000081525060200191505060405180910390fd5b8173ffffffffffffffffffffffffffffffffffffffff1663a9059cbb33836040518363ffffffff1660e01b8152600401808373ffffffffffffffffffffffffffffffffffffffff1673ffffffffffffffffffffffffffffffffffffffff16815260200182815260200192505050602060405180830381600087803b158015611ee157600080fd5b505af1158015611ef5573d6000803e3d6000fd5b505050506040513d6020811015611f0b57600080fd5b8101908080519060200190929190505050506000602060008473ffffffffffffffffffffffffffffffffffffffff1673ffffffffffffffffffffffffffffffffffffffff16815260200190815260200160002060003373ffffffffffffffffffffffffffffffffffffffff1673ffffffffffffffffffffffffffffffffffffffff168152602001908152602001600020819055506001602160003373ffffffffffffffffffffffffffffffffffffffff1673ffffffffffffffffffffffffffffffffffffffff1681526020019081526020016000205403602160003373ffffffffffffffffffffffffffffffffffffffff1673ffffffffffffffffffffffffffffffffffffffff168152602001908152602001600020819055505050565b60116020528060005260406000206000915090508054600181600116156101000203166002900480601f0160208091040260200160405190810160405280929190818152602001828054600181600116156101000203166002900480156120d15780601f106120a6576101008083540402835291602001916120d1565b820191906000526020600020905b8154815290600101906020018083116120b457829003601f168201915b505050505081565b601c6020528060005260406000206000915090508060000160009054906101000a900473ffffffffffffffffffffffffffffffffffffffff16908060010154905082565b6013602052806000526040600020600091509050806000018054600181600116156101000203166002900480601f0160208091040260200160405190810160405280929190818152602001828054600181600116156101000203166002900480156121c95780601f1061219e576101008083540402835291602001916121c9565b820191906000526020600020905b8154815290600101906020018083116121ac57829003601f168201915b505050505090806001018054600181600116156101000203166002900480601f0160208091040260200160405190810160405280929190818152602001828054600181600116156101000203166002900480156122675780601f1061223c57610100808354040283529160200191612267565b820191906000526020600020905b81548152906001019060200180831161224a57829003601f168201915b5050505050905082565b60095481565b600a5481565b6000601e60008373ffffffffffffffffffffffffffffffffffffffff1673ffffffffffffffffffffffffffffffffffffffff16815260200190815260200160002060009054906101000a900460ff166123aa5781601c60008473ffffffffffffffffffffffffffffffffffffffff1673ffffffffffffffffffffffffffffffffffffffff16815260200190815260200160002060000160006101000a81548173ffffffffffffffffffffffffffffffffffffffff021916908373ffffffffffffffffffffffffffffffffffffffff1602179055506001601e60008473ffffffffffffffffffffffffffffffffffffffff1673ffffffffffffffffffffffffffffffffffffffff16815260200190815260200160002060006101000a81548160ff0219169083151502179055505b601c60008373ffffffffffffffffffffffffffffffffffffffff1673ffffffffffffffffffffffffffffffffffffffff168152602001908152602001600020600101549050919050565b60085481565b60018214156125d4576001601060008381526020019081526020016000206000600181526020019081526020016000206000018190555060026010600083815260200190815260200160002060006002815260200190815260200160002060000181905550600360106000838152602001908152602001600020600060038152602001908152602001600020600001819055506004601060008381526020019081526020016000206000600481526020019081526020016000206000018190555060056010600083815260200190815260200160002060006005815260200190815260200160002060000181905550600660106000838152602001908152602001600020600060068152602001908152602001600020600001819055506007601060008381526020019081526020016000206000600781526020019081526020016000206000018190555060086010600083815260200190815260200160002060006008815260200190815260200160002060000181905550600960106000838152602001908152602001600020600060098152602001908152602001600020600001819055506000601060008381526020019081526020016000206000600a815260200190815260200160002060000181905550612669565b6002821415612668576000601060008381526020019081526020016000206000600181526020019081526020016000206000018190555060016010600083815260200190815260200160002060006002815260200190815260200160002060000181905550600260106000838152602001908152602001600020600060038152602001908152602001600020600001819055505b5b5050565b600080601c60008573ffffffffffffffffffffffffffffffffffffffff1673ffffffffffffffffffffffffffffffffffffffff168152602001908152602001600020600201600084815260200190815260200160002060010160009054906101000a900460ff16601c60008673ffffffffffffffffffffffffffffffffffffffff1673ffffffffffffffffffffffffffffffffffffffff168152602001908152602001600020600201600085815260200190815260200160002060020154915091509250929050565b601b60009054906101000a900473ffffffffffffffffffffffffffffffffffffffff1681565b612764614cbd565b73ffffffffffffffffffffffffffffffffffffffff1661278261345c565b73ffffffffffffffffffffffffffffffffffffffff161461280b576040517f08c379a00000000000000000000000000000000000000000000000000000000081526004018080602001828103825260208152602001807f4f776e61626c653a2063616c6c6572206973206e6f7420746865206f776e657281525060200191505060405180910390fd5b60008090505b6024805490508110156129555760006024828154811061282d57fe5b9060005260206000200160009054906101000a900473ffffffffffffffffffffffffffffffffffffffff169050601b60009054906101000a900473ffffffffffffffffffffffffffffffffffffffff1673ffffffffffffffffffffffffffffffffffffffff1663a9059cbb826128a284613a16565b6040518363ffffffff1660e01b8152600401808373ffffffffffffffffffffffffffffffffffffffff1673ffffffffffffffffffffffffffffffffffffffff16815260200182815260200192505050602060405180830381600087803b15801561290b57600080fd5b505af115801561291f573d6000803e3d6000fd5b505050506040513d602081101561293557600080fd5b810190808051906020019092919050505050508080600101915050612811565b50565b60608060006060612994600e6000600f600089815260200190815260200160002060010154815260200190815260200160002060000154613485565b90506040518060600160405280603c8152602001614e1c603c913993506040518060400160405280600a81526020017f267473796d733d55534400000000000000000000000000000000000000000000815250925060006129f3614cc5565b90508073ffffffffffffffffffffffffffffffffffffffff1663a9059cbb601660009054906101000a900473ffffffffffffffffffffffffffffffffffffffff168373ffffffffffffffffffffffffffffffffffffffff166370a08231306040518263ffffffff1660e01b8152600401808273ffffffffffffffffffffffffffffffffffffffff1673ffffffffffffffffffffffffffffffffffffffff16815260200191505060206040518083038186803b158015612ab157600080fd5b505afa158015612ac5573d6000803e3d6000fd5b505050506040513d6020811015612adb57600080fd5b81019080805190602001909291905050506040518363ffffffff1660e01b8152600401808373ffffffffffffffffffffffffffffffffffffffff1673ffffffffffffffffffffffffffffffffffffffff16815260200182815260200192505050602060405180830381600087803b158015612b5557600080fd5b505af1158015612b69573d6000803e3d6000fd5b505050506040513d6020811015612b7f57600080fd5b8101908080519060200190929190505050612c02576040517f08c379a00000000000000000000000000000000000000000000000000000000081526004018080602001828103825260128152602001807f556e61626c6520746f207472616e73666572000000000000000000000000000081525060200191505060405180910390fd5b601760009054906101000a900473ffffffffffffffffffffffffffffffffffffffff1673ffffffffffffffffffffffffffffffffffffffff1663a8f2c5258360136000600f60008c8152602001908152602001600020600001548152602001908152602001600020600001601760009054906101000a900473ffffffffffffffffffffffffffffffffffffffff1673ffffffffffffffffffffffffffffffffffffffff16636b190f708a888b6040518463ffffffff1660e01b815260040180806020018060200180602001848103845287818151815260200191508051906020019080838360005b83811015612d05578082015181840152602081019050612cea565b50505050905090810190601f168015612d325780820380516001836020036101000a031916815260200191505b50848103835286818151815260200191508051906020019080838360005b83811015612d6b578082015181840152602081019050612d50565b50505050905090810190601f168015612d985780820380516001836020036101000a031916815260200191505b50848103825285818151815260200191508051906020019080838360005b83811015612dd1578082015181840152602081019050612db6565b50505050905090810190601f168015612dfe5780820380516001836020036101000a031916815260200191505b509650505050505050600060405180830381600087803b158015612e2157600080fd5b505af1158015612e35573d6000803e3d6000fd5b505050506040513d6000823e3d601f19601f820116820180604052506020811015612e5f57600080fd5b8101908080516040519392919084640100000000821115612e7f57600080fd5b83820191506020820185811115612e9557600080fd5b8251866001820283011164010000000082111715612eb257600080fd5b8083526020830192505050908051906020019080838360005b83811015612ee6578082015181840152602081019050612ecb565b50505050905090810190601f168015612f135780820380516001836020036101000a031916815260200191505b506040525050506040518463ffffffff1660e01b815260040180806020018060200180602001848103845287818151815260200191508051906020019080838360005b83811015612f71578082015181840152602081019050612f56565b50505050905090810190601f168015612f9e5780820380516001836020036101000a031916815260200191505b508481038352868181546001816001161561010002031660029004815260200191508054600181600116156101000203166002900480156130205780601f10612ff557610100808354040283529160200191613020565b820191906000526020600020905b81548152906001019060200180831161300357829003601f168201915b5050848103825285818151815260200191508051906020019080838360005b8381101561305a57808201518184015260208101905061303f565b50505050905090810190601f1680156130875780820380516001836020036101000a031916815260200191505b509650505050505050602060405180830381600087803b1580156130aa57600080fd5b505af11580156130be573d6000803e3d6000fd5b505050506040513d60208110156130d457600080fd5b81019080805190602001909291905050509250505050505050565b60075481565b6130fd614cbd565b73ffffffffffffffffffffffffffffffffffffffff1661311b61345c565b73ffffffffffffffffffffffffffffffffffffffff16146131a4576040517f08c379a00000000000000000000000000000000000000000000000000000000081526004018080602001828103825260208152602001807f4f776e61626c653a2063616c6c6572206973206e6f7420746865206f776e657281525060200191505060405180910390fd5b600073ffffffffffffffffffffffffffffffffffffffff166000809054906101000a900473ffffffffffffffffffffffffffffffffffffffff1673ffffffffffffffffffffffffffffffffffffffff167f8be0079c531659141344cd1fd0a4f28419497f9722a3daafe3b4186f6b6457e060405160405180910390a360008060006101000a81548173ffffffffffffffffffffffffffffffffffffffff021916908373ffffffffffffffffffffffffffffffffffffffff160217905550565b6012602052806000526040600020600091509050806000015490806001015490806002018054600181600116156101000203166002900480601f01602080910402602001604051908101604052809291908181526020018280546001816001161561010002031660029004801561331b5780601f106132f05761010080835404028352916020019161331b565b820191906000526020600020905b8154815290600101906020018083116132fe57829003601f168201915b5050505050905083565b600c5481565b613333614cbd565b73ffffffffffffffffffffffffffffffffffffffff1661335161345c565b73ffffffffffffffffffffffffffffffffffffffff16146133da576040517f08c379a00000000000000000000000000000000000000000000000000000000081526004018080602001828103825260208152602001807f4f776e61626c653a2063616c6c6572206973206e6f7420746865206f776e657281525060200191505060405180910390fd5b80602260008473ffffffffffffffffffffffffffffffffffffffff1673ffffffffffffffffffffffffffffffffffffffff16815260200190815260200160002060006101000a81548173ffffffffffffffffffffffffffffffffffffffff021916908373ffffffffffffffffffffffffffffffffffffffff1602179055505050565b60008060009054906101000a900473ffffffffffffffffffffffffffffffffffffffff16905090565b606060008090505b60208160ff161080156134d85750600060f81b838260ff16602081106134af57fe5b1a60f81b7effffffffffffffffffffffffffffffffffffffffffffffffffffffffffffff191614155b156134ea57808060010191505061348d565b60608160ff1667ffffffffffffffff8111801561350657600080fd5b506040519080825280601f01601f1916602001820160405280156135395781602001600182028036833780820191505090505b509050600091505b60208260ff1610801561358c5750600060f81b848360ff166020811061356357fe5b1a60f81b7effffffffffffffffffffffffffffffffffffffffffffffffffffffffffffff191614155b156135ef57838260ff16602081106135a057fe5b1a60f81b818360ff16815181106135b357fe5b60200101907effffffffffffffffffffffffffffffffffffffffffffffffffffffffffffff1916908160001a9053508180600101925050613541565b8092505050919050565b60008082601c60008673ffffffffffffffffffffffffffffffffffffffff1673ffffffffffffffffffffffffffffffffffffffff1681526020019081526020016000206001015401905080601c60008673ffffffffffffffffffffffffffffffffffffffff1673ffffffffffffffffffffffffffffffffffffffff1681526020019081526020016000206001018190555082601f5401601f819055508091505092915050565b6000806136aa614cc5565b90508073ffffffffffffffffffffffffffffffffffffffff1663a9059cbb601860009054906101000a900473ffffffffffffffffffffffffffffffffffffffff168373ffffffffffffffffffffffffffffffffffffffff166370a08231306040518263ffffffff1660e01b8152600401808273ffffffffffffffffffffffffffffffffffffffff1673ffffffffffffffffffffffffffffffffffffffff16815260200191505060206040518083038186803b15801561376857600080fd5b505afa15801561377c573d6000803e3d6000fd5b505050506040513d602081101561379257600080fd5b81019080805190602001909291905050506040518363ffffffff1660e01b8152600401808373ffffffffffffffffffffffffffffffffffffffff1673ffffffffffffffffffffffffffffffffffffffff16815260200182815260200192505050602060405180830381600087803b15801561380c57600080fd5b505af1158015613820573d6000803e3d6000fd5b505050506040513d602081101561383657600080fd5b81019080805190602001909291905050506138b9576040517f08c379a00000000000000000000000000000000000000000000000000000000081526004018080602001828103825260128152602001807f556e61626c6520746f207472616e73666572000000000000000000000000000081525060200191505060405180910390fd5b601960009054906101000a900473ffffffffffffffffffffffffffffffffffffffff1673ffffffffffffffffffffffffffffffffffffffff1663dbdff2c16040518163ffffffff1660e01b8152600401602060405180830381600087803b15801561392357600080fd5b505af1158015613937573d6000803e3d6000fd5b505050506040513d602081101561394d57600080fd5b8101908080519060200190929190505050600b81905550601960009054906101000a900473ffffffffffffffffffffffffffffffffffffffff1673ffffffffffffffffffffffffffffffffffffffff1663edd3159d6040518163ffffffff1660e01b815260040160206040518083038186803b1580156139cc57600080fd5b505afa1580156139e0573d6000803e3d6000fd5b505050506040513d60208110156139f657600080fd5b8101908080519060200190929190505050600d81905550600d5491505090565b600080600090506000602160008573ffffffffffffffffffffffffffffffffffffffff1673ffffffffffffffffffffffffffffffffffffffff168152602001908152602001600020541115613acc5760008090505b602380549050811015613aca57613ab98460238381548110613a8957fe5b9060005260206000200160009054906101000a900473ffffffffffffffffffffffffffffffffffffffff16613c90565b820191508080600101915050613a6b565b505b80915050919050565b60216020528060005260406000206000915090505481565b6000600190505b60038113613c88576000600190505b60126000838152602001908152602001600020600101548113613c7a5760016002600d5481613b2e57fe5b0701600f600083815260200190815260200160002060000181905550613b6360016002600d5481613b5b57fe5b0701826123fa565b6001600754600d5481613b7257fe5b0701600f6000838152602001908152602001600020600101819055506000600f60008381526020019081526020016000206002018190555081600f6000838152602001908152602001600020600301819055506011600060018152602001908152602001600020600f60008381526020019081526020016000206004019080546001816001161561010002031660029004613c0e929190614cef565b506000600f600083815260200190815260200160002060050160006101000a81548160ff0219169083151502179055506000600f600083815260200190815260200160002060050160016101000a81548160ff0219169083151502179055508080600101915050613b03565b508080600101915050613af4565b50565b600090565b600080602160008573ffffffffffffffffffffffffffffffffffffffff1673ffffffffffffffffffffffffffffffffffffffff1681526020019081526020016000205411613ce15760009050613d7c565b670de0b6b3a7640000613cf38361403d565b602060008573ffffffffffffffffffffffffffffffffffffffff1673ffffffffffffffffffffffffffffffffffffffff16815260200190815260200160002060008673ffffffffffffffffffffffffffffffffffffffff1673ffffffffffffffffffffffffffffffffffffffff168152602001908152602001600020540281613d7857fe5b0490505b92915050565b6000613d8c614cc5565b90508073ffffffffffffffffffffffffffffffffffffffff1663a9059cbb601460009054906101000a900473ffffffffffffffffffffffffffffffffffffffff168373ffffffffffffffffffffffffffffffffffffffff166370a08231306040518263ffffffff1660e01b8152600401808273ffffffffffffffffffffffffffffffffffffffff1673ffffffffffffffffffffffffffffffffffffffff16815260200191505060206040518083038186803b158015613e4a57600080fd5b505afa158015613e5e573d6000803e3d6000fd5b505050506040513d6020811015613e7457600080fd5b81019080805190602001909291905050506040518363ffffffff1660e01b8152600401808373ffffffffffffffffffffffffffffffffffffffff1673ffffffffffffffffffffffffffffffffffffffff16815260200182815260200192505050602060405180830381600087803b158015613eee57600080fd5b505af1158015613f02573d6000803e3d6000fd5b505050506040513d6020811015613f1857600080fd5b8101908080519060200190929190505050613f9b576040517f08c379a00000000000000000000000000000000000000000000000000000000081526004018080602001828103825260128152602001807f556e61626c6520746f207472616e73666572000000000000000000000000000081525060200191505060405180910390fd5b601560009054906101000a900473ffffffffffffffffffffffffffffffffffffffff1673ffffffffffffffffffffffffffffffffffffffff16632b8dc6ff6007546040518263ffffffff1660e01b815260040180828152602001915050600060405180830381600087803b15801561401257600080fd5b505af1158015614026573d6000803e3d6000fd5b5050505050565b6000601f54905090565b600b5481565b600080602260008473ffffffffffffffffffffffffffffffffffffffff1673ffffffffffffffffffffffffffffffffffffffff16815260200190815260200160002060009054906101000a900473ffffffffffffffffffffffffffffffffffffffff169050600081905060008060008060008573ffffffffffffffffffffffffffffffffffffffff1663feaf968c6040518163ffffffff1660e01b815260040160a06040518083038186803b1580156140f557600080fd5b505afa158015614109573d6000803e3d6000fd5b505050506040513d60a081101561411f57600080fd5b8101908080519060200190929190805190602001909291908051906020019092919080519060200190929190805190602001909291905050509450945094509450945083975050505050505050919050565b600f602052806000526040600020600091509050806000015490806001015490806002015490806003015490806004018054600181600116156101000203166002900480601f0160208091040260200160405190810160405280929190818152602001828054600181600116156101000203166002900480156142355780601f1061420a57610100808354040283529160200191614235565b820191906000526020600020905b81548152906001019060200180831161421857829003601f168201915b5050505050908060050160009054906101000a900460ff16908060050160019054906101000a900460ff16905087565b600e602052806000526040600020600091509050806000015490806001015490806002015490806003015490806004015490806005018054600181600116156101000203166002900480601f01602080910402602001604051908101604052809291908181526020018280546001816001161561010002031660029004801561432f5780601f106143045761010080835404028352916020019161432f565b820191906000526020600020905b81548152906001019060200180831161431257829003601f168201915b5050505050905086565b6000600190505b60075481136148d457601560009054906101000a900473ffffffffffffffffffffffffffffffffffffffff1673ffffffffffffffffffffffffffffffffffffffff166303b60331826040518263ffffffff1660e01b81526004018082815260200191505060206040518083038186803b1580156143bc57600080fd5b505afa1580156143d0573d6000803e3d6000fd5b505050506040513d60208110156143e657600080fd5b8101908080519060200190929190505050600e600083815260200190815260200160002060000181905550601560009054906101000a900473ffffffffffffffffffffffffffffffffffffffff1673ffffffffffffffffffffffffffffffffffffffff1663f771044a826040518263ffffffff1660e01b81526004018082815260200191505060206040518083038186803b15801561448457600080fd5b505afa158015614498573d6000803e3d6000fd5b505050506040513d60208110156144ae57600080fd5b8101908080519060200190929190505050600e600083815260200190815260200160002060010181905550601560009054906101000a900473ffffffffffffffffffffffffffffffffffffffff1673ffffffffffffffffffffffffffffffffffffffff166319eb4d4d826040518263ffffffff1660e01b81526004018082815260200191505060206040518083038186803b15801561454c57600080fd5b505afa158015614560573d6000803e3d6000fd5b505050506040513d602081101561457657600080fd5b8101908080519060200190929190505050600e600083815260200190815260200160002060020181905550601560009054906101000a900473ffffffffffffffffffffffffffffffffffffffff1673ffffffffffffffffffffffffffffffffffffffff1663ebab4ffe826040518263ffffffff1660e01b81526004018082815260200191505060206040518083038186803b15801561461457600080fd5b505afa158015614628573d6000803e3d6000fd5b505050506040513d602081101561463e57600080fd5b8101908080519060200190929190505050600e600083815260200190815260200160002060030181905550601560009054906101000a900473ffffffffffffffffffffffffffffffffffffffff1673ffffffffffffffffffffffffffffffffffffffff1663f4f20d7a826040518263ffffffff1660e01b81526004018082815260200191505060206040518083038186803b1580156146dc57600080fd5b505afa1580156146f0573d6000803e3d6000fd5b505050506040513d602081101561470657600080fd5b8101908080519060200190929190505050600e600083815260200190815260200160002060040181905550601560009054906101000a900473ffffffffffffffffffffffffffffffffffffffff1673ffffffffffffffffffffffffffffffffffffffff16631fd038b5826040518263ffffffff1660e01b81526004018082815260200191505060006040518083038186803b1580156147a457600080fd5b505afa1580156147b8573d6000803e3d6000fd5b505050506040513d6000823e3d601f19601f8201168201806040525060208110156147e257600080fd5b810190808051604051939291908464010000000082111561480257600080fd5b8382019150602082018581111561481857600080fd5b825186600182028301116401000000008211171561483557600080fd5b8083526020830192505050908051906020019080838360005b8381101561486957808201518184015260208101905061484e565b50505050905090810190601f1680156148965780820380516001836020036101000a031916815260200191505b50604052505050600e600083815260200190815260200160002060050190805190602001906148c6929190614d76565b508080600101915050614340565b50565b6148df614cbd565b73ffffffffffffffffffffffffffffffffffffffff166148fd61345c565b73ffffffffffffffffffffffffffffffffffffffff1614614986576040517f08c379a00000000000000000000000000000000000000000000000000000000081526004018080602001828103825260208152602001807f4f776e61626c653a2063616c6c6572206973206e6f7420746865206f776e657281525060200191505060405180910390fd5b600073ffffffffffffffffffffffffffffffffffffffff168173ffffffffffffffffffffffffffffffffffffffff161415614a0c576040517f08c379a0000000000000000000000000000000000000000000000000000000008152600401808060200182810382526026815260200180614e586026913960400191505060405180910390fd5b8073ffffffffffffffffffffffffffffffffffffffff166000809054906101000a900473ffffffffffffffffffffffffffffffffffffffff1673ffffffffffffffffffffffffffffffffffffffff167f8be0079c531659141344cd1fd0a4f28419497f9722a3daafe3b4186f6b6457e060405160405180910390a3806000806101000a81548173ffffffffffffffffffffffffffffffffffffffff021916908373ffffffffffffffffffffffffffffffffffffffff16021790555050565b600d5481565b600080600090505b602380549050811015614b67578273ffffffffffffffffffffffffffffffffffffffff1660238281548110614b0957fe5b9060005260206000200160009054906101000a900473ffffffffffffffffffffffffffffffffffffffff1673ffffffffffffffffffffffffffffffffffffffff161415614b5a576001915050614b6d565b8080600101915050614ad8565b50600090505b919050565b60248181548110614b7f57fe5b906000526020600020016000915054906101000a900473ffffffffffffffffffffffffffffffffffffffff1681565b6000602060008373ffffffffffffffffffffffffffffffffffffffff1673ffffffffffffffffffffffffffffffffffffffff16815260200190815260200160002060008473ffffffffffffffffffffffffffffffffffffffff1673ffffffffffffffffffffffffffffffffffffffff1681526020019081526020016000205411614cb9576001602160008473ffffffffffffffffffffffffffffffffffffffff1673ffffffffffffffffffffffffffffffffffffffff1681526020019081526020016000205401602160008473ffffffffffffffffffffffffffffffffffffffff1673ffffffffffffffffffffffffffffffffffffffff168152602001908152602001600020819055505b5050565b600033905090565b6000600360009054906101000a900473ffffffffffffffffffffffffffffffffffffffff16905090565b828054600181600116156101000203166002900490600052602060002090601f016020900481019282601f10614d285780548555614d65565b82800160010185558215614d6557600052602060002091601f016020900482015b82811115614d64578254825591600101919060010190614d49565b5b509050614d729190614df6565b5090565b828054600181600116156101000203166002900490600052602060002090601f016020900481019282601f10614db757805160ff1916838001178555614de5565b82800160010185558215614de5579182015b82811115614de4578251825591602001919060010190614dc9565b5b509050614df29190614df6565b5090565b614e1891905b80821115614e14576000816000905550600101614dfc565b5090565b9056fe68747470733a2f2f6d696e2d6170692e63727970746f636f6d706172652e636f6d2f646174612f70726963656d756c746966756c6c3f6673796d733d4f776e61626c653a206e6577206f776e657220697320746865207a65726f2061646472657373a2646970667358221220d82c2326e57792804316523d8d885ba39f5f263b00961de2c62836298fac5ebc64736f6c63430006060033477565737320746865207365636f6e642064696769742061667465722074686520646563696d616c20706f696e7447756573732072656d61696e646572206f6620766f6c756d6520646976696465642062792033",
  "immutableReferences": {},
  "source": "pragma solidity ^0.6.0;\n// pragma experimental ABIEncoderV2;\n\nimport \"@nomiclabs/buidler/console.sol\";\nimport \"@openzeppelin/contracts/token/ERC20/IERC20.sol\";\nimport \"@openzeppelin/contracts/access/Ownable.sol\";\nimport \"@chainlink/contracts/src/v0.6/interfaces/AggregatorV3Interface.sol\";\n\nimport \"./AddGameInfo.sol\";\n\ncontract TokenFarm is Ownable, AddGameInfo {\n    // string public name = \"Dapp Token Farm\";\n    string public name = \"Crypto Gas Earning\";\n    IERC20 public dappToken;\n\n    struct UserGameInfo {\n        uint256 gameId; // game id\n        uint8 answerId; // answer chosen by user\n        uint256 amount; // bet amount on this game\n        bool isCorrect;\n        bool isNotified; // has notified result to the user\n    }\n\n    struct UserData {\n        address addr; // user wallet address\n        uint256 balance; // user balance stored in the contract, including ones in the games\n        mapping(uint256 => UserGameInfo) gameInfoStructs;\n    }\n\n    // UserData Map\n    mapping(address => UserData) public userDataStructs;\n    mapping(address => mapping(uint256 => UserGameInfo)) public userGameStructs;\n    mapping(address => bool) public userList;\n    uint256 totalContractBalance;\n\n    /* Get user's available balance */\n    function getUserBalance(address addr) public returns (uint256) {\n        if (!userList[addr]) {\n            userDataStructs[addr].addr = addr;\n            userList[addr] = true;\n        }\n        return userDataStructs[addr].balance;\n    }\n\n    /* load balance from user's address to contract */\n    function reloadBalance(address addr, uint256 amount)\n        public\n        returns (uint256)\n    {\n        uint256 total = userDataStructs[addr].balance + amount;\n        userDataStructs[addr].balance = total;\n        totalContractBalance = totalContractBalance + amount;\n        return total;\n    }\n\n    /* withdraw balance from contract to user's balance */\n    function withdrawBalance(address addr, uint256 amount)\n        public\n        returns (uint256)\n    {\n        uint256 remainding = userDataStructs[addr].balance - amount;\n        if (remainding >= 0) {\n            userDataStructs[addr].balance = remainding;\n            totalContractBalance = totalContractBalance - amount;\n        }\n        return remainding;\n    }\n\n    function getTotalContractBalance()\n        public\n        returns (uint256 contractBalance)\n    {\n        return totalContractBalance;\n    }\n\n    /* Check if user is currently participating in a game */\n    function getUserGameInfo(address addr, uint256 gameId)\n        public\n        view\n        returns (uint8 answerId, uint256 amount)\n    {\n        return (\n            userDataStructs[addr].gameInfoStructs[gameId].answerId,\n            userDataStructs[addr].gameInfoStructs[gameId].amount\n        );\n    }\n\n    /* When user register to participate in a game */\n    function addGameInfoToUserData(\n        address addr,\n        uint256 gameId,\n        uint8 answerId,\n        uint256 amount\n    ) public returns (bool success) {\n        if (userDataStructs[addr].balance >= amount) {\n            userDataStructs[addr].balance =\n                userDataStructs[addr].balance -\n                amount;\n            userDataStructs[addr].gameInfoStructs[gameId].gameId = gameId;\n            userDataStructs[addr].gameInfoStructs[gameId].answerId = answerId;\n            userDataStructs[addr].gameInfoStructs[gameId].amount = amount;\n            userDataStructs[addr].gameInfoStructs[gameId].isCorrect = false;\n            userDataStructs[addr].gameInfoStructs[gameId].isNotified = false;\n            return true;\n        }\n        return false;\n    }\n\n    // issueReward\n\n    // Deposit Balance (stakeToken -> Deposit tokan)\n    function stakeTokens(uint256 amount, address tokenAddress) public {\n        require(amount > 0, \"Amount cannot be 0\");\n        // only allow certain token to be deposit\n        if (isTokenAllowed(tokenAddress)) {\n            updateUniqueTokensStake(msg.sender, tokenAddress);\n\n            // token flow: user address to smart contract\n            // because contract does not own the token, use TransferFrom\n            IERC20(tokenAddress).transferFrom(\n                msg.sender,\n                address(this),\n                amount\n            );\n\n            // get the original/current balance and add in the new stake amount\n            stakingBalance[tokenAddress][msg.sender] =\n                stakingBalance[tokenAddress][msg.sender] +\n                amount;\n\n            // New staker\n            if (uniqueTokensStaked[msg.sender] == 1) {\n                stakers.push(msg.sender);\n            }\n        }\n    }\n\n    // token addresses -> mapping of user address -> amounts\n    // **need to change it to have more info\n    mapping(address => mapping(address => uint256)) public stakingBalance;\n    //\n    mapping(address => uint256) public uniqueTokensStaked;\n    //\n    mapping(address => address) public tokenPriceFeedMapping;\n\n    // store: token allowed to be deposit\n    address[] allowedTokens;\n\n    // store all the stakers\n    address[] public stakers;\n\n    constructor(address _dappTokenAddress) public {\n        // interface to set ERC20\n        dappToken = IERC20(_dappTokenAddress);\n    }\n\n    // Withdraw Balance (unstakeTokens -> Withdraw token)\n    function unstakeTokens(address token) public {\n        uint256 balance = stakingBalance[token][msg.sender];\n        require(balance > 0, \"Staking balance cannot be 0\");\n\n        // token flow: contract to user address\n        // because contract DOES  own the token, use Transfer\n        IERC20(token).transfer(msg.sender, balance);\n\n        // withdraw all balance\n        stakingBalance[token][msg.sender] = 0;\n        uniqueTokensStaked[msg.sender] = uniqueTokensStaked[msg.sender] - 1;\n    }\n\n    // Issue Rewards (issueTokens -> Issue Rewards)\n    function issueTokens() public onlyOwner {\n        for (\n            uint256 stakersIndex = 0;\n            stakersIndex < stakers.length;\n            stakersIndex++\n        ) {\n            address recipient = stakers[stakersIndex];\n            dappToken.transfer(recipient, getUserTotalValue(recipient));\n        }\n    }\n\n    function setPriceFeedContract(address token, address priceFeed)\n        public\n        onlyOwner\n    {\n        tokenPriceFeedMapping[token] = priceFeed;\n    }\n\n    function updateUniqueTokensStake(address user, address token) internal {\n        if (stakingBalance[token][user] <= 0) {\n            uniqueTokensStaked[user] = uniqueTokensStaked[user] + 1;\n        }\n    }\n\n    // Checking if the token user's sending is valid for our app\n    // update it to mapping so less gas will be charged\n    function isTokenAllowed(address token) public returns (bool) {\n        for (\n            uint256 allowedTokensIndex = 0;\n            allowedTokensIndex < allowedTokens.length;\n            allowedTokensIndex++\n        ) {\n            if (allowedTokens[allowedTokensIndex] == token) {\n                return true;\n            }\n        }\n        return false;\n    }\n\n    // Add allowed tokens (can only be modified/called by the onwer)\n    function addAllowedTokens(address token) public onlyOwner {\n        allowedTokens.push(token);\n        // allowedTokens[token]=true; for mapping\n    }\n\n    function getUserTotalValue(address user) public view returns (uint256) {\n        uint256 totalValue = 0;\n        if (uniqueTokensStaked[user] > 0) {\n            for (\n                uint256 allowedTokensIndex = 0;\n                allowedTokensIndex < allowedTokens.length;\n                allowedTokensIndex++\n            ) {\n                totalValue =\n                    totalValue +\n                    getUserStakingBalanceEthValue(\n                        user,\n                        allowedTokens[allowedTokensIndex]\n                    );\n            }\n        }\n        return totalValue;\n    }\n\n    function getUserStakingBalanceEthValue(address user, address token)\n        public\n        view\n        returns (uint256)\n    {\n        // user does not have token\n        if (uniqueTokensStaked[user] <= 0) {\n            return 0;\n        }\n        return\n            (stakingBalance[token][user] * getTokenEthPrice(token)) / (10**18);\n    }\n\n    function getTokenEthPrice(address token) public view returns (uint256) {\n        address priceFeedAddress = tokenPriceFeedMapping[token];\n        AggregatorV3Interface priceFeed =\n            AggregatorV3Interface(priceFeedAddress);\n        (\n            uint80 roundID,\n            int256 price,\n            uint256 startedAt,\n            uint256 timeStamp,\n            uint80 answerdInRound\n        ) = priceFeed.latestRoundData();\n        return uint256(price);\n    }\n}\n",
  "sourcePath": "/Users/derekchou/Desktop/crypto/guess_get_gas/contracts/TokenFarm.sol",
  "compiler": {
    "name": "solc",
    "version": "0.6.6+commit.6c089d02.Emscripten.clang"
  },
  "schemaVersion": "3.3.4",
  "updatedAt": "2021-04-10T15:40:10.267Z",
  "devdoc": {
    "methods": {
      "owner()": {
        "details": "Returns the address of the current owner."
      },
      "renounceOwnership()": {
        "details": "Leaves the contract without owner. It will not be possible to call `onlyOwner` functions anymore. Can only be called by the current owner.     * NOTE: Renouncing ownership will leave the contract without an owner, thereby removing any functionality that is only available to the owner."
      },
      "transferOwnership(address)": {
        "details": "Transfers ownership of the contract to a new account (`newOwner`). Can only be called by the current owner."
      }
    }
  },
  "userdoc": {
    "methods": {}
  }
}