{
  "contractName": "TokenFarm",
  "abi": [
    {
      "inputs": [
        {
          "internalType": "address",
          "name": "_dappTokenAddress",
          "type": "address"
        }
      ],
      "stateMutability": "nonpayable",
      "type": "constructor"
    },
    {
      "anonymous": false,
      "inputs": [
        {
          "indexed": true,
          "internalType": "bytes32",
          "name": "id",
          "type": "bytes32"
        }
      ],
      "name": "ChainlinkCancelled",
      "type": "event"
    },
    {
      "anonymous": false,
      "inputs": [
        {
          "indexed": true,
          "internalType": "bytes32",
          "name": "id",
          "type": "bytes32"
        }
      ],
      "name": "ChainlinkFulfilled",
      "type": "event"
    },
    {
      "anonymous": false,
      "inputs": [
        {
          "indexed": true,
          "internalType": "bytes32",
          "name": "id",
          "type": "bytes32"
        }
      ],
      "name": "ChainlinkRequested",
      "type": "event"
    },
    {
      "anonymous": false,
      "inputs": [
        {
          "indexed": true,
          "internalType": "address",
          "name": "previousOwner",
          "type": "address"
        },
        {
          "indexed": true,
          "internalType": "address",
          "name": "newOwner",
          "type": "address"
        }
      ],
      "name": "OwnershipTransferred",
      "type": "event"
    },
    {
      "inputs": [],
      "name": "activeGameStatus",
      "outputs": [],
      "stateMutability": "nonpayable",
      "type": "function"
    },
    {
      "inputs": [
        {
          "internalType": "int256",
          "name": "_gameId",
          "type": "int256"
        },
        {
          "internalType": "address",
          "name": "_userAddress",
          "type": "address"
        },
        {
          "internalType": "int256",
          "name": "_optionId",
          "type": "int256"
        }
      ],
      "name": "addParticipant",
      "outputs": [],
      "stateMutability": "nonpayable",
      "type": "function"
    },
    {
      "inputs": [
        {
          "internalType": "bytes32",
          "name": "_bytes32",
          "type": "bytes32"
        }
      ],
      "name": "bytes32ToString",
      "outputs": [
        {
          "internalType": "string",
          "name": "",
          "type": "string"
        }
      ],
      "stateMutability": "nonpayable",
      "type": "function"
    },
    {
      "inputs": [
        {
          "internalType": "int256",
          "name": "",
          "type": "int256"
        }
      ],
      "name": "currencyList",
      "outputs": [
        {
          "internalType": "bytes32",
          "name": "name",
          "type": "bytes32"
        },
        {
          "internalType": "bytes32",
          "name": "fullName",
          "type": "bytes32"
        },
        {
          "internalType": "bytes32",
          "name": "overviewUrl",
          "type": "bytes32"
        },
        {
          "internalType": "bytes32",
          "name": "assetLaunchDate",
          "type": "bytes32"
        },
        {
          "internalType": "bytes32",
          "name": "logoUrl",
          "type": "bytes32"
        },
        {
          "internalType": "string",
          "name": "currencyIntro",
          "type": "string"
        }
      ],
      "stateMutability": "view",
      "type": "function"
    },
    {
      "inputs": [],
      "name": "currencyQuantity",
      "outputs": [
        {
          "internalType": "int256",
          "name": "",
          "type": "int256"
        }
      ],
      "stateMutability": "view",
      "type": "function"
    },
    {
      "inputs": [],
      "name": "dailyGameQuantity",
      "outputs": [
        {
          "internalType": "int256",
          "name": "",
          "type": "int256"
        }
      ],
      "stateMutability": "view",
      "type": "function"
    },
    {
      "inputs": [],
      "name": "dappToken",
      "outputs": [
        {
          "internalType": "contract IERC20",
          "name": "",
          "type": "address"
        }
      ],
      "stateMutability": "view",
      "type": "function"
    },
    {
      "inputs": [
        {
          "internalType": "int256",
          "name": "",
          "type": "int256"
        }
      ],
      "name": "gameInfoList",
      "outputs": [
        {
          "internalType": "int256",
          "name": "gameId",
          "type": "int256"
        },
        {
          "internalType": "string",
          "name": "gameTitle",
          "type": "string"
        },
        {
          "internalType": "string",
          "name": "gameQuestion",
          "type": "string"
        },
        {
          "internalType": "string",
          "name": "gameDescription",
          "type": "string"
        },
        {
          "internalType": "uint256",
          "name": "gameParticipateStartTime",
          "type": "uint256"
        },
        {
          "internalType": "string",
          "name": "gameWindow",
          "type": "string"
        },
        {
          "internalType": "string",
          "name": "gameProperty",
          "type": "string"
        },
        {
          "internalType": "string",
          "name": "gameLogoLink",
          "type": "string"
        },
        {
          "internalType": "int256",
          "name": "numOfParticipants",
          "type": "int256"
        }
      ],
      "stateMutability": "view",
      "type": "function"
    },
    {
      "inputs": [
        {
          "internalType": "int256",
          "name": "",
          "type": "int256"
        }
      ],
      "name": "gameList",
      "outputs": [
        {
          "internalType": "int256",
          "name": "questionId",
          "type": "int256"
        },
        {
          "internalType": "int256",
          "name": "currencyId",
          "type": "int256"
        },
        {
          "internalType": "uint256",
          "name": "revealTime",
          "type": "uint256"
        },
        {
          "internalType": "int256",
          "name": "lifeLengthId",
          "type": "int256"
        },
        {
          "internalType": "string",
          "name": "property",
          "type": "string"
        },
        {
          "internalType": "bool",
          "name": "isActivity",
          "type": "bool"
        },
        {
          "internalType": "bool",
          "name": "isClose",
          "type": "bool"
        }
      ],
      "stateMutability": "view",
      "type": "function"
    },
    {
      "inputs": [
        {
          "internalType": "int256",
          "name": "_gameId",
          "type": "int256"
        }
      ],
      "name": "getAnswer",
      "outputs": [],
      "stateMutability": "nonpayable",
      "type": "function"
    },
    {
      "inputs": [],
      "name": "getAvailableGameIds",
      "outputs": [
        {
          "internalType": "int256[]",
          "name": "",
          "type": "int256[]"
        }
      ],
      "stateMutability": "view",
      "type": "function"
    },
    {
      "inputs": [],
      "name": "getCurrencyList",
      "outputs": [],
      "stateMutability": "nonpayable",
      "type": "function"
    },
    {
      "inputs": [
        {
          "internalType": "int256",
          "name": "gameId",
          "type": "int256"
        }
      ],
      "name": "getPreciseAnswer",
      "outputs": [
        {
          "internalType": "uint256",
          "name": "",
          "type": "uint256"
        }
      ],
      "stateMutability": "nonpayable",
      "type": "function"
    },
    {
      "inputs": [],
      "name": "getRandom",
      "outputs": [
        {
          "internalType": "int256",
          "name": "",
          "type": "int256"
        }
      ],
      "stateMutability": "nonpayable",
      "type": "function"
    },
    {
      "inputs": [
        {
          "internalType": "int256",
          "name": "",
          "type": "int256"
        }
      ],
      "name": "lifeLengthList",
      "outputs": [
        {
          "internalType": "int256",
          "name": "lifeLength",
          "type": "int256"
        },
        {
          "internalType": "int256",
          "name": "gameQuantity",
          "type": "int256"
        },
        {
          "internalType": "string",
          "name": "title",
          "type": "string"
        }
      ],
      "stateMutability": "view",
      "type": "function"
    },
    {
      "inputs": [],
      "name": "makeCurrencyList",
      "outputs": [],
      "stateMutability": "nonpayable",
      "type": "function"
    },
    {
      "inputs": [],
      "name": "makeDailyGame",
      "outputs": [],
      "stateMutability": "nonpayable",
      "type": "function"
    },
    {
      "inputs": [
        {
          "internalType": "int256",
          "name": "_questionId",
          "type": "int256"
        },
        {
          "internalType": "int256",
          "name": "_gameId",
          "type": "int256"
        }
      ],
      "name": "makeOptions",
      "outputs": [],
      "stateMutability": "nonpayable",
      "type": "function"
    },
    {
      "inputs": [],
      "name": "monthlyGameQuantity",
      "outputs": [
        {
          "internalType": "int256",
          "name": "",
          "type": "int256"
        }
      ],
      "stateMutability": "view",
      "type": "function"
    },
    {
      "inputs": [],
      "name": "name",
      "outputs": [
        {
          "internalType": "string",
          "name": "",
          "type": "string"
        }
      ],
      "stateMutability": "view",
      "type": "function"
    },
    {
      "inputs": [
        {
          "internalType": "int256",
          "name": "",
          "type": "int256"
        },
        {
          "internalType": "int256",
          "name": "",
          "type": "int256"
        }
      ],
      "name": "optionsList",
      "outputs": [
        {
          "internalType": "int256",
          "name": "optionsContet",
          "type": "int256"
        },
        {
          "internalType": "int256",
          "name": "userQuantity",
          "type": "int256"
        }
      ],
      "stateMutability": "view",
      "type": "function"
    },
    {
      "inputs": [],
      "name": "owner",
      "outputs": [
        {
          "internalType": "address",
          "name": "",
          "type": "address"
        }
      ],
      "stateMutability": "view",
      "type": "function"
    },
    {
      "inputs": [
        {
          "internalType": "int256",
          "name": "gameId",
          "type": "int256"
        }
      ],
      "name": "processGameResult",
      "outputs": [],
      "stateMutability": "nonpayable",
      "type": "function"
    },
    {
      "inputs": [
        {
          "internalType": "int256",
          "name": "",
          "type": "int256"
        }
      ],
      "name": "propertyList",
      "outputs": [
        {
          "internalType": "string",
          "name": "",
          "type": "string"
        }
      ],
      "stateMutability": "view",
      "type": "function"
    },
    {
      "inputs": [
        {
          "internalType": "int256",
          "name": "",
          "type": "int256"
        }
      ],
      "name": "questionList",
      "outputs": [
        {
          "internalType": "string",
          "name": "questionName",
          "type": "string"
        },
        {
          "internalType": "string",
          "name": "questionDescription",
          "type": "string"
        }
      ],
      "stateMutability": "view",
      "type": "function"
    },
    {
      "inputs": [],
      "name": "rand_b",
      "outputs": [
        {
          "internalType": "int256",
          "name": "",
          "type": "int256"
        }
      ],
      "stateMutability": "view",
      "type": "function"
    },
    {
      "inputs": [],
      "name": "randomNum",
      "outputs": [
        {
          "internalType": "uint256",
          "name": "",
          "type": "uint256"
        }
      ],
      "stateMutability": "view",
      "type": "function"
    },
    {
      "inputs": [],
      "name": "renounceOwnership",
      "outputs": [],
      "stateMutability": "nonpayable",
      "type": "function"
    },
    {
      "inputs": [],
      "name": "reqID_VRF",
      "outputs": [
        {
          "internalType": "bytes32",
          "name": "",
          "type": "bytes32"
        }
      ],
      "stateMutability": "view",
      "type": "function"
    },
    {
      "inputs": [],
      "name": "returnAnswer",
      "outputs": [
        {
          "internalType": "uint256",
          "name": "",
          "type": "uint256"
        }
      ],
      "stateMutability": "view",
      "type": "function"
    },
    {
      "inputs": [
        {
          "internalType": "uint256",
          "name": "",
          "type": "uint256"
        }
      ],
      "name": "stakers",
      "outputs": [
        {
          "internalType": "address",
          "name": "",
          "type": "address"
        }
      ],
      "stateMutability": "view",
      "type": "function"
    },
    {
      "inputs": [
        {
          "internalType": "address",
          "name": "",
          "type": "address"
        },
        {
          "internalType": "address",
          "name": "",
          "type": "address"
        }
      ],
      "name": "stakingBalance",
      "outputs": [
        {
          "internalType": "uint256",
          "name": "",
          "type": "uint256"
        }
      ],
      "stateMutability": "view",
      "type": "function"
    },
    {
      "inputs": [],
      "name": "storeAvailableGameIds",
      "outputs": [],
      "stateMutability": "nonpayable",
      "type": "function"
    },
    {
      "inputs": [
        {
          "internalType": "address",
          "name": "",
          "type": "address"
        }
      ],
      "name": "tokenPriceFeedMapping",
      "outputs": [
        {
          "internalType": "address",
          "name": "",
          "type": "address"
        }
      ],
      "stateMutability": "view",
      "type": "function"
    },
    {
      "inputs": [],
      "name": "totalGameQty",
      "outputs": [
        {
          "internalType": "int256",
          "name": "",
          "type": "int256"
        }
      ],
      "stateMutability": "view",
      "type": "function"
    },
    {
      "inputs": [
        {
          "internalType": "address",
          "name": "newOwner",
          "type": "address"
        }
      ],
      "name": "transferOwnership",
      "outputs": [],
      "stateMutability": "nonpayable",
      "type": "function"
    },
    {
      "inputs": [
        {
          "internalType": "address",
          "name": "",
          "type": "address"
        }
      ],
      "name": "uniqueTokensStaked",
      "outputs": [
        {
          "internalType": "uint256",
          "name": "",
          "type": "uint256"
        }
      ],
      "stateMutability": "view",
      "type": "function"
    },
    {
      "inputs": [
        {
          "internalType": "address",
          "name": "",
          "type": "address"
        }
      ],
      "name": "userDataStructs",
      "outputs": [
        {
          "internalType": "address",
          "name": "addr",
          "type": "address"
        },
        {
          "internalType": "uint256",
          "name": "balance",
          "type": "uint256"
        }
      ],
      "stateMutability": "view",
      "type": "function"
    },
    {
      "inputs": [
        {
          "internalType": "address",
          "name": "",
          "type": "address"
        },
        {
          "internalType": "uint256",
          "name": "",
          "type": "uint256"
        }
      ],
      "name": "userGameStructs",
      "outputs": [
        {
          "internalType": "uint256",
          "name": "gameId",
          "type": "uint256"
        },
        {
          "internalType": "uint8",
          "name": "answerId",
          "type": "uint8"
        },
        {
          "internalType": "uint256",
          "name": "amount",
          "type": "uint256"
        },
        {
          "internalType": "bool",
          "name": "isCorrect",
          "type": "bool"
        },
        {
          "internalType": "bool",
          "name": "isNotified",
          "type": "bool"
        }
      ],
      "stateMutability": "view",
      "type": "function"
    },
    {
      "inputs": [
        {
          "internalType": "address",
          "name": "",
          "type": "address"
        }
      ],
      "name": "userList",
      "outputs": [
        {
          "internalType": "bool",
          "name": "",
          "type": "bool"
        }
      ],
      "stateMutability": "view",
      "type": "function"
    },
    {
      "inputs": [],
      "name": "weeklyGameQuantity",
      "outputs": [
        {
          "internalType": "int256",
          "name": "",
          "type": "int256"
        }
      ],
      "stateMutability": "view",
      "type": "function"
    },
    {
      "inputs": [],
      "name": "withdrawLink",
      "outputs": [],
      "stateMutability": "nonpayable",
      "type": "function"
    },
    {
      "inputs": [
        {
          "internalType": "address",
          "name": "addr",
          "type": "address"
        }
      ],
      "name": "getUserBalance",
      "outputs": [
        {
          "internalType": "uint256",
          "name": "",
          "type": "uint256"
        }
      ],
      "stateMutability": "nonpayable",
      "type": "function"
    },
    {
      "inputs": [
        {
          "internalType": "address",
          "name": "addr",
          "type": "address"
        },
        {
          "internalType": "uint256",
          "name": "amount",
          "type": "uint256"
        }
      ],
      "name": "reloadBalance",
      "outputs": [
        {
          "internalType": "uint256",
          "name": "",
          "type": "uint256"
        }
      ],
      "stateMutability": "nonpayable",
      "type": "function"
    },
    {
      "inputs": [
        {
          "internalType": "address",
          "name": "addr",
          "type": "address"
        },
        {
          "internalType": "uint256",
          "name": "amount",
          "type": "uint256"
        }
      ],
      "name": "withdrawBalance",
      "outputs": [
        {
          "internalType": "uint256",
          "name": "",
          "type": "uint256"
        }
      ],
      "stateMutability": "nonpayable",
      "type": "function"
    },
    {
      "inputs": [],
      "name": "getTotalContractBalance",
      "outputs": [
        {
          "internalType": "uint256",
          "name": "contractBalance",
          "type": "uint256"
        }
      ],
      "stateMutability": "nonpayable",
      "type": "function"
    },
    {
      "inputs": [
        {
          "internalType": "address",
          "name": "addr",
          "type": "address"
        },
        {
          "internalType": "uint256",
          "name": "gameId",
          "type": "uint256"
        }
      ],
      "name": "getUserGameInfo",
      "outputs": [
        {
          "internalType": "uint8",
          "name": "answerId",
          "type": "uint8"
        },
        {
          "internalType": "uint256",
          "name": "amount",
          "type": "uint256"
        }
      ],
      "stateMutability": "view",
      "type": "function"
    },
    {
      "inputs": [
        {
          "internalType": "address",
          "name": "addr",
          "type": "address"
        },
        {
          "internalType": "uint256",
          "name": "gameId",
          "type": "uint256"
        },
        {
          "internalType": "uint8",
          "name": "answerId",
          "type": "uint8"
        },
        {
          "internalType": "uint256",
          "name": "amount",
          "type": "uint256"
        }
      ],
      "name": "addGameInfoToUserData",
      "outputs": [
        {
          "internalType": "bool",
          "name": "success",
          "type": "bool"
        }
      ],
      "stateMutability": "nonpayable",
      "type": "function"
    },
    {
      "inputs": [
        {
          "internalType": "uint256",
          "name": "amount",
          "type": "uint256"
        },
        {
          "internalType": "address",
          "name": "tokenAddress",
          "type": "address"
        }
      ],
      "name": "stakeTokens",
      "outputs": [],
      "stateMutability": "nonpayable",
      "type": "function"
    },
    {
      "inputs": [
        {
          "internalType": "address",
          "name": "token",
          "type": "address"
        }
      ],
      "name": "unstakeTokens",
      "outputs": [],
      "stateMutability": "nonpayable",
      "type": "function"
    },
    {
      "inputs": [],
      "name": "issueTokens",
      "outputs": [],
      "stateMutability": "nonpayable",
      "type": "function"
    },
    {
      "inputs": [
        {
          "internalType": "address",
          "name": "token",
          "type": "address"
        },
        {
          "internalType": "address",
          "name": "priceFeed",
          "type": "address"
        }
      ],
      "name": "setPriceFeedContract",
      "outputs": [],
      "stateMutability": "nonpayable",
      "type": "function"
    },
    {
      "inputs": [
        {
          "internalType": "address",
          "name": "token",
          "type": "address"
        }
      ],
      "name": "isTokenAllowed",
      "outputs": [
        {
          "internalType": "bool",
          "name": "",
          "type": "bool"
        }
      ],
      "stateMutability": "nonpayable",
      "type": "function"
    },
    {
      "inputs": [
        {
          "internalType": "address",
          "name": "token",
          "type": "address"
        }
      ],
      "name": "addAllowedTokens",
      "outputs": [],
      "stateMutability": "nonpayable",
      "type": "function"
    },
    {
      "inputs": [
        {
          "internalType": "address",
          "name": "user",
          "type": "address"
        }
      ],
      "name": "getUserTotalValue",
      "outputs": [
        {
          "internalType": "uint256",
          "name": "",
          "type": "uint256"
        }
      ],
      "stateMutability": "view",
      "type": "function"
    },
    {
      "inputs": [
        {
          "internalType": "address",
          "name": "user",
          "type": "address"
        },
        {
          "internalType": "address",
          "name": "token",
          "type": "address"
        }
      ],
      "name": "getUserStakingBalanceEthValue",
      "outputs": [
        {
          "internalType": "uint256",
          "name": "",
          "type": "uint256"
        }
      ],
      "stateMutability": "view",
      "type": "function"
    },
    {
      "inputs": [
        {
          "internalType": "address",
          "name": "token",
          "type": "address"
        }
      ],
      "name": "getTokenEthPrice",
      "outputs": [
        {
          "internalType": "uint256",
          "name": "",
          "type": "uint256"
        }
      ],
      "stateMutability": "view",
      "type": "function"
    }
  ],
  "bytecode": "0x608060405260016005556298968042816200001657fe5b04600d557359f08372ab30e64f61af8594c1163379acad27c5601660006101000a81548173ffffffffffffffffffffffffffffffffffffffff021916908373ffffffffffffffffffffffffffffffffffffffff160217905550601660009054906101000a900473ffffffffffffffffffffffffffffffffffffffff16601760006101000a81548173ffffffffffffffffffffffffffffffffffffffff021916908373ffffffffffffffffffffffffffffffffffffffff16021790555073be56d8d1d1a529dd83f1188d3b0949a2828f45a5601860006101000a81548173ffffffffffffffffffffffffffffffffffffffff021916908373ffffffffffffffffffffffffffffffffffffffff160217905550601660009054906101000a900473ffffffffffffffffffffffffffffffffffffffff16601960006101000a81548173ffffffffffffffffffffffffffffffffffffffff021916908373ffffffffffffffffffffffffffffffffffffffff16021790555073a7986fb6438db392b60aaa6fba3b1b7c5514dd10601a60006101000a81548173ffffffffffffffffffffffffffffffffffffffff021916908373ffffffffffffffffffffffffffffffffffffffff160217905550601a60009054906101000a900473ffffffffffffffffffffffffffffffffffffffff16601b60006101000a81548173ffffffffffffffffffffffffffffffffffffffff021916908373ffffffffffffffffffffffffffffffffffffffff160217905550730404e505c13c659b444f3566777901c824c82566601c60006101000a81548173ffffffffffffffffffffffffffffffffffffffff021916908373ffffffffffffffffffffffffffffffffffffffff160217905550601c60009054906101000a900473ffffffffffffffffffffffffffffffffffffffff16601d60006101000a81548173ffffffffffffffffffffffffffffffffffffffff021916908373ffffffffffffffffffffffffffffffffffffffff1602179055506040518060400160405280601281526020017f43727970746f20476173204561726e696e670000000000000000000000000000815250602090805190602001906200034792919062000b30565b503480156200035557600080fd5b506040516200704038038062007040833981810160405260208110156200037b57600080fd5b810190808051906020019092919050505060006200039e62000ae460201b60201c565b9050806000806101000a81548173ffffffffffffffffffffffffffffffffffffffff021916908373ffffffffffffffffffffffffffffffffffffffff1602179055508073ffffffffffffffffffffffffffffffffffffffff16600073ffffffffffffffffffffffffffffffffffffffff167f8be0079c531659141344cd1fd0a4f28419497f9722a3daafe3b4186f6b6457e060405160405180910390a3506200046173326c977e6efc84e512bb9c30f76e30c160ed06fb62000aec60201b60201c565b6040518060400160405280600681526020017f564f4c554d45000000000000000000000000000000000000000000000000000081525060156000600181526020019081526020016000206000019080519060200190620004c392919062000b30565b506040518060800160405280604f815260200162006f1c604f9139601560006001815260200190815260200160002060010190805190602001906200050a92919062000b30565b506040518060400160405280600681526020017f564f4c554d450000000000000000000000000000000000000000000000000000815250601560006002815260200190815260200160002060000190805190602001906200056d92919062000b30565b506040518060800160405280604b815260200162006f6b604b913960156000600281526020019081526020016000206001019080519060200190620005b492919062000b30565b506040518060400160405280600681526020017f564f4c554d450000000000000000000000000000000000000000000000000000815250601560006003815260200190815260200160002060000190805190602001906200061792919062000b30565b5060405180606001604052806040815260200162006fb660409139601560006003815260200190815260200160002060010190805190602001906200065e92919062000b30565b506040518060400160405280600581526020017f505249434500000000000000000000000000000000000000000000000000000081525060156000600481526020019081526020016000206000019080519060200190620006c192919062000b30565b506040518060800160405280604a815260200162006ff6604a9139601560006004815260200190815260200160002060010190805190602001906200070892919062000b30565b506040518060400160405280600581526020017f5052494345000000000000000000000000000000000000000000000000000000815250601560006005815260200190815260200160002060000190805190602001906200076b92919062000b30565b506040518060800160405280604f815260200162006f1c604f913960156000600581526020019081526020016000206001019080519060200190620007b292919062000b30565b506040518060400160405280600581526020017f5052494345000000000000000000000000000000000000000000000000000000815250601560006006815260200190815260200160002060000190805190602001906200081592919062000b30565b5060405180606001604052806040815260200162006fb660409139601560006006815260200190815260200160002060010190805190602001906200085c92919062000b30565b506040518060400160405280600f81526020017f43727970746f2043757272656e6379000000000000000000000000000000000081525060136000600181526020019081526020016000209080519060200190620008bc92919062000b30565b506001601460006001815260200190815260200160002060000181905550600a6014600060018152602001908152602001600020600101819055506040518060400160405280600581526020017f4461696c79000000000000000000000000000000000000000000000000000000815250601460006001815260200190815260200160002060020190805190602001906200095992919062000b30565b50600760146000600281526020019081526020016000206000018190555060026014600060028152602001908152602001600020600101819055506040518060400160405280600681526020017f5765656b6c79000000000000000000000000000000000000000000000000000081525060146000600281526020019081526020016000206002019080519060200190620009f692919062000b30565b50601e60146000600381526020019081526020016000206000018190555060016014600060038152602001908152602001600020600101819055506040518060400160405280600781526020017f4d6f6e74686c79000000000000000000000000000000000000000000000000008152506014600060038152602001908152602001600020600201908051906020019062000a9392919062000b30565b50600a60078190555080602160006101000a81548173ffffffffffffffffffffffffffffffffffffffff021916908373ffffffffffffffffffffffffffffffffffffffff1602179055505062000bdf565b600033905090565b80600360006101000a81548173ffffffffffffffffffffffffffffffffffffffff021916908373ffffffffffffffffffffffffffffffffffffffff16021790555050565b828054600181600116156101000203166002900490600052602060002090601f016020900481019282601f1062000b7357805160ff191683800117855562000ba4565b8280016001018555821562000ba4579182015b8281111562000ba357825182559160200191906001019062000b86565b5b50905062000bb3919062000bb7565b5090565b62000bdc91905b8082111562000bd857600081600090555060010162000bbe565b5090565b90565b61632d8062000bef6000396000f3fe608060405234801561001057600080fd5b50600436106103835760003560e01c80637421a206116101de578063c696f0691161010f578063df00018d116100ad578063f2fde38b1161007c578063f2fde38b146116bd578063f630aa6514611701578063f9eaee0d1461171f578063fd5e6dd11461177b57610383565b8063df00018d146114b8578063e50f4c0b14611510578063f1feff34146115e9578063f2ce4dc0146116b357610383565b8063cc81e060116100e9578063cc81e060146113fa578063d17f7b0d14611472578063d9e3fd641461147c578063dc7c155f1461149a57610383565b8063c696f06914611390578063c6b7bd4c146113d2578063c96e6ec0146113dc57610383565b8063aacc5a171161017c578063b8b5ecd111610156578063b8b5ecd114611330578063be360d301461133a578063c3f449c914611368578063c67a3d931461137257610383565b8063aacc5a1714611262578063af3f5e2214611280578063b83e0234146112d857610383565b80638da5cb5b116101b85780638da5cb5b146111055780638dc654a21461114f5780639201de551461115957806395ab14f31461120057610383565b80637421a20614610fce5780637ce6a0fb14611083578063877dd39d146110a157610383565b806332d4e5ec116102b8578063494ca3221161025657806360ab58521161023057806360ab585214610f6e5780636a22246714610f785780636c1c38ae14610fa6578063715018a614610fc457610383565b8063494ca32214610e7d578063568ce94514610eb55780635eb186f814610f2457610383565b80633cb10333116102925780633cb1033314610dcb5780633f5693b214610de95780634773489214610e0757806349400fba14610e5f57610383565b806332d4e5ec14610b86578063374a63d714610c2d5780633c8130e314610cb857610383565b8063171e44ea1161032557806327927b3e116102ff57806327927b3e146109e757806329161a0014610a6b5780632d1ad8b814610ae357806331e1bf3814610b2757610383565b8063171e44ea146108ef5780631b4e7bd21461093357806322c0391f1461098f57610383565b80630b9b5ad0116103615780630b9b5ad0146107365780630bea440d146107b35780630cf20cc914610801578063157bb2c81461086357610383565b8063063afb041461038857806306fdde0314610660578063071c5443146106e3575b600080fd5b6103b46004803603602081101561039e57600080fd5b81019080803590602001909291905050506117e9565b604051808a815260200180602001806020018060200189815260200180602001806020018060200188815260200187810387528f818151815260200191508051906020019080838360005b8381101561041a5780820151818401526020810190506103ff565b50505050905090810190601f1680156104475780820380516001836020036101000a031916815260200191505b5087810386528e818151815260200191508051906020019080838360005b83811015610480578082015181840152602081019050610465565b50505050905090810190601f1680156104ad5780820380516001836020036101000a031916815260200191505b5087810385528d818151815260200191508051906020019080838360005b838110156104e65780820151818401526020810190506104cb565b50505050905090810190601f1680156105135780820380516001836020036101000a031916815260200191505b5087810384528b818151815260200191508051906020019080838360005b8381101561054c578082015181840152602081019050610531565b50505050905090810190601f1680156105795780820380516001836020036101000a031916815260200191505b5087810383528a818151815260200191508051906020019080838360005b838110156105b2578082015181840152602081019050610597565b50505050905090810190601f1680156105df5780820380516001836020036101000a031916815260200191505b50878103825289818151815260200191508051906020019080838360005b838110156106185780820151818401526020810190506105fd565b50505050905090810190601f1680156106455780820380516001836020036101000a031916815260200191505b509f5050505050505050505050505050505060405180910390f35b610668611bc7565b6040518080602001828103825283818151815260200191508051906020019080838360005b838110156106a857808201518184015260208101905061068d565b50505050905090810190601f1680156106d55780820380516001836020036101000a031916815260200191505b509250505060405180910390f35b610719600480360360408110156106f957600080fd5b810190808035906020019092919080359060200190929190505050611c65565b604051808381526020018281526020019250505060405180910390f35b6107996004803603608081101561074c57600080fd5b81019080803573ffffffffffffffffffffffffffffffffffffffff16906020019092919080359060200190929190803560ff16906020019092919080359060200190929190505050611c96565b604051808215151515815260200191505060405180910390f35b6107ff600480360360408110156107c957600080fd5b8101908080359060200190929190803573ffffffffffffffffffffffffffffffffffffffff169060200190929190505050611f85565b005b61084d6004803603604081101561081757600080fd5b81019080803573ffffffffffffffffffffffffffffffffffffffff169060200190929190803590602001909291905050506122ba565b6040518082815260200191505060405180910390f35b6108af6004803603604081101561087957600080fd5b81019080803573ffffffffffffffffffffffffffffffffffffffff16906020019092919080359060200190929190505050612369565b604051808681526020018560ff1660ff16815260200184815260200183151515158152602001821515151581526020019550505050505060405180910390f35b6109316004803603602081101561090557600080fd5b81019080803573ffffffffffffffffffffffffffffffffffffffff1690602001909291905050506123d3565b005b6109756004803603602081101561094957600080fd5b81019080803573ffffffffffffffffffffffffffffffffffffffff1690602001909291905050506124e8565b604051808215151515815260200191505060405180910390f35b6109e5600480360360608110156109a557600080fd5b8101908080359060200190929190803573ffffffffffffffffffffffffffffffffffffffff16906020019092919080359060200190929190505050612508565b005b610a29600480360360208110156109fd57600080fd5b81019080803573ffffffffffffffffffffffffffffffffffffffff1690602001909291905050506125cc565b604051808273ffffffffffffffffffffffffffffffffffffffff1673ffffffffffffffffffffffffffffffffffffffff16815260200191505060405180910390f35b610acd60048036036040811015610a8157600080fd5b81019080803573ffffffffffffffffffffffffffffffffffffffff169060200190929190803573ffffffffffffffffffffffffffffffffffffffff1690602001909291905050506125ff565b6040518082815260200191505060405180910390f35b610b2560048036036020811015610af957600080fd5b81019080803573ffffffffffffffffffffffffffffffffffffffff169060200190929190505050612624565b005b610b2f6128ea565b6040518080602001828103825283818151815260200191508051906020019060200280838360005b83811015610b72578082015181840152602081019050610b57565b505050509050019250505060405180910390f35b610bb260048036036020811015610b9c57600080fd5b8101908080359060200190929190505050612947565b6040518080602001828103825283818151815260200191508051906020019080838360005b83811015610bf2578082015181840152602081019050610bd7565b50505050905090810190601f168015610c1f5780820380516001836020036101000a031916815260200191505b509250505060405180910390f35b610c6f60048036036020811015610c4357600080fd5b81019080803573ffffffffffffffffffffffffffffffffffffffff1690602001909291905050506129f7565b604051808373ffffffffffffffffffffffffffffffffffffffff1673ffffffffffffffffffffffffffffffffffffffff1681526020018281526020019250505060405180910390f35b610ce460048036036020811015610cce57600080fd5b8101908080359060200190929190505050612a3b565b604051808060200180602001838103835285818151815260200191508051906020019080838360005b83811015610d28578082015181840152602081019050610d0d565b50505050905090810190601f168015610d555780820380516001836020036101000a031916815260200191505b50838103825284818151815260200191508051906020019080838360005b83811015610d8e578082015181840152602081019050610d73565b50505050905090810190601f168015610dbb5780820380516001836020036101000a031916815260200191505b5094505050505060405180910390f35b610dd3612b8f565b6040518082815260200191505060405180910390f35b610df1612b95565b6040518082815260200191505060405180910390f35b610e4960048036036020811015610e1d57600080fd5b81019080803573ffffffffffffffffffffffffffffffffffffffff169060200190929190505050612b9b565b6040518082815260200191505060405180910390f35b610e67612d12565b6040518082815260200191505060405180910390f35b610eb360048036036040811015610e9357600080fd5b810190808035906020019092919080359060200190929190505050612d18565b005b610f0160048036036040811015610ecb57600080fd5b81019080803573ffffffffffffffffffffffffffffffffffffffff1690602001909291908035906020019092919050505061301e565b604051808360ff1660ff1681526020018281526020019250505060405180910390f35b610f2c6130e7565b604051808273ffffffffffffffffffffffffffffffffffffffff1673ffffffffffffffffffffffffffffffffffffffff16815260200191505060405180910390f35b610f7661310d565b005b610fa460048036036020811015610f8e57600080fd5b8101908080359060200190929190505050613309565b005b610fae613aa0565b6040518082815260200191505060405180910390f35b610fcc613aa6565b005b610ffa60048036036020811015610fe457600080fd5b8101908080359060200190929190505050613c14565b6040518084815260200183815260200180602001828103825283818151815260200191508051906020019080838360005b8381101561104657808201518184015260208101905061102b565b50505050905090810190601f1680156110735780820380516001836020036101000a031916815260200191505b5094505050505060405180910390f35b61108b613cd6565b6040518082815260200191505060405180910390f35b611103600480360360408110156110b757600080fd5b81019080803573ffffffffffffffffffffffffffffffffffffffff169060200190929190803573ffffffffffffffffffffffffffffffffffffffff169060200190929190505050613cdc565b005b61110d613e0d565b604051808273ffffffffffffffffffffffffffffffffffffffff1673ffffffffffffffffffffffffffffffffffffffff16815260200191505060405180910390f35b611157613e36565b005b6111856004803603602081101561116f57600080fd5b8101908080359060200190929190505050614030565b6040518080602001828103825283818151815260200191508051906020019080838360005b838110156111c55780820151818401526020810190506111aa565b50505050905090810190601f1680156111f25780820380516001836020036101000a031916815260200191505b509250505060405180910390f35b61124c6004803603604081101561121657600080fd5b81019080803573ffffffffffffffffffffffffffffffffffffffff169060200190929190803590602001909291905050506141a4565b6040518082815260200191505060405180910390f35b61126a61424a565b6040518082815260200191505060405180910390f35b6112c26004803603602081101561129657600080fd5b81019080803573ffffffffffffffffffffffffffffffffffffffff1690602001909291905050506145cd565b6040518082815260200191505060405180910390f35b61131a600480360360208110156112ee57600080fd5b81019080803573ffffffffffffffffffffffffffffffffffffffff16906020019092919050505061468c565b6040518082815260200191505060405180910390f35b6113386146a4565b005b6113666004803603602081101561135057600080fd5b810190808035906020019092919050505061485c565b005b611370614b75565b005b61137a614fd7565b6040518082815260200191505060405180910390f35b6113bc600480360360208110156113a657600080fd5b8101908080359060200190929190505050614fdc565b6040518082815260200191505060405180910390f35b6113da615107565b005b6113e4615202565b6040518082815260200191505060405180910390f35b61145c6004803603604081101561141057600080fd5b81019080803573ffffffffffffffffffffffffffffffffffffffff169060200190929190803573ffffffffffffffffffffffffffffffffffffffff169060200190929190505050615208565b6040518082815260200191505060405180910390f35b61147a6152fa565b005b6114846155a5565b6040518082815260200191505060405180910390f35b6114a26155af565b6040518082815260200191505060405180910390f35b6114fa600480360360208110156114ce57600080fd5b81019080803573ffffffffffffffffffffffffffffffffffffffff1690602001909291905050506155b5565b6040518082815260200191505060405180910390f35b61153c6004803603602081101561152657600080fd5b81019080803590602001909291905050506156e9565b60405180888152602001878152602001868152602001858152602001806020018415151515815260200183151515158152602001828103825285818151815260200191508051906020019080838360005b838110156115a857808201518184015260208101905061158d565b50505050905090810190601f1680156115d55780820380516001836020036101000a031916815260200191505b509850505050505050505060405180910390f35b611615600480360360208110156115ff57600080fd5b81019080803590602001909291905050506157dd565b6040518087815260200186815260200185815260200184815260200183815260200180602001828103825283818151815260200191508051906020019080838360005b83811015611673578082015181840152602081019050611658565b50505050905090810190601f1680156116a05780820380516001836020036101000a031916815260200191505b5097505050505050505060405180910390f35b6116bb6158b1565b005b6116ff600480360360208110156116d357600080fd5b81019080803573ffffffffffffffffffffffffffffffffffffffff169060200190929190505050615cb9565b005b611709615eac565b6040518082815260200191505060405180910390f35b6117616004803603602081101561173557600080fd5b81019080803573ffffffffffffffffffffffffffffffffffffffff169060200190929190505050615eb2565b604051808215151515815260200191505060405180910390f35b6117a76004803603602081101561179157600080fd5b8101908080359060200190929190505050615f54565b604051808273ffffffffffffffffffffffffffffffffffffffff1673ffffffffffffffffffffffffffffffffffffffff16815260200191505060405180910390f35b6011602052806000526040600020600091509050806000015490806001018054600181600116156101000203166002900480601f01602080910402602001604051908101604052809291908181526020018280546001816001161561010002031660029004801561189b5780601f106118705761010080835404028352916020019161189b565b820191906000526020600020905b81548152906001019060200180831161187e57829003601f168201915b505050505090806002018054600181600116156101000203166002900480601f0160208091040260200160405190810160405280929190818152602001828054600181600116156101000203166002900480156119395780601f1061190e57610100808354040283529160200191611939565b820191906000526020600020905b81548152906001019060200180831161191c57829003601f168201915b505050505090806003018054600181600116156101000203166002900480601f0160208091040260200160405190810160405280929190818152602001828054600181600116156101000203166002900480156119d75780601f106119ac576101008083540402835291602001916119d7565b820191906000526020600020905b8154815290600101906020018083116119ba57829003601f168201915b505050505090806004015490806005018054600181600116156101000203166002900480601f016020809104026020016040519081016040528092919081815260200182805460018160011615610100020316600290048015611a7b5780601f10611a5057610100808354040283529160200191611a7b565b820191906000526020600020905b815481529060010190602001808311611a5e57829003601f168201915b505050505090806006018054600181600116156101000203166002900480601f016020809104026020016040519081016040528092919081815260200182805460018160011615610100020316600290048015611b195780601f10611aee57610100808354040283529160200191611b19565b820191906000526020600020905b815481529060010190602001808311611afc57829003601f168201915b505050505090806007018054600181600116156101000203166002900480601f016020809104026020016040519081016040528092919081815260200182805460018160011615610100020316600290048015611bb75780601f10611b8c57610100808354040283529160200191611bb7565b820191906000526020600020905b815481529060010190602001808311611b9a57829003601f168201915b5050505050908060080154905089565b60208054600181600116156101000203166002900480601f016020809104026020016040519081016040528092919081815260200182805460018160011615610100020316600290048015611c5d5780601f10611c3257610100808354040283529160200191611c5d565b820191906000526020600020905b815481529060010190602001808311611c4057829003601f168201915b505050505081565b6012602052816000526040600020602052806000526040600020600091509150508060000154908060010154905082565b600081602260008773ffffffffffffffffffffffffffffffffffffffff1673ffffffffffffffffffffffffffffffffffffffff1681526020019081526020016000206001015410611f785781602260008773ffffffffffffffffffffffffffffffffffffffff1673ffffffffffffffffffffffffffffffffffffffff1681526020019081526020016000206001015403602260008773ffffffffffffffffffffffffffffffffffffffff1673ffffffffffffffffffffffffffffffffffffffff1681526020019081526020016000206001018190555083602260008773ffffffffffffffffffffffffffffffffffffffff1673ffffffffffffffffffffffffffffffffffffffff16815260200190815260200160002060020160008681526020019081526020016000206000018190555082602260008773ffffffffffffffffffffffffffffffffffffffff1673ffffffffffffffffffffffffffffffffffffffff168152602001908152602001600020600201600086815260200190815260200160002060010160006101000a81548160ff021916908360ff16021790555081602260008773ffffffffffffffffffffffffffffffffffffffff1673ffffffffffffffffffffffffffffffffffffffff1681526020019081526020016000206002016000868152602001908152602001600020600201819055506000602260008773ffffffffffffffffffffffffffffffffffffffff1673ffffffffffffffffffffffffffffffffffffffff168152602001908152602001600020600201600086815260200190815260200160002060030160006101000a81548160ff0219169083151502179055506000602260008773ffffffffffffffffffffffffffffffffffffffff1673ffffffffffffffffffffffffffffffffffffffff168152602001908152602001600020600201600086815260200190815260200160002060030160016101000a81548160ff02191690831515021790555060019050611f7d565b600090505b949350505050565b60008211611ffb576040517f08c379a00000000000000000000000000000000000000000000000000000000081526004018080602001828103825260128152602001807f416d6f756e742063616e6e6f742062652030000000000000000000000000000081525060200191505060405180910390fd5b61200481615eb2565b156122b6576120133382615f90565b8073ffffffffffffffffffffffffffffffffffffffff166323b872dd3330856040518463ffffffff1660e01b8152600401808473ffffffffffffffffffffffffffffffffffffffff1673ffffffffffffffffffffffffffffffffffffffff1681526020018373ffffffffffffffffffffffffffffffffffffffff1673ffffffffffffffffffffffffffffffffffffffff1681526020018281526020019350505050602060405180830381600087803b1580156120ce57600080fd5b505af11580156120e2573d6000803e3d6000fd5b505050506040513d60208110156120f857600080fd5b81019080805190602001909291905050505081602660008373ffffffffffffffffffffffffffffffffffffffff1673ffffffffffffffffffffffffffffffffffffffff16815260200190815260200160002060003373ffffffffffffffffffffffffffffffffffffffff1673ffffffffffffffffffffffffffffffffffffffff1681526020019081526020016000205401602660008373ffffffffffffffffffffffffffffffffffffffff1673ffffffffffffffffffffffffffffffffffffffff16815260200190815260200160002060003373ffffffffffffffffffffffffffffffffffffffff1673ffffffffffffffffffffffffffffffffffffffff168152602001908152602001600020819055506001602760003373ffffffffffffffffffffffffffffffffffffffff1673ffffffffffffffffffffffffffffffffffffffff1681526020019081526020016000205414156122b557602a339080600181540180825580915050600190039060005260206000200160009091909190916101000a81548173ffffffffffffffffffffffffffffffffffffffff021916908373ffffffffffffffffffffffffffffffffffffffff1602179055505b5b5050565b60008082602260008673ffffffffffffffffffffffffffffffffffffffff1673ffffffffffffffffffffffffffffffffffffffff168152602001908152602001600020600101540390506000811061235f5780602260008673ffffffffffffffffffffffffffffffffffffffff1673ffffffffffffffffffffffffffffffffffffffff1681526020019081526020016000206001018190555082602554036025819055505b8091505092915050565b6023602052816000526040600020602052806000526040600020600091509150508060000154908060010160009054906101000a900460ff16908060020154908060030160009054906101000a900460ff16908060030160019054906101000a900460ff16905085565b6123db61609f565b73ffffffffffffffffffffffffffffffffffffffff166123f9613e0d565b73ffffffffffffffffffffffffffffffffffffffff1614612482576040517f08c379a00000000000000000000000000000000000000000000000000000000081526004018080602001828103825260208152602001807f4f776e61626c653a2063616c6c6572206973206e6f7420746865206f776e657281525060200191505060405180910390fd5b6029819080600181540180825580915050600190039060005260206000200160009091909190916101000a81548173ffffffffffffffffffffffffffffffffffffffff021916908373ffffffffffffffffffffffffffffffffffffffff16021790555050565b60246020528060005260406000206000915054906101000a900460ff1681565b601260008481526020019081526020016000206000828152602001908152602001600020600201829080600181540180825580915050600190039060005260206000200160009091909190916101000a81548173ffffffffffffffffffffffffffffffffffffffff021916908373ffffffffffffffffffffffffffffffffffffffff16021790555060126000848152602001908152602001600020600082815260200190815260200160002060010160008154809291906001019190505550505050565b60286020528060005260406000206000915054906101000a900473ffffffffffffffffffffffffffffffffffffffff1681565b6026602052816000526040600020602052806000526040600020600091509150505481565b6000602660008373ffffffffffffffffffffffffffffffffffffffff1673ffffffffffffffffffffffffffffffffffffffff16815260200190815260200160002060003373ffffffffffffffffffffffffffffffffffffffff1673ffffffffffffffffffffffffffffffffffffffff1681526020019081526020016000205490506000811161271b576040517f08c379a000000000000000000000000000000000000000000000000000000000815260040180806020018281038252601b8152602001807f5374616b696e672062616c616e63652063616e6e6f742062652030000000000081525060200191505060405180910390fd5b8173ffffffffffffffffffffffffffffffffffffffff1663a9059cbb33836040518363ffffffff1660e01b8152600401808373ffffffffffffffffffffffffffffffffffffffff1673ffffffffffffffffffffffffffffffffffffffff16815260200182815260200192505050602060405180830381600087803b1580156127a257600080fd5b505af11580156127b6573d6000803e3d6000fd5b505050506040513d60208110156127cc57600080fd5b8101908080519060200190929190505050506000602660008473ffffffffffffffffffffffffffffffffffffffff1673ffffffffffffffffffffffffffffffffffffffff16815260200190815260200160002060003373ffffffffffffffffffffffffffffffffffffffff1673ffffffffffffffffffffffffffffffffffffffff168152602001908152602001600020819055506001602760003373ffffffffffffffffffffffffffffffffffffffff1673ffffffffffffffffffffffffffffffffffffffff1681526020019081526020016000205403602760003373ffffffffffffffffffffffffffffffffffffffff1673ffffffffffffffffffffffffffffffffffffffff168152602001908152602001600020819055505050565b606080601f80548060200260200160405190810160405280929190818152602001828054801561293957602002820191906000526020600020905b815481526020019060010190808311612925575b505050505090508091505090565b60136020528060005260406000206000915090508054600181600116156101000203166002900480601f0160208091040260200160405190810160405280929190818152602001828054600181600116156101000203166002900480156129ef5780601f106129c4576101008083540402835291602001916129ef565b820191906000526020600020905b8154815290600101906020018083116129d257829003601f168201915b505050505081565b60226020528060005260406000206000915090508060000160009054906101000a900473ffffffffffffffffffffffffffffffffffffffff16908060010154905082565b6015602052806000526040600020600091509050806000018054600181600116156101000203166002900480601f016020809104026020016040519081016040528092919081815260200182805460018160011615610100020316600290048015612ae75780601f10612abc57610100808354040283529160200191612ae7565b820191906000526020600020905b815481529060010190602001808311612aca57829003601f168201915b505050505090806001018054600181600116156101000203166002900480601f016020809104026020016040519081016040528092919081815260200182805460018160011615610100020316600290048015612b855780601f10612b5a57610100808354040283529160200191612b85565b820191906000526020600020905b815481529060010190602001808311612b6857829003601f168201915b5050505050905082565b60095481565b600a5481565b6000602460008373ffffffffffffffffffffffffffffffffffffffff1673ffffffffffffffffffffffffffffffffffffffff16815260200190815260200160002060009054906101000a900460ff16612cc85781602260008473ffffffffffffffffffffffffffffffffffffffff1673ffffffffffffffffffffffffffffffffffffffff16815260200190815260200160002060000160006101000a81548173ffffffffffffffffffffffffffffffffffffffff021916908373ffffffffffffffffffffffffffffffffffffffff1602179055506001602460008473ffffffffffffffffffffffffffffffffffffffff1673ffffffffffffffffffffffffffffffffffffffff16815260200190815260200160002060006101000a81548160ff0219169083151502179055505b602260008373ffffffffffffffffffffffffffffffffffffffff1673ffffffffffffffffffffffffffffffffffffffff168152602001908152602001600020600101549050919050565b60085481565b6001821415612f8557604051806101400160405280600160ff168152602001600260ff168152602001600360ff168152602001600460ff168152602001600560ff168152602001600660ff168152602001600760ff168152602001600860ff168152602001600960ff168152602001600060ff168152506010600083815260200190815260200160002060060190600a612db39291906160d1565b506001601260008381526020019081526020016000206000600181526020019081526020016000206000018190555060026012600083815260200190815260200160002060006002815260200190815260200160002060000181905550600360126000838152602001908152602001600020600060038152602001908152602001600020600001819055506004601260008381526020019081526020016000206000600481526020019081526020016000206000018190555060056012600083815260200190815260200160002060006005815260200190815260200160002060000181905550600660126000838152602001908152602001600020600060068152602001908152602001600020600001819055506007601260008381526020019081526020016000206000600781526020019081526020016000206000018190555060086012600083815260200190815260200160002060006008815260200190815260200160002060000181905550600960126000838152602001908152602001600020600060098152602001908152602001600020600001819055506000601260008381526020019081526020016000206000600a81526020019081526020016000206000018190555061301a565b6002821415613019576000601260008381526020019081526020016000206000600181526020019081526020016000206000018190555060016012600083815260200190815260200160002060006002815260200190815260200160002060000181905550600260126000838152602001908152602001600020600060038152602001908152602001600020600001819055505b5b5050565b600080602260008573ffffffffffffffffffffffffffffffffffffffff1673ffffffffffffffffffffffffffffffffffffffff168152602001908152602001600020600201600084815260200190815260200160002060010160009054906101000a900460ff16602260008673ffffffffffffffffffffffffffffffffffffffff1673ffffffffffffffffffffffffffffffffffffffff168152602001908152602001600020600201600085815260200190815260200160002060020154915091509250929050565b602160009054906101000a900473ffffffffffffffffffffffffffffffffffffffff1681565b61311561609f565b73ffffffffffffffffffffffffffffffffffffffff16613133613e0d565b73ffffffffffffffffffffffffffffffffffffffff16146131bc576040517f08c379a00000000000000000000000000000000000000000000000000000000081526004018080602001828103825260208152602001807f4f776e61626c653a2063616c6c6572206973206e6f7420746865206f776e657281525060200191505060405180910390fd5b60008090505b602a80549050811015613306576000602a82815481106131de57fe5b9060005260206000200160009054906101000a900473ffffffffffffffffffffffffffffffffffffffff169050602160009054906101000a900473ffffffffffffffffffffffffffffffffffffffff1673ffffffffffffffffffffffffffffffffffffffff1663a9059cbb82613253846145cd565b6040518363ffffffff1660e01b8152600401808373ffffffffffffffffffffffffffffffffffffffff1673ffffffffffffffffffffffffffffffffffffffff16815260200182815260200192505050602060405180830381600087803b1580156132bc57600080fd5b505af11580156132d0573d6000803e3d6000fd5b505050506040513d60208110156132e657600080fd5b8101908080519060200190929190505050505080806001019150506131c2565b50565b60608060006060613345600f60006010600089815260200190815260200160002060010154815260200190815260200160002060000154614030565b90506040518060600160405280603c8152602001616296603c913993506040518060400160405280600a81526020017f267473796d733d55534400000000000000000000000000000000000000000000815250925060006133a46160a7565b90508073ffffffffffffffffffffffffffffffffffffffff1663a9059cbb601860009054906101000a900473ffffffffffffffffffffffffffffffffffffffff168373ffffffffffffffffffffffffffffffffffffffff166370a08231306040518263ffffffff1660e01b8152600401808273ffffffffffffffffffffffffffffffffffffffff1673ffffffffffffffffffffffffffffffffffffffff16815260200191505060206040518083038186803b15801561346257600080fd5b505afa158015613476573d6000803e3d6000fd5b505050506040513d602081101561348c57600080fd5b81019080805190602001909291905050506040518363ffffffff1660e01b8152600401808373ffffffffffffffffffffffffffffffffffffffff1673ffffffffffffffffffffffffffffffffffffffff16815260200182815260200192505050602060405180830381600087803b15801561350657600080fd5b505af115801561351a573d6000803e3d6000fd5b505050506040513d602081101561353057600080fd5b81019080805190602001909291905050506135b3576040517f08c379a00000000000000000000000000000000000000000000000000000000081526004018080602001828103825260128152602001807f556e61626c6520746f207472616e73666572000000000000000000000000000081525060200191505060405180910390fd5b601960009054906101000a900473ffffffffffffffffffffffffffffffffffffffff1673ffffffffffffffffffffffffffffffffffffffff1663a8f2c5258360156000601060008c8152602001908152602001600020600001548152602001908152602001600020600001601960009054906101000a900473ffffffffffffffffffffffffffffffffffffffff1673ffffffffffffffffffffffffffffffffffffffff16636b190f708a888b6040518463ffffffff1660e01b815260040180806020018060200180602001848103845287818151815260200191508051906020019080838360005b838110156136b657808201518184015260208101905061369b565b50505050905090810190601f1680156136e35780820380516001836020036101000a031916815260200191505b50848103835286818151815260200191508051906020019080838360005b8381101561371c578082015181840152602081019050613701565b50505050905090810190601f1680156137495780820380516001836020036101000a031916815260200191505b50848103825285818151815260200191508051906020019080838360005b83811015613782578082015181840152602081019050613767565b50505050905090810190601f1680156137af5780820380516001836020036101000a031916815260200191505b509650505050505050600060405180830381600087803b1580156137d257600080fd5b505af11580156137e6573d6000803e3d6000fd5b505050506040513d6000823e3d601f19601f82011682018060405250602081101561381057600080fd5b810190808051604051939291908464010000000082111561383057600080fd5b8382019150602082018581111561384657600080fd5b825186600182028301116401000000008211171561386357600080fd5b8083526020830192505050908051906020019080838360005b8381101561389757808201518184015260208101905061387c565b50505050905090810190601f1680156138c45780820380516001836020036101000a031916815260200191505b506040525050506040518463ffffffff1660e01b815260040180806020018060200180602001848103845287818151815260200191508051906020019080838360005b83811015613922578082015181840152602081019050613907565b50505050905090810190601f16801561394f5780820380516001836020036101000a031916815260200191505b508481038352868181546001816001161561010002031660029004815260200191508054600181600116156101000203166002900480156139d15780601f106139a6576101008083540402835291602001916139d1565b820191906000526020600020905b8154815290600101906020018083116139b457829003601f168201915b5050848103825285818151815260200191508051906020019080838360005b83811015613a0b5780820151818401526020810190506139f0565b50505050905090810190601f168015613a385780820380516001836020036101000a031916815260200191505b509650505050505050602060405180830381600087803b158015613a5b57600080fd5b505af1158015613a6f573d6000803e3d6000fd5b505050506040513d6020811015613a8557600080fd5b81019080805190602001909291905050509250505050505050565b60075481565b613aae61609f565b73ffffffffffffffffffffffffffffffffffffffff16613acc613e0d565b73ffffffffffffffffffffffffffffffffffffffff1614613b55576040517f08c379a00000000000000000000000000000000000000000000000000000000081526004018080602001828103825260208152602001807f4f776e61626c653a2063616c6c6572206973206e6f7420746865206f776e657281525060200191505060405180910390fd5b600073ffffffffffffffffffffffffffffffffffffffff166000809054906101000a900473ffffffffffffffffffffffffffffffffffffffff1673ffffffffffffffffffffffffffffffffffffffff167f8be0079c531659141344cd1fd0a4f28419497f9722a3daafe3b4186f6b6457e060405160405180910390a360008060006101000a81548173ffffffffffffffffffffffffffffffffffffffff021916908373ffffffffffffffffffffffffffffffffffffffff160217905550565b6014602052806000526040600020600091509050806000015490806001015490806002018054600181600116156101000203166002900480601f016020809104026020016040519081016040528092919081815260200182805460018160011615610100020316600290048015613ccc5780601f10613ca157610100808354040283529160200191613ccc565b820191906000526020600020905b815481529060010190602001808311613caf57829003601f168201915b5050505050905083565b600c5481565b613ce461609f565b73ffffffffffffffffffffffffffffffffffffffff16613d02613e0d565b73ffffffffffffffffffffffffffffffffffffffff1614613d8b576040517f08c379a00000000000000000000000000000000000000000000000000000000081526004018080602001828103825260208152602001807f4f776e61626c653a2063616c6c6572206973206e6f7420746865206f776e657281525060200191505060405180910390fd5b80602860008473ffffffffffffffffffffffffffffffffffffffff1673ffffffffffffffffffffffffffffffffffffffff16815260200190815260200160002060006101000a81548173ffffffffffffffffffffffffffffffffffffffff021916908373ffffffffffffffffffffffffffffffffffffffff1602179055505050565b60008060009054906101000a900473ffffffffffffffffffffffffffffffffffffffff16905090565b6000613e406160a7565b90508073ffffffffffffffffffffffffffffffffffffffff1663a9059cbb338373ffffffffffffffffffffffffffffffffffffffff166370a08231306040518263ffffffff1660e01b8152600401808273ffffffffffffffffffffffffffffffffffffffff1673ffffffffffffffffffffffffffffffffffffffff16815260200191505060206040518083038186803b158015613edc57600080fd5b505afa158015613ef0573d6000803e3d6000fd5b505050506040513d6020811015613f0657600080fd5b81019080805190602001909291905050506040518363ffffffff1660e01b8152600401808373ffffffffffffffffffffffffffffffffffffffff1673ffffffffffffffffffffffffffffffffffffffff16815260200182815260200192505050602060405180830381600087803b158015613f8057600080fd5b505af1158015613f94573d6000803e3d6000fd5b505050506040513d6020811015613faa57600080fd5b810190808051906020019092919050505061402d576040517f08c379a00000000000000000000000000000000000000000000000000000000081526004018080602001828103825260128152602001807f556e61626c6520746f207472616e73666572000000000000000000000000000081525060200191505060405180910390fd5b50565b606060008090505b60208160ff161080156140835750600060f81b838260ff166020811061405a57fe5b1a60f81b7effffffffffffffffffffffffffffffffffffffffffffffffffffffffffffff191614155b15614095578080600101915050614038565b60608160ff1667ffffffffffffffff811180156140b157600080fd5b506040519080825280601f01601f1916602001820160405280156140e45781602001600182028036833780820191505090505b509050600091505b60208260ff161080156141375750600060f81b848360ff166020811061410e57fe5b1a60f81b7effffffffffffffffffffffffffffffffffffffffffffffffffffffffffffff191614155b1561419a57838260ff166020811061414b57fe5b1a60f81b818360ff168151811061415e57fe5b60200101907effffffffffffffffffffffffffffffffffffffffffffffffffffffffffffff1916908160001a90535081806001019250506140ec565b8092505050919050565b60008082602260008673ffffffffffffffffffffffffffffffffffffffff1673ffffffffffffffffffffffffffffffffffffffff1681526020019081526020016000206001015401905080602260008673ffffffffffffffffffffffffffffffffffffffff1673ffffffffffffffffffffffffffffffffffffffff1681526020019081526020016000206001018190555082602554016025819055508091505092915050565b6000806142556160a7565b90508073ffffffffffffffffffffffffffffffffffffffff1663a9059cbb601a60009054906101000a900473ffffffffffffffffffffffffffffffffffffffff168373ffffffffffffffffffffffffffffffffffffffff166370a08231306040518263ffffffff1660e01b8152600401808273ffffffffffffffffffffffffffffffffffffffff1673ffffffffffffffffffffffffffffffffffffffff16815260200191505060206040518083038186803b15801561431357600080fd5b505afa158015614327573d6000803e3d6000fd5b505050506040513d602081101561433d57600080fd5b81019080805190602001909291905050506040518363ffffffff1660e01b8152600401808373ffffffffffffffffffffffffffffffffffffffff1673ffffffffffffffffffffffffffffffffffffffff16815260200182815260200192505050602060405180830381600087803b1580156143b757600080fd5b505af11580156143cb573d6000803e3d6000fd5b505050506040513d60208110156143e157600080fd5b8101908080519060200190929190505050614464576040517f08c379a00000000000000000000000000000000000000000000000000000000081526004018080602001828103825260128152602001807f556e61626c6520746f207472616e73666572000000000000000000000000000081525060200191505060405180910390fd5b601b60009054906101000a900473ffffffffffffffffffffffffffffffffffffffff1673ffffffffffffffffffffffffffffffffffffffff1663dbdff2c16040518163ffffffff1660e01b8152600401602060405180830381600087803b1580156144ce57600080fd5b505af11580156144e2573d6000803e3d6000fd5b505050506040513d60208110156144f857600080fd5b8101908080519060200190929190505050600b8190555062989680601b60009054906101000a900473ffffffffffffffffffffffffffffffffffffffff1673ffffffffffffffffffffffffffffffffffffffff1663edd3159d6040518163ffffffff1660e01b815260040160206040518083038186803b15801561457b57600080fd5b505afa15801561458f573d6000803e3d6000fd5b505050506040513d60208110156145a557600080fd5b8101908080519060200190929190505050816145bd57fe5b04600d81905550600d5491505090565b600080600090506000602760008573ffffffffffffffffffffffffffffffffffffffff1673ffffffffffffffffffffffffffffffffffffffff1681526020019081526020016000205411156146835760008090505b60298054905081101561468157614670846029838154811061464057fe5b9060005260206000200160009054906101000a900473ffffffffffffffffffffffffffffffffffffffff16615208565b820191508080600101915050614622565b505b80915050919050565b60276020528060005260406000206000915090505481565b6001601060006001815260200190815260200160002060050160006101000a81548160ff0219169083151502179055506001601060006001815260200190815260200160002060050160016101000a81548160ff021916908315150217905550600160106000601460006001815260200190815260200160002060010154600101815260200190815260200160002060050160006101000a81548160ff021916908315150217905550600160106000601460006001815260200190815260200160002060010154600101815260200190815260200160002060050160016101000a81548160ff02191690831515021790555060016010600060146000600281526020019081526020016000206001015460146000600181526020019081526020016000206001015460010101815260200190815260200160002060050160006101000a81548160ff02191690831515021790555060016010600060146000600281526020019081526020016000206001015460146000600181526020019081526020016000206001015460010101815260200190815260200160002060050160016101000a81548160ff021916908315150217905550565b600061486782614fdc565b90506000600190505b60106000848152602001908152602001600020600601805490508111614b7057606060126000858152602001908152602001600020600083815260200190815260200160002060020180548060200260200160405190810160405280929190818152602001828054801561493957602002820191906000526020600020905b8160009054906101000a900473ffffffffffffffffffffffffffffffffffffffff1673ffffffffffffffffffffffffffffffffffffffff16815260200190600101908083116148ef575b505050505090508260106000868152602001908152602001600020600601838154811061496257fe5b90600052602060002001541415614b4457600160106000868152602001908152602001600020600301541415614b21576000600190505b81518111614b1b57601d60009054906101000a900473ffffffffffffffffffffffffffffffffffffffff1673ffffffffffffffffffffffffffffffffffffffff1663b0eb5b63614a14600f6000601060008b815260200190815260200160002060010154815260200190815260200160002060000154614030565b848681518110614a2057fe5b60200260200101516040518363ffffffff1660e01b815260040180806020018373ffffffffffffffffffffffffffffffffffffffff1673ffffffffffffffffffffffffffffffffffffffff168152602001828103825284818151815260200191508051906020019080838360005b83811015614aa9578082015181840152602081019050614a8e565b50505050905090810190601f168015614ad65780820380516001836020036101000a031916815260200191505b509350505050600060405180830381600087803b158015614af657600080fd5b505af1158015614b0a573d6000803e3d6000fd5b505050508080600101915050614999565b50614b3f565b6000600190505b81518111614b3d578080600101915050614b28565b505b614b62565b6000600190505b81518111614b60578080600101915050614b4b565b505b508080600101915050614870565b505050565b6001601e81905550600060069050629896804281614b8f57fe5b04600d819055506000600190505b60038113614fd3576000600190505b60146000838152602001908152602001600020600101548113614fc55760018360ff1682600d540281614bdb57fe5b070160106000601e54815260200190815260200160002060000181905550614c166001600283600d540281614c0c57fe5b0701601e54612d18565b600160075482600d540281614c2757fe5b070160106000601e54815260200190815260200160002060010181905550600060106000601e548152602001908152602001600020600201819055508160106000601e54815260200190815260200160002060030181905550601360006001815260200190815260200160002060106000601e5481526020019081526020016000206004019080546001816001161561010002031660029004614ccb929190616123565b50600060106000601e54815260200190815260200160002060050160006101000a81548160ff021916908315150217905550600060106000601e54815260200190815260200160002060050160016101000a81548160ff021916908315150217905550601e5460116000601e54815260200190815260200160002060000181905550614d84600f600060106000601e54815260200190815260200160002060010154815260200190815260200160002060000154614030565b60116000601e5481526020019081526020016000206001019080519060200190614daf9291906161aa565b506015600060106000601e54815260200190815260200160002060000154815260200190815260200160002060010160116000601e5481526020019081526020016000206002019080546001816001161561010002031660029004614e15929190616123565b506040518060200160405280600081525060116000601e5481526020019081526020016000206003019080519060200190614e519291906161aa565b504260116000601e548152602001908152602001600020600401819055506014600060106000601e54815260200190815260200160002060030154815260200190815260200160002060020160116000601e5481526020019081526020016000206005019080546001816001161561010002031660029004614ed4929190616123565b5060106000601e54815260200190815260200160002060040160116000601e5481526020019081526020016000206006019080546001816001161561010002031660029004614f24929190616123565b50614f5c600f600060106000601e54815260200190815260200160002060010154815260200190815260200160002060040154614030565b60116000601e5481526020019081526020016000206007019080519060200190614f879291906161aa565b50600060116000601e54815260200190815260200160002060080181905550601e600081548092919060010191905055508080600101915050614bac565b508080600101915050614b9d565b5050565b600090565b60008060106000848152602001908152602001600020600001549050600080613036905060405160200180807f50524943450000000000000000000000000000000000000000000000000000008152506005019050604051602081830303815290604052805190602001206015600085815260200190815260200160002060000160405160200180828054600181600116156101000203166002900480156150bb5780601f106150995761010080835404028352918201916150bb565b820191906000526020600020905b8154815290600101906020018083116150a7575b50509150506040516020818303038152906040528051906020012014156150ee57600a81816150e657fe5b0691506150fc565b600381816150f857fe5b0691505b819350505050919050565b601f6000615115919061622a565b60006014600060038152602001908152602001600020600101546014600060028152602001908152602001600020600101546014600060018152602001908152602001600020600101540101905060008190505b60008113156151fe576010600082815260200190815260200160002060050160009054906101000a900460ff16806151c157506010600082815260200190815260200160002060050160019054906101000a900460ff165b156151f057601f8190806001815401808255809150506001900390600052602060002001600090919091909150555b808060019003915050615169565b5050565b600e5481565b600080602760008573ffffffffffffffffffffffffffffffffffffffff1673ffffffffffffffffffffffffffffffffffffffff168152602001908152602001600020541161525957600090506152f4565b670de0b6b3a764000061526b836155b5565b602660008573ffffffffffffffffffffffffffffffffffffffff1673ffffffffffffffffffffffffffffffffffffffff16815260200190815260200160002060008673ffffffffffffffffffffffffffffffffffffffff1673ffffffffffffffffffffffffffffffffffffffff1681526020019081526020016000205402816152f057fe5b0490505b92915050565b60006153046160a7565b90508073ffffffffffffffffffffffffffffffffffffffff1663a9059cbb601660009054906101000a900473ffffffffffffffffffffffffffffffffffffffff168373ffffffffffffffffffffffffffffffffffffffff166370a08231306040518263ffffffff1660e01b8152600401808273ffffffffffffffffffffffffffffffffffffffff1673ffffffffffffffffffffffffffffffffffffffff16815260200191505060206040518083038186803b1580156153c257600080fd5b505afa1580156153d6573d6000803e3d6000fd5b505050506040513d60208110156153ec57600080fd5b81019080805190602001909291905050506040518363ffffffff1660e01b8152600401808373ffffffffffffffffffffffffffffffffffffffff1673ffffffffffffffffffffffffffffffffffffffff16815260200182815260200192505050602060405180830381600087803b15801561546657600080fd5b505af115801561547a573d6000803e3d6000fd5b505050506040513d602081101561549057600080fd5b8101908080519060200190929190505050615513576040517f08c379a00000000000000000000000000000000000000000000000000000000081526004018080602001828103825260128152602001807f556e61626c6520746f207472616e73666572000000000000000000000000000081525060200191505060405180910390fd5b601760009054906101000a900473ffffffffffffffffffffffffffffffffffffffff1673ffffffffffffffffffffffffffffffffffffffff16632b8dc6ff6007546040518263ffffffff1660e01b815260040180828152602001915050600060405180830381600087803b15801561558a57600080fd5b505af115801561559e573d6000803e3d6000fd5b5050505050565b6000602554905090565b600b5481565b600080602860008473ffffffffffffffffffffffffffffffffffffffff1673ffffffffffffffffffffffffffffffffffffffff16815260200190815260200160002060009054906101000a900473ffffffffffffffffffffffffffffffffffffffff169050600081905060008060008060008573ffffffffffffffffffffffffffffffffffffffff1663feaf968c6040518163ffffffff1660e01b815260040160a06040518083038186803b15801561566d57600080fd5b505afa158015615681573d6000803e3d6000fd5b505050506040513d60a081101561569757600080fd5b8101908080519060200190929190805190602001909291908051906020019092919080519060200190929190805190602001909291905050509450945094509450945083975050505050505050919050565b6010602052806000526040600020600091509050806000015490806001015490806002015490806003015490806004018054600181600116156101000203166002900480601f0160208091040260200160405190810160405280929190818152602001828054600181600116156101000203166002900480156157ad5780601f10615782576101008083540402835291602001916157ad565b820191906000526020600020905b81548152906001019060200180831161579057829003601f168201915b5050505050908060050160009054906101000a900460ff16908060050160019054906101000a900460ff16905087565b600f602052806000526040600020600091509050806000015490806001015490806002015490806003015490806004015490806005018054600181600116156101000203166002900480601f0160208091040260200160405190810160405280929190818152602001828054600181600116156101000203166002900480156158a75780601f1061587c576101008083540402835291602001916158a7565b820191906000526020600020905b81548152906001019060200180831161588a57829003601f168201915b5050505050905086565b6000600190505b6007548113615cb657601760009054906101000a900473ffffffffffffffffffffffffffffffffffffffff1673ffffffffffffffffffffffffffffffffffffffff166303b60331826040518263ffffffff1660e01b81526004018082815260200191505060206040518083038186803b15801561593457600080fd5b505afa158015615948573d6000803e3d6000fd5b505050506040513d602081101561595e57600080fd5b8101908080519060200190929190505050600f600083815260200190815260200160002060000181905550601760009054906101000a900473ffffffffffffffffffffffffffffffffffffffff1673ffffffffffffffffffffffffffffffffffffffff1663f771044a826040518263ffffffff1660e01b81526004018082815260200191505060206040518083038186803b1580156159fc57600080fd5b505afa158015615a10573d6000803e3d6000fd5b505050506040513d6020811015615a2657600080fd5b8101908080519060200190929190505050600f600083815260200190815260200160002060010181905550601760009054906101000a900473ffffffffffffffffffffffffffffffffffffffff1673ffffffffffffffffffffffffffffffffffffffff166319eb4d4d826040518263ffffffff1660e01b81526004018082815260200191505060206040518083038186803b158015615ac457600080fd5b505afa158015615ad8573d6000803e3d6000fd5b505050506040513d6020811015615aee57600080fd5b8101908080519060200190929190505050600f600083815260200190815260200160002060020181905550601760009054906101000a900473ffffffffffffffffffffffffffffffffffffffff1673ffffffffffffffffffffffffffffffffffffffff1663ebab4ffe826040518263ffffffff1660e01b81526004018082815260200191505060206040518083038186803b158015615b8c57600080fd5b505afa158015615ba0573d6000803e3d6000fd5b505050506040513d6020811015615bb657600080fd5b8101908080519060200190929190505050600f600083815260200190815260200160002060030181905550601760009054906101000a900473ffffffffffffffffffffffffffffffffffffffff1673ffffffffffffffffffffffffffffffffffffffff1663f4f20d7a826040518263ffffffff1660e01b81526004018082815260200191505060206040518083038186803b158015615c5457600080fd5b505afa158015615c68573d6000803e3d6000fd5b505050506040513d6020811015615c7e57600080fd5b8101908080519060200190929190505050600f60008381526020019081526020016000206004018190555080806001019150506158b8565b50565b615cc161609f565b73ffffffffffffffffffffffffffffffffffffffff16615cdf613e0d565b73ffffffffffffffffffffffffffffffffffffffff1614615d68576040517f08c379a00000000000000000000000000000000000000000000000000000000081526004018080602001828103825260208152602001807f4f776e61626c653a2063616c6c6572206973206e6f7420746865206f776e657281525060200191505060405180910390fd5b600073ffffffffffffffffffffffffffffffffffffffff168173ffffffffffffffffffffffffffffffffffffffff161415615dee576040517f08c379a00000000000000000000000000000000000000000000000000000000081526004018080602001828103825260268152602001806162d26026913960400191505060405180910390fd5b8073ffffffffffffffffffffffffffffffffffffffff166000809054906101000a900473ffffffffffffffffffffffffffffffffffffffff1673ffffffffffffffffffffffffffffffffffffffff167f8be0079c531659141344cd1fd0a4f28419497f9722a3daafe3b4186f6b6457e060405160405180910390a3806000806101000a81548173ffffffffffffffffffffffffffffffffffffffff021916908373ffffffffffffffffffffffffffffffffffffffff16021790555050565b600d5481565b600080600090505b602980549050811015615f49578273ffffffffffffffffffffffffffffffffffffffff1660298281548110615eeb57fe5b9060005260206000200160009054906101000a900473ffffffffffffffffffffffffffffffffffffffff1673ffffffffffffffffffffffffffffffffffffffff161415615f3c576001915050615f4f565b8080600101915050615eba565b50600090505b919050565b602a8181548110615f6157fe5b906000526020600020016000915054906101000a900473ffffffffffffffffffffffffffffffffffffffff1681565b6000602660008373ffffffffffffffffffffffffffffffffffffffff1673ffffffffffffffffffffffffffffffffffffffff16815260200190815260200160002060008473ffffffffffffffffffffffffffffffffffffffff1673ffffffffffffffffffffffffffffffffffffffff168152602001908152602001600020541161609b576001602760008473ffffffffffffffffffffffffffffffffffffffff1673ffffffffffffffffffffffffffffffffffffffff1681526020019081526020016000205401602760008473ffffffffffffffffffffffffffffffffffffffff1673ffffffffffffffffffffffffffffffffffffffff168152602001908152602001600020819055505b5050565b600033905090565b6000600360009054906101000a900473ffffffffffffffffffffffffffffffffffffffff16905090565b828054828255906000526020600020908101928215616112579160200282015b82811115616111578251829060ff169055916020019190600101906160f1565b5b50905061611f919061624b565b5090565b828054600181600116156101000203166002900490600052602060002090601f016020900481019282601f1061615c5780548555616199565b8280016001018555821561619957600052602060002091601f016020900482015b8281111561619857825482559160010191906001019061617d565b5b5090506161a69190616270565b5090565b828054600181600116156101000203166002900490600052602060002090601f016020900481019282601f106161eb57805160ff1916838001178555616219565b82800160010185558215616219579182015b828111156162185782518255916020019190600101906161fd565b5b5090506162269190616270565b5090565b5080546000825590600052602060002090810190616248919061624b565b50565b61626d91905b80821115616269576000816000905550600101616251565b5090565b90565b61629291905b8082111561628e576000816000905550600101616276565b5090565b9056fe68747470733a2f2f6d696e2d6170692e63727970746f636f6d706172652e636f6d2f646174612f70726963656d756c746966756c6c3f6673796d733d4f776e61626c653a206e6577206f776e657220697320746865207a65726f2061646472657373a2646970667358221220e8364049e2485de04eb315e494ba23dd341e7385269eaabfd808cfdce413e86b64736f6c63430006060033477565737320746865206669727374206469676974206265666f72652074686520646563696d616c20706f696e742028756e697420646967697429666f7220746865206675747572652070726963654775657373207468652068756e647265647320646967697420286f722068756e647265647468732069662062656c6f77202431302920206f662074686520746f746f6c20766f6c756d6e654775657373207468652074656e7320646967697420286f722074656e7468732069662062656c6f7720243529206f6620746865206675747572652070726963654775657373207468652068756e647265647320646967697420286f722068756e647265647468732069662062656c6f77202431302920206f662074686520667574757265207072696365",
  "immutableReferences": {},
  "source": "pragma solidity ^0.6.0;\n// pragma experimental ABIEncoderV2;\n\nimport \"@nomiclabs/buidler/console.sol\";\nimport \"@openzeppelin/contracts/token/ERC20/IERC20.sol\";\nimport \"@openzeppelin/contracts/access/Ownable.sol\";\nimport \"@chainlink/contracts/src/v0.6/interfaces/AggregatorV3Interface.sol\";\n\nimport \"./AddGameInfo.sol\";\n\ncontract TokenFarm is Ownable, AddGameInfo {\n    // string public name = \"Dapp Token Farm\";\n    string public name = \"Crypto Gas Earning\";\n    IERC20 public dappToken;\n\n    struct UserGameInfo {\n        uint256 gameId; // game id\n        uint8 answerId; // answer chosen by user\n        uint256 amount; // bet amount on this game\n        bool isCorrect;\n        bool isNotified; // has notified result to the user\n    }\n\n    struct UserData {\n        address addr; // user wallet address\n        uint256 balance; // user balance stored in the contract, including ones in the games\n        mapping(uint256 => UserGameInfo) gameInfoStructs;\n    }\n\n    // UserData Map\n    mapping(address => UserData) public userDataStructs;\n    mapping(address => mapping(uint256 => UserGameInfo)) public userGameStructs;\n    mapping(address => bool) public userList;\n    uint256 totalContractBalance;\n\n    /* Get user's available balance */\n    function getUserBalance(address addr) public returns (uint256) {\n        if (!userList[addr]) {\n            userDataStructs[addr].addr = addr;\n            userList[addr] = true;\n        }\n        return userDataStructs[addr].balance;\n    }\n\n    /* load balance from user's address to contract */\n    function reloadBalance(address addr, uint256 amount)\n        public\n        returns (uint256)\n    {\n        uint256 total = userDataStructs[addr].balance + amount;\n        userDataStructs[addr].balance = total;\n        totalContractBalance = totalContractBalance + amount;\n        return total;\n    }\n\n    /* withdraw balance from contract to user's balance */\n    function withdrawBalance(address addr, uint256 amount)\n        public\n        returns (uint256)\n    {\n        uint256 remainding = userDataStructs[addr].balance - amount;\n        if (remainding >= 0) {\n            userDataStructs[addr].balance = remainding;\n            totalContractBalance = totalContractBalance - amount;\n        }\n        return remainding;\n    }\n\n    function getTotalContractBalance()\n        public\n        returns (uint256 contractBalance)\n    {\n        return totalContractBalance;\n    }\n\n    /* Check if user is currently participating in a game */\n    function getUserGameInfo(address addr, uint256 gameId)\n        public\n        view\n        returns (uint8 answerId, uint256 amount)\n    {\n        return (\n            userDataStructs[addr].gameInfoStructs[gameId].answerId,\n            userDataStructs[addr].gameInfoStructs[gameId].amount\n        );\n    }\n\n    /* When user register to participate in a game */\n    function addGameInfoToUserData(\n        address addr,\n        uint256 gameId,\n        uint8 answerId,\n        uint256 amount\n    ) public returns (bool success) {\n        if (userDataStructs[addr].balance >= amount) {\n            userDataStructs[addr].balance =\n                userDataStructs[addr].balance -\n                amount;\n            userDataStructs[addr].gameInfoStructs[gameId].gameId = gameId;\n            userDataStructs[addr].gameInfoStructs[gameId].answerId = answerId;\n            userDataStructs[addr].gameInfoStructs[gameId].amount = amount;\n            userDataStructs[addr].gameInfoStructs[gameId].isCorrect = false;\n            userDataStructs[addr].gameInfoStructs[gameId].isNotified = false;\n            return true;\n        }\n        return false;\n    }\n\n    // issueReward\n\n    // Deposit Balance (stakeToken -> Deposit tokan)\n    function stakeTokens(uint256 amount, address tokenAddress) public {\n        require(amount > 0, \"Amount cannot be 0\");\n        // only allow certain token to be deposit\n        if (isTokenAllowed(tokenAddress)) {\n            updateUniqueTokensStake(msg.sender, tokenAddress);\n\n            // token flow: user address to smart contract\n            // because contract does not own the token, use TransferFrom\n            IERC20(tokenAddress).transferFrom(\n                msg.sender,\n                address(this),\n                amount\n            );\n\n            // get the original/current balance and add in the new stake amount\n            stakingBalance[tokenAddress][msg.sender] =\n                stakingBalance[tokenAddress][msg.sender] +\n                amount;\n\n            // New staker\n            if (uniqueTokensStaked[msg.sender] == 1) {\n                stakers.push(msg.sender);\n            }\n        }\n    }\n\n    // token addresses -> mapping of user address -> amounts\n    // **need to change it to have more info\n    mapping(address => mapping(address => uint256)) public stakingBalance;\n    //\n    mapping(address => uint256) public uniqueTokensStaked;\n    //\n    mapping(address => address) public tokenPriceFeedMapping;\n\n    // store: token allowed to be deposit\n    address[] allowedTokens;\n\n    // store all the stakers\n    address[] public stakers;\n\n    constructor(address _dappTokenAddress) public {\n        // interface to set ERC20\n        dappToken = IERC20(_dappTokenAddress);\n    }\n\n    // Withdraw Balance (unstakeTokens -> Withdraw token)\n    function unstakeTokens(address token) public {\n        uint256 balance = stakingBalance[token][msg.sender];\n        require(balance > 0, \"Staking balance cannot be 0\");\n\n        // token flow: contract to user address\n        // because contract DOES  own the token, use Transfer\n        IERC20(token).transfer(msg.sender, balance);\n\n        // withdraw all balance\n        stakingBalance[token][msg.sender] = 0;\n        uniqueTokensStaked[msg.sender] = uniqueTokensStaked[msg.sender] - 1;\n    }\n\n    // Issue Rewards (issueTokens -> Issue Rewards)\n    function issueTokens() public onlyOwner {\n        for (\n            uint256 stakersIndex = 0;\n            stakersIndex < stakers.length;\n            stakersIndex++\n        ) {\n            address recipient = stakers[stakersIndex];\n            dappToken.transfer(recipient, getUserTotalValue(recipient));\n        }\n    }\n\n    function setPriceFeedContract(address token, address priceFeed)\n        public\n        onlyOwner\n    {\n        tokenPriceFeedMapping[token] = priceFeed;\n    }\n\n    function updateUniqueTokensStake(address user, address token) internal {\n        if (stakingBalance[token][user] <= 0) {\n            uniqueTokensStaked[user] = uniqueTokensStaked[user] + 1;\n        }\n    }\n\n    // Checking if the token user's sending is valid for our app\n    // update it to mapping so less gas will be charged\n    function isTokenAllowed(address token) public returns (bool) {\n        for (\n            uint256 allowedTokensIndex = 0;\n            allowedTokensIndex < allowedTokens.length;\n            allowedTokensIndex++\n        ) {\n            if (allowedTokens[allowedTokensIndex] == token) {\n                return true;\n            }\n        }\n        return false;\n    }\n\n    // Add allowed tokens (can only be modified/called by the onwer)\n    function addAllowedTokens(address token) public onlyOwner {\n        allowedTokens.push(token);\n        // allowedTokens[token]=true; for mapping\n    }\n\n    function getUserTotalValue(address user) public view returns (uint256) {\n        uint256 totalValue = 0;\n        if (uniqueTokensStaked[user] > 0) {\n            for (\n                uint256 allowedTokensIndex = 0;\n                allowedTokensIndex < allowedTokens.length;\n                allowedTokensIndex++\n            ) {\n                totalValue =\n                    totalValue +\n                    getUserStakingBalanceEthValue(\n                        user,\n                        allowedTokens[allowedTokensIndex]\n                    );\n            }\n        }\n        return totalValue;\n    }\n\n    function getUserStakingBalanceEthValue(address user, address token)\n        public\n        view\n        returns (uint256)\n    {\n        // user does not have token\n        if (uniqueTokensStaked[user] <= 0) {\n            return 0;\n        }\n        return\n            (stakingBalance[token][user] * getTokenEthPrice(token)) / (10**18);\n    }\n\n    function getTokenEthPrice(address token) public view returns (uint256) {\n        address priceFeedAddress = tokenPriceFeedMapping[token];\n        AggregatorV3Interface priceFeed =\n            AggregatorV3Interface(priceFeedAddress);\n        (\n            uint80 roundID,\n            int256 price,\n            uint256 startedAt,\n            uint256 timeStamp,\n            uint80 answerdInRound\n        ) = priceFeed.latestRoundData();\n        return uint256(price);\n    }\n}\n",
  "sourcePath": "/Users/adeleyu/projects/guess_get_gas/contracts/TokenFarm.sol",
  "compiler": {
    "name": "solc",
    "version": "0.6.6+commit.6c089d02.Emscripten.clang"
  },
  "schemaVersion": "3.3.3",
  "updatedAt": "2021-04-11T19:11:03.401Z",
  "devdoc": {
    "methods": {
      "owner()": {
        "details": "Returns the address of the current owner."
      },
      "renounceOwnership()": {
        "details": "Leaves the contract without owner. It will not be possible to call `onlyOwner` functions anymore. Can only be called by the current owner.     * NOTE: Renouncing ownership will leave the contract without an owner, thereby removing any functionality that is only available to the owner."
      },
      "transferOwnership(address)": {
        "details": "Transfers ownership of the contract to a new account (`newOwner`). Can only be called by the current owner."
      }
    }
  },
  "userdoc": {
    "methods": {
      "withdrawLink()": {
        "notice": "Withdraw LINK from this contract     * DO NOT USE THIS IN PRODUCTION AS IT CAN BE CALLED BY ANY ADDRESS. THIS IS PURELY FOR EXAMPLE PURPOSES."
      }
    }
  }
}