{
  "contractName": "TokenFarm",
  "abi": [
    {
      "inputs": [
        {
          "internalType": "address",
          "name": "_dappTokenAddress",
          "type": "address"
        }
      ],
      "stateMutability": "nonpayable",
      "type": "constructor"
    },
    {
      "anonymous": false,
      "inputs": [
        {
          "indexed": true,
          "internalType": "bytes32",
          "name": "id",
          "type": "bytes32"
        }
      ],
      "name": "ChainlinkCancelled",
      "type": "event"
    },
    {
      "anonymous": false,
      "inputs": [
        {
          "indexed": true,
          "internalType": "bytes32",
          "name": "id",
          "type": "bytes32"
        }
      ],
      "name": "ChainlinkFulfilled",
      "type": "event"
    },
    {
      "anonymous": false,
      "inputs": [
        {
          "indexed": true,
          "internalType": "bytes32",
          "name": "id",
          "type": "bytes32"
        }
      ],
      "name": "ChainlinkRequested",
      "type": "event"
    },
    {
      "anonymous": false,
      "inputs": [
        {
          "indexed": true,
          "internalType": "address",
          "name": "previousOwner",
          "type": "address"
        },
        {
          "indexed": true,
          "internalType": "address",
          "name": "newOwner",
          "type": "address"
        }
      ],
      "name": "OwnershipTransferred",
      "type": "event"
    },
    {
      "inputs": [
        {
          "internalType": "int256",
          "name": "_gameId",
          "type": "int256"
        },
        {
          "internalType": "address",
          "name": "_userAddress",
          "type": "address"
        },
        {
          "internalType": "int256",
          "name": "_optionId",
          "type": "int256"
        }
      ],
      "name": "addParticipant",
      "outputs": [],
      "stateMutability": "nonpayable",
      "type": "function"
    },
    {
      "inputs": [
        {
          "internalType": "int256",
          "name": "",
          "type": "int256"
        }
      ],
      "name": "currencyList",
      "outputs": [
        {
          "internalType": "bytes32",
          "name": "name",
          "type": "bytes32"
        },
        {
          "internalType": "bytes32",
          "name": "fullName",
          "type": "bytes32"
        },
        {
          "internalType": "bytes32",
          "name": "overviewUrl",
          "type": "bytes32"
        },
        {
          "internalType": "bytes32",
          "name": "assetLaunchDate",
          "type": "bytes32"
        },
        {
          "internalType": "bytes32",
          "name": "logoUrl",
          "type": "bytes32"
        },
        {
          "internalType": "bytes",
          "name": "currencyIntro",
          "type": "bytes"
        }
      ],
      "stateMutability": "view",
      "type": "function",
      "constant": true
    },
    {
      "inputs": [],
      "name": "currencyQuantity",
      "outputs": [
        {
          "internalType": "int256",
          "name": "",
          "type": "int256"
        }
      ],
      "stateMutability": "view",
      "type": "function",
      "constant": true
    },
    {
      "inputs": [],
      "name": "dailyGameQuantity",
      "outputs": [
        {
          "internalType": "int256",
          "name": "",
          "type": "int256"
        }
      ],
      "stateMutability": "view",
      "type": "function",
      "constant": true
    },
    {
      "inputs": [],
      "name": "dappToken",
      "outputs": [
        {
          "internalType": "contract IERC20",
          "name": "",
          "type": "address"
        }
      ],
      "stateMutability": "view",
      "type": "function",
      "constant": true
    },
    {
      "inputs": [
        {
          "internalType": "int256",
          "name": "",
          "type": "int256"
        }
      ],
      "name": "gameList",
      "outputs": [
        {
          "internalType": "int256",
          "name": "questionId",
          "type": "int256"
        },
        {
          "internalType": "int256",
          "name": "currencyId",
          "type": "int256"
        },
        {
          "internalType": "uint256",
          "name": "revealTime",
          "type": "uint256"
        },
        {
          "internalType": "int256",
          "name": "lifeLengthId",
          "type": "int256"
        },
        {
          "internalType": "string",
          "name": "property",
          "type": "string"
        },
        {
          "internalType": "bool",
          "name": "isActivity",
          "type": "bool"
        },
        {
          "internalType": "bool",
          "name": "isClose",
          "type": "bool"
        }
      ],
      "stateMutability": "view",
      "type": "function",
      "constant": true
    },
    {
      "inputs": [
        {
          "internalType": "int256",
          "name": "_gameId",
          "type": "int256"
        }
      ],
      "name": "getAnswer",
      "outputs": [],
      "stateMutability": "nonpayable",
      "type": "function"
    },
    {
      "inputs": [],
      "name": "getCurrencyList",
      "outputs": [],
      "stateMutability": "nonpayable",
      "type": "function"
    },
    {
      "inputs": [],
      "name": "getRandom",
      "outputs": [
        {
          "internalType": "uint256",
          "name": "",
          "type": "uint256"
        }
      ],
      "stateMutability": "nonpayable",
      "type": "function"
    },
    {
      "inputs": [
        {
          "internalType": "int256",
          "name": "",
          "type": "int256"
        }
      ],
      "name": "lifeLengthList",
      "outputs": [
        {
          "internalType": "int256",
          "name": "lifeLength",
          "type": "int256"
        },
        {
          "internalType": "int256",
          "name": "gameQuantity",
          "type": "int256"
        },
        {
          "internalType": "string",
          "name": "title",
          "type": "string"
        }
      ],
      "stateMutability": "view",
      "type": "function",
      "constant": true
    },
    {
      "inputs": [],
      "name": "makeCurrencyList",
      "outputs": [],
      "stateMutability": "nonpayable",
      "type": "function"
    },
    {
      "inputs": [],
      "name": "makeDailyGame",
      "outputs": [],
      "stateMutability": "nonpayable",
      "type": "function"
    },
    {
      "inputs": [
        {
          "internalType": "int256",
          "name": "_questionId",
          "type": "int256"
        },
        {
          "internalType": "int256",
          "name": "_gameId",
          "type": "int256"
        }
      ],
      "name": "makeOptions",
      "outputs": [],
      "stateMutability": "nonpayable",
      "type": "function"
    },
    {
      "inputs": [],
      "name": "monthlyGameQuantity",
      "outputs": [
        {
          "internalType": "int256",
          "name": "",
          "type": "int256"
        }
      ],
      "stateMutability": "view",
      "type": "function",
      "constant": true
    },
    {
      "inputs": [],
      "name": "name",
      "outputs": [
        {
          "internalType": "string",
          "name": "",
          "type": "string"
        }
      ],
      "stateMutability": "view",
      "type": "function",
      "constant": true
    },
    {
      "inputs": [
        {
          "internalType": "int256",
          "name": "",
          "type": "int256"
        },
        {
          "internalType": "int256",
          "name": "",
          "type": "int256"
        }
      ],
      "name": "optionsList",
      "outputs": [
        {
          "internalType": "int256",
          "name": "optionsContet",
          "type": "int256"
        },
        {
          "internalType": "int256",
          "name": "userQuantity",
          "type": "int256"
        }
      ],
      "stateMutability": "view",
      "type": "function",
      "constant": true
    },
    {
      "inputs": [],
      "name": "owner",
      "outputs": [
        {
          "internalType": "address",
          "name": "",
          "type": "address"
        }
      ],
      "stateMutability": "view",
      "type": "function",
      "constant": true
    },
    {
      "inputs": [
        {
          "internalType": "int256",
          "name": "",
          "type": "int256"
        }
      ],
      "name": "propertyList",
      "outputs": [
        {
          "internalType": "string",
          "name": "",
          "type": "string"
        }
      ],
      "stateMutability": "view",
      "type": "function",
      "constant": true
    },
    {
      "inputs": [
        {
          "internalType": "int256",
          "name": "",
          "type": "int256"
        }
      ],
      "name": "questionList",
      "outputs": [
        {
          "internalType": "string",
          "name": "questionName",
          "type": "string"
        },
        {
          "internalType": "string",
          "name": "questionDescription",
          "type": "string"
        }
      ],
      "stateMutability": "view",
      "type": "function",
      "constant": true
    },
    {
      "inputs": [],
      "name": "rand_b",
      "outputs": [
        {
          "internalType": "int256",
          "name": "",
          "type": "int256"
        }
      ],
      "stateMutability": "view",
      "type": "function",
      "constant": true
    },
    {
      "inputs": [],
      "name": "renounceOwnership",
      "outputs": [],
      "stateMutability": "nonpayable",
      "type": "function"
    },
    {
      "inputs": [],
      "name": "reqID_VRF",
      "outputs": [
        {
          "internalType": "bytes32",
          "name": "",
          "type": "bytes32"
        }
      ],
      "stateMutability": "view",
      "type": "function",
      "constant": true
    },
    {
      "inputs": [],
      "name": "returnAnswer",
      "outputs": [
        {
          "internalType": "uint256",
          "name": "",
          "type": "uint256"
        }
      ],
      "stateMutability": "view",
      "type": "function",
      "constant": true
    },
    {
      "inputs": [],
      "name": "returnGameInfo",
      "outputs": [
        {
          "internalType": "bytes32",
          "name": "",
          "type": "bytes32"
        }
      ],
      "stateMutability": "nonpayable",
      "type": "function"
    },
    {
      "inputs": [
        {
          "internalType": "uint256",
          "name": "",
          "type": "uint256"
        }
      ],
      "name": "stakers",
      "outputs": [
        {
          "internalType": "address",
          "name": "",
          "type": "address"
        }
      ],
      "stateMutability": "view",
      "type": "function",
      "constant": true
    },
    {
      "inputs": [
        {
          "internalType": "address",
          "name": "",
          "type": "address"
        },
        {
          "internalType": "address",
          "name": "",
          "type": "address"
        }
      ],
      "name": "stakingBalance",
      "outputs": [
        {
          "internalType": "uint256",
          "name": "",
          "type": "uint256"
        }
      ],
      "stateMutability": "view",
      "type": "function",
      "constant": true
    },
    {
      "inputs": [
        {
          "internalType": "address",
          "name": "",
          "type": "address"
        }
      ],
      "name": "tokenPriceFeedMapping",
      "outputs": [
        {
          "internalType": "address",
          "name": "",
          "type": "address"
        }
      ],
      "stateMutability": "view",
      "type": "function",
      "constant": true
    },
    {
      "inputs": [
        {
          "internalType": "address",
          "name": "newOwner",
          "type": "address"
        }
      ],
      "name": "transferOwnership",
      "outputs": [],
      "stateMutability": "nonpayable",
      "type": "function"
    },
    {
      "inputs": [
        {
          "internalType": "address",
          "name": "",
          "type": "address"
        }
      ],
      "name": "uniqueTokensStaked",
      "outputs": [
        {
          "internalType": "uint256",
          "name": "",
          "type": "uint256"
        }
      ],
      "stateMutability": "view",
      "type": "function",
      "constant": true
    },
    {
      "inputs": [
        {
          "internalType": "address",
          "name": "",
          "type": "address"
        }
      ],
      "name": "userDataStructs",
      "outputs": [
        {
          "internalType": "address",
          "name": "addr",
          "type": "address"
        },
        {
          "internalType": "uint256",
          "name": "balance",
          "type": "uint256"
        }
      ],
      "stateMutability": "view",
      "type": "function",
      "constant": true
    },
    {
      "inputs": [
        {
          "internalType": "address",
          "name": "",
          "type": "address"
        },
        {
          "internalType": "uint256",
          "name": "",
          "type": "uint256"
        }
      ],
      "name": "userGameStructs",
      "outputs": [
        {
          "internalType": "uint256",
          "name": "gameId",
          "type": "uint256"
        },
        {
          "internalType": "uint8",
          "name": "answerId",
          "type": "uint8"
        },
        {
          "internalType": "uint256",
          "name": "amount",
          "type": "uint256"
        },
        {
          "internalType": "bool",
          "name": "isCorrect",
          "type": "bool"
        },
        {
          "internalType": "bool",
          "name": "isNotified",
          "type": "bool"
        }
      ],
      "stateMutability": "view",
      "type": "function",
      "constant": true
    },
    {
      "inputs": [
        {
          "internalType": "address",
          "name": "",
          "type": "address"
        }
      ],
      "name": "userList",
      "outputs": [
        {
          "internalType": "bool",
          "name": "",
          "type": "bool"
        }
      ],
      "stateMutability": "view",
      "type": "function",
      "constant": true
    },
    {
      "inputs": [],
      "name": "weeklyGameQuantity",
      "outputs": [
        {
          "internalType": "int256",
          "name": "",
          "type": "int256"
        }
      ],
      "stateMutability": "view",
      "type": "function",
      "constant": true
    },
    {
      "inputs": [
        {
          "internalType": "address",
          "name": "addr",
          "type": "address"
        }
      ],
      "name": "getUserBalance",
      "outputs": [
        {
          "internalType": "uint256",
          "name": "",
          "type": "uint256"
        }
      ],
      "stateMutability": "nonpayable",
      "type": "function"
    },
    {
      "inputs": [
        {
          "internalType": "address",
          "name": "addr",
          "type": "address"
        },
        {
          "internalType": "uint256",
          "name": "amount",
          "type": "uint256"
        }
      ],
      "name": "reloadBalance",
      "outputs": [
        {
          "internalType": "uint256",
          "name": "",
          "type": "uint256"
        }
      ],
      "stateMutability": "nonpayable",
      "type": "function"
    },
    {
      "inputs": [
        {
          "internalType": "address",
          "name": "addr",
          "type": "address"
        },
        {
          "internalType": "uint256",
          "name": "amount",
          "type": "uint256"
        }
      ],
      "name": "withdrawBalance",
      "outputs": [
        {
          "internalType": "uint256",
          "name": "",
          "type": "uint256"
        }
      ],
      "stateMutability": "nonpayable",
      "type": "function"
    },
    {
      "inputs": [],
      "name": "getTotalContractBalance",
      "outputs": [
        {
          "internalType": "uint256",
          "name": "contractBalance",
          "type": "uint256"
        }
      ],
      "stateMutability": "nonpayable",
      "type": "function"
    },
    {
      "inputs": [
        {
          "internalType": "address",
          "name": "addr",
          "type": "address"
        },
        {
          "internalType": "uint256",
          "name": "gameId",
          "type": "uint256"
        }
      ],
      "name": "getUserGameInfo",
      "outputs": [
        {
          "internalType": "uint8",
          "name": "answerId",
          "type": "uint8"
        },
        {
          "internalType": "uint256",
          "name": "amount",
          "type": "uint256"
        }
      ],
      "stateMutability": "view",
      "type": "function",
      "constant": true
    },
    {
      "inputs": [
        {
          "internalType": "address",
          "name": "addr",
          "type": "address"
        },
        {
          "internalType": "uint256",
          "name": "gameId",
          "type": "uint256"
        },
        {
          "internalType": "uint8",
          "name": "answerId",
          "type": "uint8"
        },
        {
          "internalType": "uint256",
          "name": "amount",
          "type": "uint256"
        }
      ],
      "name": "addGameInfoToUserData",
      "outputs": [
        {
          "internalType": "bool",
          "name": "success",
          "type": "bool"
        }
      ],
      "stateMutability": "nonpayable",
      "type": "function"
    },
    {
      "inputs": [
        {
          "internalType": "uint256",
          "name": "amount",
          "type": "uint256"
        },
        {
          "internalType": "address",
          "name": "tokenAddress",
          "type": "address"
        }
      ],
      "name": "stakeTokens",
      "outputs": [],
      "stateMutability": "nonpayable",
      "type": "function"
    },
    {
      "inputs": [
        {
          "internalType": "address",
          "name": "token",
          "type": "address"
        }
      ],
      "name": "unstakeTokens",
      "outputs": [],
      "stateMutability": "nonpayable",
      "type": "function"
    },
    {
      "inputs": [],
      "name": "issueTokens",
      "outputs": [],
      "stateMutability": "nonpayable",
      "type": "function"
    },
    {
      "inputs": [
        {
          "internalType": "address",
          "name": "token",
          "type": "address"
        },
        {
          "internalType": "address",
          "name": "priceFeed",
          "type": "address"
        }
      ],
      "name": "setPriceFeedContract",
      "outputs": [],
      "stateMutability": "nonpayable",
      "type": "function"
    },
    {
      "inputs": [
        {
          "internalType": "address",
          "name": "token",
          "type": "address"
        }
      ],
      "name": "isTokenAllowed",
      "outputs": [
        {
          "internalType": "bool",
          "name": "",
          "type": "bool"
        }
      ],
      "stateMutability": "nonpayable",
      "type": "function"
    },
    {
      "inputs": [
        {
          "internalType": "address",
          "name": "token",
          "type": "address"
        }
      ],
      "name": "addAllowedTokens",
      "outputs": [],
      "stateMutability": "nonpayable",
      "type": "function"
    },
    {
      "inputs": [
        {
          "internalType": "address",
          "name": "user",
          "type": "address"
        }
      ],
      "name": "getUserTotalValue",
      "outputs": [
        {
          "internalType": "uint256",
          "name": "",
          "type": "uint256"
        }
      ],
      "stateMutability": "view",
      "type": "function",
      "constant": true
    },
    {
      "inputs": [
        {
          "internalType": "address",
          "name": "user",
          "type": "address"
        },
        {
          "internalType": "address",
          "name": "token",
          "type": "address"
        }
      ],
      "name": "getUserStakingBalanceEthValue",
      "outputs": [
        {
          "internalType": "uint256",
          "name": "",
          "type": "uint256"
        }
      ],
      "stateMutability": "view",
      "type": "function",
      "constant": true
    },
    {
      "inputs": [
        {
          "internalType": "address",
          "name": "token",
          "type": "address"
        }
      ],
      "name": "getTokenEthPrice",
      "outputs": [
        {
          "internalType": "uint256",
          "name": "",
          "type": "uint256"
        }
      ],
      "stateMutability": "view",
      "type": "function",
      "constant": true
    },
    {
      "inputs": [],
      "name": "getGameInfoList",
      "outputs": [
        {
          "internalType": "bytes32",
          "name": "",
          "type": "bytes32"
        }
      ],
      "stateMutability": "view",
      "type": "function",
      "constant": true
    }
  ],
  "bytecode": "0x6080604052600160055573a580d0ef1d8bdefdcd06059f3b81d305778ab617601360006101000a81548173ffffffffffffffffffffffffffffffffffffffff021916908373ffffffffffffffffffffffffffffffffffffffff160217905550601360009054906101000a900473ffffffffffffffffffffffffffffffffffffffff16601460006101000a81548173ffffffffffffffffffffffffffffffffffffffff021916908373ffffffffffffffffffffffffffffffffffffffff160217905550736f33ed84c014f72d23240b9ed589959a8c226c76601560006101000a81548173ffffffffffffffffffffffffffffffffffffffff021916908373ffffffffffffffffffffffffffffffffffffffff160217905550601360009054906101000a900473ffffffffffffffffffffffffffffffffffffffff16601660006101000a81548173ffffffffffffffffffffffffffffffffffffffff021916908373ffffffffffffffffffffffffffffffffffffffff1602179055507340c7b80e812a3683d651db8b38278a256f51362d601760006101000a81548173ffffffffffffffffffffffffffffffffffffffff021916908373ffffffffffffffffffffffffffffffffffffffff160217905550601760009054906101000a900473ffffffffffffffffffffffffffffffffffffffff16601860006101000a81548173ffffffffffffffffffffffffffffffffffffffff021916908373ffffffffffffffffffffffffffffffffffffffff1602179055506040518060400160405280601281526020017f43727970746f20476173204561726e696e670000000000000000000000000000815250601990805190602001906200027e92919062000854565b503480156200028c57600080fd5b5060405162005d4838038062005d4883398181016040526020811015620002b257600080fd5b81019080805190602001909291905050506000620002d56200075e60201b60201c565b9050806000806101000a81548173ffffffffffffffffffffffffffffffffffffffff021916908373ffffffffffffffffffffffffffffffffffffffff1602179055508073ffffffffffffffffffffffffffffffffffffffff16600073ffffffffffffffffffffffffffffffffffffffff167f8be0079c531659141344cd1fd0a4f28419497f9722a3daafe3b4186f6b6457e060405160405180910390a350620003836200076660201b60201c565b6040518060400160405280600581526020017f505249434500000000000000000000000000000000000000000000000000000081525060126000600181526020019081526020016000206000019080519060200190620003e592919062000854565b506040518060600160405280602e815260200162005cf4602e9139601260006001815260200190815260200160002060010190805190602001906200042c92919062000854565b506040518060400160405280600681526020017f564f4c554d450000000000000000000000000000000000000000000000000000815250601260006002815260200190815260200160002060000190805190602001906200048f92919062000854565b5060405180606001604052806026815260200162005d226026913960126000600281526020019081526020016000206001019080519060200190620004d692919062000854565b506040518060400160405280600f81526020017f43727970746f2043757272656e63790000000000000000000000000000000000815250601060006001815260200190815260200160002090805190602001906200053692919062000854565b506001601160006001815260200190815260200160002060000181905550601e6011600060018152602001908152602001600020600101819055506040518060400160405280600581526020017f4461696c7900000000000000000000000000000000000000000000000000000081525060116000600181526020019081526020016000206002019080519060200190620005d392919062000854565b50600760116000600281526020019081526020016000206000018190555060046011600060028152602001908152602001600020600101819055506040518060400160405280600681526020017f5765656b6c790000000000000000000000000000000000000000000000000000815250601160006002815260200190815260200160002060020190805190602001906200067092919062000854565b50601e60116000600381526020019081526020016000206000018190555060016011600060038152602001908152602001600020600101819055506040518060400160405280600781526020017f4d6f6e74686c7900000000000000000000000000000000000000000000000000815250601160006003815260200190815260200160002060020190805190602001906200070d92919062000854565b50600a60078190555080601a60006101000a81548173ffffffffffffffffffffffffffffffffffffffff021916908373ffffffffffffffffffffffffffffffffffffffff1602179055505062000903565b600033905090565b6200080e73c89bd4e1632d3a43cb03aaad5262cbe4038bc57173ffffffffffffffffffffffffffffffffffffffff166338cc48316040518163ffffffff1660e01b815260040160206040518083038186803b158015620007c557600080fd5b505afa158015620007da573d6000803e3d6000fd5b505050506040513d6020811015620007f157600080fd5b81019080805190602001909291905050506200081060201b60201c565b565b80600360006101000a81548173ffffffffffffffffffffffffffffffffffffffff021916908373ffffffffffffffffffffffffffffffffffffffff16021790555050565b828054600181600116156101000203166002900490600052602060002090601f016020900481019282601f106200089757805160ff1916838001178555620008c8565b82800160010185558215620008c8579182015b82811115620008c7578251825591602001919060010190620008aa565b5b509050620008d79190620008db565b5090565b6200090091905b80821115620008fc576000816000905550600101620008e2565b5090565b90565b6153e180620009136000396000f3fe608060405234801561001057600080fd5b50600436106102bb5760003560e01c80636a22246711610182578063c3f449c9116100e9578063df00018d116100a2578063f2ce4dc01161007c578063f2ce4dc01461119d578063f2fde38b146111a7578063f9eaee0d146111eb578063fd5e6dd114611247576102bb565b8063df00018d14610fa2578063e50f4c0b14610ffa578063f1feff34146110d3576102bb565b8063c3f449c914610ebc578063c67a3d9314610ec6578063cc81e06014610ee4578063d17f7b0d14610f5c578063d9e3fd6414610f66578063dc7c155f14610f84576102bb565b80638da5cb5b1161013b5780638da5cb5b14610d2457806392848cb814610d6e57806395ab14f314610d8c578063aacc5a1714610dee578063af3f5e2214610e0c578063b83e023414610e64576102bb565b80636a22246714610b975780636c1c38ae14610bc5578063715018a614610be35780637421a20614610bed5780637ce6a0fb14610ca2578063877dd39d14610cc0576102bb565b806332d4e5ec1161022657806347734892116101df5780634773489214610a2657806349400fba14610a7e578063494ca32214610a9c578063568ce94514610ad45780635eb186f814610b4357806360ab585214610b8d576102bb565b806332d4e5ec146107875780633470be741461082e578063374a63d71461084c5780633c8130e3146108d75780633cb10333146109ea5780633f5693b214610a08576102bb565b8063171e44ea11610278578063171e44ea1461054f5780631b4e7bd21461059357806322c0391f146105ef57806327927b3e1461064757806329161a00146106cb5780632d1ad8b814610743576102bb565b806306fdde03146102c0578063071c5443146103435780630b9b5ad0146103965780630bea440d146104135780630cf20cc914610461578063157bb2c8146104c3575b600080fd5b6102c86112b5565b6040518080602001828103825283818151815260200191508051906020019080838360005b838110156103085780820151818401526020810190506102ed565b50505050905090810190601f1680156103355780820380516001836020036101000a031916815260200191505b509250505060405180910390f35b6103796004803603604081101561035957600080fd5b810190808035906020019092919080359060200190929190505050611353565b604051808381526020018281526020019250505060405180910390f35b6103f9600480360360808110156103ac57600080fd5b81019080803573ffffffffffffffffffffffffffffffffffffffff16906020019092919080359060200190929190803560ff16906020019092919080359060200190929190505050611384565b604051808215151515815260200191505060405180910390f35b61045f6004803603604081101561042957600080fd5b8101908080359060200190929190803573ffffffffffffffffffffffffffffffffffffffff169060200190929190505050611673565b005b6104ad6004803603604081101561047757600080fd5b81019080803573ffffffffffffffffffffffffffffffffffffffff169060200190929190803590602001909291905050506119a8565b6040518082815260200191505060405180910390f35b61050f600480360360408110156104d957600080fd5b81019080803573ffffffffffffffffffffffffffffffffffffffff16906020019092919080359060200190929190505050611a57565b604051808681526020018560ff1660ff16815260200184815260200183151515158152602001821515151581526020019550505050505060405180910390f35b6105916004803603602081101561056557600080fd5b81019080803573ffffffffffffffffffffffffffffffffffffffff169060200190929190505050611ac1565b005b6105d5600480360360208110156105a957600080fd5b81019080803573ffffffffffffffffffffffffffffffffffffffff169060200190929190505050611bd6565b604051808215151515815260200191505060405180910390f35b6106456004803603606081101561060557600080fd5b8101908080359060200190929190803573ffffffffffffffffffffffffffffffffffffffff16906020019092919080359060200190929190505050611bf6565b005b6106896004803603602081101561065d57600080fd5b81019080803573ffffffffffffffffffffffffffffffffffffffff169060200190929190505050611c83565b604051808273ffffffffffffffffffffffffffffffffffffffff1673ffffffffffffffffffffffffffffffffffffffff16815260200191505060405180910390f35b61072d600480360360408110156106e157600080fd5b81019080803573ffffffffffffffffffffffffffffffffffffffff169060200190929190803573ffffffffffffffffffffffffffffffffffffffff169060200190929190505050611cb6565b6040518082815260200191505060405180910390f35b6107856004803603602081101561075957600080fd5b81019080803573ffffffffffffffffffffffffffffffffffffffff169060200190929190505050611cdb565b005b6107b36004803603602081101561079d57600080fd5b8101908080359060200190929190505050611fa1565b6040518080602001828103825283818151815260200191508051906020019080838360005b838110156107f35780820151818401526020810190506107d8565b50505050905090810190601f1680156108205780820380516001836020036101000a031916815260200191505b509250505060405180910390f35b610836612051565b6040518082815260200191505060405180910390f35b61088e6004803603602081101561086257600080fd5b81019080803573ffffffffffffffffffffffffffffffffffffffff169060200190929190505050612523565b604051808373ffffffffffffffffffffffffffffffffffffffff1673ffffffffffffffffffffffffffffffffffffffff1681526020018281526020019250505060405180910390f35b610903600480360360208110156108ed57600080fd5b8101908080359060200190929190505050612567565b604051808060200180602001838103835285818151815260200191508051906020019080838360005b8381101561094757808201518184015260208101905061092c565b50505050905090810190601f1680156109745780820380516001836020036101000a031916815260200191505b50838103825284818151815260200191508051906020019080838360005b838110156109ad578082015181840152602081019050610992565b50505050905090810190601f1680156109da5780820380516001836020036101000a031916815260200191505b5094505050505060405180910390f35b6109f26126bb565b6040518082815260200191505060405180910390f35b610a106126c1565b6040518082815260200191505060405180910390f35b610a6860048036036020811015610a3c57600080fd5b81019080803573ffffffffffffffffffffffffffffffffffffffff1690602001909291905050506126c7565b6040518082815260200191505060405180910390f35b610a866127fd565b6040518082815260200191505060405180910390f35b610ad260048036036040811015610ab257600080fd5b810190808035906020019092919080359060200190929190505050612803565b005b610b2060048036036040811015610aea57600080fd5b81019080803573ffffffffffffffffffffffffffffffffffffffff16906020019092919080359060200190929190505050612a76565b604051808360ff1660ff1681526020018281526020019250505060405180910390f35b610b4b612b3f565b604051808273ffffffffffffffffffffffffffffffffffffffff1673ffffffffffffffffffffffffffffffffffffffff16815260200191505060405180910390f35b610b95612b65565b005b610bc360048036036020811015610bad57600080fd5b8101908080359060200190929190505050612d61565b005b610bcd613646565b6040518082815260200191505060405180910390f35b610beb61364c565b005b610c1960048036036020811015610c0357600080fd5b81019080803590602001909291905050506137ba565b6040518084815260200183815260200180602001828103825283818151815260200191508051906020019080838360005b83811015610c65578082015181840152602081019050610c4a565b50505050905090810190601f168015610c925780820380516001836020036101000a031916815260200191505b5094505050505060405180910390f35b610caa61387c565b6040518082815260200191505060405180910390f35b610d2260048036036040811015610cd657600080fd5b81019080803573ffffffffffffffffffffffffffffffffffffffff169060200190929190803573ffffffffffffffffffffffffffffffffffffffff169060200190929190505050613882565b005b610d2c6139b3565b604051808273ffffffffffffffffffffffffffffffffffffffff1673ffffffffffffffffffffffffffffffffffffffff16815260200191505060405180910390f35b610d766139dc565b6040518082815260200191505060405180910390f35b610dd860048036036040811015610da257600080fd5b81019080803573ffffffffffffffffffffffffffffffffffffffff16906020019092919080359060200190929190505050613a04565b6040518082815260200191505060405180910390f35b610df6613aaa565b6040518082815260200191505060405180910390f35b610e4e60048036036020811015610e2257600080fd5b81019080803573ffffffffffffffffffffffffffffffffffffffff169060200190929190505050613e18565b6040518082815260200191505060405180910390f35b610ea660048036036020811015610e7a57600080fd5b81019080803573ffffffffffffffffffffffffffffffffffffffff169060200190929190505050613ed7565b6040518082815260200191505060405180910390f35b610ec4613eee565b005b610ece61409b565b6040518082815260200191505060405180910390f35b610f4660048036036040811015610efa57600080fd5b81019080803573ffffffffffffffffffffffffffffffffffffffff169060200190929190803573ffffffffffffffffffffffffffffffffffffffff169060200190929190505050614145565b6040518082815260200191505060405180910390f35b610f64614237565b005b610f6e6144e2565b6040518082815260200191505060405180910390f35b610f8c6144ec565b6040518082815260200191505060405180910390f35b610fe460048036036020811015610fb857600080fd5b81019080803573ffffffffffffffffffffffffffffffffffffffff1690602001909291905050506144f2565b6040518082815260200191505060405180910390f35b6110266004803603602081101561101057600080fd5b8101908080359060200190929190505050614626565b60405180888152602001878152602001868152602001858152602001806020018415151515815260200183151515158152602001828103825285818151815260200191508051906020019080838360005b83811015611092578082015181840152602081019050611077565b50505050905090810190601f1680156110bf5780820380516001836020036101000a031916815260200191505b509850505050505050505060405180910390f35b6110ff600480360360208110156110e957600080fd5b810190808035906020019092919050505061471a565b6040518087815260200186815260200185815260200184815260200183815260200180602001828103825283818151815260200191508051906020019080838360005b8381101561115d578082015181840152602081019050611142565b50505050905090810190601f16801561118a5780820380516001836020036101000a031916815260200191505b5097505050505050505060405180910390f35b6111a56147ee565b005b6111e9600480360360208110156111bd57600080fd5b81019080803573ffffffffffffffffffffffffffffffffffffffff169060200190929190505050614d8c565b005b61122d6004803603602081101561120157600080fd5b81019080803573ffffffffffffffffffffffffffffffffffffffff169060200190929190505050614f7f565b604051808215151515815260200191505060405180910390f35b6112736004803603602081101561125d57600080fd5b8101908080359060200190929190505050615021565b604051808273ffffffffffffffffffffffffffffffffffffffff1673ffffffffffffffffffffffffffffffffffffffff16815260200191505060405180910390f35b60198054600181600116156101000203166002900480601f01602080910402602001604051908101604052809291908181526020018280546001816001161561010002031660029004801561134b5780601f106113205761010080835404028352916020019161134b565b820191906000526020600020905b81548152906001019060200180831161132e57829003601f168201915b505050505081565b600f602052816000526040600020602052806000526040600020600091509150508060000154908060010154905082565b600081601b60008773ffffffffffffffffffffffffffffffffffffffff1673ffffffffffffffffffffffffffffffffffffffff16815260200190815260200160002060010154106116665781601b60008773ffffffffffffffffffffffffffffffffffffffff1673ffffffffffffffffffffffffffffffffffffffff1681526020019081526020016000206001015403601b60008773ffffffffffffffffffffffffffffffffffffffff1673ffffffffffffffffffffffffffffffffffffffff1681526020019081526020016000206001018190555083601b60008773ffffffffffffffffffffffffffffffffffffffff1673ffffffffffffffffffffffffffffffffffffffff16815260200190815260200160002060020160008681526020019081526020016000206000018190555082601b60008773ffffffffffffffffffffffffffffffffffffffff1673ffffffffffffffffffffffffffffffffffffffff168152602001908152602001600020600201600086815260200190815260200160002060010160006101000a81548160ff021916908360ff16021790555081601b60008773ffffffffffffffffffffffffffffffffffffffff1673ffffffffffffffffffffffffffffffffffffffff1681526020019081526020016000206002016000868152602001908152602001600020600201819055506000601b60008773ffffffffffffffffffffffffffffffffffffffff1673ffffffffffffffffffffffffffffffffffffffff168152602001908152602001600020600201600086815260200190815260200160002060030160006101000a81548160ff0219169083151502179055506000601b60008773ffffffffffffffffffffffffffffffffffffffff1673ffffffffffffffffffffffffffffffffffffffff168152602001908152602001600020600201600086815260200190815260200160002060030160016101000a81548160ff0219169083151502179055506001905061166b565b600090505b949350505050565b600082116116e9576040517f08c379a00000000000000000000000000000000000000000000000000000000081526004018080602001828103825260128152602001807f416d6f756e742063616e6e6f742062652030000000000000000000000000000081525060200191505060405180910390fd5b6116f281614f7f565b156119a457611701338261505d565b8073ffffffffffffffffffffffffffffffffffffffff166323b872dd3330856040518463ffffffff1660e01b8152600401808473ffffffffffffffffffffffffffffffffffffffff1673ffffffffffffffffffffffffffffffffffffffff1681526020018373ffffffffffffffffffffffffffffffffffffffff1673ffffffffffffffffffffffffffffffffffffffff1681526020018281526020019350505050602060405180830381600087803b1580156117bc57600080fd5b505af11580156117d0573d6000803e3d6000fd5b505050506040513d60208110156117e657600080fd5b81019080805190602001909291905050505081601f60008373ffffffffffffffffffffffffffffffffffffffff1673ffffffffffffffffffffffffffffffffffffffff16815260200190815260200160002060003373ffffffffffffffffffffffffffffffffffffffff1673ffffffffffffffffffffffffffffffffffffffff1681526020019081526020016000205401601f60008373ffffffffffffffffffffffffffffffffffffffff1673ffffffffffffffffffffffffffffffffffffffff16815260200190815260200160002060003373ffffffffffffffffffffffffffffffffffffffff1673ffffffffffffffffffffffffffffffffffffffff168152602001908152602001600020819055506001602060003373ffffffffffffffffffffffffffffffffffffffff1673ffffffffffffffffffffffffffffffffffffffff1681526020019081526020016000205414156119a3576023339080600181540180825580915050600190039060005260206000200160009091909190916101000a81548173ffffffffffffffffffffffffffffffffffffffff021916908373ffffffffffffffffffffffffffffffffffffffff1602179055505b5b5050565b60008082601b60008673ffffffffffffffffffffffffffffffffffffffff1673ffffffffffffffffffffffffffffffffffffffff1681526020019081526020016000206001015403905060008110611a4d5780601b60008673ffffffffffffffffffffffffffffffffffffffff1673ffffffffffffffffffffffffffffffffffffffff1681526020019081526020016000206001018190555082601e5403601e819055505b8091505092915050565b601c602052816000526040600020602052806000526040600020600091509150508060000154908060010160009054906101000a900460ff16908060020154908060030160009054906101000a900460ff16908060030160019054906101000a900460ff16905085565b611ac961516c565b73ffffffffffffffffffffffffffffffffffffffff16611ae76139b3565b73ffffffffffffffffffffffffffffffffffffffff1614611b70576040517f08c379a00000000000000000000000000000000000000000000000000000000081526004018080602001828103825260208152602001807f4f776e61626c653a2063616c6c6572206973206e6f7420746865206f776e657281525060200191505060405180910390fd5b6022819080600181540180825580915050600190039060005260206000200160009091909190916101000a81548173ffffffffffffffffffffffffffffffffffffffff021916908373ffffffffffffffffffffffffffffffffffffffff16021790555050565b601d6020528060005260406000206000915054906101000a900460ff1681565b600f60008481526020019081526020016000206000828152602001908152602001600020600201829080600181540180825580915050600190039060005260206000200160009091909190916101000a81548173ffffffffffffffffffffffffffffffffffffffff021916908373ffffffffffffffffffffffffffffffffffffffff160217905550505050565b60216020528060005260406000206000915054906101000a900473ffffffffffffffffffffffffffffffffffffffff1681565b601f602052816000526040600020602052806000526040600020600091509150505481565b6000601f60008373ffffffffffffffffffffffffffffffffffffffff1673ffffffffffffffffffffffffffffffffffffffff16815260200190815260200160002060003373ffffffffffffffffffffffffffffffffffffffff1673ffffffffffffffffffffffffffffffffffffffff16815260200190815260200160002054905060008111611dd2576040517f08c379a000000000000000000000000000000000000000000000000000000000815260040180806020018281038252601b8152602001807f5374616b696e672062616c616e63652063616e6e6f742062652030000000000081525060200191505060405180910390fd5b8173ffffffffffffffffffffffffffffffffffffffff1663a9059cbb33836040518363ffffffff1660e01b8152600401808373ffffffffffffffffffffffffffffffffffffffff1673ffffffffffffffffffffffffffffffffffffffff16815260200182815260200192505050602060405180830381600087803b158015611e5957600080fd5b505af1158015611e6d573d6000803e3d6000fd5b505050506040513d6020811015611e8357600080fd5b8101908080519060200190929190505050506000601f60008473ffffffffffffffffffffffffffffffffffffffff1673ffffffffffffffffffffffffffffffffffffffff16815260200190815260200160002060003373ffffffffffffffffffffffffffffffffffffffff1673ffffffffffffffffffffffffffffffffffffffff168152602001908152602001600020819055506001602060003373ffffffffffffffffffffffffffffffffffffffff1673ffffffffffffffffffffffffffffffffffffffff1681526020019081526020016000205403602060003373ffffffffffffffffffffffffffffffffffffffff1673ffffffffffffffffffffffffffffffffffffffff168152602001908152602001600020819055505050565b60106020528060005260406000206000915090508054600181600116156101000203166002900480601f0160208091040260200160405190810160405280929190818152602001828054600181600116156101000203166002900480156120495780601f1061201e57610100808354040283529160200191612049565b820191906000526020600020905b81548152906001019060200180831161202c57829003601f168201915b505050505081565b600061205b61519e565b6000600190505b60038113612506576000600190505b601160008381526020019081526020016000206001015481136124f857600e600082815260200190815260200160002060050160009054906101000a900460ff16806120dd5750600e600082815260200190815260200160002060050160019054906101000a900460ff165b156124eb57808383600481106120ef57fe5b60200201516000018181525050600d6000600e60008481526020019081526020016000206001015481526020019081526020016000206000015483836004811061213557fe5b6020020151602001818152505060126000600e60008481526020019081526020016000206000015481526020019081526020016000206001018054600181600116156101000203166002900480601f0160208091040260200160405190810160405280929190818152602001828054600181600116156101000203166002900480156122025780601f106121d757610100808354040283529160200191612202565b820191906000526020600020905b8154815290600101906020018083116121e557829003601f168201915b505050505083836004811061221357fe5b602002015160400181905250600d6000600e60008481526020019081526020016000206001015481526020019081526020016000206005018054600181600116156101000203166002900480601f0160208091040260200160405190810160405280929190818152602001828054600181600116156101000203166002900480156122df5780601f106122b4576101008083540402835291602001916122df565b820191906000526020600020905b8154815290600101906020018083116122c257829003601f168201915b50505050508383600481106122f057fe5b6020020151606001819052504283836004811061230957fe5b60200201516080018181525050601160008381526020019081526020016000206002018054600181600116156101000203166002900480601f0160208091040260200160405190810160405280929190818152602001828054600181600116156101000203166002900480156123c05780601f10612395576101008083540402835291602001916123c0565b820191906000526020600020905b8154815290600101906020018083116123a357829003601f168201915b50505050508383600481106123d157fe5b602002015160a00181905250600e60008281526020019081526020016000206004018054600181600116156101000203166002900480601f0160208091040260200160405190810160405280929190818152602001828054600181600116156101000203166002900480156124875780601f1061245c57610100808354040283529160200191612487565b820191906000526020600020905b81548152906001019060200180831161246a57829003601f168201915b505050505083836004811061249857fe5b602002015160c00181905250600d6000600e6000848152602001908152602001600020600101548152602001908152602001600020600401548383600481106124dd57fe5b602002015160e00181815250505b8080600101915050612071565b508080600101915050612062565b508060006004811061251457fe5b60200201516020015191505090565b601b6020528060005260406000206000915090508060000160009054906101000a900473ffffffffffffffffffffffffffffffffffffffff16908060010154905082565b6012602052806000526040600020600091509050806000018054600181600116156101000203166002900480601f0160208091040260200160405190810160405280929190818152602001828054600181600116156101000203166002900480156126135780601f106125e857610100808354040283529160200191612613565b820191906000526020600020905b8154815290600101906020018083116125f657829003601f168201915b505050505090806001018054600181600116156101000203166002900480601f0160208091040260200160405190810160405280929190818152602001828054600181600116156101000203166002900480156126b15780601f10612686576101008083540402835291602001916126b1565b820191906000526020600020905b81548152906001019060200180831161269457829003601f168201915b5050505050905082565b60095481565b600a5481565b6000601d60008373ffffffffffffffffffffffffffffffffffffffff1673ffffffffffffffffffffffffffffffffffffffff16815260200190815260200160002060009054906101000a900460ff166127f45781601b60008473ffffffffffffffffffffffffffffffffffffffff1673ffffffffffffffffffffffffffffffffffffffff16815260200190815260200160002060000160006101000a81548173ffffffffffffffffffffffffffffffffffffffff021916908373ffffffffffffffffffffffffffffffffffffffff1602179055506001601d60008473ffffffffffffffffffffffffffffffffffffffff1673ffffffffffffffffffffffffffffffffffffffff16815260200190815260200160002060006101000a81548160ff0219169083151502179055505b60649050919050565b60085481565b60018214156129dd576001600f6000838152602001908152602001600020600060018152602001908152602001600020600001819055506002600f6000838152602001908152602001600020600060028152602001908152602001600020600001819055506003600f6000838152602001908152602001600020600060038152602001908152602001600020600001819055506004600f6000838152602001908152602001600020600060048152602001908152602001600020600001819055506005600f6000838152602001908152602001600020600060058152602001908152602001600020600001819055506006600f6000838152602001908152602001600020600060068152602001908152602001600020600001819055506007600f6000838152602001908152602001600020600060078152602001908152602001600020600001819055506008600f6000838152602001908152602001600020600060088152602001908152602001600020600001819055506009600f6000838152602001908152602001600020600060098152602001908152602001600020600001819055506000600f60008381526020019081526020016000206000600a815260200190815260200160002060000181905550612a72565b6002821415612a71576000600f6000838152602001908152602001600020600060018152602001908152602001600020600001819055506001600f6000838152602001908152602001600020600060028152602001908152602001600020600001819055506002600f6000838152602001908152602001600020600060038152602001908152602001600020600001819055505b5b5050565b600080601b60008573ffffffffffffffffffffffffffffffffffffffff1673ffffffffffffffffffffffffffffffffffffffff168152602001908152602001600020600201600084815260200190815260200160002060010160009054906101000a900460ff16601b60008673ffffffffffffffffffffffffffffffffffffffff1673ffffffffffffffffffffffffffffffffffffffff168152602001908152602001600020600201600085815260200190815260200160002060020154915091509250929050565b601a60009054906101000a900473ffffffffffffffffffffffffffffffffffffffff1681565b612b6d61516c565b73ffffffffffffffffffffffffffffffffffffffff16612b8b6139b3565b73ffffffffffffffffffffffffffffffffffffffff1614612c14576040517f08c379a00000000000000000000000000000000000000000000000000000000081526004018080602001828103825260208152602001807f4f776e61626c653a2063616c6c6572206973206e6f7420746865206f776e657281525060200191505060405180910390fd5b60008090505b602380549050811015612d5e57600060238281548110612c3657fe5b9060005260206000200160009054906101000a900473ffffffffffffffffffffffffffffffffffffffff169050601a60009054906101000a900473ffffffffffffffffffffffffffffffffffffffff1673ffffffffffffffffffffffffffffffffffffffff1663a9059cbb82612cab84613e18565b6040518363ffffffff1660e01b8152600401808373ffffffffffffffffffffffffffffffffffffffff1673ffffffffffffffffffffffffffffffffffffffff16815260200182815260200192505050602060405180830381600087803b158015612d1457600080fd5b505af1158015612d28573d6000803e3d6000fd5b505050506040513d6020811015612d3e57600080fd5b810190808051906020019092919050505050508080600101915050612c1a565b50565b60608060006040518060600160405280603c815260200161534a603c913992506040518060400160405280600a81526020017f267473796d733d5553440000000000000000000000000000000000000000000081525091506000612dc3615174565b90508073ffffffffffffffffffffffffffffffffffffffff1663a9059cbb601560009054906101000a900473ffffffffffffffffffffffffffffffffffffffff168373ffffffffffffffffffffffffffffffffffffffff166370a08231306040518263ffffffff1660e01b8152600401808273ffffffffffffffffffffffffffffffffffffffff1673ffffffffffffffffffffffffffffffffffffffff16815260200191505060206040518083038186803b158015612e8157600080fd5b505afa158015612e95573d6000803e3d6000fd5b505050506040513d6020811015612eab57600080fd5b81019080805190602001909291905050506040518363ffffffff1660e01b8152600401808373ffffffffffffffffffffffffffffffffffffffff1673ffffffffffffffffffffffffffffffffffffffff16815260200182815260200192505050602060405180830381600087803b158015612f2557600080fd5b505af1158015612f39573d6000803e3d6000fd5b505050506040513d6020811015612f4f57600080fd5b8101908080519060200190929190505050612fd2576040517f08c379a00000000000000000000000000000000000000000000000000000000081526004018080602001828103825260128152602001807f556e61626c6520746f207472616e73666572000000000000000000000000000081525060200191505060405180910390fd5b601660009054906101000a900473ffffffffffffffffffffffffffffffffffffffff1673ffffffffffffffffffffffffffffffffffffffff1663a8f2c525601660009054906101000a900473ffffffffffffffffffffffffffffffffffffffff1673ffffffffffffffffffffffffffffffffffffffff16633b7a5d7e600d6000600e60008c8152602001908152602001600020600101548152602001908152602001600020600001546040518263ffffffff1660e01b81526004018080602001838152602001806020018381038352600081526020016020018381038252600081526020016020019350505050600060405180830381600087803b1580156130d957600080fd5b505af11580156130ed573d6000803e3d6000fd5b505050506040513d6000823e3d601f19601f82011682018060405250602081101561311757600080fd5b810190808051604051939291908464010000000082111561313757600080fd5b8382019150602082018581111561314d57600080fd5b825186600182028301116401000000008211171561316a57600080fd5b8083526020830192505050908051906020019080838360005b8381101561319e578082015181840152602081019050613183565b50505050905090810190601f1680156131cb5780820380516001836020036101000a031916815260200191505b5060405250505060126000600e60008b8152602001908152602001600020600001548152602001908152602001600020600001601660009054906101000a900473ffffffffffffffffffffffffffffffffffffffff1673ffffffffffffffffffffffffffffffffffffffff16633b7a5d7e89600d6000600e60008f8152602001908152602001600020600101548152602001908152602001600020600001548a6040518463ffffffff1660e01b8152600401808060200184815260200180602001838103835286818151815260200191508051906020019080838360005b838110156132c45780820151818401526020810190506132a9565b50505050905090810190601f1680156132f15780820380516001836020036101000a031916815260200191505b50838103825284818151815260200191508051906020019080838360005b8381101561332a57808201518184015260208101905061330f565b50505050905090810190601f1680156133575780820380516001836020036101000a031916815260200191505b5095505050505050600060405180830381600087803b15801561337957600080fd5b505af115801561338d573d6000803e3d6000fd5b505050506040513d6000823e3d601f19601f8201168201806040525060208110156133b757600080fd5b81019080805160405193929190846401000000008211156133d757600080fd5b838201915060208201858111156133ed57600080fd5b825186600182028301116401000000008211171561340a57600080fd5b8083526020830192505050908051906020019080838360005b8381101561343e578082015181840152602081019050613423565b50505050905090810190601f16801561346b5780820380516001836020036101000a031916815260200191505b506040525050506040518463ffffffff1660e01b815260040180806020018060200180602001848103845287818151815260200191508051906020019080838360005b838110156134c95780820151818401526020810190506134ae565b50505050905090810190601f1680156134f65780820380516001836020036101000a031916815260200191505b508481038352868181546001816001161561010002031660029004815260200191508054600181600116156101000203166002900480156135785780601f1061354d57610100808354040283529160200191613578565b820191906000526020600020905b81548152906001019060200180831161355b57829003601f168201915b5050848103825285818151815260200191508051906020019080838360005b838110156135b2578082015181840152602081019050613597565b50505050905090810190601f1680156135df5780820380516001836020036101000a031916815260200191505b509650505050505050602060405180830381600087803b15801561360257600080fd5b505af1158015613616573d6000803e3d6000fd5b505050506040513d602081101561362c57600080fd5b810190808051906020019092919050505091505050505050565b60075481565b61365461516c565b73ffffffffffffffffffffffffffffffffffffffff166136726139b3565b73ffffffffffffffffffffffffffffffffffffffff16146136fb576040517f08c379a00000000000000000000000000000000000000000000000000000000081526004018080602001828103825260208152602001807f4f776e61626c653a2063616c6c6572206973206e6f7420746865206f776e657281525060200191505060405180910390fd5b600073ffffffffffffffffffffffffffffffffffffffff166000809054906101000a900473ffffffffffffffffffffffffffffffffffffffff1673ffffffffffffffffffffffffffffffffffffffff167f8be0079c531659141344cd1fd0a4f28419497f9722a3daafe3b4186f6b6457e060405160405180910390a360008060006101000a81548173ffffffffffffffffffffffffffffffffffffffff021916908373ffffffffffffffffffffffffffffffffffffffff160217905550565b6011602052806000526040600020600091509050806000015490806001015490806002018054600181600116156101000203166002900480601f0160208091040260200160405190810160405280929190818152602001828054600181600116156101000203166002900480156138725780601f1061384757610100808354040283529160200191613872565b820191906000526020600020905b81548152906001019060200180831161385557829003601f168201915b5050505050905083565b600c5481565b61388a61516c565b73ffffffffffffffffffffffffffffffffffffffff166138a86139b3565b73ffffffffffffffffffffffffffffffffffffffff1614613931576040517f08c379a00000000000000000000000000000000000000000000000000000000081526004018080602001828103825260208152602001807f4f776e61626c653a2063616c6c6572206973206e6f7420746865206f776e657281525060200191505060405180910390fd5b80602160008473ffffffffffffffffffffffffffffffffffffffff1673ffffffffffffffffffffffffffffffffffffffff16815260200190815260200160002060006101000a81548173ffffffffffffffffffffffffffffffffffffffff021916908373ffffffffffffffffffffffffffffffffffffffff1602179055505050565b60008060009054906101000a900473ffffffffffffffffffffffffffffffffffffffff16905090565b60007f6100000000000000000000000000000000000000000000000000000000000000905090565b60008082601b60008673ffffffffffffffffffffffffffffffffffffffff1673ffffffffffffffffffffffffffffffffffffffff1681526020019081526020016000206001015401905080601b60008673ffffffffffffffffffffffffffffffffffffffff1673ffffffffffffffffffffffffffffffffffffffff1681526020019081526020016000206001018190555082601e5401601e819055508091505092915050565b600080613ab5615174565b90508073ffffffffffffffffffffffffffffffffffffffff1663a9059cbb601760009054906101000a900473ffffffffffffffffffffffffffffffffffffffff168373ffffffffffffffffffffffffffffffffffffffff166370a08231306040518263ffffffff1660e01b8152600401808273ffffffffffffffffffffffffffffffffffffffff1673ffffffffffffffffffffffffffffffffffffffff16815260200191505060206040518083038186803b158015613b7357600080fd5b505afa158015613b87573d6000803e3d6000fd5b505050506040513d6020811015613b9d57600080fd5b81019080805190602001909291905050506040518363ffffffff1660e01b8152600401808373ffffffffffffffffffffffffffffffffffffffff1673ffffffffffffffffffffffffffffffffffffffff16815260200182815260200192505050602060405180830381600087803b158015613c1757600080fd5b505af1158015613c2b573d6000803e3d6000fd5b505050506040513d6020811015613c4157600080fd5b8101908080519060200190929190505050613cc4576040517f08c379a00000000000000000000000000000000000000000000000000000000081526004018080602001828103825260128152602001807f556e61626c6520746f207472616e73666572000000000000000000000000000081525060200191505060405180910390fd5b601860009054906101000a900473ffffffffffffffffffffffffffffffffffffffff1673ffffffffffffffffffffffffffffffffffffffff1663dbdff2c16040518163ffffffff1660e01b8152600401602060405180830381600087803b158015613d2e57600080fd5b505af1158015613d42573d6000803e3d6000fd5b505050506040513d6020811015613d5857600080fd5b8101908080519060200190929190505050600b81905550601860009054906101000a900473ffffffffffffffffffffffffffffffffffffffff1673ffffffffffffffffffffffffffffffffffffffff1663edd3159d6040518163ffffffff1660e01b815260040160206040518083038186803b158015613dd757600080fd5b505afa158015613deb573d6000803e3d6000fd5b505050506040513d6020811015613e0157600080fd5b810190808051906020019092919050505091505090565b600080600090506000602060008573ffffffffffffffffffffffffffffffffffffffff1673ffffffffffffffffffffffffffffffffffffffff168152602001908152602001600020541115613ece5760008090505b602280549050811015613ecc57613ebb8460228381548110613e8b57fe5b9060005260206000200160009054906101000a900473ffffffffffffffffffffffffffffffffffffffff16614145565b820191508080600101915050613e6d565b505b80915050919050565b602080528060005260406000206000915090505481565b6000600190505b60038113614098576000600190505b6011600083815260200190815260200160002060010154811361408a5760016002613f2d613aaa565b81613f3457fe5b0701600e600083815260200190815260200160002060000181905550613f6e60016002613f5f613aaa565b81613f6657fe5b070182612803565b6001600754613f7b613aaa565b81613f8257fe5b0701600e6000838152602001908152602001600020600101819055506000600e60008381526020019081526020016000206002018190555081600e6000838152602001908152602001600020600301819055506010600060018152602001908152602001600020600e6000838152602001908152602001600020600401908054600181600116156101000203166002900461401e9291906151cb565b506000600e600083815260200190815260200160002060050160006101000a81548160ff0219169083151502179055506000600e600083815260200190815260200160002060050160016101000a81548160ff0219169083151502179055508080600101915050613f04565b508080600101915050613ef5565b50565b6000601660009054906101000a900473ffffffffffffffffffffffffffffffffffffffff1673ffffffffffffffffffffffffffffffffffffffff1663c67bbc246040518163ffffffff1660e01b815260040160206040518083038186803b15801561410557600080fd5b505afa158015614119573d6000803e3d6000fd5b505050506040513d602081101561412f57600080fd5b8101908080519060200190929190505050905090565b600080602060008573ffffffffffffffffffffffffffffffffffffffff1673ffffffffffffffffffffffffffffffffffffffff16815260200190815260200160002054116141965760009050614231565b670de0b6b3a76400006141a8836144f2565b601f60008573ffffffffffffffffffffffffffffffffffffffff1673ffffffffffffffffffffffffffffffffffffffff16815260200190815260200160002060008673ffffffffffffffffffffffffffffffffffffffff1673ffffffffffffffffffffffffffffffffffffffff16815260200190815260200160002054028161422d57fe5b0490505b92915050565b6000614241615174565b90508073ffffffffffffffffffffffffffffffffffffffff1663a9059cbb601360009054906101000a900473ffffffffffffffffffffffffffffffffffffffff168373ffffffffffffffffffffffffffffffffffffffff166370a08231306040518263ffffffff1660e01b8152600401808273ffffffffffffffffffffffffffffffffffffffff1673ffffffffffffffffffffffffffffffffffffffff16815260200191505060206040518083038186803b1580156142ff57600080fd5b505afa158015614313573d6000803e3d6000fd5b505050506040513d602081101561432957600080fd5b81019080805190602001909291905050506040518363ffffffff1660e01b8152600401808373ffffffffffffffffffffffffffffffffffffffff1673ffffffffffffffffffffffffffffffffffffffff16815260200182815260200192505050602060405180830381600087803b1580156143a357600080fd5b505af11580156143b7573d6000803e3d6000fd5b505050506040513d60208110156143cd57600080fd5b8101908080519060200190929190505050614450576040517f08c379a00000000000000000000000000000000000000000000000000000000081526004018080602001828103825260128152602001807f556e61626c6520746f207472616e73666572000000000000000000000000000081525060200191505060405180910390fd5b601460009054906101000a900473ffffffffffffffffffffffffffffffffffffffff1673ffffffffffffffffffffffffffffffffffffffff16632b8dc6ff6007546040518263ffffffff1660e01b815260040180828152602001915050600060405180830381600087803b1580156144c757600080fd5b505af11580156144db573d6000803e3d6000fd5b5050505050565b6000601e54905090565b600b5481565b600080602160008473ffffffffffffffffffffffffffffffffffffffff1673ffffffffffffffffffffffffffffffffffffffff16815260200190815260200160002060009054906101000a900473ffffffffffffffffffffffffffffffffffffffff169050600081905060008060008060008573ffffffffffffffffffffffffffffffffffffffff1663feaf968c6040518163ffffffff1660e01b815260040160a06040518083038186803b1580156145aa57600080fd5b505afa1580156145be573d6000803e3d6000fd5b505050506040513d60a08110156145d457600080fd5b8101908080519060200190929190805190602001909291908051906020019092919080519060200190929190805190602001909291905050509450945094509450945083975050505050505050919050565b600e602052806000526040600020600091509050806000015490806001015490806002015490806003015490806004018054600181600116156101000203166002900480601f0160208091040260200160405190810160405280929190818152602001828054600181600116156101000203166002900480156146ea5780601f106146bf576101008083540402835291602001916146ea565b820191906000526020600020905b8154815290600101906020018083116146cd57829003601f168201915b5050505050908060050160009054906101000a900460ff16908060050160019054906101000a900460ff16905087565b600d602052806000526040600020600091509050806000015490806001015490806002015490806003015490806004015490806005018054600181600116156101000203166002900480601f0160208091040260200160405190810160405280929190818152602001828054600181600116156101000203166002900480156147e45780601f106147b9576101008083540402835291602001916147e4565b820191906000526020600020905b8154815290600101906020018083116147c757829003601f168201915b5050505050905086565b6000600190505b6007548113614d8957601460009054906101000a900473ffffffffffffffffffffffffffffffffffffffff1673ffffffffffffffffffffffffffffffffffffffff166303b60331826040518263ffffffff1660e01b81526004018082815260200191505060206040518083038186803b15801561487157600080fd5b505afa158015614885573d6000803e3d6000fd5b505050506040513d602081101561489b57600080fd5b8101908080519060200190929190505050600d600083815260200190815260200160002060000181905550601460009054906101000a900473ffffffffffffffffffffffffffffffffffffffff1673ffffffffffffffffffffffffffffffffffffffff1663f771044a826040518263ffffffff1660e01b81526004018082815260200191505060206040518083038186803b15801561493957600080fd5b505afa15801561494d573d6000803e3d6000fd5b505050506040513d602081101561496357600080fd5b8101908080519060200190929190505050600d600083815260200190815260200160002060010181905550601460009054906101000a900473ffffffffffffffffffffffffffffffffffffffff1673ffffffffffffffffffffffffffffffffffffffff166319eb4d4d826040518263ffffffff1660e01b81526004018082815260200191505060206040518083038186803b158015614a0157600080fd5b505afa158015614a15573d6000803e3d6000fd5b505050506040513d6020811015614a2b57600080fd5b8101908080519060200190929190505050600d600083815260200190815260200160002060020181905550601460009054906101000a900473ffffffffffffffffffffffffffffffffffffffff1673ffffffffffffffffffffffffffffffffffffffff1663ebab4ffe826040518263ffffffff1660e01b81526004018082815260200191505060206040518083038186803b158015614ac957600080fd5b505afa158015614add573d6000803e3d6000fd5b505050506040513d6020811015614af357600080fd5b8101908080519060200190929190505050600d600083815260200190815260200160002060030181905550601460009054906101000a900473ffffffffffffffffffffffffffffffffffffffff1673ffffffffffffffffffffffffffffffffffffffff1663f4f20d7a826040518263ffffffff1660e01b81526004018082815260200191505060206040518083038186803b158015614b9157600080fd5b505afa158015614ba5573d6000803e3d6000fd5b505050506040513d6020811015614bbb57600080fd5b8101908080519060200190929190505050600d600083815260200190815260200160002060040181905550601460009054906101000a900473ffffffffffffffffffffffffffffffffffffffff1673ffffffffffffffffffffffffffffffffffffffff16631fd038b5826040518263ffffffff1660e01b81526004018082815260200191505060006040518083038186803b158015614c5957600080fd5b505afa158015614c6d573d6000803e3d6000fd5b505050506040513d6000823e3d601f19601f820116820180604052506020811015614c9757600080fd5b8101908080516040519392919084640100000000821115614cb757600080fd5b83820191506020820185811115614ccd57600080fd5b8251866001820283011164010000000082111715614cea57600080fd5b8083526020830192505050908051906020019080838360005b83811015614d1e578082015181840152602081019050614d03565b50505050905090810190601f168015614d4b5780820380516001836020036101000a031916815260200191505b50604052505050600d60008381526020019081526020016000206005019080519060200190614d7b929190615252565b5080806001019150506147f5565b50565b614d9461516c565b73ffffffffffffffffffffffffffffffffffffffff16614db26139b3565b73ffffffffffffffffffffffffffffffffffffffff1614614e3b576040517f08c379a00000000000000000000000000000000000000000000000000000000081526004018080602001828103825260208152602001807f4f776e61626c653a2063616c6c6572206973206e6f7420746865206f776e657281525060200191505060405180910390fd5b600073ffffffffffffffffffffffffffffffffffffffff168173ffffffffffffffffffffffffffffffffffffffff161415614ec1576040517f08c379a00000000000000000000000000000000000000000000000000000000081526004018080602001828103825260268152602001806153866026913960400191505060405180910390fd5b8073ffffffffffffffffffffffffffffffffffffffff166000809054906101000a900473ffffffffffffffffffffffffffffffffffffffff1673ffffffffffffffffffffffffffffffffffffffff167f8be0079c531659141344cd1fd0a4f28419497f9722a3daafe3b4186f6b6457e060405160405180910390a3806000806101000a81548173ffffffffffffffffffffffffffffffffffffffff021916908373ffffffffffffffffffffffffffffffffffffffff16021790555050565b600080600090505b602280549050811015615016578273ffffffffffffffffffffffffffffffffffffffff1660228281548110614fb857fe5b9060005260206000200160009054906101000a900473ffffffffffffffffffffffffffffffffffffffff1673ffffffffffffffffffffffffffffffffffffffff16141561500957600191505061501c565b8080600101915050614f87565b50600090505b919050565b6023818154811061502e57fe5b906000526020600020016000915054906101000a900473ffffffffffffffffffffffffffffffffffffffff1681565b6000601f60008373ffffffffffffffffffffffffffffffffffffffff1673ffffffffffffffffffffffffffffffffffffffff16815260200190815260200160002060008473ffffffffffffffffffffffffffffffffffffffff1673ffffffffffffffffffffffffffffffffffffffff1681526020019081526020016000205411615168576001602060008473ffffffffffffffffffffffffffffffffffffffff1673ffffffffffffffffffffffffffffffffffffffff1681526020019081526020016000205401602060008473ffffffffffffffffffffffffffffffffffffffff1673ffffffffffffffffffffffffffffffffffffffff168152602001908152602001600020819055505b5050565b600033905090565b6000600360009054906101000a900473ffffffffffffffffffffffffffffffffffffffff16905090565b60405180608001604052806004905b6151b56152d2565b8152602001906001900390816151ad5790505090565b828054600181600116156101000203166002900490600052602060002090601f016020900481019282601f106152045780548555615241565b8280016001018555821561524157600052602060002091601f016020900482015b82811115615240578254825591600101919060010190615225565b5b50905061524e9190615324565b5090565b828054600181600116156101000203166002900490600052602060002090601f016020900481019282601f1061529357805160ff19168380011785556152c1565b828001600101855582156152c1579182015b828111156152c05782518255916020019190600101906152a5565b5b5090506152ce9190615324565b5090565b6040518061012001604052806000815260200160008019168152602001606081526020016060815260200160008152602001606081526020016060815260200160008019168152602001600081525090565b61534691905b8082111561534257600081600090555060010161532a565b5090565b9056fe68747470733a2f2f6d696e2d6170692e63727970746f636f6d706172652e636f6d2f646174612f70726963656d756c746966756c6c3f6673796d733d4f776e61626c653a206e6577206f776e657220697320746865207a65726f2061646472657373a2646970667358221220e2c868b70161349bc1085a7aff1331fb19ef9e22145e664514d39d0e1d9431ee64736f6c63430006060033477565737320746865207365636f6e642064696769742061667465722074686520646563696d616c20706f696e7447756573732072656d61696e646572206f6620766f6c756d6520646976696465642062792033",
  "immutableReferences": {},
  "source": "pragma solidity ^0.6.0;\n// pragma experimental ABIEncoderV2;\n\nimport \"@nomiclabs/buidler/console.sol\";\nimport \"@openzeppelin/contracts/token/ERC20/IERC20.sol\";\nimport \"@openzeppelin/contracts/access/Ownable.sol\";\nimport \"@chainlink/contracts/src/v0.6/interfaces/AggregatorV3Interface.sol\";\n\nimport \"./AddGameInfo.sol\";\n\n// interface AddGameInfoInterface {\n//     function returnGameInfo() external view returns (bytes32);\n// }\ncontract TokenFarm is Ownable, AddGameInfo {\n    // string public name = \"Dapp Token Farm\";\n    string public name = \"Crypto Gas Earning\";\n    IERC20 public dappToken;\n\n    struct UserGameInfo {\n        uint256 gameId; // game id\n        uint8 answerId; // answer chosen by user\n        uint256 amount; // bet amount on this game\n        bool isCorrect;\n        bool isNotified; // has notified result to the user\n    }\n\n    struct UserData {\n        address addr; // user wallet address\n        uint256 balance; // user balance stored in the contract, including ones in the games\n        mapping(uint256 => UserGameInfo) gameInfoStructs;\n    }\n\n    // UserData Map\n    mapping(address => UserData) public userDataStructs;\n    mapping(address => mapping(uint256 => UserGameInfo)) public userGameStructs;\n    mapping(address => bool) public userList;\n    uint256 totalContractBalance;\n\n    /* Get user's available balance */\n    function getUserBalance(address addr) public returns (uint256) {\n        if (!userList[addr]) {\n            userDataStructs[addr].addr = addr;\n            userList[addr] = true;\n        }\n        return 100;\n    }\n\n    /* load balance from user's address to contract */\n    function reloadBalance(address addr, uint256 amount)\n        public\n        returns (uint256)\n    {\n        uint256 total = userDataStructs[addr].balance + amount;\n        userDataStructs[addr].balance = total;\n        totalContractBalance = totalContractBalance + amount;\n        return total;\n    }\n\n    /* withdraw balance from contract to user's balance */\n    function withdrawBalance(address addr, uint256 amount)\n        public\n        returns (uint256)\n    {\n        uint256 remainding = userDataStructs[addr].balance - amount;\n        if (remainding >= 0) {\n            userDataStructs[addr].balance = remainding;\n            totalContractBalance = totalContractBalance - amount;\n        }\n        return remainding;\n    }\n\n    function getTotalContractBalance()\n        public\n        returns (uint256 contractBalance)\n    {\n        return totalContractBalance;\n    }\n\n    /* Check if user is currently participating in a game */\n    function getUserGameInfo(address addr, uint256 gameId)\n        public\n        view\n        returns (uint8 answerId, uint256 amount)\n    {\n        return (\n            userDataStructs[addr].gameInfoStructs[gameId].answerId,\n            userDataStructs[addr].gameInfoStructs[gameId].amount\n        );\n    }\n\n    /* When user register to participate in a game */\n    function addGameInfoToUserData(\n        address addr,\n        uint256 gameId,\n        uint8 answerId,\n        uint256 amount\n    ) public returns (bool success) {\n        if (userDataStructs[addr].balance >= amount) {\n            userDataStructs[addr].balance =\n                userDataStructs[addr].balance -\n                amount;\n            userDataStructs[addr].gameInfoStructs[gameId].gameId = gameId;\n            userDataStructs[addr].gameInfoStructs[gameId].answerId = answerId;\n            userDataStructs[addr].gameInfoStructs[gameId].amount = amount;\n            userDataStructs[addr].gameInfoStructs[gameId].isCorrect = false;\n            userDataStructs[addr].gameInfoStructs[gameId].isNotified = false;\n            return true;\n        }\n        return false;\n    }\n\n    // issueReward\n\n    // Deposit Balance (stakeToken -> Deposit tokan)\n    function stakeTokens(uint256 amount, address tokenAddress) public {\n        require(amount > 0, \"Amount cannot be 0\");\n        // only allow certain token to be deposit\n        if (isTokenAllowed(tokenAddress)) {\n            updateUniqueTokensStake(msg.sender, tokenAddress);\n\n            // token flow: user address to smart contract\n            // because contract does not own the token, use TransferFrom\n            IERC20(tokenAddress).transferFrom(\n                msg.sender,\n                address(this),\n                amount\n            );\n\n            // get the original/current balance and add in the new stake amount\n            stakingBalance[tokenAddress][msg.sender] =\n                stakingBalance[tokenAddress][msg.sender] +\n                amount;\n\n            // New staker\n            if (uniqueTokensStaked[msg.sender] == 1) {\n                stakers.push(msg.sender);\n            }\n        }\n    }\n\n    // token addresses -> mapping of user address -> amounts\n    // **need to change it to have more info\n    mapping(address => mapping(address => uint256)) public stakingBalance;\n    //\n    mapping(address => uint256) public uniqueTokensStaked;\n    //\n    mapping(address => address) public tokenPriceFeedMapping;\n\n    // store: token allowed to be deposit\n    address[] allowedTokens;\n\n    // store all the stakers\n    address[] public stakers;\n\n    constructor(address _dappTokenAddress) public {\n        // interface to set ERC20\n        dappToken = IERC20(_dappTokenAddress);\n    }\n\n    // Withdraw Balance (unstakeTokens -> Withdraw token)\n    function unstakeTokens(address token) public {\n        uint256 balance = stakingBalance[token][msg.sender];\n        require(balance > 0, \"Staking balance cannot be 0\");\n\n        // token flow: contract to user address\n        // because contract DOES  own the token, use Transfer\n        IERC20(token).transfer(msg.sender, balance);\n\n        // withdraw all balance\n        stakingBalance[token][msg.sender] = 0;\n        uniqueTokensStaked[msg.sender] = uniqueTokensStaked[msg.sender] - 1;\n    }\n\n    // Issue Rewards (issueTokens -> Issue Rewards)\n    function issueTokens() public onlyOwner {\n        for (\n            uint256 stakersIndex = 0;\n            stakersIndex < stakers.length;\n            stakersIndex++\n        ) {\n            address recipient = stakers[stakersIndex];\n            dappToken.transfer(recipient, getUserTotalValue(recipient));\n        }\n    }\n\n    function setPriceFeedContract(address token, address priceFeed)\n        public\n        onlyOwner\n    {\n        tokenPriceFeedMapping[token] = priceFeed;\n    }\n\n    function updateUniqueTokensStake(address user, address token) internal {\n        if (stakingBalance[token][user] <= 0) {\n            uniqueTokensStaked[user] = uniqueTokensStaked[user] + 1;\n        }\n    }\n\n    // Checking if the token user's sending is valid for our app\n    // update it to mapping so less gas will be charged\n    function isTokenAllowed(address token) public returns (bool) {\n        for (\n            uint256 allowedTokensIndex = 0;\n            allowedTokensIndex < allowedTokens.length;\n            allowedTokensIndex++\n        ) {\n            if (allowedTokens[allowedTokensIndex] == token) {\n                return true;\n            }\n        }\n        return false;\n    }\n\n    // Add allowed tokens (can only be modified/called by the onwer)\n    function addAllowedTokens(address token) public onlyOwner {\n        allowedTokens.push(token);\n        // allowedTokens[token]=true; for mapping\n    }\n\n    function getUserTotalValue(address user) public view returns (uint256) {\n        uint256 totalValue = 0;\n        if (uniqueTokensStaked[user] > 0) {\n            for (\n                uint256 allowedTokensIndex = 0;\n                allowedTokensIndex < allowedTokens.length;\n                allowedTokensIndex++\n            ) {\n                totalValue =\n                    totalValue +\n                    getUserStakingBalanceEthValue(\n                        user,\n                        allowedTokens[allowedTokensIndex]\n                    );\n            }\n        }\n        return totalValue;\n    }\n\n    function getUserStakingBalanceEthValue(address user, address token)\n        public\n        view\n        returns (uint256)\n    {\n        // user does not have token\n        if (uniqueTokensStaked[user] <= 0) {\n            return 0;\n        }\n        return\n            (stakingBalance[token][user] * getTokenEthPrice(token)) / (10**18);\n    }\n\n    function getTokenEthPrice(address token) public view returns (uint256) {\n        address priceFeedAddress = tokenPriceFeedMapping[token];\n        AggregatorV3Interface priceFeed =\n            AggregatorV3Interface(priceFeedAddress);\n        (\n            uint80 roundID,\n            int256 price,\n            uint256 startedAt,\n            uint256 timeStamp,\n            uint80 answerdInRound\n        ) = priceFeed.latestRoundData();\n        return uint256(price);\n    }\n\n    function getGameInfoList() public view returns (bytes32) {\n        return \"a\";\n    }\n}\n",
  "sourcePath": "/Users/derekchou/Desktop/crypto/guess_get_gas/contracts/TokenFarm.sol",
  "compiler": {
    "name": "solc",
    "version": "0.6.6+commit.6c089d02.Emscripten.clang"
  },
  "schemaVersion": "3.3.4",
  "updatedAt": "2021-04-10T13:00:14.536Z",
  "networkType": "ethereum",
  "devdoc": {
    "methods": {
      "owner()": {
        "details": "Returns the address of the current owner."
      },
      "renounceOwnership()": {
        "details": "Leaves the contract without owner. It will not be possible to call `onlyOwner` functions anymore. Can only be called by the current owner.     * NOTE: Renouncing ownership will leave the contract without an owner, thereby removing any functionality that is only available to the owner."
      },
      "transferOwnership(address)": {
        "details": "Transfers ownership of the contract to a new account (`newOwner`). Can only be called by the current owner."
      }
    }
  },
  "userdoc": {
    "methods": {}
  }
}